:020000040800F2
:1000000000000220CD040008B1040008B304000879
:10001000B5040008B7040008B90400080000000097
:10002000000000000000000000000000BB04000809
:10003000BD04000800000000BF040008C10400085F
:100040001D0500081D0500081D0500081D05000808
:100050001D0500081D0500081D0500081D050008F8
:100060001D0500081D0500081D0500081D050008E8
:100070001D0500081D0500081D0500081D050008D8
:100080001D0500081D0500081D05000800000000F2
:100090000000000000000000000000001D05000836
:1000A0001D0500081D0500081D0500081D050008A8
:1000B0001D0500081D0500081D0500081D05000898
:1000C0001D0500081D0500081D0500081D05000888
:1000D0001D0500081D0500081D05000800000000A2
:1000E0001D0500081D0500081D0500080000000092
:1000F0000000000000000000000000001D050008D6
:10010000000000001D0500081D0500081D05000871
:1001100000000000000000000000000000000000DF
:100120001D0500081D0500081D0500081D05000827
:100130001D05000800000000000000000000000095
:100140000000000000000000000000001D05000885
:100150001D0500081D0500081D0500081D050008F7
:100160001D0500081D05000800000000000000003B
:10017000000000000000000000000000000000007F
:10018000000000001D050008000000000000000045
:080190001D0500081D05000813
:1001980053B94AB9002908BF00281CBF4FF0FF31E6
:1001A8004FF0FF3000F00CB8ADF1080C6DE904CE4B
:1001B80000F072FFDDF804E0DDE9022304B07047C7
:1001C800704700BF0348044B834202D0034B03B17E
:1001D80018477047100000201000002000000000A1
:1001E8000548064B1B1AD90F01EBA301491002D091
:1001F800034B03B11847704710000020100000207F
:100208000000000010B5064C237843B9FFF7DAFF69
:10021800044B13B10448AFF300800123237010BDD1
:1002280010000020000000002815000808B5054B44
:100238001BB105490548AFF30080BDE80840FFF74A
:10024800CFBF00BF000000001400002028150008E0
:1002580030B58BB00024059406940794089409944B
:100268000194224B1A6B42F004021A631A6B02F0D3
:1002780004020192019A02941A6B42F080021A63F6
:100288001A6B02F080020292029A03941A6B42F0EF
:1002980001021A631A6B02F001020392039A049492
:1002A8001A6B42F002021A631B6B03F002030493F9
:1002B800049B0F4D22462021284600F0E5FA4FF412
:1002C800005305934FF404130693079405A90948AE
:1002D80000F0F2F92023059301230693079408946C
:1002E80005A9284600F0E8F90BB030BD00380240F7
:1002F800000002400008024072B6FEE708B50A484E
:100308000A4B03604FF4E133436000238360C3600A
:1003180003610C2242618361C36100F08DFE00B964
:1003280008BDFFF7E9FF00BF2C0000200044004093
:1003380000B595B03022002108A801F00BF8002381
:100348000393049305930693079301931E4A116C34
:1003580041F080511164126C02F080520192019AAE
:1003680002931A4A116841F440411160126802F47C
:1003780040420292029A0222089201210B91102116
:100388000C910E920F93082310933223119312921B
:100398000423139308A800F087FA88B90F2303935E
:1003A80002230493802305934FF48053069300217E
:1003B800079103A800F0E2FC20B915B05DF804FB32
:1003C800FFF79AFFFFF798FF0038024000700040DF
:1003D80008B500F0C7F8FFF7ABFFFFF739FFFFF7E5
:1003E8008DFF2021034800F055FA4FF4FA6000F021
:1003F800E5F8F6E70000024000B583B0002100915F
:100408000C4B5A6C42F480425A645A6C02F4804293
:100418000092009A01911A6C42F080521A641B6C87
:1004280003F080530193019B072000F00FF903B0FC
:100438005DF804FB0038024000B589B0002303933F
:1004480004930593069307930268154B9A4202D0CA
:1004580009B05DF804FB0021019103F5FA331A6C29
:1004680042F400321A641A6C02F400320192019AC2
:1004780002911A6B42F001021A631B6B03F001032D
:100488000293029B0C2303930223049303230693F2
:100498000723079303A9034800F00EF9D8E700BF24
:1004A8000044004000000240FEE7FEE7FEE7FEE7EA
:1004B800FEE770477047704708B500F06DF808BD53
:1004C80070470000DFF834D00D480E490E4A00236B
:1004D80002E0D458C4500433C4188C42F9D30B4AF0
:1004E8000B4C002301E013600432A242FBD3FFF758
:1004F800E7FF00F081FFFFF76BFF70470000022065
:1005080000000020100000206C15000810000020DA
:100518000C020020FEE7000010B504460E4B1A78C6
:100528004FF47A73B3FBF2F30C4A1068B0FBF3F0A4
:1005380000F0AEF868B90F2C01D901200AE00022BA
:1005480021464FF0FF3000F093F8054B1C60002067
:1005580000E0012010BD00BF0400002000000020C2
:100568000800002008B50B4B1A6842F400721A60A4
:100578001A6842F480621A601A6842F480721A603B
:10058800032000F063F80020FFF7C6FFFFF734FFF1
:10059800002008BD003C0240034A1168034B1B7849
:1005A8000B441360704700BF700000200400002057
:1005B800014B1868704700BF7000002038B504462A
:1005C800FFF7F6FF0546B4F1FF3F02D0044B1B7856
:1005D8001C44FFF7EDFF401BA042FAD338BD00BF13
:1005E80004000020002808DB0901C9B200F16040BE
:1005F80000F5614080F80013704700F00F00090112
:10060800C9B2014B1954704714ED00E000B500F071
:100618000700C0F1070CBCF1040F28BF4FF0040C11
:10062800031D062B0FD9C31E4FF0FF3E0EFA0CF028
:1006380021EA000199400EFA03FE22EA0E0241EA7D
:1006480002005DF804FB0023EEE70000074AD368C8
:1006580023F4E0631B041B0C000200F4E060034376
:1006680043F0BF6343F40033D360704700ED00E00C
:1006780010B50446054BD868C0F30220FFF7C6FF43
:1006880001462046FFF7AEFF10BD00BF00ED00E0B9
:100698000138B0F1807F0BD24FF0E0235861054A52
:1006A800F02182F823100020986107221A61704710
:1006B8000120704700ED00E000230F2B00F2DA80E4
:1006C80030B583B068E085684FEA430E032404FA26
:1006D8000EF425EA0405CC6804FA0EF42C43846071
:1006E800446824EA02044A68C2F300129A4022438A
:1006F80042605FE0DC08083450F8242003F0070566
:10070800AD004FF00F0E0EFA05FE22EA0E0E0A6932
:10071800AA4042EA0E0240F824205FE0042200E0EA
:10072800002202FA0EF22A430234534D45F82420DF
:10073800524A94686FEA0C0224EA0C05D1F804E0E6
:100748001EF4801F01D04CEA04054C4CA560E468F7
:1007580002EA0405D1F804E01EF4001F01D04CEAB7
:100768000405464CE560646802EA0405D1F804E033
:100778001EF4003F01D04CEA0405404C6560246833
:1007880022404D6815F4803F01D04CEA04023B4CEE
:10079800226001330F2B6BD801229A400C6804EABF
:1007A800020C32EA0404F4D14C6804F00304013C5E
:1007B800012C88D94A6802F00302032A09D0C468C8
:1007C8005D000322AA4024EA02048A68AA40224360
:1007D800C2604A6802F00302022A8BD004684FEA1A
:1007E800430E032202FA0EF224EA02044A6802F0D7
:1007F800030202FA0EF2224302604A6812F4403FF2
:10080800C7D0002201921E4A546C44F480445464B8
:10081800526C02F480420192019A9C08A51C164A67
:1008280052F8255003F0030E4FEA8E0E0F2202FAFB
:100838000EF225EA0205134A90423FF471AF02F521
:10084800806290420ED002F5806290420CD002F590
:10085800806290420AD002F5806290423FF45EAF17
:1008680007225EE701225CE702225AE7032258E7E3
:1008780003B030BD704700BF00380140003C014064
:1008880000380240000002400AB181617047090443
:1008980081617047436901EA030221EA030141EAE1
:1008A8000241816170470000002800F0E08170B5C6
:1008B80082B00446036813F0010F3BD09F4B9B683E
:1008C80003F00C03042B2CD09C4B9B6803F00C0307
:1008D800082B21D06368B3F5803F4FD0B3F5A02F24
:1008E80052D0964B1A6822F480321A601A6822F4A1
:1008F80080221A606368002B50D0FFF759FE054626
:100908008E4B1B6813F4003F14D1FFF751FE401BB8
:100918006428F5D90320B1E1884B5B6813F4800F94
:10092800D8D0864B1B6813F4003F03D06368002BB4
:1009380000F09F81236813F0020F54D07F4B9B680F
:1009480013F00C0F3ED07D4B9B6803F00C03082B73
:1009580033D0E368002B68D0794B01221A60FFF787
:1009680027FE0546754B1B6813F0020F54D1FFF79D
:100978001FFE401B0228F5D903207FE16F4A136848
:1009880043F480331360B5E76C4B1A6842F4802255
:100998001A601A6842F480321A60ABE7FFF708FE63
:1009A8000546664B1B6813F4003FC3D0FFF700FEF3
:1009B800401B6428F5D9032060E1604B5B6813F4A1
:1009C800800FC6D15D4B1B6813F0020F03D0E3689C
:1009D800012B40F05081594A136823F0F80321692C
:1009E80043EAC1031360236813F0080F42D0636918
:1009F8006BB3534B0122C3F8802EFFF7D9FD054690
:100A08004E4B5B6F13F0020F34D1FFF7D1FD401B43
:100A18000228F5D9032031E1484A136823F0F80386
:100A2800216943EAC1031360DDE7454B00221A60E0
:100A3800FFF7BEFD0546414B1B6813F0020FD2D0ED
:100A4800FFF7B6FD401B0228F5D9032016E13C4B01
:100A58000022C3F8802EFFF7ABFD0546374B5B6FCE
:100A680013F0020F06D0FFF7A3FD401B0228F5D9AB
:100A7800032003E1236813F0040F77D02F4B1B6C7E
:100A880013F0805F33D1002301932C4B1A6C42F092
:100A980080521A641B6C03F080530193019B01255B
:100AA800284B1B6813F4807F23D0A368012B34D014
:100AB800052B38D0214B1A6F22F001021A671A6FE2
:100AC80022F004021A67A368002B3DD0FFF770FDDF
:100AD80006461A4B1B6F13F0020F46D1FFF768FD4D
:100AE800801B41F288339842F3D90320C6E00025E1
:100AF800D6E7144A136843F480731360FFF758FD70
:100B08000646104B1B6813F4807FCED1FFF750FDCB
:100B1800801B0228F5D90320B0E0084A136F43F080
:100B280001031367CFE7054B1A6F42F004021A67F7
:100B38001A6F42F001021A67C5E700BF0038024089
:100B48000000474200700040FFF732FD0646524B56
:100B58001B6F13F0020F08D0FFF72AFD801B41F22C
:100B680088339842F3D9032088E0EDB9A369002BB4
:100B780000F08380484A926802F00C02082A51D09B
:100B8800022B17D0454B00221A66FFF711FD0446C9
:100B9800414B1B6813F0007F42D0FFF709FD001B93
:100BA8000228F5D9032069E03B4A136C23F08053EF
:100BB8001364DBE7394B00221A66FFF7F9FC054698
:100BC800354B1B6813F0007F06D0FFF7F1FC401B84
:100BD8000228F5D9032051E0E369226A1343626AC7
:100BE80043EA8213A26A5208013A43EA0243E26ADC
:100BF80043EA0263284A5360284B01221A66FFF72A
:100C0800D7FC0446244B1B6813F0007F06D1FFF77E
:100C1800CFFC001B0228F5D903202FE000202DE08F
:100C280000202BE0012B2BD01B4B5B6803F48001C9
:100C3800E269914226D103F03F02216A8A4223D118
:100C4800616A47F6C0721A40B2EB811F1ED103F4E5
:100C58004031A26A5208013AB1EB024F18D103F0B1
:100C68007063E26AB3EB026F14D1002006E0012042
:100C78007047012002E0012000E0002002B070BDB2
:100C88000120FBE70120F9E70120F7E70120F5E75C
:100C98000120F3E70120F1E7003802400000474255
:100CA80008B5334B9B6803F00C03042B5BD0082B6F
:100CB8005BD12F4B5A6802F03F025B6813F4800F38
:100CC8002CD02B4B5868C0F388104FEA401CBCEB63
:100CD800000C6EEB0E0E4FEA8E1343EA9C634FEA4C
:100CE8008C11B1EB0C0163EB0E03DB0043EA51738B
:100CF800C90011EB000C43F10003590200234FEA2D
:100D08004C2041EADC51FFF743FA194B5B68C3F307
:100D1800014301335B00B0FBF3F027E0144B586844
:100D2800C0F388104FEA401CBCEB000C6EEB0E0EB3
:100D38004FEA8E1343EA9C634FEA8C11B1EB0C0126
:100D480063EB0E03DB0043EA5173C90011EB000C9F
:100D580043F10003990200234FEA8C2041EA9C5199
:100D6800FFF716FAD1E7034800E0034808BD00BFC3
:100D78000038024000127A000024F400002800F035
:100D88009B8070B50D4604464F4B1B6803F0070364
:100D98008B4208D2CBB24C4A1370136803F0070396
:100DA8008B4240F08B80236813F0020F17D013F0AA
:100DB800040F04D0454A936843F4E05393602368D2
:100DC80013F0080F04D0414A936843F460439360DA
:100DD8003E4A936823F0F003A1680B4393602368AD
:100DE80013F0010F32D06368012B21D09A1E012A1B
:100DF80025D9364A126812F0020F61D033498A6841
:100E080022F0030213438B60FFF7D2FB06462F4BF9
:100E18009B6803F00C036268B3EB820F16D0FFF7F0
:100E2800C7FB801B41F288339842F0D9032042E087
:100E3800264A126812F4003FE0D101203BE0234A21
:100E4800126812F0007FD9D1012034E01E4B1B68D4
:100E580003F00703AB4207D9EAB21B4B1A701B68B1
:100E680003F00703AB422DD1236813F0040F06D01B
:100E7800164A936823F4E053E1680B4393602368B0
:100E880013F0080F07D0114A936823F460432169CF
:100E980043EAC1039360FFF703FF0C4B9B68C3F35E
:100EA80003130B4AD35CD8400A4B18600A4B1868E6
:100EB800FFF732FB002070BD012070470120FAE7E0
:100EC8000120F8E70120F6E7003C02400038024024
:100ED800481500080000002008000020014B186891
:100EE800704700BF0000002008B5FFF7F7FF044B6C
:100EF8009B68C3F38223034AD35CD84008BD00BF74
:100F0800003802404015000808B5FFF7E7FF044B1A
:100F18009B68C3F34233034AD35CD84008BD00BF83
:100F2800003802404015000810B5044602681369ED
:100F380023F44053C1680B431361836802691A4361
:100F480043691A43C3691A430168CB6823F41643FB
:100F580023F00C031343CB600268536923F44073F6
:100F680081690B4353610368314A934206D002F505
:100F78008062934202D0FFF7B7FF01E0FFF7C4FF9A
:100F8800E369B3F5004F29D00021031849411B1824
:100F980041F10001C90041EA5371DB001818636888
:100FA8004FEA83024FEA937341F10001FFF7F0F82B
:100FB800204AA2FB00314909642303FB11031B01EA
:100FC8003233A2FB03235B0903F0F00202EB0112A8
:100FD80003F00F03216813448B6010BD002302182F
:100FE80043EB0301121841F10001C90041EA5271B3
:100FF800D200101841F10001626892185B41FFF7B6
:10100800C7F80C4AA2FB00314909642303FB11030A
:10101800DB003233A2FB03235B095A0002F4F872A7
:1010280002EB011203F00703216813448B60D4E735
:10103800001001401F85EB5158B310B5044690F8D5
:101048003D300BB3242384F83D302268D36823F461
:101058000053D3602046FFF767FF2268136923F423
:10106800904313612268536923F02A03536122686D
:10107800D36843F40053D36000202064202384F80D
:101088003D3084F83E3010BD80F83C30FFF7D4F98D
:10109800D8E70120704700002DE9F047089D0C466D
:1010A800002B4ED194468C458646B2FA82F262D91C
:1010B8004AB1C2F12003914020FA03F30CFA02FC72
:1010C800194300FA02FE4FEA1C471FFA8CF6B1FBDF
:1010D800F7F44FEA1E4307FB141143EA014304FBEC
:1010E80006F199420AD91CEB030304F1FF3080F0A2
:1010F8001381994240F21081023C6344591A1FFA45
:101108008EF3B1FBF7F007FB101143EA014300FB34
:1011180006F69E420AD91CEB030300F1FF3180F06A
:10112800FD809E4240F2FA80634402389B1B40EAED
:10113800044000211DB1D3400022C5E90032BDE8BA
:10114800F0878B4205D90DB1C5E900010021084699
:10115800F5E7B3FA83F1002946D1A34202D39042BE
:10116800C0F0F180861A64EB03030120002DE6D05D
:10117800C5E90063E3E7002A40F09180A1EB0C0485
:101188004FEA1C481FFA8CF70121B4FBF8F64FEA26
:101198001E4308FB164443EA044307FB06F0984243
:1011A80008D91CEB030306F1FF3402D2984200F27F
:1011B800CE8026461C1A1FFA8EF3B4FBF8F008FB03
:1011C800104443EA044300FB07F79F4208D91CEB8D
:1011D800030300F1FF3402D29F4200F2B18020469F
:1011E800DB1B40EA0640A5E7C1F120068B4022FA46
:1011F80006F71F4320FA06FC04FA01F343EA0C033E
:10120800F44000FA01F8380C4FEA1349B4FBF0FE39
:101218001FFA87FC00FB1E4449EA04440EFB0CF944
:10122800A14502FA01F20AD93C190EF1FF3A80F001
:101238008580A14540F28280AEF1020E3C44A4EBC9
:1012480009041FFA83F9B4FBF0F300FB134449EADD
:10125800044403FB0CFCA44507D93C1903F1FF30F7
:1012680068D2A44566D9023B3C4443EA0E40A0FB41
:101278000293A4EB0C049C42CE469C4652D34FD01A
:1012880055B1B8EB0E0364EB0C0404FA06F6CB4038
:10129800CC401E43C5E900640021BDE8F087C2F1D7
:1012A800200320FA03F10CFA02FC24FA03F3944019
:1012B8000C434FEA1C4800FA02FE1FFA8CF7B3FBF6
:1012C800F8F008FB1031230C43EA014300FB07F157
:1012D800994208D91CEB030300F1FF362CD299423E
:1012E8002AD9023863445B1AA4B2B3FBF8F108FBAD
:1012F800113344EA034401FB07F3A34208D91CEB6A
:10130800040401F1FF3613D2A34211D9023964440F
:10131800E41A41EA004138E70446EFE6084605E7E3
:10132800C845ADD2B9EB020E63EB070C0138A7E74D
:101338003146EDE7034698E73046D4E7D6467EE7E0
:10134800634402384CE70646234608460EE7023E49
:1013580063442FE7830730B547D0541E002A3ED098
:10136800CAB2034601E0013C39D303F8012B9D07BB
:10137800F9D1032C2CD9CDB205EB05250F2C05EBA3
:10138800054535D9A4F1100222F00F0C03F1100E17
:10139800E6444FEA121C1A46156055609560D56000
:1013A80010327245F8D10CF1010214F00C0F03EB66
:1013B800021204F00F0C13D0ACF1040323F0030362
:1013C8000433134442F8045B9A42FBD10CF0030443
:1013D8002CB1C9B21C4403F8011B9C42FBD130BD9F
:1013E80064461346002CF4D1F9E703461446C0E7D7
:1013F8001A46A446E0E700BF70B50F4B0F4DAB424D
:10140800A3EB050607D0B610002455F8043B0134B9
:101418009847A642F9D800F083F8094D094B5E1B9E
:10142800AB424FEAA60606D0002455F8043B013427
:101438009847A642F9D870BD6015000860150008E5
:101448006015000868150008704700BF704700BFA6
:10145800024B13B1024800F005B8704700000000C5
:1014680079140008002301461A46184600F014B8FB
:1014780038B5074D074C2C1BA41005D0013C55F876
:10148800043D9847002CF9D1BDE8384000F04EB82B
:101498006C150008681500082DE9F047DFF874A0FE
:1014A8000646DAF8000098460F469146FFF7CCFF4B
:1014B800194B1C6824B365681F2D24DC5EB96B1CAE
:1014C8000235DAF80000636044F82570FFF7BEFFC4
:1014D8000020BDE8F08704EB85010123C1F888905E
:1014E800D4F88821AB401A43022EC4F88821C1F8E9
:1014F8000881E4D1D4F88C211A43C4F88C21DEE7A2
:10150800064C1C60D7E7DAF80000FFF79FFF4FF0A2
:10151800FF30DEE70C000020780000207C0000206F
:10152800F8B500BFF8BC08BC9E467047F8B500BFC8
:08153800F8BC08BC9E46704798
:101540000000000001020304000000000000000091
:0815500001020304060708096B
:0815580048FBFF7F01000000C9
:081560005914000835020008CF
:041568000D02000868
:10156C000024F400010000001000000074000020B2
:04000005080004CD1E
:00000001FF
