:020000040800F2
:100000000000022051090008F1080008F308000868
:10001000F5080008F7080008F908000800000000CB
:100020000000000000000000000000008127000820
:10003000FB0800080000000021280008F523000844
:10004000A1090008A1090008A1090008A1090008E8
:10005000A1090008A1090008A1090008A1090008D8
:10006000A1090008A1090008A1090008A1090008C8
:10007000A1090008A1090008A1090008A1090008B8
:10008000FD0800080D090008A10900080000000093
:10009000000000000000000000000000A1090008AE
:1000A000A10900081D090008A1090008A10900080C
:1000B000A1090008A1090008A1090008A109000878
:1000C000A1090008A1090008A1090008A109000868
:1000D000A1090008A10900082D090008000000007E
:1000E000A1090008A1090008A109000800000000FA
:1000F000000000000000000000000000A10900084E
:1001000000000000A1090008A1090008A1090008D9
:1001100000000000000000000000000000000000DF
:10012000A1090008A1090008A1090008A109000807
:10013000A10900080000000000000000000000000D
:10014000000000000000000000000000A1090008FD
:10015000A1090008A1090008A1090008A1090008D7
:10016000A1090008A109000800000000000000002B
:10017000000000000000000000000000000000007F
:1001800000000000A10900080000000000000000BD
:08019000A1090008A109000803
:1001A00053B94AB9002908BF00281CBF4FF0FF31DE
:1001B0004FF0FF3000F00CB8ADF1080C6DE904CE43
:1001C00004F054F8DDF804E0DDE9022304B07047E0
:1001D000704700BF844641EA000313F003036DD16A
:1001E000403A41D351F8043B40F8043B51F8043BFA
:1001F00040F8043B51F8043B40F8043B51F8043B01
:1002000040F8043B51F8043B40F8043B51F8043BF0
:1002100040F8043B51F8043B40F8043B51F8043BE0
:1002200040F8043B51F8043B40F8043B51F8043BD0
:1002300040F8043B51F8043B40F8043B51F8043BC0
:1002400040F8043B51F8043B40F8043B51F8043BB0
:1002500040F8043B51F8043B40F8043B51F8043BA0
:1002600040F8043B403ABDD2303211D351F8043B40
:1002700040F8043B51F8043B40F8043B51F8043B80
:1002800040F8043B51F8043B40F8043B103AEDD2EF
:100290000C3205D351F8043B40F8043B043AF9D240
:1002A000043208D0D2071CBF11F8013B00F8013B13
:1002B00001D30B8803806046704700BF082A13D320
:1002C0008B078DD010F003038AD0C3F10403D21A38
:1002D000DB071CBF11F8013B00F8013B80D331F86C
:1002E000023B20F8023B7BE7043AD9D3013A11F8EC
:1002F000013B00F8013BF9D20B7803704B78437057
:100300008B788370604670470348044B834202D069
:10031000034B03B11847704714000020140000205D
:10032000000000000548064B1B1AD90F01EBA30182
:10033000491002D0034B03B1184770471400002046
:10034000140000200000000010B5064C237843B9CB
:10035000FFF7DAFF044B13B10448AFF30080012329
:10036000237010BD1400002000000000F4460008B7
:1003700008B5054B1BB105490548AFF30080BDE842
:100380000840FFF7CFBF00BF0000000018000020AA
:10039000F446000830B58BB0002405940694079409
:1003A000089409940194224B1A6B42F004021A63D8
:1003B0001A6B02F004020192019A02941A6B42F045
:1003C00080021A631A6B02F080020292029A03946E
:1003D0001A6B42F001021A631A6B02F001020392D7
:1003E000039A04941A6B42F002021A631B6B03F027
:1003F00002030493049B0F4D22462021284600F05F
:10040000ABFE4FF4005305934FF404130693079487
:1004100005A9094800F0BCFD20230593012306939C
:100420000794089405A9284600F0B2FD0BB030BD32
:1004300000380240000002400008024010B582B0BF
:10044000002401940D4B1A6B42F400121A631B6BCB
:1004500003F400130193019B22460521102000F0B4
:1004600013FB102000F020FB22460521112000F094
:100470000BFB112000F018FB02B010BD0038024049
:1004800008B5074B19784FF48072064B03EB012136
:10049000054801F08BFF012002F044F8FBE700BFA4
:1004A00036000020380000200406002008B5202176
:1004B000014800F057FE08BD00000240174B1B78B2
:1004C00003B9704710B5164B1A78164B03EB02238D
:1004D000154C21684A1C226001221944134801F07E
:1004E0004BFC2368FF2B18D9002222600B4B1A7893
:1004F00002F0FF031AB1094B1B78013BDBB2074A3C
:10050000137007490A780132094B83FB02035B1021
:1005100003EB8303D31ADBB20B7010BD3400002051
:1005200035000020380000203000002004060020A4
:100530006766666608B50268124B1B689A4200D06F
:1005400008BD114801780131104B83FB01C25210E4
:1005500002EB82028A1AD2B202700D490A78013285
:1005600083FB02035B1003EB8303D31ADBB20B7034
:1005700009784FF48072074B03EB0121014801F029
:1005800015FFDDE70406002034000020676666667C
:10059000360000203800002008B50268034B9A425C
:1005A00000D008BD00F018FAFBE700BF00000140D2
:1005B00072B6FEE708B50A480A4B03604FF4E13310
:1005C000436000238360C36003610C224261836146
:1005D000C36101F0A1FB00B908BDFFF7E9FF00BF4F
:1005E000040600200044004000B595B030220021F0
:1005F00008A803F099FF002303930493059306933F
:10060000079301931F4A116C41F080511164126CE1
:1006100002F080520192019A02931B4B1A6842F435
:1006200040421A601B6803F440430293029B01237B
:1006300008934FF4A023099302220E924FF48003F3
:100640000F9304231093642111911292139308A81D
:1006500000F092FD88B90F23039302230493002333
:1006600005934FF4805206920793032103A800F0EC
:10067000EDFF20B915B05DF804FBFFF799FFFFF718
:1006800097FF00BF003802400070004008B500F03E
:1006900089F9FFF7A9FFFFF77DFEFFF7CFFEFFF710
:1006A00089FF01F0B3FE114B00220121104801F037
:1006B00047FF104D2860104B002201210F4801F028
:1006C0003FFF0F4C2060C821286801F08DFF642196
:1006D000206801F089FF0B4A00210B4801F0C4FE9D
:1006E0000A4B186001F0A4FEFEE700BF484700086F
:1006F000AD0400083C05002038470008BD04000890
:1007000038050020584700088104000840050020F3
:1007100000B583B0002200920D4B596C41F480412A
:100720005964596C01F48041009100990192196C4F
:1007300041F0805119641B6C03F080530193019BBD
:100740000F216FF0010000F09FF903B05DF804FB8A
:100750000038024070B588B00023039304930593DA
:10076000069307930268374B9A4201D008B070BDD8
:1007700004460025019503F5FA331A6C42F4003261
:100780001A641A6C02F400320192019A02951A6BF3
:1007900042F001021A631B6B03F001030293029BF8
:1007A0000C2303930223049303260696072307933F
:1007B00003A9254800F0ECFB2448254B03604FF0CB
:1007C000006343608560C5604FF4806303614561E9
:1007D0008561C5610562042343628662C562056363
:1007E00000F0F0F940BB194BA3639C6319481A4B06
:1007F00003604FF000634360402383600023C360C5
:100800004FF48062026143618361C3610362042229
:10081000426203228262C362036300F0D3F970B9BB
:100820000C4B63639C6300220521262000F02CF909
:10083000262000F039F999E7FFF7BAFED3E7FFF772
:10084000B7FEEDE70044004000000240A405002090
:100850008860024044050020A060024030B589B0A5
:100860000546002401941D4B5A6C42F001025A6463
:100870005B6C03F001030193019B02A903A800F044
:10088000BBFF00F0A9FF164AA2FB00239B0C013B13
:100890001448154A026040F2E732C26043600461C6
:1008A0008460846101F014F9044610B1204609B057
:1008B00030BD0C4800F0C0FF04460028F6D11920D6
:1008C00000F0F2F80F2D01D90124EFE700222946AC
:1008D000192000F0D9F8054B1D60E7E70038024009
:1008E00083DE1B4348060020000001400800002072
:1008F000FEE7FEE7FEE7FEE7FEE7704708B50248C1
:1009000000F058FA08BD00BFA405002008B5024851
:1009100000F050FA08BD00BF4405002008B50248A9
:1009200000F0CAFF08BD00BF4806002008B5024815
:1009300001F052FB08BD00BF04060020034AD2F8B4
:10094000883043F47003C2F88830704700ED00E04F
:10095000DFF834D00D480E490E4A002302E0D45887
:10096000C4500433C4188C42F9D30B4A0B4C0023F7
:1009700001E013600432A242FBD3FFF7DFFF03F074
:1009800025FEFFF783FE70470000022000000020D4
:1009900014000020C8470008140000207C510020EB
:1009A000FEE7000008B50B4B1A6842F400721A60AB
:1009B0001A6842F480621A601A6842F480721A60FF
:1009C000032000F04FF80F20FFF748FFFFF7A0FECD
:1009D000002008BD003C0240034A1168034B1B780D
:1009E0000B441360704700BF9006002004000020F5
:1009F000014B1868704700BF90060020002808DBF4
:100A00000901C9B200F1604000F5614080F80013AF
:100A1000704700F00F000901C9B2014B195470472B
:100A200014ED00E000B500F00700C0F1070CBCF1C8
:100A3000040F28BF4FF0040C031D062B0FD9C31E53
:100A40004FF0FF3E0EFA0CF021EA000199400EFA39
:100A500003FE22EA0E0241EA02005DF804FB0023D5
:100A6000EEE70000074AD36823F4E0631B041B0C85
:100A7000000200F4E060034343F0BF6343F400333B
:100A8000D360704700ED00E010B50446054BD86810
:100A9000C0F30220FFF7C6FF01462046FFF7AEFF76
:100AA00010BD00BF00ED00E0002807DB00F01F02D2
:100AB000400901239340024A42F82030704700BFAA
:100AC00000E100E030B405682C6824F480242C6038
:100AD000046863608368402B05D0036899600368ED
:100AE000DA6030BC704703689A600368D960F8E741
:100AF00010B40368D9B210390C4AA2FB01421209A2
:100B00000B4CA25CC2655F2909D923F47F7323F0E3
:100B1000030304338365806D5DF8044B704723F451
:100B20007F7323F003038365F5E700BFABAAAAAA8E
:100B300094470008836A826992B9012B0AD0022B7C
:100B400002D00BB100207047C36A13F0807F28D118
:100B500000207047C36AB3F1C07F24D000207047E3
:100B6000B2F5005F09D0022B25D9032B25D1C36A2A
:100B700013F0807F23D100207047032B03D8DFE8D8
:100B800003F01404140A00207047C36A13F0807F36
:100B90000DD100207047C36AB3F1C07F09D0002097
:100BA00070470120704701207047012070470120E5
:100BB00070470120704701207047002070470120D6
:100BC0007047000070B50446FFF712FF002C5BD0A1
:100BD0000546022384F83530002384F83430226837
:100BE000136823F00103136023681A6812F0010FE1
:100BF0000AD0FFF7FDFE431B052BF5D920236365C3
:100C0000032084F8350070BD1A68204911406268DD
:100C1000A0680243E068024320690243606902431E
:100C2000A0690243E0690243206A02430A43616A01
:100C300004291ED01A602668756925F00705636AC5
:100C40001D43042B07D1A36A1D43E36A1BB1204651
:100C5000FFF770FF90B975612046FFF749FFE26D1D
:100C60003F239340836000206065012384F8353082
:100C7000C9E7E16A206B01430A43DBE74023636570
:100C8000012084F83500BEE70120BCE73F8010F06A
:100C900038B50446856D90F8340001282BD001202A
:100CA00084F8340094F83500C0B2012804D0002341
:100CB00084F83430022038BD022084F8350000204A
:100CC00060652046FFF7FEFEE26D3F239340AB6078
:100CD0002268136843F016031360236C23B1226863
:100CE000136843F0080313602268136843F001039C
:100CF00013600020DFE70220DDE770B50446866D53
:100D0000FFF776FE94F83530DBB2022B06D0802355
:100D10006365002384F83430012070BD05462268E5
:100D2000136823F0160313602268536923F08003CD
:100D30005361236CE3B12268136823F00803136046
:100D40002268136823F00103136023681B6813F003
:100D5000010F11D0FFF74CFE431B052BF5D92023C3
:100D60006365032084F83500002384F83430D4E729
:100D7000A36C002BDFD1E3E7E26D3F239340B36028
:100D8000012384F83530002084F83400C5E790F85A
:100D90003530DBB2022B03D080234365012070473E
:100DA000052380F835300268136823F001031360CF
:100DB00000207047F0B583B0044600230193724BC6
:100DC0001D68724BA3FB0535AD0A876D3E68C26D89
:100DD00008239340334210D003681A6812F0040FBE
:100DE0000BD01A6822F004021A60C26D08239340E7
:100DF000BB60436D43F001034365E26D0123934003
:100E0000334209D02268526912F0800F04D0BB60CF
:100E1000636D43F002036365E26D04239340334244
:100E200009D02268126812F0020F04D0BB60636D13
:100E300043F004036365E26D10239340334224D0F2
:100E40002268126812F0080F1FD0BB6023681A686E
:100E500012F4802F0DD01B6813F4002F04D1236CE3
:100E60009BB12046984710E0A36C73B12046984789
:100E70000BE01A6812F4807F03D11A6822F008028E
:100E80001A60236C0BB120469847E26D20239340F3
:100E9000334255D02268126812F0100F50D0BB6058
:100EA00094F83530DBB2052B0ED023681A6812F4A3
:100EB000802F33D01B6813F4002F2AD1636C002BD2
:100EC0003ED0204698473BE02268136823F0160383
:100ED00013602268536923F080035361236CA3B12C
:100EE0002268136823F008031360E26D3F239340E8
:100EF000BB60012384F83530002384F83430236D3F
:100F0000002B3FD0204698473CE0A36C002BE7D154
:100F1000EBE7E36BA3B12046984711E01A6812F49F
:100F2000807F09D11A6822F010021A60012384F828
:100F30003530002384F83430E36B0BB120469847FA
:100F4000636DFBB1636D13F0010F17D0052384F8B7
:100F500035302268136823F001031360019B0133CD
:100F60000193AB4204D823681B6813F0010FF5D13D
:100F7000012384F83530002384F83430E36C0BB15E
:100F80002046984703B0F0BD00000020B5814E1BFD
:100F900000230F2B00F2D78070B582B065E0856822
:100FA0004FEA430E032404FA0EF425EA0405CC6844
:100FB00004FA0EF42C438460446824EA02044A686C
:100FC000C2F300129A40224342605CE0DC0808341D
:100FD00050F8242003F00705AD004FF00F0E0EFA75
:100FE00005FE22EA0E0E0A69AA4042EA0E0240F805
:100FF00024205CE0042200E0002202FA0EF22A43E0
:101000000234514D45F82420504A94686FEA0C028E
:1010100024EA0C054E6816F4801F01D04CEA040542
:101020004A4CA560E46802EA04054E6816F4001F05
:1010300001D04CEA0405454CE560646802EA040509
:101040004E6816F4003F01D04CEA04053F4C656041
:10105000246822404D6815F4803F01D04CEA040218
:101060003A4C226001330F2B6BD801229A400C6856
:1010700004EA020C32EA0404F4D14C6804F00304DC
:10108000013C012C8BD94A6802F00302032A09D0E3
:10109000C4685D000322AA4024EA02048A68AA40C8
:1010A0002243C2604A6802F00302022A8ED004681A
:1010B0004FEA430E032202FA0EF224EA02044A68BF
:1010C00002F0030202FA0EF2224302604A6812F4AE
:1010D000403FC7D0002201921D4A546C44F4804422
:1010E0005464526C02F480420192019A9C08A51C3F
:1010F000154A52F8255003F0030E4FEA8E0E0F22C8
:1011000002FA0EF225EA0205124A90423FF474AF49
:1011100002F5806290420ED002F5806290420CD0BF
:1011200002F5806290420AD002F5806290423FF45C
:1011300061AF072261E701225FE702225DE7032238
:101140005BE702B070BD704700380140003C0140D1
:1011500000380240000002400AB181617047090472
:1011600081617047436901EA030221EA030141EA10
:101170000241816170470000002800F0E08170B5F5
:1011800082B00446036813F0010F3BD09F4B9B686D
:1011900003F00C03042B2CD09C4B9B6803F00C0336
:1011A000082B21D06368B3F5803F4FD0B3F5A02F53
:1011B00052D0964B1A6822F480321A601A6822F4D0
:1011C00080221A606368002B50D0FFF711FC05469F
:1011D0008E4B1B6813F4003F14D1FFF709FC401B32
:1011E0006428F5D90320B1E1884B5B6813F4800FC4
:1011F000D8D0864B1B6813F4003F03D06368002BE4
:1012000000F09F81236813F0020F54D07F4B9B683E
:1012100013F00C0F3ED07D4B9B6803F00C03082BA2
:1012200033D0E368002B68D0794B01221A60FFF7B6
:10123000DFFB0546754B1B6813F0020F54D1FFF717
:10124000D7FB401B0228F5D903207FE16F4A1368C2
:1012500043F480331360B5E76C4B1A6842F4802284
:101260001A601A6842F480321A60ABE7FFF7C0FBDD
:101270000546664B1B6813F4003FC3D0FFF7B8FB6D
:10128000401B6428F5D9032060E1604B5B6813F4D0
:10129000800FC6D15D4B1B6813F0020F03D0E368CB
:1012A000012B40F05081594A136823F0F80321695B
:1012B00043EAC1031360236813F0080F42D0636947
:1012C0006BB3534B0122C3F8802EFFF791FB054609
:1012D0004E4B5B6F13F0020F34D1FFF789FB401BBD
:1012E0000228F5D9032031E1484A136823F0F803B6
:1012F000216943EAC1031360DDE7454B00221A6010
:10130000FFF776FB0546414B1B6813F0020FD2D066
:10131000FFF76EFB401B0228F5D9032016E13C4B7A
:101320000022C3F8802EFFF763FB0546374B5B6F47
:1013300013F0020F06D0FFF75BFB401B0228F5D924
:10134000032003E1236813F0040F77D02F4B1B6CAD
:1013500013F0805F33D1002301932C4B1A6C42F0C1
:1013600080521A641B6C03F080530193019B01258A
:10137000284B1B6813F4807F23D0A368012B34D043
:10138000052B38D0214B1A6F22F001021A671A6F11
:1013900022F004021A67A368002B3DD0FFF728FB58
:1013A00006461A4B1B6F13F0020F46D1FFF720FBC6
:1013B000801B41F288339842F3D90320C6E0002510
:1013C000D6E7144A136843F480731360FFF710FBE9
:1013D0000646104B1B6813F4807FCED1FFF708FB45
:1013E000801B0228F5D90320B0E0084A136F43F0B0
:1013F00001031367CFE7054B1A6F42F004021A6727
:101400001A6F42F001021A67C5E700BF00380240B8
:101410000000474200700040FFF7EAFA0646524BD0
:101420001B6F13F0020F08D0FFF7E2FA801B41F2A6
:1014300088339842F3D9032088E0EDB9A369002BE3
:1014400000F08380484A926802F00C02082A51D0CA
:10145000022B17D0454B00221A66FFF7C9FA044643
:10146000414B1B6813F0007F42D0FFF7C1FA001B0D
:101470000228F5D9032069E03B4A136C23F080531E
:101480001364DBE7394B00221A66FFF7B1FA054611
:10149000354B1B6813F0007F06D0FFF7A9FA401BFD
:1014A0000228F5D9032051E0E369226A1343626AF6
:1014B00043EA8213A26A5208013A43EA0243E26A0B
:1014C00043EA0263284A5360284B01221A66FFF759
:1014D0008FFA0446244B1B6813F0007F06D1FFF7F8
:1014E00087FA001B0228F5D903202FE000202DE009
:1014F00000202BE0012B2BD01B4B5B6803F48001F9
:10150000E269914226D103F03F02216A8A4223D147
:10151000616A47F6C0721A40B2EB811F1ED103F414
:101520004031A26A5208013AB1EB024F18D103F0E0
:101530007063E26AB3EB026F14D1002006E0012071
:101540007047012002E0012000E0002002B070BDE1
:101550000120FBE70120F9E70120F7E70120F5E78B
:101560000120F3E70120F1E7003802400000474284
:1015700008B5334B9B6803F00C03042B5BD0082B9E
:101580005BD12F4B5A6802F03F025B6813F4800F67
:101590002CD02B4B5868C0F388104FEA401CBCEB92
:1015A000000C6EEB0E0E4FEA8E1343EA9C634FEA7B
:1015B0008C11B1EB0C0163EB0E03DB0043EA5173BA
:1015C000C90011EB000C43F10003590200234FEA5C
:1015D0004C2041EADC51FEF7E3FD194B5B68C3F395
:1015E000014301335B00B0FBF3F027E0144B586874
:1015F000C0F388104FEA401CBCEB000C6EEB0E0EE3
:101600004FEA8E1343EA9C634FEA8C11B1EB0C0155
:1016100063EB0E03DB0043EA5173C90011EB000CCE
:1016200043F10003990200234FEA8C2041EA9C51C8
:10163000FEF7B6FDD1E7034800E0034808BD00BF50
:101640000038024000127A000024F400002800F064
:101650009B8070B50D4604464F4B1B6803F0070393
:101660008B4208D2CBB24C4A1370136803F00703C5
:101670008B4240F08B80236813F0020F17D013F0D9
:10168000040F04D0454A936843F4E0539360236801
:1016900013F0080F04D0414A936843F46043936009
:1016A0003E4A936823F0F003A1680B4393602368DC
:1016B00013F0010F32D06368012B21D09A1E012A4A
:1016C00025D9364A126812F0020F61D033498A6870
:1016D00022F0030213438B60FFF78AF906462F4B73
:1016E0009B6803F00C036268B3EB820F16D0FFF720
:1016F0007FF9801B41F288339842F0D9032042E001
:10170000264A126812F4003FE0D101203BE0234A50
:10171000126812F0007FD9D1012034E01E4B1B6803
:1017200003F00703AB4207D9EAB21B4B1A701B68E0
:1017300003F00703AB422DD1236813F0040F06D04A
:10174000164A936823F4E053E1680B4393602368DF
:1017500013F0080F07D0114A936823F460432169FE
:1017600043EAC1039360FFF703FF0C4B9B68C3F38D
:1017700003130B4AD35CD8400A4B18600A4B186815
:10178000FFF76CF8002070BD012070470120FAE7D8
:101790000120F8E70120F6E7003C02400038024053
:1017A000844700080000002008000020014B186852
:1017B000704700BF0000002008B5FFF7F7FF044B9B
:1017C0009B68C3F38223034AD35CD84008BD00BFA3
:1017D000003802407C47000808B5FFF7E7FF044BDC
:1017E0009B68C3F34233034AD35CD84008BD00BFB3
:1017F000003802407C4700080F2303600B4B9A68B7
:1018000002F0030242609A6802F0F00282609A6875
:1018100002F4E052C2609B68DB0803F4E05303610A
:10182000034B1B6803F007030B607047003802404E
:10183000003C02407047000090F83D30DBB2012BC5
:101840002FD1022380F83D300268D36843F00103B2
:10185000D3600368154A934218D0B3F1804F15D076
:10186000A2F57C42934211D002F5806293420DD0E2
:1018700002F58062934209D002F59A32934205D074
:101880001A6842F001021A60002070479A6802F05C
:101890000702062A07D01A6842F001021A600020E7
:1018A0007047012070470020704700BF00000140D2
:1018B000704770477047704710B5044603681A694F
:1018C00012F0020F11D0DA6812F0020F0DD06FF093
:1018D00002021A610123037703689B6913F0030F67
:1018E00070D0FFF7E6FF0023237723681A6912F010
:1018F000040F12D0DA6812F0040F0ED06FF0040259
:101900001A610223237723689B6913F4407F5FD019
:101910002046FFF7CEFF0023237723681A6912F0D1
:10192000080F12D0DA6812F0080F0ED06FF008021C
:101930001A61042323772368DB6913F0030F4ED069
:101940002046FFF7B6FF0023237723681A6912F0B9
:10195000100F12D0DA6812F0100F0ED06FF01002D4
:101960001A61082323772368DB6913F4407F3DD095
:101970002046FFF79EFF0023237723681A6912F0A1
:10198000010F03D0DA6812F0010F36D123681A690B
:1019900012F0800F03D0DA6812F0800F34D1236880
:1019A0001A6912F0400F03D0DA6812F0400F32D1FA
:1019B00023681A6912F0200F03D0DA6812F0200FA2
:1019C00030D110BDFFF774FF2046FFF773FF8AE7A1
:1019D0002046FFF76DFF2046FFF76CFF9BE7204690
:1019E000FFF766FF2046FFF765FFACE72046FFF7ED
:1019F0005FFF2046FFF75EFFBDE76FF001021A614F
:101A00002046FEF7C9FDC1E76FF080021A6120464B
:101A100000F08BF8C3E76FF040021A612046FFF731
:101A20004AFFC5E76FF020021A61204600F07CF8FB
:101A3000C7E700000368254A90420ED0B0F1804FFE
:101A40000BD0A2F57C42904207D002F58062904212
:101A500003D002F58062904203D123F070034A68FC
:101A600013431A4A90421AD0B0F1804F17D0A2F512
:101A70007C42904213D002F5806290420FD002F572
:101A8000806290420BD002F59A32904207D002F564
:101A90008062904203D002F58062904203D123F429
:101AA0004073CA68134323F080034A6913430360F9
:101AB0008B68C3620B688362044B984202D0012397
:101AC000436170470B690363F9E700BF0000014001
:101AD00040B310B5044690F83D30F3B1022384F8CA
:101AE0003D30214651F8040BFFF7A4FF012384F891
:101AF000463084F83E3084F83F3084F8403084F833
:101B0000413084F8423084F8433084F8443084F81B
:101B1000453084F83D30002010BD80F83C30FFF7A0
:101B200089FEDBE70120704770477047026802F1C9
:101B30000C0353E8003F23F0C0030C3242E80031AD
:101B40000029F3D1202380F83D307047026802F16C
:101B50000C0353E8003F23F490730C3242E8003149
:101B60000029F3D1026802F1140353E8003F23F087
:101B70000103143242E800310029F3D1036B012B39
:101B800005D0202380F83E300023036370470268AD
:101B900002F10C0353E8003F23F010030C3242E83B
:101BA00000310029F3D1ECE790F83D30DBB2212B76
:101BB00001D0022070478368B3F5805F17D0036AB5
:101BC0005A1C02621A7803685A60C38C9BB2013BAC
:101BD0009BB2C3844BB90268D36823F08003D360FF
:101BE0000268D36843F04003D36000207047036964
:101BF000002BE4D1036A1B880268C3F30803536017
:101C0000036A02330362E0E710B504460268136911
:101C100023F44053C1680B431361836802691A437C
:101C200043691A43C3691A430168CB6823F4164316
:101C300023F00C031343CB600268536923F4407311
:101C400081690B4353610368314A934206D002F520
:101C50008062934202D0FFF7AFFD01E0FFF7BCFDC9
:101C6000E369B3F5004F29D00021031849411B183F
:101C700041F10001C90041EA5371DB0018186368A3
:101C80004FEA83024FEA937341F10001FEF788FAAD
:101C9000204AA2FB00314909642303FB11031B0105
:101CA0003233A2FB03235B0903F0F00202EB0112C3
:101CB00003F00F03216813448B6010BD002302184A
:101CC00043EB0301121841F10001C90041EA5271CE
:101CD000D200101841F10001626892185B41FEF7D2
:101CE0005FFA0C4AA2FB00314909642303FB11038C
:101CF000DB003233A2FB03235B095A0002F4F872C3
:101D000002EB011203F00703216813448B60D4E750
:101D1000001001401F85EB5158B310B5044690F8F0
:101D20003D300BB3242384F83D302268D36823F47C
:101D30000053D3602046FFF767FF2268136923F43E
:101D4000904313612268536923F02A035361226888
:101D5000D36843F40053D36000202064202384F828
:101D60003D3084F83E3010BD80F83C30FEF7F2FC88
:101D7000D8E701207047000038B5134690F83D20A1
:101D8000D2B2202A37D10446002936D0002B36D0D3
:101D900090F83C20012A34D0012280F83C200162D6
:101DA0008384C38400250564212280F83D20426B92
:101DB0001548D063626B15481064626B1448D06498
:101DC000626B156522680432606BFEF761FF236861
:101DD0006FF040021A6084F83C50226802F114034C
:101DE00053E8003F43F08003143242E800310029F9
:101DF000F3D1002000E0022038BD0120FCE70120E3
:101E0000FAE70220F8E700BF171E00087F1E00084F
:101E10008D1E0008704708B50346806B1B681B6861
:101E200013F4807F1AD10023C384026802F11403E3
:101E300053E8003F23F08003143242E800310029C8
:101E4000F3D1026802F10C0353E8003F43F0400372
:101E50000C3242E800310029F3D108BDFFF7DAFF68
:101E6000FBE708B50168CA6822F04002CA60202278
:101E700080F83D20FFF7CEFF002008BD704708B571
:101E8000806BFFF7FBFF08BD7047704710B5846B90
:101E900023685A6994F83D30DBB2212B10D02368B7
:101EA0005A6902F0400294F83E30DBB2222B11D086
:101EB000236C43F0100323642046FFF7E6FF10BDB8
:101EC00002F08002002AEAD00023E3842046FFF7D4
:101ED0002DFEE4E7002AEBD00023E3852046FFF740
:101EE00035FEE5E708B5806B0023C385C384FFF7A3
:101EF000CCFF08BD704790F83E30DBB2222B67D193
:101F00008368B3F5805F4DD0826AB3F5805F04D0FB
:101F1000002B54D10369002B51D103685B68137007
:101F2000836A01338362C38D9BB2013B9BB2C3853D
:101F3000002B4FD100B583B00268D36823F0200393
:101F4000D3600268D36823F48073D3600268536956
:101F500023F001035361202380F83E30036B012BF3
:101F600033D100230363026802F10C0353E8003FFE
:101F700023F010030C3242E800310029F3D103684A
:101F80001A6812F0100F06D0002201921A6801920E
:101F90005B680193019B818DFFF7ACFF002003B0CC
:101FA0005DF804FB0269002AAED1826A03685B68AF
:101FB000C3F308031380836A02338362B3E70368C1
:101FC0005B6803F07F031370AAE7FEF7B3FAE5E757
:101FD000022070470020704710B582B004460268A6
:101FE0001368D068516913F00F0F09D113F0200F57
:101FF0000CD010F0200F09D02046FFF77CFF16E030
:1020000011F0010115D110F4907F12D1216B01293B
:1020100079D013F0800F03D010F0800F40F01081C2
:1020200013F0400F03D010F0400F40F00D8102B0CC
:1020300010BD13F0010F06D010F4807F03D0226C86
:1020400042F00102226413F0040F04D019B1226C93
:1020500042F00202226413F0020F04D019B1226C84
:1020600042F00402226413F0080F07D010F0200F92
:1020700000D119B1226C42F008022264226C002ABD
:10208000D5D013F0200F02D010F0200F29D12368F3
:102090005B6903F04003226C12F0080F00D163B3B8
:1020A0002046FFF753FD23685B6913F0400F20D0F3
:1020B000226802F1140353E8003F23F04003143276
:1020C00042E800310029F3D1A36B73B1604A1A656D
:1020D000A06BFEF75CFE0028A9D0A06B036D9847AB
:1020E000A5E72046FFF707FFD1E72046FFF7CDFE23
:1020F0009DE72046FFF7C9FE99E72046FFF7C5FE9A
:102100000023236493E713F0100F82D010F0100F18
:102110003FF47FAF00230193136801935368019349
:10212000019B536913F0400F50D0A26B13685B689A
:102130009BB2002B3FF47BAFA18D99427FF677AF26
:10214000E385D369B3F5807F37D0226802F10C03B1
:1021500053E8003F23F480730C3242E80031002939
:10216000F3D1226802F1140353E8003F23F0010386
:10217000143242E800310029F3D1226802F114033D
:1021800053E8003F23F04003143242E800310029B5
:10219000F3D1202384F83E3000232363226802F128
:1021A0000C0353E8003F23F010030C3242E80031E7
:1021B0000029F3D1A06BFEF7A0FDA18DE38D9BB2AA
:1021C000C91A89B22046FFF795FE30E7A18DE38D4D
:1021D0009BB2C91A89B2E38D9BB2002B3FF427AFA3
:1021E00000293FF424AF226802F10C0353E8003FBA
:1021F00023F490730C3242E800300028F3D12268B7
:1022000002F1140353E8003F23F00103143242E8C3
:1022100000300028F3D1202384F83E3000232363CC
:10222000226802F10C0353E8003F23F010030C3244
:1022300042E800300028F3D12046FFF75BFEF6E6C7
:102240002046FFF7B1FCF2E62046FFF70AFEEEE675
:10225000E51E000808B5806B036B012B02D0FFF769
:1022600013FE08BD818D4908FFF744FEF9E708B564
:102270000346806B1B681B6813F4807F2BD10023FF
:10228000C385026802F10C0353E8003F23F4807316
:102290000C3242E800310029F3D1026802F1140344
:1022A00053E8003F23F00103143242E800310029D3
:1022B000F3D1026802F1140353E8003F23F0400316
:1022C000143242E800310029F3D1202380F83E3057
:1022D000036B012B05D0036B012B0FD0FEF72AF9FE
:1022E00008BD026802F10C0353E8003F23F010031D
:1022F0000C3242E800310029F3D1ECE7818DFFF781
:10230000F9FDEDE730B583B004461346816282855E
:1023100000250564222280F83E20826B2048D0638D
:10232000A26B20481064A26B1F48D064A26B156595
:1023300020680A46011DA06BFEF7AAFC01952368E0
:102340001A6801925B680193019B84F83C502369F1
:102350005BB1226802F10C0353E8003F43F4807341
:102360000C3242E800310029F3D1226802F1140353
:1023700053E8003F43F00103143242E800310029E2
:10238000F3D1226802F1140353E8003F43F0400305
:10239000143242E800310029F3D1002003B030BDEF
:1023A0006F220008552200088D1E000808B590F81D
:1023B0003E30DBB2202B0DD171B17AB190F83C30B8
:1023C000012B0DD0012380F83C3000230363FFF77D
:1023D00099FF00E0022008BD0120FCE70120FAE798
:1023E0000220F8E708B501F02EFF10B1026840683E
:1023F000904708BD08B54FF0E0231B6901F036FC9B
:10240000012800D108BD00F03DFAFBE7EFF305839A
:102410002BB9064B186828B901221A6070476FF073
:10242000050070474FF0FF30704700BF4C0D002093
:10243000EFF3058373B90A4B1B68012B0DD110B55F
:102440000024084BDC77064B02221A6001F06CF97D
:10245000204610BD6FF0050070474FF0FF30704709
:102460004C0D002000ED00E0F0B587B0002405948D
:10247000EFF3058474BB68B322B31568936903B99D
:1024800018235C1E372C49D8546814F0010F47D12B
:1024900056696EB14FEA960C94682CB1D7685B2FE1
:1024A00002D9176907B1C6B92CB14FF0FF340EE05D
:1024B0004FF0800CF0E7D4688CB9146994B14FF0F8
:1024C000FF3404E01546002418234FF0800C012C43
:1024D0000AD0ACB1059807B0F0BD0124F7E74FF082
:1024E000FF34F4E70024F2E7146992680292019441
:1024F00000930B466246294601F0A8F80590E9E7EB
:1025000005AA019200930B461FFA8CF2294601F0AE
:10251000D8F80128DED000230593DBE70020DAE7B6
:102520000020D8E708B5EFF3058333B908B90020D8
:1025300008BD01F05BFA0020FAE76FF00500F7E74D
:102540002DE9F04383B0EFF30587002F43D1064612
:10255000894615461C4600283FD0082000F0DAFACC
:10256000804600283BD006604560B9F1000F00D0DE
:10257000012704B32068A36813B1E2682B2A10D89E
:1025800053B14FF0FF33DBB10024404600F044FB71
:10259000204603B0BDE8F083E3687BB14FF0FF3322
:1025A000F1E701930F4B009343463A46012101F0B6
:1025B00095FC04460CE020460023E4E70023E2E714
:1025C000084B009343463A46012101F06BFC044658
:1025D000002CDDD1D9E70024DAE70024D8E704464F
:1025E000D6E700BFE5230008EFF305836BB90A4681
:1025F00070B100B583B00093042101F099FC01286B
:1026000009D1002003B05DF804FB6FF005007047AE
:102610006FF0030070476FF00200F3E7034B0360B5
:10262000034B0B6080231360704700BFF00C002049
:10263000F00A0020034B0360034B0B604FF48073E0
:1026400013607047940A00209406002000F10803EC
:1026500043604FF0FF328260C36003610023036078
:10266000704700230361704743684B609A688A6033
:10267000516099600861036801330360704730B4AA
:102680000D68B5F1FF3F11D000F108031C465B68EF
:102690001A68AA42FAD963684B6099608C606160DD
:1026A000086103680133036030BC70470469F2E7D6
:1026B0000369416882688A60416851605A68824251
:1026C00006D0002202611A68013A1A601868704741
:1026D00082685A60F5E7000082B0002301930D4B39
:1026E0001B68B3F1FF3F08D04FF0500383F311880C
:1026F000BFF36F8FBFF34F8FFEE74FF0500383F3AD
:102700001188BFF36F8FBFF34F8F019B002BFCD05D
:1027100002B070470C00002008480068006880F391
:1027200008884FF0000080F3148862B661B6BFF3EA
:102730004F8FBFF36F8F00DF00BF000008ED00E098
:10274000DFF80C00016841F470010160704700007F
:1027500088ED00E04FF0807340F8043C21F0010167
:1027600040F8081C054B40F80C3C40F8202C6FF05A
:10277000020340F8243C4438704700BFD9260008C3
:10278000074B19680868B0E8F04F80F30988BFF379
:102790006F8F4FF0000080F311887047AFF3008017
:1027A000B44E00204FF0500383F31188BFF36F8FB6
:1027B000BFF34F8F0B4A136801331360012B00D016
:1027C00070474FF0E023D3F8043D13F0FF0FF7D02C
:1027D0004FF0500383F31188BFF36F8FBFF34F8F18
:1027E000FEE700BF0C000020094B1B6843B94FF007
:1027F000500383F31188BFF36F8FBFF34F8FFEE752
:10280000013B034A13600BB983F31188704700BF83
:102810000C0000200000000000000000000000008C
:10282000EFF30980BFF36F8F154B1A681EF0100F7E
:1028300008BF20ED108A20E9F04F10602DE9090053
:102840004FF0500080F31188BFF34F8FBFF36F8FAD
:1028500001F0F2F84FF0000080F3118809BC19680C
:102860000868B0E8F04F1EF0100F08BFB0EC108AF7
:1028700080F30988BFF36F8F704700BFAFF300800C
:10288000B44E002008B54FF0500383F31188BFF316
:102890006F8FBFF34F8F00F0A1FF28B14FF0E023FF
:1028A0004FF08052C3F8042D002383F3118808BD34
:1028B0004FF0E022002313619361054B1B6805492B
:1028C000A1FB03139B09013B53610723136170476D
:1028D00000000020D34D62104FF0E023D3F8002D0C
:1028E0003D4B9A421CD04FF0E023D3F8002D3B4BD8
:1028F0009A421ED030B583B0394B1A78D2B20192C9
:10290000FF221A701B78DBB28DF803309DF803307C
:1029100003F05003334A1370334B07221A601BE055
:102920004FF0500383F31188BFF36F8FBFF34F8FC6
:10293000FEE74FF0500383F31188BFF36F8FBFF3AF
:102940004F8FFEE7284A1368013B13609DF8033060
:102950005B00DBB28DF803309DF8033013F0800F7D
:10296000F0D1214B1B68032B08D04FF0500383F3A9
:102970001188BFF36F8FBFF34F8FFEE71B021A4A18
:10298000136003F4E0631360019BDBB2144A13701D
:102990004FF0E024D4F8203D43F47003C4F8203D08
:1029A000D4F8203D43F07043C4F8203DFFF780FF8A
:1029B00000250E4B1D60FFF7C3FED4F8343F43F0F3
:1029C0004043C4F8343FFFF7A7FE01F035F8FFF7A6
:1029D00083FE284603B030BD71C20F4170C20F4163
:1029E00000E400E0540D0020500D00200C000020F9
:1029F000EFF305830F2B0FD9114A9B5CDBB2114A11
:102A000012789A4208D94FF0500383F31188BFF32C
:102A10006F8FBFF34F8FFEE74FF0E023D3F80C3DED
:102A200003F4E063084A1268934208D94FF0500358
:102A300083F31188BFF36F8FBFF34F8FFEE77047AB
:102A4000F0E300E0540D0020500D0020124A12F077
:102A5000070F1ED0D11D21F00701C1F5705313449B
:102A60000A460E480260002141601344083B23F0EF
:102A700007030B48036059601960991A516013608D
:102A8000084B1960084B1960084B4FF000421A6060
:102A900070474FF47053E4E7780D0020700D00206C
:102AA0006C0D0020640D0020680D0020580D0020E2
:102AB000164B1A461B688342FBD3516802EB010C8C
:102AC000844509D0416800EB010C634509D00360DF
:102AD000904219D010607047406801445160104620
:102AE000F0E710B40A4C2468A3420BD05B68194489
:102AF000416013681B680360904200D010605DF86D
:102B0000044B70470460F7E7704700BF700D00206A
:102B10006C0D002038B5044600F052FE384B1B689F
:102B2000B3B1384B1B681C4250D1002C50D004F17B
:102B3000080214F0070F02D022F007020832002A20
:102B400055D0314B1B68934253D330490C6804E095
:102B5000FFF77CFFE5E721461C466368934202D2FB
:102B60002368002BF7D1264B1B68A34243D00D6886
:102B7000083523680B6063689B1A102B10D9A018C6
:102B800010F0070F08D04FF0500383F31188BFF304
:102B90006F8FBFF34F8FFEE743606260FFF788FFE0
:102BA000626819490B689B1A0B60194909688B42C6
:102BB00001D217490B60134B1B681343636000235A
:102BC0002360144A13680133136002E0002500E01B
:102BD000002500F08FFE15F0070F0ED04FF05003C8
:102BE00083F31188BFF36F8FBFF34F8FFEE700258C
:102BF000EFE70025EDE70025EBE7284638BD00BFED
:102C00006C0D0020580D0020680D0020700D002074
:102C1000640D0020600D0020002834D038B5044633
:102C2000A0F1080550F8043C174A1268134208D175
:102C30004FF0500383F31188BFF36F8FBFF34F8FB3
:102C4000FEE750F8081C41B14FF0500383F31188A0
:102C5000BFF36F8FBFF34F8FFEE723EA020340F805
:102C6000043C00F0ADFD54F8041C084A13680B4402
:102C700013602846FFF71CFF054A136801331360F1
:102C800000F038FE38BD7047580D0020680D002058
:102C90005C0D002010B50446FFF784FDA26BE36BCA
:102CA0009A4204D00024FFF79FFD204610BD012466
:102CB000F9E710B50446FFF775FDA36B23B90124AE
:102CC000FFF792FD204610BD0024F9E770B50446D9
:102CD0001546866B026C5AB903681BB10020013699
:102CE000A66370BD806800F0D1FF0023A360F6E703
:102CF0006DB94068FDF76EFA6368226C1344636037
:102D0000A268934219D3236863602846E7E7C06846
:102D1000FDF760FAE368226C51429B1AE360226877
:102D2000934202D2A3680B44E360022D01D000203D
:102D3000D5E726B1013E0020D1E72846CFE70020A5
:102D4000CDE70346026C6AB110B50846D968114454
:102D5000D9609C68A14201D31968D960D968FDF790
:102D600039FA10BD704738B50546FFF71BFD95F8D9
:102D7000454064B201E0013C64B2002C0ADD6B6A9C
:102D800043B105F1240000F0D7FE0028F3D000F095
:102D900067FFF0E7FF2385F84530FFF725FDFFF7D4
:102DA00001FD95F8444064B201E0013C64B2002C9E
:102DB0000ADD2B6943B105F1100000F0BDFE0028CB
:102DC000F3D000F04DFFF0E7FF2385F84430FFF724
:102DD0000BFD38BD38B5E0B10D460446FFF7E2FC07
:102DE0002368E26B216C01FB0230A0600020A0632D
:102DF0006360013A02FB0133E360FF2384F844304F
:102E000084F84530FDB9236963B9FFF7EDFC012073
:102E100038BD4FF0500383F31188BFF36F8FBFF3BA
:102E20004F8FFEE704F1100000F086FE0028ECD082
:102E30004FF0E0234FF08052C3F8042DBFF34F8FC3
:102E4000BFF36F8FE1E704F11000FFF7FFFB04F120
:102E50002400FFF7FBFBD8E738B51D46049C0B4662
:102E600049B92460E063236401212046FFF7B2FFE3
:102E700084F84C5038BD2260F4E740B94FF050035D
:102E800083F31188BFF36F8FBFF34F8FFEE710B549
:102E900084B01C46844653B192B189B94FF05003B7
:102EA00083F31188BFF36F8FBFF34F8FFEE74FF0AF
:102EB000500383F31188BFF36F8FBFF34F8FFEE78B
:102EC0006AB150230393039B502B13D04FF0500350
:102ED00083F31188BFF36F8FBFF34F8FFEE7002995
:102EE000EFD04FF0500383F31188BFF36F8FBFF320
:102EF0004F8FFEE7039B012384F8463000949DF832
:102F000018306046FFF7A8FF204604B010BDF0B5AA
:102F100085B0019288B10F461D460446B1B1022D1D
:102F200020D1E36B012B1DD04FF0500383F31188A8
:102F3000BFF36F8FBFF34F8FFEE74FF0500383F364
:102F40001188BFF36F8FBFF34F8FFEE7036C002B29
:102F5000E5D04FF0500383F31188BFF36F8FBFF3B9
:102F60004F8FFEE700F082FE064658B9019B002B0A
:102F700048D04FF0500383F31188BFF36F8FBFF336
:102F80004F8FFEE700263DE02A4639462046FFF7F0
:102F90009DFE636A7BB948B14FF0E0234FF0805249
:102FA000C3F8042DBFF34F8FBFF36F8FFFF71CFCE7
:102FB000012005B0F0BD04F1240000F0BDFD0028A3
:102FC000F4D04FF0E0234FF08052C3F8042DBFF34C
:102FD0004F8FBFF36F8FE9E7FFF706FC0020E8E7AC
:102FE00002A800F0EFFD012619E0002384F8443028
:102FF00021E0002384F8453023E02046FFF7B3FEAC
:1030000000F078FCFFF7CEFBA26BE36B9A42BBD3D8
:10301000022DB9D0019B002BDED0002EE0D0FFF7AF
:10302000E3FB00F0CDFBFFF7BDFB94F8442052B268
:10303000B2F1FF3FD9D094F8452052B2B2F1FF3F30
:10304000D7D0FFF7D1FB01A902A800F0C7FDD8B97E
:103050002046FFF71FFE0028CFD0019904F1100091
:1030600000F036FD2046FFF77EFE00F043FC00280E
:10307000C8D14FF0E0234FF08052C3F8042DBFF3C6
:103080004F8FBFF36F8FBDE72046FFF76CFE00F058
:1030900031FC00208DE72DE9F84390B10F4616462C
:1030A0001C460546B1B1022C20D1EB6B012B1DD083
:1030B0004FF0500383F31188BFF36F8FBFF34F8F2F
:1030C000FEE74FF0500383F31188BFF36F8FBFF318
:1030D0004F8FFEE7036C002BE5D04FF0500383F3D6
:1030E0001188BFF36F8FBFF34F8FFEE7FFF780FCB0
:1030F000EFF311884FF0500383F31188BFF36F8F04
:10310000BFF34F8FAA6BEB6B9A4206D3022C04D00D
:10311000002088F31188BDE8F88395F845904FFAB0
:1031200089F9AB6B224639462846FFF7CFFDB9F146
:10313000FF3F06D009F101035BB285F8453001205D
:10314000E7E76B6A0BB90120E3E705F1240000F023
:10315000F3FC18B126B101203060DAE70120D8E78E
:103160000120D6E7F0B585B0019290B10F46044634
:10317000C1B100F07BFD064600BB019B002B5ED079
:103180004FF0500383F31188BFF36F8FBFF34F8F5E
:10319000FEE74FF0500383F31188BFF36F8FBFF347
:1031A0004F8FFEE7036C002BE3D04FF0500383F307
:1031B0001188BFF36F8FBFF34F8FFEE700263EE00D
:1031C00039462046FFF7BDFD013DA563236923B9BC
:1031D000FFF70AFB012005B0F0BD04F1100000F07C
:1031E000ABFC0028F4D04FF0E0234FF08052C3F83E
:1031F000042DBFF34F8FBFF36F8FE9E7FFF7F4FAAA
:103200000020E8E702A800F0DDFC012621E0002311
:1032100084F8443029E0002384F845302BE0204630
:10322000FFF7A1FD00F066FB09E02046FFF79BFDDC
:1032300000F060FB2046FFF73CFD00283FD1FFF780
:10324000B1FAA56B002DBBD1019B002BD6D0002E6F
:10325000D8D0FFF7C9FA00F0B3FAFFF7A3FA94F851
:1032600044305BB2B3F1FF3FD1D094F845305BB24C
:10327000B3F1FF3FCFD0FFF7B7FA01A902A800F0E2
:10328000ADFC0028D1D12046FFF713FD0028C6D0A1
:10329000019904F1240000F01BFC2046FFF763FDB8
:1032A00000F028FB0028CAD14FF0E0234FF08052F5
:1032B000C3F8042DBFF34F8FBFF36F8FBFE700201C
:1032C00089E700000023072B0CD8074A52F8332067
:1032D0000AB10133F7E7044A42F8331002EBC302A4
:1032E00050607047704700BF7849002070B50446B1
:1032F0000D461646FFF756FA94F844305BB2B3F128
:10330000FF3F0DD094F845305BB2B3F1FF3F0BD0D7
:10331000FFF76AFAA36B5BB12046FFF724FD70BD8F
:10332000002384F84430EDE7002384F84530EFE7CC
:103330003246294604F1240000F0E2FBECE70000ED
:10334000084B1B681B6823B9074B4FF0FF321A600C
:103350007047044B1B68DB68DB685A68024B1A60D5
:10336000704700BF284A0020C04900202DE9F047DF
:1033700080460D4617469946089EDDF824A00A9C13
:103380009200A521206B01F0CFF8236B07F180425A
:10339000013A03EB820727F00707A5B34FF0000CB3
:1033A000BCF10F0F09D815F80C3004EB0C0282F8B1
:1033B000343013B10CF1010CF2E7002384F84330F0
:1033C000372E00D93726E662E66400252565201DE4
:1033D000FFF747F904F11800FFF743F92461C6F13C
:1033E0003806A6616462656584F858504A464146CD
:1033F0003846FFF7AFF92060BAF1000F01D0CAF8E4
:103400000040BDE8F087002384F83430D8E700009E
:1034100038B5002407E004EB840293000E481844FA
:10342000FFF714F90134372CF5D90C4D2846FFF776
:103430000DF90B4C2046FFF709F90A48FFF706F98A
:103440000948FFF703F90948FFF700F9084B1D6029
:10345000084B1C6038BD00BF544A0020404A002081
:103460002C4A0020104A0020FC490020E44900209A
:10347000284A0020244A002010B50446FFF792F99C
:10348000224A136801331360214B1B685BB1214B47
:103490001B686BB91E4B1B68DA6AE36A9A4207D84D
:1034A0001B4B1C6004E01A4B1C601368012B29D0D5
:1034B000194A1368013313606364E06A174B1B6891
:1034C000984201D9154B186000EB8000211D144B68
:1034D00003EB8000FFF7C8F8FFF786F90D4B1B6878
:1034E0007BB10B4B1B68DA6AE36A9A4209D24FF050
:1034F000E0234FF08052C3F8042DBFF34F8FBFF38A
:103500006F8F10BDFFF784FFD2E700BFE0490020B6
:10351000B44E0020D4490020C4490020D8490020DE
:10352000544A002010B5044690F8593063B1012B7D
:1035300011D0022B0ED04FF0500383F31188BFF34C
:103540006F8FBFF34F8FFEE7006BFFF765FB2046E1
:10355000FFF762FB10BDFFF75FFBFBE70F4B1B683C
:10356000D3B110B5FFF71EF90D4BDB68DC68201DE9
:10357000FFF79EF80B4A1368013B1360074A136874
:10358000013B1360FFF730F92046FFF7CBFF034BF9
:103590001B68002BE6D110BD704700BFF849002022
:1035A000FC490020E049002008B5FFF7D7FF074B92
:1035B0001B68012BF9D94FF0E0234FF08052C3F87C
:1035C000042DBFF34F8FBFF36F8FEEE7544A0020F7
:1035D00070B504460D46174B1E68174B186804302B
:1035E000FFF766F8B4F1FF3F0DD03444124B1B686F
:1035F0005C60A64210D9114B18680F4B1968043152
:10360000FFF73DF870BD002DEFD00B4B196804316A
:103610000B48FFF729F8F5E70A4B1868064B1968BD
:103620000431FFF72CF8084B1B68A342EAD9064B7C
:103630001C60E7E7DC490020B44E0020244A00204B
:10364000E4490020284A0020C049002030B587B056
:103650000B9C7CB10C9DB5B15C250495049D5C2D43
:103660001AD04FF0500383F31188BFF36F8FBFF36D
:103670004F8FFEE74FF0500383F31188BFF36F8F36
:10368000BFF34F8FFEE74FF0500383F31188BFF372
:103690006F8FBFF34F8FFEE7049D0C9D2C630224B8
:1036A00085F8594000240394029505AC01940A9CC6
:1036B0000094FFF75BFE0C98FFF7DEFE059807B05D
:1036C00030BD2DE9F04385B00746884614461E46B6
:1036D0009000FFF71FFA08B381465C20FFF71AFA43
:1036E0000546A8B1C0F83090002380F85930039304
:1036F00002900D9B01930C9B00933346224641465A
:103700003846FFF733FE2846FFF7B6FE012007E0F4
:103710004846FFF781FA4FF0FF3001E04FF0FF30ED
:1037200005B0BDE8F083000010B588B00024059412
:10373000069407AA06A905A8FEF770FF059B029349
:10374000069B019300942346079A17491748FFF7F1
:103750007DFF174B1860C0B100F072FB012815D136
:103760004FF0500383F31188BFF36F8FBFF34F8F78
:10377000104B4FF0FF321A600F4B01221A600F4BB3
:1037800000221A60FFF7A8F803E00020B0F1FF3F25
:1037900001D008B010BD4FF0500383F31188BFF380
:1037A0006F8FBFF34F8FFEE79C470008A9350008D5
:1037B000BC490020C0490020D4490020DC49002039
:1037C000024A136801331360704700BFB8490020F4
:1037D000014B1868704700BFDC490020F8B53A4B30
:1037E0001B68002B69D1394B1D6801351D60C5B9B7
:1037F000374B1B681B6843B14FF0500383F31188AC
:10380000BFF36F8FBFF34F8FFEE7314A1168314B23
:10381000186810601960304A136801331360FFF7AD
:103820008FFD2E4B1B68AB423DD900272C4B1B68EC
:10383000DB6A03EB83039A002A4B9B58012B00D9C8
:103840000127294B1B68002B3CD001273AE00127B8
:103850001F4B1B681B6843B31D4B1B68DB68DC6890
:1038600063689D4226D3261D3046FEF721FFA36ADA
:103870001BB104F11800FEF71BFFE36A1B4A126834
:10388000934201D9194A136003EB83039A0031462E
:1038900014481044FEF7E8FEE26A114B1B68DB6A2D
:1038A0009A42D4D2D4E70027D2E70C4B4FF0FF3234
:1038B0001A60BBE7094A1360B8E70D4A1368013381
:1038C000136000273846F8BDB8490020DC490020C5
:1038D000284A0020244A0020C8490020C04900206E
:1038E000B44E0020544A0020CC490020D849002082
:1038F000D049002038B5354B1B6843B94FF0500311
:1039000083F31188BFF36F8FBFF34F8FFEE7FEF78E
:1039100049FF2E4B1A68013A1A601B68002B4FD1E1
:103920002B4B1B680BB900244BE00024294B1B6870
:103930001BB3284BDB68DC6804F11800FEF7B8FE07
:10394000251D2846FEF7B4FEE06A234B1B6898420B
:1039500001D9214B186000EB800029461F4B03EB77
:103960008000FEF781FEE26A1D4B1B68DB6A9A420B
:10397000DCD31C4B01221A60D8E70CB1FFF7E0FC46
:10398000194B1C6884B9174B1C68D4B14FF0E02365
:103990004FF08052C3F8042DBFF34F8FBFF36F8FEA
:1039A00001240EE0013C07D0FFF718FF0028F9D0F2
:1039B0000C4B01221A60F5E70B4B00221A60E2E77C
:1039C0000024FEF711FF204638BD00BFB849002093
:1039D000E0490020104A0020D8490020544A002025
:1039E000B44E0020CC490020D049002010B5A8B129
:1039F0000446104B1B6843B14FF0500383F311880A
:103A0000BFF36F8FBFF34F8FFEE7FFF7D9FE0021A3
:103A10002046FFF7DDFDFFF76DFF48B94FF0E023CB
:103A20004FF08052C3F8042DBFF34F8FBFF36F8F59
:103A300010BD00BFB8490020204B1B681BB1204BB4
:103A400001221A6070471E4B00221A601D4B1B6832
:103A500003EB83018A001C498A585AB90BB1013B18
:103A6000F6E74FF0500383F31188BFF36F8FBFF376
:103A70004F8FFEE7084603EB83018A00024451683A
:103A80004968516003EB830C4FEA8C020832024410
:103A900091420BD003EB830291000B4A0A44526817
:103AA000D1680A4A1160074A136070474868624645
:103AB0009100054A0A445060ECE700BFB849002075
:103AC000CC490020D8490020544A0020B44E0020A0
:103AD00058B110B50C46094A11681831FEF7CFFDF0
:103AE00001212046FFF774FD10BD4FF0500383F312
:103AF0001188BFF36F8FBFF34F8FFEE7B44E0020E6
:103B000038B570B10D4614460A4A11681831FEF7EF
:103B1000ABFD0CB14FF0FF3521462846FFF758FDAD
:103B200038BD4FF0500383F31188BFF36F8FBFF39D
:103B30004F8FFEE7B44E002038B5C368DC6824B36D
:103B400004F118052846FEF7B3FD184B1B682BBB84
:103B5000251D2846FEF7ACFDE06A154B1B68984210
:103B600001D9134B186000EB80002946114B03EB81
:103B70008000FEF779FDE26A0F4B1B68DB6A9A4210
:103B800011D901200D4B186038BD4FF0500383F35D
:103B90001188BFF36F8FBFF34F8FFEE729460848A8
:103BA000FEF762FDE7E70020EEE700BFB84900201E
:103BB000D8490020544A0020B44E0020CC490020AF
:103BC000104A0020034B1B680360034B1B684360D3
:103BD000704700BFC8490020DC490020F8B5C8B1D3
:103BE0000C460546F9B1FEF7DDFD1B4B19686B6805
:103BF000C81A2268B2F1FF3F26D0184E36682F68E7
:103C0000B74201D08B4224D9824215D800232360C9
:103C100001241AE04FF0500383F31188BFF36F8F34
:103C2000BFF34F8FFEE74FF0500383F31188BFF3CC
:103C30006F8FBFF34F8FFEE75B1A13442360284654
:103C4000FFF7C0FF002400E00024FEF7CDFD204672
:103C5000F8BD0124F9E700BFDC490020C849002075
:103C6000014B01221A607047CC490020054B1B68AC
:103C700033B1054B1B680BB1002070470220704721
:103C800001207047D4490020B849002000283BD0CB
:103C900038B504461E4B1B68834208D04FF05003D2
:103CA00083F31188BFF36F8FBFF34F8FFEE7036D70
:103CB00043B94FF0500383F31188BFF36F8FBFF305
:103CC0004F8FFEE7013B0365C16AC26C91421DD074
:103CD0000BB1002038BD051D2846FEF7E9FCE06C5D
:103CE000E062C0F13803A3610A4B1B68984201D916
:103CF000084B186000EB80002946074B03EB80005F
:103D0000FEF7B2FC0120E5E7002070470020E1E764
:103D1000B44E0020D8490020544A0020064B1A68AF
:103D200013682BB90123036023B9D368186870475F
:103D30000023F8E700207047B84F002008B5416025
:103D4000006191420CD8D21A83699A4201D30120B2
:103D500008BD011D094B1868FEF791FC0020F7E72C
:103D60009A4201D2994206D2011D054B1868FEF70E
:103D700086FC0020ECE70120EAE700BFB44F0020FA
:103D8000B84F002030B583B0FEF70CFD114B1B6817
:103D90001BB1FEF729FD03B030BD0F4D2846FEF7DD
:103DA00055FC0E4C2046FEF751FC0D4B1D600D4B93
:103DB0001C60002300930C4B0C4A10210A20FFF7D3
:103DC0005CF8044B18600028E3D00949FFF77AFA41
:103DD000DFE700BFB04F0020D04F0020BC4F0020D5
:103DE000B84F0020B44F0020B84E0020084F0020EC
:103DF000A44700082DE9F041079F41B94FF0500357
:103E000083F31188BFF36F8FBFF34F8FFEE7064632
:103E100014461D4688468FB1FFF7B4FF3E60C7F8D1
:103E20001880FD61069B3B62381DFEF71AFC2CB121
:103E300097F8283043F0040387F82830BDE8F08174
:103E400010B588B0FFF79EFF124B1B68CBB1002462
:103E50000594069407AA06A905A8FEF7EBFB059BA7
:103E60000293069B0193022300932346079A0A4973
:103E70000A48FFF7EBFB0A4B186010B1012008B0AD
:103E800010BD4FF0500383F31188BFF36F8FBFF362
:103E90004F8FFEE7B04F0020AC47000831420008CA
:103EA000AC4F00202DE9F04182B004468846174609
:103EB0001D462C20FEF72EFE064658B1002380F842
:103EC00028300190089B00932B463A4641462046F5
:103ED000FFF790FF304602B0BDE8F08110B584B026
:103EE00084462C20039003982C2808D04FF05003D0
:103EF00083F31188BFF36F8FBFF34F8FFEE70398F3
:103F0000079860B10220079C84F828000194069865
:103F100000906046FFF76EFF079804B010BD4FF0A9
:103F2000500383F31188BFF36F8FBFF34F8FFEE70A
:103F3000B8B19C4603461848006858B300B585B030
:103F400000910192029305291CDCFFF78FFE0228E5
:103F500010D000231A4669460F480068FEF7D7FFC5
:103F600015E04FF0500383F31188BFF36F8FBFF359
:103F70004F8FFEE70023069A694607480068FEF760
:103F8000C6FF04E0002362466946FFF784F805B0E7
:103F90005DF804FB00207047B04F002070B582B080
:103FA0001B4B1B681A6862B3DB681E68DC68251D42
:103FB0002846FEF77DFB236A2046984794F8283070
:103FC00013F0040FECD0A36933449E4207D2636020
:103FD000246129460E4B1868FEF751FBE0E70021EB
:103FE00000910B4632462046FFF7A2FF0028D7D1AA
:103FF0004FF0500383F31188BFF36F8FBFF34F8FE0
:10400000FEE7044A106802490860136002B070BD00
:10401000B84F0020B44F002038B50546FFF7D8FB55
:104020000446074B1B68834205D800232B60044BD2
:104030001C60204638BDFFF7B1FF01232B60F6E777
:10404000A84F002070B582B006460D461749096892
:10405000C968CC68201DFEF72BFB94F828C01CF023
:10406000040F08D12CF0010C84F828C0236A2046E4
:10407000984702B070BDA16933462A4631442046B4
:10408000FFF75CFE0028F1D0002100910B4632467C
:104090002046FFF74DFF0028E8D14FF0500383F38F
:1040A0001188BFF36F8FBFF34F8FFEE7B84F00202B
:1040B00070B582B006460C46FFF782FB01A8FFF7F9
:1040C000ABFF019B33BB0546E4B9B04213D2224695
:1040D000711B124B1868FFF709F9FFF70BFCD8B9F1
:1040E0004FF0E0234FF08052C3F8042DBFF34F8F01
:1040F000BFF36F8F10E0FFF7FDFB29463046FFF757
:10410000A1FF09E0064A126812680AB90124DEE735
:104110001C46DCE7FFF7EEFB02B070BDB04F00209D
:10412000B44F002010B588B002E0049B002B0FDADA
:10413000002204A93D4B1868FFF714F8002873D03B
:10414000049B002BF1DA07990698059B9847ECE74A
:10415000069C636913B1201DFEF7AAFA03A8FFF7B6
:104160005BFF049B092BE3D8DFE803F0050505306E
:1041700037500505303794F8283043F0010384F8B0
:104180002830059BA169024619442046FFF7D6FD59
:104190000028CDD0236A2046984794F8283013F0A1
:1041A000040FC5D0A269002100910B460598024476
:1041B0002046FFF7BDFE0028BAD14FF0500383F32D
:1041C0001188BFF36F8FBFF34F8FFEE794F828304D
:1041D00023F0010384F82830AAE794F8283043F04C
:1041E000010384F828300599A16131B103460246E4
:1041F00001442046FFF7A2FD9AE74FF0500383F3F6
:104200001188BFF36F8FBFF34F8FFEE794F828300C
:1042100013F0020F04D023F0010384F8283087E75D
:104220002046FEF7F9FC83E708B010BDB04F002030
:1042300000B583B001A8FFF771FD0199FFF738FFC2
:10424000FFF770FFF6E740B110B50446FEF7AAFA93
:10425000E469FEF7C9FA204610BD4FF0500383F31E
:104260001188BFF36F8FBFF34F8FFEE72DE9F04743
:10427000089D0C46002B4ED194468C458646B2FADA
:1042800082F262D94AB1C2F12003914020FA03F3CD
:104290000CFA02FC194300FA02FE4FEA1C471FFA0F
:1042A0008CF6B1FBF7F44FEA1E4307FB141143EA07
:1042B000014304FB06F199420AD91CEB030304F104
:1042C000FF3080F01381994240F21081023C634438
:1042D000591A1FFA8EF3B1FBF7F007FB101143EAEE
:1042E000014300FB06F69E420AD91CEB030300F1D2
:1042F000FF3180F0FD809E4240F2FA806344023834
:104300009B1B40EA044000211DB1D3400022C5E9B7
:104310000032BDE8F0878B4205D90DB1C5E9000137
:1043200000210846F5E7B3FA83F1002946D1A342FC
:1043300002D39042C0F0F180861A64EB030301209F
:10434000002DE6D0C5E90063E3E7002A40F0918044
:10435000A1EB0C044FEA1C481FFA8CF70121B4FBB7
:10436000F8F64FEA1E4308FB164443EA044307FBF2
:1043700006F0984208D91CEB030306F1FF3402D281
:10438000984200F2CE8026461C1A1FFA8EF3B4FB28
:10439000F8F008FB104443EA044300FB07F79F4290
:1043A00008D91CEB030300F1FF3402D29F4200F254
:1043B000B1802046DB1B40EA0640A5E7C1F120069C
:1043C0008B4022FA06F71F4320FA06FC04FA01F399
:1043D00043EA0C03F44000FA01F8380C4FEA1349A1
:1043E000B4FBF0FE1FFA87FC00FB1E4449EA0444BC
:1043F0000EFB0CF9A14502FA01F20AD93C190EF1A3
:10440000FF3A80F08580A14540F28280AEF1020E35
:104410003C44A4EB09041FFA83F9B4FBF0F300FB5E
:10442000134449EA044403FB0CFCA44507D93C1996
:1044300003F1FF3068D2A44566D9023B3C4443EA0D
:104440000E40A0FB0293A4EB0C049C42CE469C467B
:1044500052D34FD055B1B8EB0E0364EB0C0404FA01
:1044600006F6CB40CC401E43C5E900640021BDE800
:10447000F087C2F1200320FA03F10CFA02FC24FABF
:1044800003F394400C434FEA1C4800FA02FE1FFA63
:104490008CF7B3FBF8F008FB1031230C43EA01431F
:1044A00000FB07F1994208D91CEB030300F1FF362A
:1044B0002CD299422AD9023863445B1AA4B2B3FBC6
:1044C000F8F108FB113344EA034401FB07F3A3426C
:1044D00008D91CEB040401F1FF3613D2A34211D911
:1044E00002396444E41A41EA004138E70446EFE641
:1044F000084605E7C845ADD2B9EB020E63EB070CE1
:104500000138A7E73146EDE7034698E73046D4E7A0
:10451000D6467EE7634402384CE706462346084603
:104520000EE7023E63442FE7830730B547D0541EA1
:10453000002A3ED0CAB2034601E0013C39D303F859
:10454000012B9D07F9D1032C2CD9CDB205EB052504
:104550000F2C05EB054535D9A4F1100222F00F0C04
:1045600003F1100EE6444FEA121C1A46156055601E
:104570009560D56010327245F8D10CF1010214F04B
:104580000C0F03EB021204F00F0C13D0ACF1040378
:1045900023F003030433134442F8045B9A42FBD133
:1045A0000CF003042CB1C9B21C4403F8011B9C425B
:1045B000FBD130BD64461346002CF4D1F9E7034625
:1045C0001446C0E71A46A446E0E700BF70B50F4B9B
:1045D0000F4DAB42A3EB050607D0B610002455F8EB
:1045E000043B01349847A642F9D800F083F8094DFE
:1045F000094B5E1BAB424FEAA60606D0002455F8D5
:10460000043B01349847A642F9D870BDBC47000866
:10461000BC470008BC470008C4470008704700BFFB
:10462000704700BF024B13B1024800F005B8704755
:104630000000000045460008002301461A461846BF
:1046400000F014B838B5074D074C2C1BA41005D04A
:10465000013C55F8043D9847002CF9D1BDE838409D
:1046600000F04EB8C8470008C44700082DE9F047DD
:10467000DFF87CA00646DAF8000098460F4691461F
:10468000FFF7CCFF184B1C6824B365681F2D24DC92
:104690005EB96B1C0235DAF80000636044F82570DF
:1046A000FFF7BEFF0020BDE8F08704EB8501012382
:1046B000C1F88890D4F88821AB401A43022EC4F880
:1046C0008821C1F80881E4D1D4F88C211A43C4F8B8
:1046D0008C21DEE7054C1C60D7E7DAF80000FFF715
:1046E0009FFF4FF0FF30DEE7E84F0020EC4F002047
:1046F00010000020F8B500BFF8BC08BC9E4670470B
:0C470000F8B500BFF8BC08BC9E4670472E
:10470C0074696D5F73656E645F6279746500000037
:10471C0074696D5F6C65645F626C696E6B00000040
:10472C0064656661756C745461736B000C470008AA
:10473C000000000000000000000000001C47000802
:10474C000000000000000000000000002C470008E2
:10475C00000000000000000000000000000000004D
:10476C000002000018000000000000000000000023
:10477C000000000001020304000000000000000023
:10478C00010203040607080900061016000610169D
:10479C0049444C4500000000546D7251000000006B
:0847AC00546D72205376630086
:0847B400B8FAFF7F01000000CC
:0847BC00254600087103000806
:0447C400490300089D
:1047C8000024F4000100000010000000AAAAAAAA10
:0447D800E44F00208A
:040000050800095195
:00000001FF
