:020000040800F2
:1000000000000220711400088513000887130008FF
:10001000891300088B1300088D13000800000000EE
:10002000000000000000000000000000612900083E
:100030008F13000800000000012A00085B2400085C
:10004000C1140008C1140008C1140008C11400083C
:10005000C1140008C1140008C1140008C11400082C
:10006000C1140008C1140008C1140008C11400081C
:10007000C1140008C1140008C1140008C11400080C
:10008000C1140008C1140008C114000800000000D9
:10009000000000000000000000000000C114000883
:1000A000C1140008C1140008C1140008C1140008DC
:1000B000C1140008C114000891130008C1140008FD
:1000C000C1140008C1140008C1140008C1140008BC
:1000D000C1140008C1140008C11400080000000089
:1000E000C1140008C1140008C11400080000000079
:1000F000000000000000000000000000C114000823
:1001000000000000C1140008C1140008C114000858
:1001100000000000000000000000000000000000DF
:10012000C1140008C1140008C1140008C11400085B
:10013000C1140008000000000000000000000000E2
:10014000000000000000000000000000C1140008D2
:10015000C1140008C1140008C1140008C11400082B
:10016000C1140008C11400080000000000000000D5
:10017000000000000000000000000000000000007F
:1001800000000000C1140008000000000000000092
:08019000C1140008C1140008AD
:1001C00053B94AB9002908BF00281CBF4FF0FF31BE
:1001D0004FF0FF3000F00CB8ADF1080C6DE904CE23
:1001E00004F0FAFBDDF804E0DDE9022304B0704717
:1001F000704700BF844641EA000313F003036DD14A
:10020000403A41D351F8043B40F8043B51F8043BD9
:1002100040F8043B51F8043B40F8043B51F8043BE0
:1002200040F8043B51F8043B40F8043B51F8043BD0
:1002300040F8043B51F8043B40F8043B51F8043BC0
:1002400040F8043B51F8043B40F8043B51F8043BB0
:1002500040F8043B51F8043B40F8043B51F8043BA0
:1002600040F8043B51F8043B40F8043B51F8043B90
:1002700040F8043B51F8043B40F8043B51F8043B80
:1002800040F8043B403ABDD2303211D351F8043B20
:1002900040F8043B51F8043B40F8043B51F8043B60
:1002A00040F8043B51F8043B40F8043B103AEDD2CF
:1002B0000C3205D351F8043B40F8043B043AF9D220
:1002C000043208D0D2071CBF11F8013B00F8013BF3
:1002D00001D30B8803806046704700BF082A13D300
:1002E0008B078DD010F003038AD0C3F10403D21A18
:1002F000DB071CBF11F8013B00F8013B80D331F84C
:10030000023B20F8023B7BE7043AD9D3013A11F8CB
:10031000013B00F8013BF9D20B7803704B78437036
:100320008B7883706046704700000000000000007A
:1003300000000000000000000000000000000000BD
:1003400090F800F06DE9024520F007016FF0000C15
:1003500010F0070491F820F040F049804FF00004BD
:100360006FF00700D1E9002391F840F000F1080098
:1003700082FA4CF2A4FA8CF283FA4CF3A2FA8CF3D0
:100380004BBBD1E9022382FA4CF200F10800A4FA37
:100390008CF283FA4CF3A2FA8CF3E3B9D1E904238B
:1003A00082FA4CF200F10800A4FA8CF283FA4CF3C2
:1003B000A2FA8CF37BB9D1E9062301F1200182FA7C
:1003C0004CF200F10800A4FA8CF283FA4CF3A2FA82
:1003D0008CF3002BC6D0002A04BF04301A4612BA90
:1003E000B2FA82F2FDE8024500EBD2007047D1E993
:1003F000002304F00305C4F100004FEAC50514F022
:10040000040F91F840F00CFA05F562EA05021CBFF2
:1004100063EA050362464FF00004A9E7000000000C
:1004200001F0FF01102A2BDB10F0070F08D010F8A5
:10043000013B013A8B422DD010F0070F42B3F6D1A9
:10044000F0B441EA012141EA014122F007047FF0C2
:1004500000070023F0E80256083C85EA010586EA19
:10046000010685FA47F5A3FA87F586FA47F6A5FA55
:1004700087F68EB9EED1F0BC01F0FF0102F0070261
:1004800032B110F8013B013A83EA010313B1F8D10C
:100490000020704701387047002D06BF35460338ED
:1004A000073815F0010F07D1013015F4807F02BF26
:1004B000013015F4C03F0130F0BC0138704700BF77
:1004C00081F0004102E000BF83F0004330B54FEA05
:1004D00041044FEA430594EA050F08BF90EA020F72
:1004E0001FBF54EA000C55EA020C7FEA645C7FEA05
:1004F000655C00F0E2804FEA5454D4EB5555B8BF28
:100500006D420CDD2C4480EA020281EA030382EA98
:10051000000083EA010180EA020281EA0303362D2A
:1005200088BF30BD11F0004F4FEA01314FF4801CFD
:100530004CEA113102D0404261EB410113F0004F0F
:100540004FEA03334CEA133302D0524263EB4303C6
:1005500094EA050F00F0A780A4F10104D5F1200E64
:100560000DDB02FA0EFC22FA05F2801841F10001BF
:1005700003FA0EF2801843FA05F359410EE0A5F193
:1005800020050EF1200E012A03FA0EFC28BF4CF0C4
:10059000020C43FA05F3C01851EBE37101F000457A
:1005A00007D54FF0000EDCF1000C7EEB00006EEB87
:1005B0000101B1F5801F1BD3B1F5001F0CD3490811
:1005C0005FEA30004FEA3C0C04F101044FEA445268
:1005D00012F5800F80F09A80BCF1004F08BF5FEAEF
:1005E000500C50F1000041EB045141EA050130BDCF
:1005F0005FEA4C0C404141EB0101013C28BFB1F5E1
:10060000801FE9D291F0000F04BF01460020B1FA2B
:1006100081F308BF2033A3F10B03B3F120020CDAFE
:100620000C3208DD02F1140CC2F10C0201FA0CF0DC
:1006300021FA02F10CE002F11402D8BFC2F1200C41
:1006400001FA02F120FA0CFCDCBF41EA0C019040F7
:10065000E41AA2BF01EB0451294330BD6FEA040440
:100660001F3C1CDA0C340EDC04F11404C4F120022B
:1006700020FA04F001FA02F340EA030021FA04F33D
:1006800045EA030130BDC4F10C04C4F1200220FA94
:1006900002F001FA04F340EA0300294630BD21FAD2
:1006A00004F0294630BD94F0000F83F4801306BF98
:1006B00081F480110134013D4EE77FEA645C18BF8C
:1006C0007FEA655C29D094EA050F08BF90EA020F23
:1006D00005D054EA000C04BF1946104630BD91EA1B
:1006E000030F1EBF0021002030BD5FEA545C05D11E
:1006F0004000494128BF41F0004130BD14F580045D
:100700003CBF01F5801130BD01F0004545F0FE41D0
:1007100041F470014FF0000030BD7FEA645C1ABF05
:10072000194610467FEA655C1CBF0B46024650EA3C
:10073000013406BF52EA033591EA030F41F4002168
:1007400030BD00BF90F0000F04BF0021704730B5EE
:100750004FF4806404F132044FF000054FF00001C3
:1007600050E700BF90F0000F04BF0021704730B584
:100770004FF4806404F1320410F0004548BF404259
:100780004FF000013EE700BF42004FEAE2014FEAAE
:1007900031014FEA02701FBF12F07F4393F07F4F89
:1007A00081F06051704732F07F4208BF704793F08C
:1007B0007F4F04BF41F40021704730B54FF460749F
:1007C00001F0004521F000411CE700BF50EA0102A2
:1007D00008BF704730B54FF000050AE050EA01024B
:1007E00008BF704730B511F0004502D5404261EBBB
:1007F00041014FF4806404F132045FEA915C3FF4FC
:10080000D8AE4FF003025FEADC0C18BF03325FEA98
:10081000DC0C18BF033202EBDC02C2F1200300FA49
:1008200003FC20FA02F001FA03FE40EA0E0021FA6E
:1008300002F11444BDE600BF70B54FF0FF0C4CF45C
:10084000E06C1CEA11541DBF1CEA135594EA0C0F0E
:1008500095EA0C0F00F0DEF82C4481EA030621EA49
:100860004C5123EA4C5350EA013518BF52EA033584
:1008700041F4801143F4801338D0A0FB02CE4FF036
:100880000005E1FB02E506F00042E0FB03E54FF066
:100890000006E1FB03569CF0000F18BF4EF0010E5E
:1008A000A4F1FF04B6F5007F64F5407404D25FEA5A
:1008B0004E0E6D4146EB060642EAC62141EA55510D
:1008C0004FEAC52040EA5E504FEACE2EB4F1FD0C4F
:1008D00088BFBCF5E06F1ED8BEF1004F08BF5FEACD
:1008E000500E50F1000041EB045170BD06F000467F
:1008F00046EA010140EA020081EA0301B4EB5C042C
:10090000C2BFD4EB0C0541EA045170BD41F4801123
:100910004FF0000E013C00F3AB8014F1360FDEBF48
:10092000002001F0004170BDC4F10004203C35DA24
:100930000C341BDC04F11404C4F1200500FA05F3A7
:1009400020FA04F001FA05F240EA020001F0004248
:1009500021F0004110EBD37021FA04F642EB0601BE
:100960005EEA430E08BF20EAD37070BDC4F10C04E8
:10097000C4F1200500FA04F320FA05F001FA04F2AC
:1009800040EA020001F0004110EBD37041F1000198
:100990005EEA430E08BF20EAD37070BDC4F12005A3
:1009A00000FA05F24EEA020E20FA04F301FA05F20B
:1009B00043EA020321FA04F001F0004121FA04F2B3
:1009C00020EA020000EBD3705EEA430E08BF20EA83
:1009D000D37070BD94F0000F0FD101F000464000BD
:1009E00041EB010111F4801F08BF013CF7D041EA3F
:1009F000060195F0000F18BF704703F00046520043
:100A000043EB030313F4801F08BF013DF7D043EA13
:100A10000603704794EA0C0F0CEA135518BF95EAC9
:100A20000C0F0CD050EA410618BF52EA4306D1D150
:100A300081EA030101F000414FF0000070BD50EA6F
:100A4000410606BF1046194652EA430619D094EAF9
:100A50000C0F02D150EA013613D195EA0C0F05D1E3
:100A600052EA03361CBF104619460AD181EA030137
:100A700001F0004141F0FE4141F470014FF00000EF
:100A800070BD41F0FE4141F4780170BD70B54FF08A
:100A9000FF0C4CF4E06C1CEA11541DBF1CEA13550A
:100AA00094EA0C0F95EA0C0F00F0A7F8A4EB0504EC
:100AB00081EA030E52EA03354FEA013100F08880E3
:100AC0004FEA03334FF0805545EA131343EA1263AC
:100AD0004FEA022245EA111545EA10654FEA002661
:100AE0000EF000419D4208BF964244F1FD0404F51A
:100AF000407402D25B084FEA3202B61A65EB030576
:100B00005B084FEA32024FF480104FF4002CB6EB32
:100B1000020E75EB030E22BFB61A754640EA0C00B2
:100B20005B084FEA3202B6EB020E75EB030E22BFF2
:100B3000B61A754640EA5C005B084FEA3202B6EB33
:100B4000020E75EB030E22BFB61A754640EA9C00F2
:100B50005B084FEA3202B6EB020E75EB030E22BFC2
:100B6000B61A754640EADC0055EA060E18D04FEA80
:100B7000051545EA16754FEA06164FEAC30343EA20
:100B800052734FEAC2025FEA1C1CC0D111F4801FED
:100B90000BD141EA00014FF000004FF0004CB6E7E6
:100BA00011F4801F04BF01430020B4F1FD0C88BF85
:100BB000BCF5E06F3FF6AFAEB5EB030C04BFB6EB90
:100BC000020C5FEA500C50F1000041EB045170BD83
:100BD0000EF0004E4EEA113114EB5C04C2BFD4EBB0
:100BE0000C0541EA045170BD41F480114FF0000E34
:100BF000013C90E645EA060E8DE60CEA135594EAB0
:100C00000C0F08BF95EA0C0F3FF43BAF94EA0C0FB2
:100C10000AD150EA01347FF434AF95EA0C0F7FF427
:100C200025AF104619462CE795EA0C0F06D152EA7B
:100C300003353FF4FDAE1046194622E750EA41065F
:100C400018BF52EA43067FF4C5AE50EA41047FF470
:100C50000DAF52EA43057FF4EBAE12E74FF0FF3CD5
:100C600006E000BF4FF0010C02E000BF4FF0010CA6
:100C70004DF804CD4FEA410C7FEA6C5C4FEA430C1F
:100C800018BF7FEA6C5C1BD001B050EA410C0CBF6E
:100C900052EA430C91EA030F02BF90EA020F0020D0
:100CA000704710F1000F91EA030F58BF994208BF37
:100CB00090422CBFD8176FEAE37040F001007047F4
:100CC0004FEA410C7FEA6C5C02D150EA013C07D14B
:100CD0004FEA430C7FEA6C5CD6D152EA033CD3D096
:100CE0005DF8040B704700BF8446104662468C4690
:100CF0001946634600E000BF01B5FFF7B7FF0028C3
:100D000048BF10F1000F01BD4DF808EDFFF7F4FFEB
:100D10000CBF012000205DF808FB00BF4DF808ED76
:100D2000FFF7EAFF34BF012000205DF808FB00BF99
:100D30004DF808EDFFF7E0FF94BF012000205DF8BB
:100D400008FB00BF4DF808EDFFF7CEFF94BF012070
:100D500000205DF808FB00BF4DF808EDFFF7C4FF69
:100D600034BF012000205DF808FB00BF4FEA410CB2
:100D70007FEA6C5C02D150EA013C0AD14FEA430C95
:100D80007FEA6C5C02D152EA033C02D14FF00000D2
:100D900070474FF0010070474FEA410212F5001210
:100DA00015D211D56FF47873B3EB625212D94FEAB2
:100DB000C12343F0004343EA505311F0004F23FA9C
:100DC00002F018BF404270474FF00000704750EAF1
:100DD000013005D111F0004008BF6FF000407047AE
:100DE0004FF00000704700BF0348044B834202D01D
:100DF000034B03B118477047C4060020C406002007
:100E0000000000000548064B1B1AD90F01EBA30197
:100E1000491002D0034B03B118477047C4060020A5
:100E2000C40600200000000010B5064C237843B92A
:100E3000FFF7DAFF044B13B10448AFF3008001233E
:100E4000237010BDC406002000000000E8B00008B8
:100E500008B5054B1BB105490548AFF30080BDE857
:100E60000840FFF7CFBF00BF00000000C806002009
:100E7000E8B00008F0B58BB0002405940694079400
:100E80000894099401942A4B1A6B42F004021A63E5
:100E90001A6B02F004020192019A02941A6B42F05A
:100EA00080021A631A6B02F080020292029A039483
:100EB0001A6B42F001021A631A6B02F001020392EC
:100EC000039A04941A6B42F002021A631B6B03F03C
:100ED00002030493049B174D22461321284600F079
:100EE00065FC154E22462021304600F05FFC4FF491
:100EF000005305934FF404130693079405A928465D
:100F000000F070FB132305930127069707940894BC
:100F100005A9284600F066FB202305930697079451
:100F2000089405A9304600F05DFB0BB0F0BD00BF92
:100F300000380240000802400000024008B50120CD
:100F400001F024FBFBE7000030B589B000240F4D11
:100F50004FF0FF31286801F0EEFB234600220C49D8
:100F6000684603F097FE01346846FFF7E9F94FF44D
:100F70007A7382B26946074801F0FBF9286801F0EC
:100F80000EFC0A2001F002FBE1E700BFE0060020B2
:100F900000B100080007002030B589B000240F4DD3
:100FA0004FF0FF31286801F0C6FB234601220C49AF
:100FB000684603F06FFE01346846FFF7C1F94FF44D
:100FC0007A7382B26946074801F0D3F9286801F0C4
:100FD000E6FB0A2001F0DAFAE1E700BFE0060020B4
:100FE00000B100080007002008B52021014800F0EA
:100FF000E3FB08BD0000024008B50121014800F0F4
:10100000DBFB08BD0008024008B50221014800F0E2
:10101000D3FB08BD0008024008B51021014800F0CC
:10102000CBFB08BD0008024008B50268034B9A429A
:1010300000D008BD00F060FAFBE700BF00080040E8
:1010400072B6FEE708B50A480A4B03604FF4E13375
:10105000436000238360C36003610C2242618361AB
:10106000C36101F057F900B908BDFFF7E9FF00BF00
:10107000000700200044004000B595B03022002158
:1010800008A803F019FF0023039304930593069324
:10109000079301931F4A116C41F080511164126C47
:1010A00002F080520192019A02931B4B1A6842F49B
:1010B00040421A601B6803F440430293029B0123E1
:1010C00008934FF4A023099302220E924FF4800359
:1010D0000F9304231093322111911292139308A8B5
:1010E00000F074FB88B90F230393022304930023B9
:1010F00005934FF4805206920793012103A800F054
:10110000CFFD20B915B05DF804FBFFF799FFFFF79D
:1011100097FF00BF003802400070004080B500F02B
:10112000D1F9FFF7A9FFFFF7A5FEFFF78BFF01F04D
:10113000A1F9274A0121084601F0A4FA254B1860BD
:10114000254B00220121254801F02EFA244F38605A
:10115000244B00220121244801F026FA234E30605E
:10116000234B00220121234801F01EFA224D286062
:10117000224B00220121224801F016FA214C206066
:101180003221386801F064FA1221306801F060FA07
:101190008021286801F05CFA4021206801F058FAAB
:1011A000194A0021194801F093F9194B1860194A9E
:1011B0000021194801F08CF9184B1860184A0021D9
:1011C000184801F085F9184B186001F065F9FEE741
:1011D00064B10008E0060020A4B10008E90F00088F
:1011E000F006002094B10008F90F0008EC0600207A
:1011F00084B1000809100008E806002074B1000856
:1012000019100008E4060020FCB100083D0F00089A
:10121000FC060020D8B10008490F0008F80600209D
:10122000B4B10008990F0008F406002000B583B09F
:10123000002200920D4B596C41F480415964596C65
:1012400001F48041009100990192196C41F08051A4
:1012500019641B6C03F080530193019B0F216FF005
:10126000010000F0A1F903B05DF804FB0038024072
:1012700000B589B000230393049305930693079365
:101280000268154B9A4202D009B05DF804FB0021B8
:10129000019103F5FA331A6C42F400321A641A6CA5
:1012A00002F400320192019A02911A6B42F001029B
:1012B0001A631B6B03F001030293029B0C2303933D
:1012C00002230493032306930723079303A90348E8
:1012D00000F088F9D8E700BF004400400000024059
:1012E00030B589B0044600230193214B1A6C42F0BB
:1012F00004021A641B6C03F004030193019B02A90E
:1013000003A800F0A3FD069BCBB900F07FFD0346C8
:10131000184AA2FB03239B0C013B1748174A0260A3
:1013200040F2E732C260436000230361836083615F
:1013300000F0F8FE054630B1284609B030BD00F097
:1013400065FD4300E4E70C4800F0A0FD05460028D9
:10135000F2D11E2000F038F90F2C01D90125EBE75E
:10136000002221461E2000F01FF9054B1C60E3E718
:101370000038024083DE1B43440700200008004081
:1013800008000020FEE7FEE7FEE7FEE7FEE7704705
:1013900008B5024800F0BAFD08BD00BF44070020B0
:1013A0000120704708B503F0D9FD162303604FF004
:1013B000FF3008BD08B54FF0FF31FFF7F3FFFEE740
:1013C00070B50C461646002506E0AFF300802146B6
:1013D00001F8010B01350C46B542F6DB304670BD15
:1013E00070B50C461646002504E014F8010BAFF367
:1013F00000800135B542F8DB304670BD4FF0FF305C
:1014000070474FF400534B60002070470120704735
:101410000020704710B503460C4A0D490D4800687E
:1014200040B10C4800680344521A934206D8094A56
:10143000136010BD0748084C0460F2E703F08EFD0E
:101440000C2303604FF0FF30F3E700BF00000220E1
:10145000000400008C070020F8530020034AD2F853
:10146000883043F47003C2F88830704700ED00E024
:10147000DFF834D00D480E490E4A002302E0D4585C
:10148000C4500433C4188C42F9D30B4A0B4C0023CC
:1014900001E013600432A242FBD3FFF7DFFF03F049
:1014A00063FDFFF73BFE70470000022000000020B4
:1014B000C40600205CB60008C4060020F8530020D3
:1014C000FEE7000008B50B4B1A6842F400721A6080
:1014D0001A6842F480621A601A6842F480721A60D4
:1014E000032000F04FF80F20FFF7FAFEFFF79EFEF3
:1014F000002008BD003C0240034A1168034B1B78E2
:101500000B441360704700BF9007002004000020C8
:10151000014B1868704700BF90070020002808DBC7
:101520000901C9B200F1604000F5614080F8001384
:10153000704700F00F000901C9B2014B1954704700
:1015400014ED00E000B500F00700C0F1070CBCF19D
:10155000040F28BF4FF0040C031D062B0FD9C31E28
:101560004FF0FF3E0EFA0CF021EA000199400EFA0E
:1015700003FE22EA0E0241EA02005DF804FB0023AA
:10158000EEE70000074AD36823F4E0631B041B0C5A
:10159000000200F4E060034343F0BF6343F4003310
:1015A000D360704700ED00E010B50446054BD868E5
:1015B000C0F30220FFF7C6FF01462046FFF7AEFF4B
:1015C00010BD00BF00ED00E0002807DB00F01F02A7
:1015D000400901239340024A42F82030704700BF7F
:1015E00000E100E000230F2B00F2D78070B582B03D
:1015F00065E085684FEA430E032404FA0EF425EAF9
:101600000405CC6804FA0EF42C438460446824EA90
:1016100002044A68C2F300129A40224342605CE02E
:10162000DC08083450F8242003F00705AD004FF023
:101630000F0E0EFA05FE22EA0E0E0A69AA4042EAD1
:101640000E0240F824205CE0042200E0002202FAAE
:101650000EF22A430234514D45F82420504A946832
:101660006FEA0C0224EA0C054E6816F4801F01D0C4
:101670004CEA04054A4CA560E46802EA04054E6899
:1016800016F4001F01D04CEA0405454CE56064687F
:1016900002EA04054E6816F4003F01D04CEA040546
:1016A0003F4C6560246822404D6815F4803F01D0AE
:1016B0004CEA04023A4C226001330F2B6BD8012212
:1016C0009A400C6804EA020C32EA0404F4D14C6833
:1016D00004F00304013C012C8BD94A6802F0030298
:1016E000032A09D0C4685D000322AA4024EA020448
:1016F0008A68AA402243C2604A6802F00302022AB2
:101700008ED004684FEA430E032202FA0EF224EA56
:1017100002044A6802F0030202FA0EF22243026057
:101720004A6812F4403FC7D0002201921D4A546C0F
:1017300044F480445464526C02F480420192019A51
:101740009C08A51C154A52F8255003F0030E4FEAD9
:101750008E0E0F2202FA0EF225EA0205124A90427C
:101760003FF474AF02F5806290420ED002F58062C1
:1017700090420CD002F5806290420AD002F580625D
:1017800090423FF461AF072261E701225FE7022246
:101790005DE703225BE702B070BD7047003801408F
:1017A000003C014000380240000002400AB1816163
:1017B0007047090481617047436901EA030221EA25
:1017C000030141EA0241816170470000002800F0F6
:1017D000E08170B582B00446036813F0010F3BD07E
:1017E0009F4B9B6803F00C03042B2CD09C4B9B68F5
:1017F00003F00C03082B21D06368B3F5803F4FD072
:10180000B3F5A02F52D0964B1A6822F480321A609A
:101810001A6822F480221A606368002B50D0FFF708
:1018200077FE05468E4B1B6813F4003F14D1FFF77B
:101830006FFE401B6428F5D90320B1E1884B5B683B
:1018400013F4800FD8D0864B1B6813F4003F03D0ED
:101850006368002B00F09F81236813F0020F54D0BF
:101860007F4B9B6813F00C0F3ED07D4B9B6803F0C1
:101870000C03082B33D0E368002B68D0794B01228E
:101880001A60FFF745FE0546754B1B6813F0020F03
:1018900054D1FFF73DFE401B0228F5D903207FE11C
:1018A0006F4A136843F480331360B5E76C4B1A68D2
:1018B00042F480221A601A6842F480321A60ABE760
:1018C000FFF726FE0546664B1B6813F4003FC3D0A6
:1018D000FFF71EFE401B6428F5D9032060E1604B32
:1018E0005B6813F4800FC6D15D4B1B6813F0020FC9
:1018F00003D0E368012B40F05081594A136823F06C
:10190000F803216943EAC1031360236813F0080F49
:1019100042D063696BB3534B0122C3F8802EFFF7AB
:10192000F7FD05464E4B5B6F13F0020F34D1FFF706
:10193000EFFD401B0228F5D9032031E1484A136826
:1019400023F0F803216943EAC1031360DDE7454B47
:1019500000221A60FFF7DCFD0546414B1B6813F0BF
:10196000020FD2D0FFF7D4FD401B0228F5D9032087
:1019700016E13C4B0022C3F8802EFFF7C9FD054657
:10198000374B5B6F13F0020F06D0FFF7C1FD401B12
:101990000228F5D9032003E1236813F0040F77D060
:1019A0002F4B1B6C13F0805F33D1002301932C4B22
:1019B0001A6C42F080521A641B6C03F0805301933E
:1019C000019B0125284B1B6813F4807F23D0A3685B
:1019D000012B34D0052B38D0214B1A6F22F0010295
:1019E0001A671A6F22F004021A67A368002B3DD011
:1019F000FFF78EFD06461A4B1B6F13F0020F46D100
:101A0000FFF786FD801B41F288339842F3D903200B
:101A1000C6E00025D6E7144A136843F480731360C8
:101A2000FFF776FD0646104B1B6813F4807FCED17E
:101A3000FFF76EFD801B0228F5D90320B0E0084AAD
:101A4000136F43F001031367CFE7054B1A6F42F0A2
:101A500004021A671A6F42F001021A67C5E700BF55
:101A6000003802400000474200700040FFF750FD80
:101A70000646524B1B6F13F0020F08D0FFF748FDCC
:101A8000801B41F288339842F3D9032088E0EDB9F6
:101A9000A369002B00F08380484A926802F00C0290
:101AA000082A51D0022B17D0454B00221A66FFF7A7
:101AB0002FFD0446414B1B6813F0007F42D0FFF717
:101AC00027FD001B0228F5D9032069E03B4A136C6F
:101AD00023F080531364DBE7394B00221A66FFF7CB
:101AE00017FD0546354B1B6813F0007F06D0FFF746
:101AF0000FFD401B0228F5D9032051E0E369226A5B
:101B00001343626A43EA8213A26A5208013A43EA23
:101B10000243E26A43EA0263284A5360284B0122E7
:101B20001A66FFF7F5FC0446244B1B6813F0007F90
:101B300006D1FFF7EDFC001B0228F5D903202FE0AA
:101B400000202DE000202BE0012B2BD01B4B5B68ED
:101B500003F48001E269914226D103F03F02216A39
:101B60008A4223D1616A47F6C0721A40B2EB811FE4
:101B70001ED103F44031A26A5208013AB1EB024F80
:101B800018D103F07063E26AB3EB026F14D1002046
:101B900006E001207047012002E0012000E0002063
:101BA00002B070BD0120FBE70120F9E70120F7E753
:101BB0000120F5E70120F3E70120F1E700380240BA
:101BC0000000474208B5334B9B6803F00C03042B1D
:101BD0005BD0082B5BD12F4B5A6802F03F025B6849
:101BE00013F4800F2CD02B4B5868C0F388104FEAA9
:101BF000401CBCEB000C6EEB0E0E4FEA8E1343EA5A
:101C00009C634FEA8C11B1EB0C0163EB0E03DB001C
:101C100043EA5173C90011EB000C43F10003590270
:101C200000234FEA4C2041EADC51FEF7C9FA194B78
:101C30005B68C3F3014301335B00B0FBF3F027E0C3
:101C4000144B5868C0F388104FEA401CBCEB000CE2
:101C50006EEB0E0E4FEA8E1343EA9C634FEA8C1133
:101C6000B1EB0C0163EB0E03DB0043EA5173C900D7
:101C700011EB000C43F10003990200234FEA8C2082
:101C800041EA9C51FEF79CFAD1E7034800E0034883
:101C900008BD00BF0038024000127A000024F400A2
:101CA000002800F09B8070B50D4604464F4B1B6822
:101CB00003F007038B4208D2CBB24C4A137013686F
:101CC00003F007038B4240F08B80236813F0020F70
:101CD00017D013F0040F04D0454A936843F4E0533F
:101CE0009360236813F0080F04D0414A936843F4CB
:101CF000604393603E4A936823F0F003A1680B436E
:101D00009360236813F0010F32D06368012B21D058
:101D10009A1E012A25D9364A126812F0020F61D0A4
:101D200033498A6822F0030213438B60FFF7F0FB0C
:101D300006462F4B9B6803F00C036268B3EB820FDF
:101D400016D0FFF7E5FB801B41F288339842F0D9AB
:101D5000032042E0264A126812F4003FE0D101203D
:101D60003BE0234A126812F0007FD9D1012034E011
:101D70001E4B1B6803F00703AB4207D9EAB21B4BAB
:101D80001A701B6803F00703AB422DD1236813F0D0
:101D9000040F06D0164A936823F4E053E1680B431E
:101DA0009360236813F0080F07D0114A936823F457
:101DB0006043216943EAC1039360FFF703FF0C4BC3
:101DC0009B68C3F303130B4AD35CD8400A4B1860DB
:101DD0000A4B1868FFF784FA002070BD0120704795
:101DE0000120FAE70120F8E70120F6E7003C024075
:101DF0000038024028B2000800000020080000203F
:101E0000014B1868704700BF0000002008B5FFF7BD
:101E1000F7FF044B9B68C3F38223034AD35CD8408B
:101E200008BD00BF0038024020B2000808B5FFF727
:101E3000E7FF044B9B68C3F34233034AD35CD840AB
:101E400008BD00BF0038024020B200080F23036025
:101E50000B4B9A6802F0030242609A6802F0F002AB
:101E600082609A6802F4E052C2609B68DB0803F467
:101E7000E0530361034B1B6803F007030B607047DB
:101E800000380240003C02407047000090F83D30AE
:101E9000DBB2012B2FD1022380F83D300268D368DA
:101EA00043F00103D3600368154A934218D0B3F19D
:101EB000804F15D0A2F57C42934211D002F580628A
:101EC00093420DD002F58062934209D002F59A3216
:101ED000934205D01A6842F001021A600020704750
:101EE0009A6802F00702062A07D01A6842F0010237
:101EF0001A6000207047012070470020704700BF23
:101F000000000140704770477047704710B50446A5
:101F100003681A6912F0020F11D0DA6812F0020F8A
:101F20000DD06FF002021A610123037703689B69E9
:101F300013F0030F70D0FFF7E6FF00232377236829
:101F40001A6912F0040F12D0DA6812F0040F0ED0E2
:101F50006FF004021A610223237723689B6913F44C
:101F6000407F5FD02046FFF7CEFF00232377236812
:101F70001A6912F0080F12D0DA6812F0080F0ED0AA
:101F80006FF008021A61042323772368DB6913F0DA
:101F9000030F4ED02046FFF7B6FF002323772368B8
:101FA0001A6912F0100F12D0DA6812F0100F0ED06A
:101FB0006FF010021A61082323772368DB6913F49A
:101FC000407F3DD02046FFF79EFF00232377236804
:101FD0001A6912F0010F03D0DA6812F0010F36D13E
:101FE00023681A6912F0800F03D0DA6812F0800FAC
:101FF00034D123681A6912F0400F03D0DA6812F066
:10200000400F32D123681A6912F0200F03D0DA682A
:1020100012F0200F30D110BDFFF774FF2046FFF7FC
:1020200073FF8AE72046FFF76DFF2046FFF76CFF3E
:102030009BE72046FFF766FF2046FFF765FFACE70A
:102040002046FFF75FFF2046FFF75EFFBDE76FF01A
:1020500001021A612046FEF7E7FFC1E76FF0800238
:102060001A61204600F08BF8C3E76FF040021A6156
:102070002046FFF74AFFC5E76FF020021A612046AD
:1020800000F07CF8C7E700000368254A90420ED0B4
:10209000B0F1804F0BD0A2F57C42904207D002F500
:1020A0008062904203D002F58062904203D123F017
:1020B00070034A6813431A4A90421AD0B0F1804F15
:1020C00017D0A2F57C42904213D002F58062904274
:1020D0000FD002F5806290420BD002F59A32904206
:1020E00007D002F58062904203D002F580629042F0
:1020F00003D123F44073CA68134323F080034A6971
:10210000134303608B68C3620B688362044B98427D
:1021100002D00123436170470B690363F9E700BFF5
:102120000000014040B310B5044690F83D30F3B1D3
:10213000022384F83D30214651F8040BFFF7A4FF39
:10214000012384F8463084F83E3084F83F3084F828
:10215000403084F8413084F8423084F8433084F8C9
:10216000443084F8453084F83D30002010BD80F8BC
:102170003C30FFF789FEDBE701207047704770476E
:1021800010B504460268136923F44053C1680B4339
:102190001361836802691A4343691A43C3691A4386
:1021A0000168CB6823F4164323F00C031343CB6080
:1021B0000268536923F4407381690B4353610368D8
:1021C000314A934206D002F58062934202D0FFF773
:1021D0001DFE01E0FFF72AFEE369B3F5004F29D0A9
:1021E0000021031849411B1841F10001C90041EACF
:1021F0005371DB00181863684FEA83024FEA937348
:1022000041F10001FDF7DCFF204AA2FB0031490942
:10221000642303FB11031B013233A2FB03235B097D
:1022200003F0F00202EB011203F00F0321681344E4
:102230008B6010BD0023021843EB0301121841F11B
:102240000001C90041EA5271D200101841F10001A9
:10225000626892185B41FDF7B3FF0C4AA2FB0031A4
:102260004909642303FB1103DB003233A2FB032380
:102270005B095A0002F4F87202EB011203F0070343
:10228000216813448B60D4E7001001401F85EB5197
:102290002DE9F84305460F4616469946DDF820809D
:1022A0002B681C6837EA04040CBF01240024B442E4
:1022B0002DD1B8F1FF3FF3D0B8F1000F05D0FFF7F3
:1022C00027F9A0EB09004045EAD92A6802F10C037E
:1022D00053E8003F23F4D0730C3242E80031002968
:1022E000F3D12A6802F1140353E8003F23F00103FD
:1022F000143242E800310029F3D1202385F83D3023
:1023000085F83E30002385F83C30032000E00020B3
:10231000BDE8F88358B310B5044690F83D300BB3D0
:10232000242384F83D302268D36823F40053D3601B
:102330002046FFF725FF2268136923F490431361B9
:102340002268536923F02A0353612268D36843F457
:102350000053D36000202064202384F83D3084F8AB
:102360003E3010BD80F83C30FEF782FFD8E70120F8
:1023700070472DE9F04182B01E4690F83D30DBB247
:10238000202B54D104460D469046002953D0002AF4
:1023900053D090F83C30012B51D0012380F83C30D1
:1023A00000230364212380F83D30FFF7B1F807468E
:1023B000A4F82480A4F82680A368B3F5805F05D034
:1023C0004FF00008002384F83C3012E0236913B179
:1023D0004FF00008F6E7A8460025F3E738F8023B7F
:1023E0002268C3F308035360E28C92B2013A92B2BE
:1023F000E284E38C9BB273B100963B4600228021BD
:102400002046FFF745FFE0B9002DE7D015F8012B76
:1024100023685A60E8E700963B46002240212046A8
:10242000FFF736FF78B9202384F83D3000E0022022
:1024300002B0BDE8F0810120FAE70120F8E70220B0
:10244000F6E70320F4E70320F2E708B502F0B1FA5B
:1024500010B102684068904708BD08B54FF0E0230E
:102460001B6901F00FFF012800D108BD00F0FAFA46
:10247000FBE70000EFF305832BB9064B186828B97A
:1024800001221A6070476FF0050070474FF0FF306F
:10249000704700BF4C0E0020EFF3058373B90A4B61
:1024A0001B68012B0DD110B50024084BDC77064BBF
:1024B00002221A6001F044FC204610BD6FF00500B6
:1024C00070474FF0FF3070474C0E002000ED00E0E9
:1024D000F0B587B000240594EFF3058474BB68B3AE
:1024E00022B31568936903B918235C1E372C49D8A9
:1024F000546814F0010F47D156696EB14FEA960C3B
:1025000094682CB1D7685B2F02D9176907B1C6B997
:102510002CB14FF0FF340EE04FF0800CF0E7D468A0
:102520008CB9146994B14FF0FF3404E015460024CF
:1025300018234FF0800C012C0AD0ACB1059807B0DD
:10254000F0BD0124F7E74FF0FF34F4E70024F2E791
:10255000146992680292019400930B4662462946E0
:1025600001F080FB0590E9E705AA019200930B4674
:102570001FFA8CF2294601F0B0FB0128DED00023BF
:102580000593DBE70020DAE70020D8E708B5EFF392
:10259000058333B908B9002008BD01F033FD0020E0
:1025A000FAE76FF00500F7E72DE9F04383B0EFF3AA
:1025B0000587002F43D10646894615461C4600284C
:1025C0003FD0082000F096FB804600283BD00660F4
:1025D0004560B9F1000F00D0012704B32068A3685B
:1025E00013B1E2682B2A10D853B14FF0FF33DBB19F
:1025F0000024404600F000FC204603B0BDE8F08314
:10260000E3687BB14FF0FF33F1E701930F4B009389
:1026100043463A46012102F017F804460CE02046F2
:102620000023E4E70023E2E7084B009343463A46E1
:10263000012101F0EDFF0446002CDDD1D9E7002493
:10264000DAE70024D8E70446D6E700BF4B240008A9
:10265000EFF305836BB90A4670B100B583B0009300
:10266000042102F01BF8012809D1002003B05DF815
:1026700004FB6FF0050070476FF0030070476FF0C8
:102680000200F3E770B582B0EFF30583002B48D169
:102690000E461446002848D0884248D34AB195686F
:1026A00015B1D3684F2B14D8002D42D1E3680BB17C
:1026B00038E0002301280ED06BBB314600F066FDE8
:1026C00005467DB304B124682146284601F0DAF8B6
:1026D00028E00123EEE7ABB903220021012000F03E
:1026E0000EFD0546F5B1002EEBD000231A46194623
:1026F000284600F069FD0128E3D0284601F0ECF8F7
:1027000000250FE0A368032200920022114600F08A
:10271000ACFC0546E6E7A268314600F014FD05462C
:10272000CFE70025284602B070BD0025FAE7002556
:10273000F8E70025F6E720B310B582B00C46EFF3BA
:102740000583B3B101BB0021019101AA01F042F858
:1027500001281CD1019850B14FF0E0234FF0805276
:10276000C3F8042DBFF34F8FBFF36F8F002002B06B
:1027700010BD00F05CFF01280CD06CB16FF00100BF
:10278000F5E76FF0030070476FF00300EFE76FF0BD
:102790000200ECE70020EAE76FF00200E7E720B371
:1027A00000B583B0EFF30583A3B10023019301A922
:1027B00000F035FE01281BD1019898B14FF0E023BD
:1027C0004FF08052C3F8042DBFF34F8FBFF36F8FCC
:1027D000002007E000231A46194600F0F5FC012806
:1027E00009D1002003B05DF804FB6FF003007047CF
:1027F0006FF00200F6E76FF00200F3E7034B0360AF
:10280000034B0B6080231360704700BFF00D002066
:10281000F00B0020034B0360034B0B604FF48073FD
:1028200013607047940B00209407002000F1080308
:1028300043604FF0FF328260C36003610023036096
:10284000704700230361704743684B609A688A6051
:10285000516099600861036801330360704730B4C8
:102860000D68B5F1FF3F11D000F108031C465B680D
:102870001A68AA42FAD963684B6099608C606160FB
:10288000086103680133036030BC70470469F2E7F4
:102890000369416882688A60416851605A6882426F
:1028A00006D0002202611A68013A1A60186870475F
:1028B00082685A60F5E7000082B0002301930D4B57
:1028C0001B68B3F1FF3F08D04FF0500383F311882A
:1028D000BFF36F8FBFF34F8FFEE74FF0500383F3CB
:1028E0001188BFF36F8FBFF34F8F019B002BFCD07C
:1028F00002B070470C00002008480068006880F3B0
:1029000008884FF0000080F3148862B661B6BFF308
:102910004F8FBFF36F8F00DF00BF000008ED00E0B6
:10292000DFF80C00016841F470010160704700009D
:1029300088ED00E04FF0807340F8043C21F0010185
:1029400040F8081C054B40F80C3C40F8202C6FF078
:10295000020340F8243C4438704700BFB9280008FF
:10296000074B19680868B0E8F04F80F30988BFF397
:102970006F8F4FF0000080F311887047AFF3008035
:10298000B44F00204FF0500383F31188BFF36F8FD3
:10299000BFF34F8F0B4A136801331360012B00D034
:1029A00070474FF0E023D3F8043D13F0FF0FF7D04A
:1029B0004FF0500383F31188BFF36F8FBFF34F8F36
:1029C000FEE700BF0C000020094B1B6843B94FF025
:1029D000500383F31188BFF36F8FBFF34F8FFEE770
:1029E000013B034A13600BB983F31188704700BFA2
:1029F0000C000020000000000000000000000000AB
:102A0000EFF30980BFF36F8F154B1A681EF0100F9C
:102A100008BF20ED108A20E9F04F10602DE9090071
:102A20004FF0500080F31188BFF34F8FBFF36F8FCB
:102A300001F00EFB4FF0000080F3118809BC19680B
:102A40000868B0E8F04F1EF0100F08BFB0EC108A15
:102A500080F30988BFF36F8F704700BFAFF300802A
:102A6000B44F002008B54FF0500383F31188BFF333
:102A70006F8FBFF34F8F01F0BDF928B14FF0E02306
:102A80004FF08052C3F8042D002383F3118808BD52
:102A90004FF0E022002313619361054B1B68054949
:102AA000A1FB03139B09013B53610723136170478B
:102AB00000000020D34D62104FF0E023D3F8002D2A
:102AC0003D4B9A421CD04FF0E023D3F8002D3B4BF6
:102AD0009A421ED030B583B0394B1A78D2B20192E7
:102AE000FF221A701B78DBB28DF803309DF803309B
:102AF00003F05003334A1370334B07221A601BE074
:102B00004FF0500383F31188BFF36F8FBFF34F8FE4
:102B1000FEE74FF0500383F31188BFF36F8FBFF3CD
:102B20004F8FFEE7284A1368013B13609DF803307E
:102B30005B00DBB28DF803309DF8033013F0800F9B
:102B4000F0D1214B1B68032B08D04FF0500383F3C7
:102B50001188BFF36F8FBFF34F8FFEE71B021A4A36
:102B6000136003F4E0631360019BDBB2144A13703B
:102B70004FF0E024D4F8203D43F47003C4F8203D26
:102B8000D4F8203D43F07043C4F8203DFFF780FFA8
:102B900000250E4B1D60FFF7C3FED4F8343F43F011
:102BA0004043C4F8343FFFF7A7FE01F051FAFFF7A6
:102BB00083FE284603B030BD71C20F4170C20F4181
:102BC00000E400E0540E0020500E00200C00002015
:102BD000EFF305830F2B0FD9114A9B5CDBB2114A2F
:102BE00012789A4208D94FF0500383F31188BFF34B
:102BF0006F8FBFF34F8FFEE74FF0E023D3F80C3D0C
:102C000003F4E063084A1268934208D94FF0500376
:102C100083F31188BFF36F8FBFF34F8FFEE77047C9
:102C2000F0E300E0540E0020500E0020124A12F093
:102C3000070F1ED0D11D21F00701C1F570531344B9
:102C40000A460E480260002141601344083B23F00D
:102C500007030B48036059601960991A51601360AB
:102C6000084B1960084B1960084B4FF000421A607E
:102C700070474FF47053E4E7780E0020700E002088
:102C80006C0E0020640E0020680E0020580E0020FC
:102C9000164B1A461B688342FBD3516802EB010CAA
:102CA000844509D0416800EB010C634509D00360FD
:102CB000904219D01060704740680144516010463E
:102CC000F0E710B40A4C2468A3420BD05B681944A7
:102CD000416013681B680360904200D010605DF88B
:102CE000044B70470460F7E7704700BF700E002088
:102CF0006C0E002038B5044601F06EF8384B1B68A6
:102D0000B3B1384B1B681C4250D1002C50D004F199
:102D1000080214F0070F02D022F007020832002A3E
:102D200055D0314B1B68934253D330490C6804E0B3
:102D3000FFF77CFFE5E721461C466368934202D219
:102D40002368002BF7D1264B1B68A34243D00D68A4
:102D5000083523680B6063689B1A102B10D9A018E4
:102D600010F0070F08D04FF0500383F31188BFF322
:102D70006F8FBFF34F8FFEE743606260FFF788FFFE
:102D8000626819490B689B1A0B60194909688B42E4
:102D900001D217490B60134B1B6813436360002378
:102DA0002360144A13680133136002E0002500E039
:102DB000002501F0ABF815F0070F0ED04FF05003CF
:102DC00083F31188BFF36F8FBFF34F8FFEE70025AA
:102DD000EFE70025EDE70025EBE7284638BD00BF0B
:102DE0006C0E0020580E0020680E0020700E00208F
:102DF000640E0020600E0020002834D038B5044650
:102E0000A0F1080550F8043C174A1268134208D193
:102E10004FF0500383F31188BFF36F8FBFF34F8FD1
:102E2000FEE750F8081C41B14FF0500383F31188BE
:102E3000BFF36F8FBFF34F8FFEE723EA020340F823
:102E4000043C00F0C9FF54F8041C084A13680B4402
:102E500013602846FFF71CFF054A1368013313600F
:102E600001F054F838BD7047580E0020680E00205D
:102E70005C0E00200346406A18B11B6B1868C0F155
:102E80003800704710B50446FFF77CFDA26BE36B7A
:102E90009A4204D00024FFF797FD204610BD01247C
:102EA000F9E710B50446FFF76DFDA36B23B90124C4
:102EB000FFF78AFD204610BD0024F9E770B50446EF
:102EC0001546866B026C5AB903681BB100200136A7
:102ED000A66370BD806801F031FA0023A360F6E7B5
:102EE0006DB94068FDF786F96368226C134463602E
:102EF000A268934219D3236863602846E7E7C06855
:102F0000FDF778F9E368226C51429B1AE36022686E
:102F1000934202D2A3680B44E360022D01D000204B
:102F2000D5E726B1013E0020D1E72846CFE70020B3
:102F3000CDE70346026C6AB110B50846D968114462
:102F4000D9609C68A14201D31968D960D968FDF79E
:102F500051F910BD704738B50546FFF713FD95F8D8
:102F6000454064B201E0013C64B2002C0ADD6B6AAA
:102F700043B105F1240001F0EBF80028F3D001F093
:102F80007BF9F0E7FF2385F84530FFF71DFDFFF7DC
:102F9000F9FC95F8444064B201E0013C64B2002CB5
:102FA0000ADD2B6943B105F1100001F0D1F80028CA
:102FB000F3D001F061F9F0E7FF2385F84430FFF723
:102FC00003FD38BD38B5E0B10D460446FFF7DAFC25
:102FD0002368E26B216C01FB0230A0600020A0633B
:102FE0006360013A02FB0133E360FF2384F844305D
:102FF00084F84530FDB9236963B9FFF7E5FC01208A
:1030000038BD4FF0500383F31188BFF36F8FBFF3C8
:103010004F8FFEE704F1100001F09AF80028ECD081
:103020004FF0E0234FF08052C3F8042DBFF34F8FD1
:10303000BFF36F8FE1E704F11000FFF7F7FB04F136
:103040002400FFF7F3FBD8E738B51D46049C0B4678
:1030500049B92460E063236401212046FFF7B2FFF1
:1030600084F84C5038BD2260F4E740B94FF050036B
:1030700083F31188BFF36F8FBFF34F8FFEE710B557
:1030800084B01C46844653B192B189B94FF05003C5
:1030900083F31188BFF36F8FBFF34F8FFEE74FF0BD
:1030A000500383F31188BFF36F8FBFF34F8FFEE799
:1030B0006AB150230393039B502B13D04FF050035E
:1030C00083F31188BFF36F8FBFF34F8FFEE70029A3
:1030D000EFD04FF0500383F31188BFF36F8FBFF32E
:1030E0004F8FFEE7039B012384F8463000949DF840
:1030F00018306046FFF7A8FF204604B010BD40B965
:103100004FF0500383F31188BFF36F8FBFF34F8FDE
:10311000FEE7F0B583B00D461446064601FB00F00D
:103120005030FFF7E7FD074650B1002380F84630E6
:103130000090234600F1500229463046FFF784FFF5
:10314000384603B0F0BD40B94FF0500383F3118807
:10315000BFF36F8FBFF34F8FFEE710B582B00C4601
:10316000884208D24FF0500383F31188BFF36F8F6A
:10317000BFF34F8FFEE70223009313460022114650
:10318000FFF773FF00B1846302B010BD40B94FF088
:10319000500383F31188BFF36F8FBFF34F8FFEE7A8
:1031A00010B50C46884208D24FF0500383F31188C3
:1031B000BFF36F8FBFF34F8FFEE702220021FFF7AF
:1031C0009EFF00B1846310BDF0B585B0019288B157
:1031D0000F461D460446B1B1022D20D1E36B012BF1
:1031E0001DD04FF0500383F31188BFF36F8FBFF3EF
:1031F0004F8FFEE74FF0500383F31188BFF36F8FBB
:10320000BFF34F8FFEE7036C002BE5D04FF0500368
:1032100083F31188BFF36F8FBFF34F8FFEE701F089
:1032200031F8064658B9019B002B48D04FF05003A7
:1032300083F31188BFF36F8FBFF34F8FFEE7002634
:103240003DE02A4639462046FFF738FE636A7BB9DF
:1032500048B14FF0E0234FF08052C3F8042DBFF384
:103260004F8FBFF36F8FFFF7AFFB012005B0F0BDAD
:1032700004F1240000F06CFF0028F4D04FF0E023AC
:103280004FF08052C3F8042DBFF34F8FBFF36F8F01
:10329000E9E7FFF799FB0020E8E702A800F09EFFAE
:1032A000012619E0002384F8443021E0002384F84B
:1032B000453023E02046FFF74EFE00F027FEFFF7E3
:1032C00061FBA26BE36B9A42BBD3022DB9D0019B89
:1032D000002BDED0002EE0D0FFF776FB00F07CFD67
:1032E000FFF750FB94F8442052B2B2F1FF3FD9D01F
:1032F00094F8452052B2B2F1FF3FD7D0FFF764FBFC
:1033000001A902A800F076FFD8B92046FFF7BAFD60
:103310000028CFD0019904F1100000F0E5FE20460E
:10332000FFF719FE00F0F2FD0028C8D14FF0E023AE
:103330004FF08052C3F8042DBFF34F8FBFF36F8F50
:10334000BDE72046FFF707FE00F0E0FD00208DE717
:103350002DE9F84390B10F4616461C460546B1B11B
:10336000022C20D1EB6B012B1DD04FF0500383F3C7
:103370001188BFF36F8FBFF34F8FFEE74FF05003FD
:1033800083F31188BFF36F8FBFF34F8FFEE7036C9A
:10339000002BE5D04FF0500383F31188BFF36F8FFC
:1033A000BFF34F8FFEE7FFF713FCEFF311884FF0E9
:1033B000500383F31188BFF36F8FBFF34F8FAA6B56
:1033C000EB6B9A4206D3022C04D0002088F31188BC
:1033D000BDE8F88395F845904FFA89F9AB6B224622
:1033E00039462846FFF76AFDB9F1FF3F06D009F1DB
:1033F00001035BB285F845300120E7E76B6A0BB942
:103400000120E3E705F1240000F0A2FE18B126B187
:1034100001203060DAE70120D8E70120D6E768B163
:1034200070B50C460546036C8BB14FF0500383F327
:103430001188BFF36F8FBFF34F8FFEE74FF050033C
:1034400083F31188BFF36F8FBFF34F8FFEE70368DD
:10345000EBB1FFF7BDFBEFF311864FF0500383F3A1
:103460001188BFF36F8FBFF34F8FAA6BEB6B934243
:1034700026D995F845305BB20132AA63B3F1FF3F1C
:1034800011D001335BB285F84530012019E0836823
:10349000002BDED04FF0500383F31188BFF36F8F02
:1034A000BFF34F8FFEE76B6A0BB9012009E005F10E
:1034B000240000F04DFE38B144B10120206000E04E
:1034C000002086F3118870BD0120FAE70120F8E79B
:1034D000F0B585B0019290B10F460446C1B100F03D
:1034E000D1FE064600BB019B002B5ED04FF050037F
:1034F00083F31188BFF36F8FBFF34F8FFEE74FF059
:10350000500383F31188BFF36F8FBFF34F8FFEE734
:10351000036C002BE3D04FF0500383F31188BFF30B
:103520006F8FBFF34F8FFEE700263EE039462046FF
:10353000FFF7FFFC013DA563236923B9FFF744FAB8
:10354000012005B0F0BD04F1100000F001FE0028DC
:10355000F4D04FF0E0234FF08052C3F8042DBFF3B6
:103560004F8FBFF36F8FE9E7FFF72EFA0020E8E7F0
:1035700002A800F033FE012621E0002384F8443045
:1035800029E0002384F845302BE02046FFF7E3FCD8
:1035900000F0BCFC09E02046FFF7DDFC00F0B6FCC3
:1035A0002046FFF77EFC00283FD1FFF7EBF9A56B23
:1035B000002DBBD1019B002BD6D0002ED8D0FFF719
:1035C00003FA00F009FCFFF7DDF994F844305BB230
:1035D000B3F1FF3FD1D094F845305BB2B3F1FF3F78
:1035E000CFD0FFF7F1F901A902A800F003FE0028EF
:1035F000D1D12046FFF755FC0028C6D0019904F12F
:10360000240000F071FD2046FFF7A5FC00F07EFCD1
:103610000028CAD14FF0E0234FF08052C3F8042DA8
:10362000BFF34F8FBFF36F8FBFE7002089E770B5FF
:1036300084B0019158B10446036C8BB14FF0500334
:1036400083F31188BFF36F8FBFF34F8FFEE74FF007
:10365000500383F31188BFF36F8FBFF34F8FFEE7E3
:1036600000F010FE054650B9019B5BB14FF05003CE
:1036700083F31188BFF36F8FBFF34F8FFEE70026F0
:10368000354655E0064653E0013BA36323683BB152
:1036900023694BB9FFF798F90126304604B070BD95
:1036A00000F0E4FEA060F3E704F1100000F050FD2C
:1036B0000028EFD04FF0E0234FF08052C3F8042DE4
:1036C000BFF34F8FBFF36F8FE4E746B14FF0500366
:1036D00083F31188BFF36F8FBFF34F8FFEE7FFF7C0
:1036E00073F9DAE702A800F079FD01252AE000234A
:1036F00084F8443032E0002384F8453034E0FFF7AA
:1037000041F9A06800F0CEFD0646FFF75DF93BE009
:103710002046FFF720FC00F0F9FB09E02046FFF708
:103720001AFC00F0F3FB2046FFF7BBFB002842D158
:10373000FFF728F9A36B002BA6D1019B002BC4D067
:10374000002DCFD0FFF740F900F046FBFFF71AF944
:1037500094F844305BB2B3F1FF3FC8D094F84530E1
:103760005BB2B3F1FF3FC6D0FFF72EF901A902A863
:1037700000F040FD0028D1D12046FFF792FB002841
:10378000C6D02368002BBAD0019904F1240000F0C0
:10379000ABFC2046FFF7DFFB00F0B8FB0028C7D1E9
:1037A0004FF0E0234FF08052C3F8042DBFF34F8F4A
:1037B000BFF36F8FBCE70EB900266EE7FFF7E2F8A4
:1037C0002046FFF757FB0146A06800F0FFFDFFF71A
:1037D000FBF8F1E72DE9F843B0B10D4690460446F9
:1037E000D9B1FFF7F5F9EFF311874FF0500383F3E9
:1037F0001188BFF36F8FBFF34F8FA66BCEB9002038
:1038000087F31188BDE8F8834FF0500383F31188E4
:10381000BFF36F8FBFF34F8FFEE7036C002BE0D039
:103820004FF0500383F31188BFF36F8FBFF34F8FB7
:10383000FEE794F844904FFA89F929462046FFF7AD
:1038400078FB731EA363B9F1FF3F06D009F10103B2
:103850005BB284F844300120D2E723690BB9012020
:10386000CEE704F1100000F073FC30B1B8F1000FA6
:1038700005D00120C8F80000C2E70120C0E7012000
:10388000BEE700000023072B0CD8074A52F833206C
:103890000AB10133F7E7044A42F8331002EBC302DE
:1038A00050607047704700BF784A00200023072B04
:1038B0000FD8084A02EBC3025268824201D001339A
:1038C000F5E7044A002142F8331002EBC3025160CD
:1038D00070477047784A002038B110B50446FFF7AA
:1038E000E5FF94F846304BB110BD4FF0500383F321
:1038F0001188BFF36F8FBFF34F8FFEE72046FFF7AE
:103900007BFAF1E770B504460D461646FFF73AF824
:1039100094F844305BB2B3F1FF3F0DD094F84530DA
:103920005BB2B3F1FF3F0BD0FFF74EF8A36B5BB177
:103930002046FFF710FB70BD002384F84430EDE70C
:10394000002384F84530EFE73246294604F124008D
:1039500000F0E2FBECE70000084B1B681B6823B992
:10396000074B4FF0FF321A607047044B1B68DB684F
:10397000DB685A68024B1A60704700BF284B002072
:10398000C04A00202DE9F04780460D46174699466B
:10399000089EDDF824A00A9C9200A521206B01F06E
:1039A0008BFA236B07F18042013A03EB820727F081
:1039B0000707A5B34FF0000CBCF10F0F09D815F89D
:1039C0000C3004EB0C0282F8343013B10CF1010C12
:1039D000F2E7002384F84330372E00D93726E66219
:1039E000E66400252565201DFEF72BFF04F1180075
:1039F000FEF727FF2461C6F13806A661646265659B
:103A000084F858504A4641463846FEF793FF2060F6
:103A1000BAF1000F01D0CAF80040BDE8F0870023DA
:103A200084F83430D8E7000038B5002407E004EB10
:103A3000840293000E481844FEF7F8FE0134372C38
:103A4000F5D90C4D2846FEF7F1FE0B4C2046FEF74B
:103A5000EDFE0A48FEF7EAFE0948FEF7E7FE0948D0
:103A6000FEF7E4FE084B1D60084B1C6038BD00BF2C
:103A7000544B0020404B00202C4B0020104B0020CA
:103A8000FC4A0020E44A0020284B0020244B002060
:103A900010B50446FEF776FF224A1368013313601F
:103AA000214B1B685BB1214B1B686BB91E4B1B681C
:103AB000DA6AE36A9A4207D81B4B1C6004E01A4B8F
:103AC0001C601368012B29D0194A13680133136055
:103AD0006364E06A174B1B68984201D9154B186064
:103AE00000EB8000211D144B03EB8000FEF7ACFEC1
:103AF000FEF76AFF0D4B1B687BB10B4B1B68DA6A44
:103B0000E36A9A4209D24FF0E0234FF08052C3F8A3
:103B1000042DBFF34F8FBFF36F8F10BDFFF784FFEE
:103B2000D2E700BFE04A0020B44F0020D44A002072
:103B3000C44A0020D84A0020544B002010B5044647
:103B400090F8593063B1012B11D0022B0ED04FF0F9
:103B5000500383F31188BFF36F8FBFF34F8FFEE7DE
:103B6000006BFFF749F92046FFF746F910BDFFF754
:103B700043F9FBE70F4B1B68D3B110B5FEF702FF0B
:103B80000D4BDB68DC68201DFEF782FE0B4A1368D4
:103B9000013B1360074A1368013B1360FEF714FFF3
:103BA0002046FFF7CBFF034B1B68002BE6D110BD6F
:103BB000704700BFF84A0020FC4A0020E04A00207D
:103BC00008B5FFF7D7FF074B1B68012BF9D94FF05A
:103BD000E0234FF08052C3F8042DBFF34F8FBFF3A3
:103BE0006F8FEEE7544B002070B504460D46174B1F
:103BF0001E68174B18680430FEF74AFEB4F1FF3F09
:103C00000DD03444124B1B685C60A64210D9114B96
:103C100018680F4B19680431FEF721FE70BD002DA6
:103C2000EFD00B4B196804310B48FEF70DFEF5E79A
:103C30000A4B1868064B19680431FEF710FE084B52
:103C40001B68A342EAD9064B1C60E7E7DC4A002068
:103C5000B44F0020244B0020E44A0020284B0020D1
:103C6000C04A002030B587B00B9C7CB10C9DB5B12B
:103C70005C250495049D5C2D1AD04FF0500383F30E
:103C80001188BFF36F8FBFF34F8FFEE74FF05003E4
:103C900083F31188BFF36F8FBFF34F8FFEE74FF0B1
:103CA000500383F31188BFF36F8FBFF34F8FFEE78D
:103CB000049D0C9D2C63022485F859400024039434
:103CC000029505AC01940A9C0094FFF75BFE0C98EA
:103CD000FFF7DEFE059807B030BD2DE9F04385B053
:103CE0000746884614461E469000FFF703F808B3BF
:103CF00081465C20FEF7FEFF0546A8B1C0F8309073
:103D0000002380F85930039302900D9B01930C9B84
:103D100000933346224641463846FFF733FE284695
:103D2000FFF7B6FE012007E04846FFF765F84FF0C1
:103D3000FF3001E04FF0FF3005B0BDE8F083000038
:103D400010B588B000240594069407AA06A905A812
:103D5000FEF754FD059B0293069B019300942346B6
:103D6000079A17491748FFF77DFF174B1860C0B136
:103D700000F01CFC012815D14FF0500383F311888B
:103D8000BFF36F8FBFF34F8F104B4FF0FF321A60AE
:103D90000F4B01221A600F4B00221A60FEF78CFEB7
:103DA00003E00020B0F1FF3F01D008B010BD4FF09C
:103DB000500383F31188BFF36F8FBFF34F8FFEE77C
:103DC00038B20008C13B0008BC4A0020C04A0020AD
:103DD000D44A0020DC4A0020024A136801331360F1
:103DE000704700BFB84A0020014B1868704700BFF9
:103DF000DC4A0020F8B53A4B1B68002B69D1394BDF
:103E00001D6801351D60C5B9374B1B681B6843B180
:103E10004FF0500383F31188BFF36F8FBFF34F8FC1
:103E2000FEE7314A1168314B186810601960304A5A
:103E3000136801331360FFF78FFD2E4B1B68AB42F5
:103E40003DD900272C4B1B68DB6A03EB83039A00E8
:103E50002A4B9B58012B00D90127294B1B68002BAB
:103E60003CD001273AE001271F4B1B681B6843B376
:103E70001D4B1B68DB68DC6863689D4226D3261DEA
:103E80003046FEF705FDA36A1BB104F11800FEF7EA
:103E9000FFFCE36A1B4A1268934201D9194A136076
:103EA00003EB83039A00314614481044FEF7CCFC20
:103EB000E26A114B1B68DB6A9A42D4D2D4E700272E
:103EC000D2E70C4B4FF0FF321A60BBE7094A136090
:103ED000B8E70D4A13680133136000273846F8BD70
:103EE000B84A0020DC4A0020284B0020244B002048
:103EF000C84A0020C04A0020B44F0020544B002084
:103F0000CC4A0020D84A0020D04A002038B5354B92
:103F10001B6843B94FF0500383F31188BFF36F8FD1
:103F2000BFF34F8FFEE7FEF72DFD2E4B1A68013AC7
:103F30001A601B68002B4FD12B4B1B680BB9002458
:103F40004BE00024294B1B681BB3284BDB68DC6863
:103F500004F11800FEF79CFC251D2846FEF798FC8E
:103F6000E06A234B1B68984201D9214B186000EB93
:103F7000800029461F4B03EB8000FEF765FCE26AD8
:103F80001D4B1B68DB6A9A42DCD31C4B01221A6072
:103F9000D8E70CB1FFF7E0FC194B1C6884B9174B4C
:103FA0001C68D4B14FF0E0234FF08052C3F8042DC9
:103FB000BFF34F8FBFF36F8F01240EE0013C07D09A
:103FC000FFF718FF0028F9D00C4B01221A60F5E723
:103FD0000B4B00221A60E2E70024FEF7F5FC2046B6
:103FE00038BD00BFB84A0020E04A0020104B002036
:103FF000D84A0020544B0020B44F0020CC4A002067
:10400000D04A002010B5A8B10446104B1B6843B13C
:104010004FF0500383F31188BFF36F8FBFF34F8FBF
:10402000FEE7FFF7D9FE00212046FFF7DDFDFFF791
:104030006DFF48B94FF0E0234FF08052C3F8042DD4
:10404000BFF34F8FBFF36F8F10BD00BFB84A002082
:10405000204B1B681BB1204B01221A6070471E4B7E
:1040600000221A601D4B1B6803EB83018A001C4968
:104070008A585AB90BB1013BF6E74FF0500383F36E
:104080001188BFF36F8FBFF34F8FFEE7084603EB36
:1040900083018A00024451684968516003EB830C34
:1040A0004FEA8C020832024491420BD003EB8302A8
:1040B00091000B4A0A445268D1680A4A1160074AC3
:1040C00013607047486862469100054A0A44506090
:1040D000ECE700BFB84A0020CC4A0020D84A0020B4
:1040E000544B0020B44F002058B110B50C46094A7B
:1040F00011681831FEF7B3FB01212046FFF774FD6C
:1041000010BD4FF0500383F31188BFF36F8FBFF3DF
:104110004F8FFEE7B44F002038B570B10D461446FE
:104120000A4A11681831FEF78FFB0CB14FF0FF35CA
:1041300021462846FFF758FD38BD4FF0500383F362
:104140001188BFF36F8FBFF34F8FFEE7B44F00208E
:1041500038B5C368DC6824B304F118052846FEF7B7
:1041600097FB184B1B682BBB251D2846FEF790FBC1
:10417000E06A154B1B68984201D9134B186000EB9D
:1041800080002946114B03EB8000FEF75DFBE26ADD
:104190000F4B1B68DB6A9A4211D901200D4B186046
:1041A00038BD4FF0500383F31188BFF36F8FBFF317
:1041B0004F8FFEE729460848FEF746FBE7E7002059
:1041C000EEE700BFB84A0020D84A0020544B002038
:1041D000B44F0020CC4A0020104B0020034B1B683A
:1041E0000360034B1B684360704700BFC84A002050
:1041F000DC4A0020F8B5C8B10C460546F9B1FEF717
:10420000C1FB1B4B19686B68C81A2268B2F1FF3FEB
:1042100026D0184E36682F68B74201D08B4224D979
:10422000824215D80023236001241AE04FF0500386
:1042300083F31188BFF36F8FBFF34F8FFEE74FF00B
:10424000500383F31188BFF36F8FBFF34F8FFEE7E7
:104250005B1A134423602846FFF7C0FF002400E0E8
:104260000024FEF7B1FB2046F8BD0124F9E700BFAA
:10427000DC4A0020C84A0020014B01221A60704726
:10428000CC4A0020054B1B6833B1054B1B680BB1B2
:10429000002070470220704701207047D44A002058
:1042A000B84A002000283ED038B50446C36A204AE8
:1042B0001268D26A93422ED28269002A05DB1C4A18
:1042C0001268D26AC2F138028261616903EB83032A
:1042D000184A02EB8303994205D0154B1B68DB6A31
:1042E000E362012038BD251D2846FEF7D1FA104BA8
:1042F0001B68D86AE062104B1B68984201D90E4BCC
:10430000186000EB800029460A4B03EB8000FEF7A3
:104310009BFA0120E6E7C26C054B1B68DB6A9A42F8
:1043200003D30020DEE7002070470120DAE700BF5A
:10433000B44F0020544B0020D84A002000283BD026
:1043400038B504461E4B1B68834208D04FF050031B
:1043500083F31188BFF36F8FBFF34F8FFEE7036DB9
:1043600043B94FF0500383F31188BFF36F8FBFF34E
:104370004F8FFEE7013B0365C16AC26C91421DD0BD
:104380000BB1002038BD051D2846FEF781FAE06C10
:10439000E062C0F13803A3610A4B1B68984201D95F
:1043A000084B186000EB80002946074B03EB8000A8
:1043B000FEF74AFA0120E5E7002070470020E1E718
:1043C000B44F0020D84A0020544B0020002846D08B
:1043D00038B50446036D43B94FF0500383F3118899
:1043E000BFF36F8FBFF34F8FFEE7C26C8A4200D2DC
:1043F0000A46E16A914201D0012B00D038BD184B2A
:104400001B68A34222D0E262A369002B02DBC2F147
:104410003802A261626901EB8101124B03EB810357
:104420009A42EBD1251D2846FEF732FAE06A0E4B80
:104430001B68984201D90C4B186000EB800029469C
:10444000084B03EB8000FEF7FFF9D7E74FF050036E
:1044500083F31188BFF36F8FBFF34F8FFEE7704771
:10446000B44F0020544B0020D84A0020054B1B6855
:1044700023B1044B1A68136D01331365014B18689F
:10448000704700BFB44F0020064B1A6813682BB961
:104490000123036023B9D368186870470023F8E745
:1044A00000207047B850002008B54160006191427B
:1044B0000CD8D21A83699A4201D3012008BD011D8C
:1044C000094B1868FEF7CBF90020F7E79A4201D2B2
:1044D000994206D2011D054B1868FEF7C0F900206D
:1044E000ECE70120EAE700BFB4500020B8500020FC
:1044F00030B583B0FEF746FA114B1B681BB1FEF7CF
:1045000063FA03B030BD0F4D2846FEF78FF90E4C0D
:104510002046FEF78BF90D4B1D600D4B1C600023F0
:1045200000930C4B0C4A10210A20FEF79EFD044B11
:1045300018600028E3D00949FFF7A4F9DFE700BFBE
:10454000B0500020D0500020BC500020B8500020B7
:10455000B4500020B84F00200850002040B200089E
:104560002DE9F041079F41B94FF0500383F31188C3
:10457000BFF36F8FBFF34F8FFEE7064614461D460D
:1045800088468FB1FFF7B4FF3E60C7F81880FD6121
:10459000069B3B62381DFEF754F92CB197F8283082
:1045A00043F0040387F82830BDE8F08110B588B0E7
:1045B000FFF79EFF124B1B68CBB1002405940694B5
:1045C00007AA06A905A8FEF725F9059B0293069BF5
:1045D0000193022300932346079A0A490A48FFF7EA
:1045E00041FB0A4B186010B1012008B010BD4FF01C
:1045F000500383F31188BFF36F8FBFF34F8FFEE734
:10460000B050002048B200089D490008AC5000207E
:104610002DE9F04182B00446884617461D462C20FD
:10462000FEF768FB064658B1002380F82830019059
:10463000089B00932B463A4641462046FFF790FFE1
:10464000304602B0BDE8F08110B584B084462C201D
:10465000039003982C2808D04FF0500383F311885F
:10466000BFF36F8FBFF34F8FFEE70398079860B1DA
:104670000220079C84F82800019406980090604668
:10468000FFF76EFF079804B010BD4FF0500383F39F
:104690001188BFF36F8FBFF34F8FFEE7B8B19C4611
:1046A00003461848006858B300B585B000910192E0
:1046B000029305291CDCFFF7E5FD022810D000233A
:1046C0001A4669460F480068FEF77EFD15E04FF078
:1046D000500383F31188BFF36F8FBFF34F8FFEE753
:1046E0000023069A694607480068FEF76DFD04E05E
:1046F000002362466946FEF72BFE05B05DF804FB19
:1047000000207047B050002070B582B01B4B1B6872
:104710001A6862B3DB681E68DC68251D2846FEF750
:10472000B7F8236A2046984794F8283013F0040F0E
:10473000ECD0A36933449E4207D2636024612946CA
:104740000E4B1868FEF78BF8E0E7002100910B464E
:1047500032462046FFF7A2FF0028D7D14FF0500382
:1047600083F31188BFF36F8FBFF34F8FFEE7044AC7
:10477000106802490860136002B070BDB850002094
:10478000B450002038B50546FFF72EFB0446074B12
:104790001B68834205D800232B60044B1C60204615
:1047A00038BDFFF7B1FF01232B60F6E7A8500020CA
:1047B00070B582B006460D4617490968C968CC68CD
:1047C000201DFEF765F894F828C01CF0040F08D1EE
:1047D0002CF0010C84F828C0236A2046984702B0C8
:1047E00070BDA16933462A4631442046FFF75CFE7E
:1047F0000028F1D0002100910B4632462046FFF7F9
:104800004DFF0028E8D14FF0500383F31188BFF328
:104810006F8FBFF34F8FFEE7B850002070B582B0A6
:1048200006460C46FFF7D8FA01A8FFF7ABFF019B3D
:1048300033BB0546E4B9B04213D22246711B124B7A
:104840001868FFF75FF8FFF761FBD8B94FF0E02376
:104850004FF08052C3F8042DBFF34F8FBFF36F8F1B
:1048600010E0FFF753FB29463046FFF7A1FF09E0B0
:10487000064A126812680AB90124DEE71C46DCE722
:10488000FFF744FB02B070BDB0500020B4500020D0
:1048900010B588B002E0049B002B0FDA002204A9B7
:1048A0003D4B1868FEF714FE002873D0049B002BC4
:1048B000F1DA07990698059B9847ECE7069C63692F
:1048C00013B1201DFDF7E4FF03A8FFF75BFF049B76
:1048D000092BE3D8DFE803F005050530375005055F
:1048E000303794F8283043F0010384F82830059BD2
:1048F000A169024619442046FFF7D6FD0028CDD015
:10490000236A2046984794F8283013F0040FC5D046
:10491000A269002100910B46059802442046FFF74A
:10492000BDFE0028BAD14FF0500383F31188BFF3C6
:104930006F8FBFF34F8FFEE794F8283023F0010309
:1049400084F82830AAE794F8283043F0010384F86B
:1049500028300599A16131B1034602460144204641
:10496000FFF7A2FD9AE74FF0500383F31188BFF3DE
:104970006F8FBFF34F8FFEE794F8283013F0020FCC
:1049800004D023F0010384F8283087E72046FEF79F
:1049900033FA83E708B010BDB050002000B583B0F3
:1049A00001A8FFF771FD0199FFF738FFFFF770FFCE
:1049B000F6E740B110B50446FDF7E4FFE469FEF701
:1049C00003F8204610BD4FF0500383F31188BFF366
:1049D0006F8FBFF34F8FFEE72DE9F047089D0C4620
:1049E000002B4ED194468C458646B2FA82F262D9AB
:1049F0004AB1C2F12003914020FA03F30CFA02FC01
:104A0000194300FA02FE4FEA1C471FFA8CF6B1FB6D
:104A1000F7F44FEA1E4307FB141143EA014304FB7A
:104A200006F199420AD91CEB030304F1FF3080F030
:104A30001381994240F21081023C6344591A1FFAD3
:104A40008EF3B1FBF7F007FB101143EA014300FBC3
:104A500006F69E420AD91CEB030300F1FF3180F0F9
:104A6000FD809E4240F2FA80634402389B1B40EA7C
:104A7000044000211DB1D3400022C5E90032BDE849
:104A8000F0878B4205D90DB1C5E900010021084628
:104A9000F5E7B3FA83F1002946D1A34202D390424D
:104AA000C0F0F180861A64EB03030120002DE6D0EC
:104AB000C5E90063E3E7002A40F09180A1EB0C0414
:104AC0004FEA1C481FFA8CF70121B4FBF8F64FEAB5
:104AD0001E4308FB164443EA044307FB06F09842D2
:104AE00008D91CEB030306F1FF3402D2984200F20E
:104AF000CE8026461C1A1FFA8EF3B4FBF8F008FB92
:104B0000104443EA044300FB07F79F4208D91CEB1B
:104B1000030300F1FF3402D29F4200F2B18020462D
:104B2000DB1B40EA0640A5E7C1F120068B4022FAD4
:104B300006F71F4320FA06FC04FA01F343EA0C03CC
:104B4000F44000FA01F8380C4FEA1349B4FBF0FEC8
:104B50001FFA87FC00FB1E4449EA04440EFB0CF9D3
:104B6000A14502FA01F20AD93C190EF1FF3A80F090
:104B70008580A14540F28280AEF1020E3C44A4EB58
:104B800009041FFA83F9B4FBF0F300FB134449EA6C
:104B9000044403FB0CFCA44507D93C1903F1FF3086
:104BA00068D2A44566D9023B3C4443EA0E40A0FBD0
:104BB0000293A4EB0C049C42CE469C4652D34FD0A9
:104BC00055B1B8EB0E0364EB0C0404FA06F6CB40C7
:104BD000CC401E43C5E900640021BDE8F087C2F166
:104BE000200320FA03F10CFA02FC24FA03F39440A8
:104BF0000C434FEA1C4800FA02FE1FFA8CF7B3FB85
:104C0000F8F008FB1031230C43EA014300FB07F1E5
:104C1000994208D91CEB030300F1FF362CD29942CC
:104C20002AD9023863445B1AA4B2B3FBF8F108FB3B
:104C3000113344EA034401FB07F3A34208D91CEBF8
:104C4000040401F1FF3613D2A34211D9023964449E
:104C5000E41A41EA004138E70446EFE6084605E772
:104C6000C845ADD2B9EB020E63EB070C0138A7E7DC
:104C70003146EDE7034698E73046D4E7D6467EE76F
:104C8000634402384CE70646234608460EE7023ED8
:104C900063442FE70EB410B59DB06FF000411FAB19
:104CA00004910791094953F8042B02900690084C8F
:104CB0000868019302A9059400F046FC029B0022BB
:104CC0001A701DB0BDE8104003B070471C000020F2
:104CD0000802FFFF024A0349034800F0C9B800BFB9
:104CE000100000209D710008200000200C4B41683E
:104CF000994210B5044601D002F050FAA168094B60
:104D0000994202D0204602F049FAE168064B9942E6
:104D100004D02046BDE8104002F040BA10BD00BFEC
:104D2000E45000204C510020B45100202DE9F843FC
:104D3000314C324B3248DFF8DC90DFF8DC80314F09
:104D40001860002529460423082204F15C002E4E39
:104D5000E360C4E90055C4E90455A5606566A56132
:104D600000F0AAF804F15800C4E90749C4E909872A
:104D7000E66200F021F92946244B6367082204F11A
:104D8000C400C4E91A55C4E91E552567C4F8CC50BF
:104D9000C4F8805000F090F804F1680304F1C000FA
:104DA000C4F88430C4E92298C4E9247600F004F9F8
:104DB000174BC4F8DC30294604F596700822C4E984
:104DC0003455C4E93855C4F8D850C4F83451C4F83F
:104DD000E85000F071F804F1D003C4E93D87C4F84D
:104DE000F09004F59470C4F8FC60C4F8EC30BDE8B1
:104DF000F84300F0E1B800BFE45000201C5200204E
:104E0000D54C0008517400087574000809000100B1
:104E100012000200ED7300081174000810B504467A
:104E20000A4800F0CDF8636B23B9094B094A1B68A7
:104E3000626323B1BDE81040044800F0C3B8FFF737
:104E400075FFBDE81040014800F0BCB828520020B2
:104E50001C520020ED4C0008014800F0B1B800BF22
:104E600028520020014800F0ADB800BF28520020B1
:104E70002DE9F84380460F4616464FF00009D6E963
:104E80000154013D11D4A389012B05F1FF3508D947
:104E9000B4F90E300133214603D04046B84749EA01
:104EA00000096B1C04F16804EDD13668002EE6D1D0
:104EB0004846BDE8F88300BF830730B547D0541E8D
:104EC000002A3ED0CAB2034601E0013C39D303F8C0
:104ED000012B9D07F9D1032C2CD9CDB205EB05256B
:104EE0000F2C05EB054535D9A4F1100222F00F0C6B
:104EF00003F1100EE6444FEA121C1A461560556085
:104F00009560D56010327245F8D10CF1010214F0B1
:104F10000C0F03EB021204F00F0C13D0ACF10403DE
:104F200023F003030433134442F8045B9A42FBD199
:104F30000CF003042CB1C9B21C4403F8011B9C42C1
:104F4000FBD130BD64461346002CF4D1F9E703468B
:104F50001446C0E71A46A446E0E700BF014B1868B4
:104F6000704700BF1C00002070B50F4B0F4DAB42C7
:104F7000A3EB050607D0B610002455F8043B013416
:104F80009847A642F9D806F0AFF8094D094B5E1BC9
:104F9000AB424FEAA60606D0002455F8043B013484
:104FA0009847A642F9D870BD50B6000850B6000820
:104FB00050B6000858B60008704700BF704700BFE1
:104FC000704700BF704700BF024B13B1024800F0AA
:104FD00005B8704700000000E17500080023014695
:104FE0001A46184602F042BB2DE9F04F01F10B05BD
:104FF000162D85B0064623D8102900F2BC8002F099
:10500000C1F8102518230221B84F3B44A3F1080230
:105010005C68944200F029816368E26823F003032E
:105020002344A168CA6091605A6842F00102304688
:105030005A60083402F0ACF8204605B0BDE8F08FA5
:1050400035F0070500F19780A94200F2948002F044
:1050500099F8B5F5FC7FC0F071816B0A00F08F8084
:10506000042B00F22D81AB0903F1390103F1380C57
:10507000CB009E4F3B44A3F108005C68A04206D1E0
:105080000CE0002A80F2EE80E468A04206D063685B
:1050900023F003035A1B0F2AF3DD6146DFF860C2D9
:1050A0003C69644500F0CC80626822F00302531B27
:1050B0000F2B00F34781002BC7E904CC80F2348129
:1050C000B2F5007F80F0D780D308786801334FEACB
:1050D000521E012202FA0EF2024357F833E0C4F8DE
:1050E00008E007EBC3000838E0607A6047F8334017
:1050F000CEF80C408B1001209840904245D81042C9
:1051000006D121F003014000104201F10401FAD060
:1051100007EBC1094C468E46D4F80C80444508D1B3
:10512000DAE0002B80F2F080D8F80C80444500F0E3
:10513000D380D8F8042022F00302531B0F2BF0DD9C
:105140003046D8E9026408EB050145F00105C8F8CE
:105150000450F460A66043F00104C7E904114C60F8
:10516000C1F808C0C1F80CC048F8023002F010F8CD
:1051700008F1080460E70C23336000245CE74FF477
:10518000007340214FF03F0C73E7BC68636823F065
:105190000309A94503D3A9EB05030F2B52DC544B9C
:1051A000DFF860B11B68082003F1100802F00AFA6A
:1051B000DBF8003001900133A84404EB090205D06C
:1051C00008F1FF388044434203EA0808414630466C
:1051D000029202F0CFF9B0F1FF3F029A824600F04E
:1051E000CC80824200F2C780424B0199186840444B
:1051F0001860844601F1FF3140F0EB801AEA010F9C
:1052000040F0E780D7F808A0C84448F00102CAF887
:105210000420394B1968814238BF1860374B196830
:10522000814238BF1860544622F00308A845A8EB15
:10523000050301D30F2B05DC304601F0A9FF9CE7E5
:105240007A6857E7621943F0010345F0010565608C
:105250003046BA60536001F09BFF0834204605B029
:10526000BDE8F08FE2682344DBE6DC68A3427FF40C
:10527000D3AE023112E7B2F5206F4FEA522374D356
:10528000142B00F2098103F15C00C0005B3307EBD3
:10529000000E3858AEF1080E864503D1E2E0806872
:1052A000864504D0436823F003039342F7D8D0F82F
:1052B0000CE07A68C4E9020ECEF80840C46019E731
:1052C000142B5DD9542B00F2EF802B0B03F16F01EF
:1052D00003F16E0CCB00CCE60EF1010E1EF0030FB5
:1052E00004F108047FF418AF55E000BF500100201E
:1052F00060520020305200205C52002058520020A2
:105300005801002044010020424444465368D8F824
:105310000C1043F00103536054F8083F3046D96045
:105320008B6001F035FF87E622443046536843F036
:1053300001035360083401F02BFF7DE6E90805F115
:10534000080361E6611945F00105656043F0010558
:10535000C7E904113046C1F808C0C1F80CC04D605F
:10536000A35001F015FF083466E6930903F13900F4
:10537000C00038338BE7BC4223D0BC68626853E777
:1053800003F15C0103F15B0CCB0072E659F80839BC
:105390004B4540F0D28011F0030F01F1FF31F5D100
:1053A0007B6823EA00037B60400098423FF6EDAE45
:1053B00018B9EAE640000EF1040E1842FAD0714620
:1053C000A6E65F4B0199186808EB000C0139C3F899
:1053D00000C0DBF8000001301BBFAAEB02026244F0
:1053E000CBF800A01A601AF00702CDE9022342D0E0
:1053F000C2F10802019B9244D044134408EA010020
:105400001A1A02EA010B5946304602F0B3F8421C60
:10541000039B76D0A0EB0A0000EB0B081868C7F8D6
:1054200008A048F001025844BC42CAF804201860A1
:105430003FF4EFAEB9F10F0F40D96168A9F10C024A
:1054400022F0070201F0010111436160A1184FF041
:10545000050C0F2AC1F804C0C1F808C046D8DAF814
:105460000420D6E69A104FF001087B6808FA02F291
:105470001A437A601EE7019B0AEB08020A409A1A57
:1054800002EA010B5946304602F074F8431C039BB4
:10549000C0D1DDF808B0C1E7542B13D8130B03F1CA
:1054A0006F00C0006E33F2E6B3F5AA7F13D8EB0BA2
:1054B00003F1780103F1770CCB00DAE50123CAF898
:1054C0000430B9E6B3F5AA7F23D8D30B03F17800F3
:1054D000C0007733DBE640F25452934223D8AB0C42
:1054E00003F17D0103F17C0CCB00C2E5304604F1F1
:1054F0000801019303F086F9019BD7F808A018680A
:10550000ADE7029A083A9044A8EB0A084FF0000B66
:1055100084E740F2545083420BD8930C03F17D0092
:10552000C0007C33B3E64FF47E737F214FF07E0CD6
:105530009FE54FF47E707E23A9E67B6834E700BFC9
:1055400030520020000000002DE9F04F2DED028BBD
:10555000D7B00C46059191460993834601F0C8FFE8
:10556000036815931846FAF7EBFE08221390002102
:1055700026A8FFF7A1FCA389180603D52369002BF1
:1055800000F092879FED807B0023CDE92B33CDE99E
:105590001633CDE918338DED107B2DAA0E932A9288
:1055A0001493069302925E46CDF80C90039F784BBD
:1055B000D3F8E44001F096FF034626A800903A464F
:1055C00022A93046A047002800F0A980C0F29F80A1
:1055D000229A252A034601D01F44E8E7039BB7EB34
:1055E0000309054640F0A08000238DF87F309A46DD
:1055F00007937B787C1C4FF0FF3B0134A3F1200222
:105600005A2A00F2C780DFE812F0C302C500C500C5
:10561000BF02C500C500C5006A00C500C50017026D
:105620002602C5002202D902C500D5025B005B003C
:105630005B005B005B005B005B005B005B00C50028
:10564000C500C500C500C500C500C5004601C500B0
:105650009101F202460146014601C500C500C500A0
:10566000C500BB02C500C5002B02C500C500C500B2
:10567000BA01C500A802C500C5000907C500C500DC
:10568000C500C500C500C500C500C5004601C50070
:105690009101F1014601460146016A02F1017E00D5
:1056A000C5008C02C50074022D0796027E00C5005D
:1056B000BA017C00FF06C500C5003107C5007C00AB
:1056C000A3F13002002114F8013B01EB810102EB50
:1056D0004101A3F13002092AF5D907918EE730463E
:1056E00001F006FF436818931846FAF729FE19904F
:1056F0000546304601F0FCFE83681693002D40F00D
:105700001B86237879E723784AF0200A75E7082278
:10571000002126A8FFF7D0FB01231F4447E7039B86
:10572000B7EB0309054613D0DDE90223C2E90039CE
:105730002C9B4B442C932B9B0133072B2B9318DC76
:1057400008320292069B4B440693002D7FF44CAF27
:105750002C9B002B41F01682059B9B8903F0400394
:10576000002B41F02A84069857B0BDEC028BBDE8AF
:10577000F08F05992AAA304603F05CF90028EBD196
:105780002DAB0293DEE700BF000000000000000028
:1057900058050020CDE90A34002BD9D000228DF81D
:1057A000F430CDE90C220123049398463DAB8DF8EB
:1057B0007F20089293460F9203931AF0020302D0BF
:1057C0000499023104911AF0840405D107990498D0
:1057D0000D1A002D00F3B2832C9F7AB1029801229A
:1057E00042602B9A013201370DF17F01072A2C9775
:1057F0002B92016000F3FD83083002907BB12B9B5C
:105800000299013320AA02370A60072B4FF00202E7
:105810002C972B934A6000F3E08308310291802C8F
:1058200000F07482ABEB0805002D00F3B3821AF48C
:10583000807F40F0F381DDE9022313602B9BC2F8E7
:10584000048001334744072B2C972B9300F30983E3
:10585000083202921AF0040F05D0079B049A9C1A92
:10586000002C00F3D583DDE9063204998A42ACBFEF
:105870009B185B180693002F40F0BF8200232B93E8
:10588000089B1BB10899304602F0BCFF2DAB029378
:105890000B9B03938AE6CDE90A34099B073323F077
:1058A0000703B3EC027B8DED107BDDE91045099316
:1058B00025F000431D931C94DDE91C78B94B4FF093
:1058C000FF3238464146FBF751FA002840F0428546
:1058D000B44B4FF0FF3238464146FBF729FA002817
:1058E00040F038850022002320462946FBF716FAAF
:1058F000002841F033809DF87F20AB4CAB4B2AF061
:10590000800A0A994729C8BF1C460023CDE90C33F9
:10591000032103940893049188469B460F93002A21
:105920003FF44BAF049B0133049346E7432BCDE98F
:105930000A3403D01AF0100F00F09D85099F082249
:10594000002128A83DACFFF7B7FA57F8042B28AB85
:105950002146304601F058FEB0F1FF3F804601F08D
:10596000278320EAE073099704930022CDE90C22F3
:1059700003948DF87F20089293460F921DE7099FAC
:10598000CDE90A3400238DF87F3057F8043B0393A8
:10599000002B00F098850A9B532B00F040871AF0EB
:1059A00010030C9340F03B87BBF1FF3F01F0E38015
:1059B0000C9903985A46FAF733FD0890002801F035
:1059C0003783089B039A0997A3EB020828EAE87338
:1059D000DDF830B0049373239DF87F20CDF83CB000
:1059E000CDF834B0CDF820B00A9398E71AF0200F24
:1059F000CDE90A3400F00381099B073323F0070344
:105A00001A46596852F8083B09920A460029C0F222
:105A10004084BBF1FF3F00F0D08253EA02012AF03C
:105A2000800540F0CB82BBF1000F40F0CC82AA464B
:105A300056ABD846039344E0099B53F8042B0792D6
:105A4000002A80F24D84079A0993524207922378E4
:105A50004AF0040AD1E52B238DF87F302378CCE57A
:105A6000CDE90A344AF0100A1AF0200200F003844B
:105A7000099B073323F0070319465A6851F8083B7E
:105A800009912AF4806500210020BBF1FF3F8DF8C9
:105A90007F0000F01E8153EA020025F0800A40F0EA
:105AA0001781BBF1000F40F0A7860029C0D115F087
:105AB00001081BBF30238DF8573156AB0DF2571339
:105AC0000393C3454FF000035946B8BF4146CDE9A3
:105AD0000C339DF87F20089304910F931FE72378E0
:105AE000682B03BF63784AF4007A01344AF0400A15
:105AF00083E51AF0200F0B9440F014841AF0100F75
