:020000040800F2
:1000000000000220ED0A0008450A0008470A00081F
:10001000490A00084B0A00084D0A000800000000C9
:100020000000000000000000000000004F0A00086F
:10003000510A000800000000530A0008550A000891
:100040003D0B00083D0B00083D0B00083D0B000870
:100050003D0B00083D0B00083D0B00083D0B000860
:100060003D0B00083D0B00083D0B00083D0B000850
:100070003D0B00083D0B00083D0B00083D0B000840
:100080003D0B00083D0B00083D0B00080000000080
:100090000000000000000000000000003D0B000810
:1000A0003D0B00083D0B00083D0B00083D0B000810
:1000B0003D0B00083D0B00083D0B00085D0A0008E1
:1000C0006D0A00087D0A00088D0A00083D0B000833
:1000D0009D0A0008AD0A00083D0B00080000000062
:1000E000BD0A00083D0B00083D0B000800000000A1
:1000F0000000000000000000000000003D0B0008B0
:10010000000000003D0B00083D0B0008C90A000874
:1001100000000000000000000000000000000000DF
:100120003D0B00083D0B00083D0B00083D0B00088F
:100130003D0B00080000000000000000000000006F
:100140000000000000000000000000003D0B00085F
:100150003D0B00083D0B00083D0B0008D90A0008C4
:100160003D0B00083D0B00080000000000000000EF
:10017000000000000000000000000000000000007F
:10018000000000003D0B000800000000000000001F
:080190003D0B00083D0B0008C7
:1001980053B94AB9002908BF00281CBF4FF0FF31E6
:1001A8004FF0FF3000F00CB8ADF1080C6DE904CE4B
:1001B80003F088FBDDF804E0DDE9022304B07047B2
:1001C800704700BF0348044B834202D0034B03B17E
:1001D8001847704714000020140000200000000099
:1001E8000548064B1B1AD90F01EBA301491002D091
:1001F800034B03B118477047140000201400002077
:100208000000000010B5064C237843B9FFF7DAFF69
:10021800044B13B10448AFF300800123237010BDD1
:100228001400002000000000543D000808B5054BEC
:100238001BB105490548AFF30080BDE80840FFF74A
:10024800CFBF00BF0000000018000020543D000888
:1002580070B58AB00024059406940794089409940C
:100268000194264B1A6B42F004021A631A6B02F0CF
:1002780004020192019A02941A6B42F080021A63F6
:100288001A6B02F080020292029A03941A6B42F0EF
:1002980001021A631A6B02F001020392039A049492
:1002A8001A6B42F002021A631B6B03F002030493F9
:1002B800049B134E22462021304600F04FFE4FF497
:1002C800005305934FF404130693079405A90D48AA
:1002D80000F05CFD202305930125069507940894FA
:1002E80005A9304600F052FD22462946282000F094
:1002F800BBFC282000F0C8FC0AB070BD00380240E2
:10030800000002400008024010B5044620210D48B4
:1003180000F02AFE012C09D0022C0DD004B110BD2A
:1003280001220949094803F0B0FAF8E70122064911
:10033800074801F051F9F2E701220349054802F0A4
:10034800F1FCECE7000002403000002034000020FF
:10035800B00100200001002038B50446094D0122F3
:100368002946094803F085F801232A46EC21074865
:1003780001F0C6F801222946054802F00BFC054B9E
:100388005C6138BD00000020BC0000200402002091
:1003980058010020003C014008B50268034B9A420E
:1003A80000D008BD0020FFF7AFFFFAE700140140B6
:1003B80008B50268034B9A4200D008BD0120FFF738
:1003C800A3FFFAE70058004008B50268034B9A42B9
:1003D80000D008BD0220FFF797FFFAE7003C004075
:1003E80072B6FEE708B50A480A4B03600A4B436039
:1003F80000238360C3604FF48042026143618361DC
:10040800C361036200F09EFF00B908BDFFF7E8FF73
:100418000402002000540040A086010008B50D48E1
:100428000D4B03604FF48273436000238360C36005
:10043800036143614FF480228261C36103624362B6
:1004480083620A23C36202F045FB00B908BDFFF7C7
:10045800C7FF00BF580100200038004008B50A480F
:100468000A4B0360002343608360C36003614361F8
:1004780083610362436283620A23C36202F02AFB38
:1004880000B908BDFFF7ACFF00010020003C0040A8
:1004980008B50A480A4B03604FF4E1334360002370
:1004A8008360C36003610C2242618361C36102F00F
:1004B800B1FF00B908BDFFF793FF00BFBC000020E3
:1004C8000010014008B50A480A4B03604FF4E133B5
:1004D800436000238360C36003610C22426183612F
:1004E800C36102F097FF00B908BDFFF779FF00BFAD
:1004F800780000200044004008B50B480B4B03600F
:100508000B4B436000238360EC22C2604FF48042AF
:10051800026143618361C361036200F013FF00B9A4
:1005280008BDFFF75DFF00BFB00100200058004084
:10053800A086010008B50A480A4B03604FF4E1336E
:10054800436000238360C36003610C2242618361BE
:10055800C36102F05FFF00B908BDFFF741FF00BFAC
:10056800340000200014014000B595B0302200216D
:1005780008A803F005FB002303930493059306934F
:10058800079301931F4A116C41F080511164126C5A
:1005980002F080520192019A02931B4B1A6842F4AE
:1005A80040421A601B6803F440430293029B0123F4
:1005B80008934FF4A023099302220E924FF480036C
:1005C8000F9304231093642111911292139308A896
:1005D80001F062FE88B90F230393022304930023DA
:1005E80005934FF4805206920793032103A802F063
:1005F800BDF820B915B05DF804FBFFF7F1FEFFF771
:10060800EFFE00BF003802400070004008B500F05F
:10061800B9FAFFF7A9FFFFF71BFEFFF7E3FEFFF7A5
:10062800FDFEFFF71BFFFFF733FFFFF74BFFFFF759
:1006380063FFFFF77FFF084C01222146074803F0BC
:1006480024F901222146064800F0C6FF012221466E
:10065800044802F067FBFEE7300000203400002069
:10066800B00100200001002000B583B000210091F6
:100678000C4B5A6C42F480425A645A6C02F4804221
:100688000092009A01911A6C42F080521A641B6C15
:1006980003F080530193019B052000F0D3FA03B0C7
:1006A8005DF804FB003802402DE9F0418AB00023D0
:1006B8000593069307930893099303683F4A934267
:1006C80005D03F4A934235D00AB0BDE8F0810025F5
:1006D80001953C4C236B43F002032363236B03F027
:1006E80002030193019BC02305931223069303265B
:1006F80008960423099305A9334800F047FB02959F
:10070800236C43F400132364236C03F40013029353
:10071800029B2A4602211F2000F0A6FA1F2000F0A3
:10072800B3FA2A463146202000F09EFA202000F035
:10073800ABFAC9E700250395224C236B43F002036B
:100748002363236B03F002030393039B4FF480633B
:1007580005934FF01208CDF8188003260896042355
:100768000993194F05A9384600F010FB4FF40073A0
:100778000593CDF81880079508960923099305A9CC
:10078800384600F003FB0495236C43F4800323648C
:10079800236C03F480030493049B2A46022121203E
:1007A80000F062FA212000F06FFA2A463146222032
:1007B80000F05AFA222000F067FA85E7005400405A
:1007C800005800400038024000040240F0B58DB0E7
:1007D80000230793089309930A930B930368444AE9
:1007E800934204D0434A934241D00DB0F0BD002457
:1007F8000194414B1A6C42F480421A641A6C02F458
:1008080080420192019A02941A6B42F004021A6320
:100818001A6B02F004020292029A03941A6B42F0D5
:1008280002021A631B6B03F002030393039B0C235E
:1008380007930225089503270A9705260B9607A90B
:100848002E4800F0A3FA4FF44053079308950994F3
:100858000A970B9607A92A4800F098FA22462946D3
:10086800242000F001FA242000F00EFABDE700244D
:100878000494214B1A6C42F400421A641A6C02F474
:1008880000420492049A05941A6B42F001021A631A
:100898001A6B02F001020592059A06941A6B42F04F
:1008A80004021A631B6B03F004030693069B1023D0
:1008B80007930225089503270A9706260B9607A98A
:1008C800104800F063FA4FF4E05307930895099431
:1008D8000A970B9607A9094800F058FA22462946B4
:1008E800332000F0C1F9332000F0CEF97DE700BFD6
:1008F80000380040003C0040003802400008024038
:10090800000402400000024030B58DB00023079378
:10091800089309930A930B930368424A934207D0BA
:10092800414A934230D0414A934250D00DB030BD35
:10093800002401943E4B5A6C42F010025A645A6CDF
:1009480002F010020192019A02941A6B42F001021D
:100958001A631B6B03F001030293029B4FF4C063FD
:1009680007930223089303230A9307230B9307A9EA
:10097800304800F00BFA22460121252000F074F9D6
:10098800252000F081F9D1E700210391284B1A6C4A
:1009980042F400321A641A6C02F400320392039A89
:1009A80004911A6B42F001021A631B6B03F00103F6
:1009B8000493049B0C2307930223089303230A93AD
:1009C80007230B9307A91B4800F0E0F9AEE70024C2
:1009D8000594174B5A6C42F020025A645A6C02F084
:1009E80020020592059A06941A6B42F004021A63D3
:1009F8001B6B03F004030693069BC0230793022591
:100A0800089503230A9308230B9307A90A4800F0C3
:100A1800BDF922462946472000F026F9472000F074
:100A280033F983E7001001400044004000140140FE
:100A3800003802400000024000080240FEE7FEE7DE
:100A4800FEE7FEE7FEE770477047704708B500F01D
:100A5800B3F808BD08B5024801F0F0FA08BD00BFB8
:100A68000402002008B5024801F0B8FB08BD00BF29
:100A78000402002008B5024801F0E0FA08BD00BFF2
:100A8800B001002008B5024801F0A8FB08BD00BF6E
:100A9800B001002008B5024802F042FB08BD00BFC3
:100AA8005801002008B5024802F094FD08BD00BFB7
:100AB800BC00002008B54FF4005000F05FFA08BDF4
:100AC80008B5024802F02CFB08BD00BF0001002059
:100AD80008B5024802F07EFD08BD00BF34000020C2
:100AE80070470000DFF834D00D480E490E4A002345
:100AF80002E0D458C4500433C4188C42F9D30B4ACA
:100B08000B4C002301E013600432A242FBD3FFF731
:100B1800E7FF03F087F8FFF779FD70470000022030
:100B28000000002014000020983D00081400002058
:100B3800F4030020FEE7000010B504460E4B1A78B7
:100B48004FF47A73B3FBF2F30C4A1068B0FBF3F07E
:100B580000F0A8F868B90F2C01D901200AE000229A
:100B680021464FF0FF3000F07FF8054B1C60002055
:100B780000E0012010BD00BF080000200400002094
:100B88000C00002008B50B4B1A6842F400721A607A
:100B98001A6842F480621A601A6842F480721A6015
:100BA800032000F04FF80020FFF7C6FFFFF75CFDB9
:100BB800002008BD003C0240034A1168034B1B7823
:100BC8000B441360704700BF580200200800002043
:100BD800014B1868704700BF58020020002808DB46
:100BE8000901C9B200F1604000F5614080F80013C6
:100BF800704700F00F000901C9B2014B1954704742
:100C080014ED00E000B500F00700C0F1070CBCF1DE
:100C1800040F28BF4FF0040C031D062B0FD9C31E69
:100C28004FF0FF3E0EFA0CF021EA000199400EFA4F
:100C380003FE22EA0E0241EA02005DF804FB0023EB
:100C4800EEE70000074AD36823F4E0631B041B0C9B
:100C5800000200F4E060034343F0BF6343F4003351
:100C6800D360704700ED00E010B50446054BD86826
:100C7800C0F30220FFF7C6FF01462046FFF7AEFF8C
:100C880010BD00BF00ED00E0002807DB00F01F02E8
:100C9800400901239340024A42F82030704700BFC0
:100CA80000E100E00138B0F1807F0BD24FF0E02383
:100CB8005861054AF02182F8231000209861072224
:100CC8001A6170470120704700ED00E070B50446D6
:100CD800866DFFF77DFF94F83530DBB2022B06D026
:100CE80080236365002384F83430012070BD0546F5
:100CF8002268136823F0160313602268536923F0EF
:100D080080035361236CE3B12268136823F008035E
:100D180013602268136823F00103136023681B68BB
:100D280013F0010F11D0FFF753FF431B052BF5D923
:100D380020236365032084F83500002384F83430C9
:100D4800D4E7A36C002BDFD1E3E7E26D3F239340A8
:100D5800B360012384F83530002084F83400C5E7F7
:100D680090F83530DBB2022B03D080234365012095
:100D78007047052380F835300268136823F00103B3
:100D880013600020704790F83500704700230F2B40
:100D980000F2DA8030B583B068E085684FEA430E28
:100DA800032404FA0EF425EA0405CC6804FA0EF4C8
:100DB8002C438460446824EA02044A68C2F300129F
:100DC8009A40224342605FE0DC08083450F824204F
:100DD80003F00705AD004FF00F0E0EFA05FE22EAEC
:100DE8000E0E0A69AA4042EA0E0240F824205FE08B
:100DF800042200E0002202FA0EF22A430234534D84
:100E080045F82420524A94686FEA0C0224EA0C053B
:100E1800D1F804E01EF4801F01D04CEA04054C4CC4
:100E2800A560E46802EA0405D1F804E01EF4001F96
:100E380001D04CEA0405464CE560646802EA040502
:100E4800D1F804E01EF4003F01D04CEA0405404C00
:100E58006560246822404D6815F4803F01D04CEA53
:100E680004023B4C226001330F2B6BD801229A40BD
:100E78000C6804EA020C32EA0404F4D14C6804F069
:100E88000304013C012C88D94A6802F00302032AB2
:100E980009D0C4685D000322AA4024EA02048A68D3
:100EA800AA402243C2604A6802F00302022A8BD099
:100EB80004684FEA430E032202FA0EF224EA0204FF
:100EC8004A6802F0030202FA0EF2224302604A68FC
:100ED80012F4403FC7D0002201921E4A546C44F4D9
:100EE80080445464526C02F480420192019A9C0836
:100EF800A51C164A52F8255003F0030E4FEA8E0E31
:100F08000F2202FA0EF225EA0205134A90423FF434
:100F180071AF02F5806290420ED002F58062904275
:100F28000CD002F5806290420AD002F580629042AD
:100F38003FF45EAF07225EE701225CE702225AE730
:100F4800032258E703B030BD704700BF00380140A6
:100F5800003C014000380240000002400AB18161B3
:100F68007047090481617047436901EA030221EA75
:100F7800030141EA024181617047000008B5054B51
:100F88005B69034200D108BD024B5861FFF7E4F9E1
:100F9800F9E700BF003C014090F83E30DBB2402B3F
:100FA80010D00369B3F5804F1BD0036D002B39D1E6
:100FB800436CC3F3C813026803F0060343F0F0035D
:100FC80013617047036D2BB9436C026803F0FE038D
:100FD80013617047436C026843F00103DBB213618D
:100FE800704790F83D30DBB2212B0FD0436C02687C
:100FF80043F00103DBB21361436B6BB1DB6B5BB195
:101008000268536843F4006353607047436C026896
:1010180003F0FE031361EFE7836B33B1DB6B002B47
:10102800EED102E0036D012B00D07047436CC3F38F
:10103800C813026803F0060343F0F1031361F4E7F1
:10104800436C0268DBB21361436B3BB1DB6B2BB1C2
:101058000268536843F4006353607047836B002B46
:10106800FBD0DB6B002BF3D1F7E7000010B48BB09B
:1010780090F83E30DAB2C16A046B90F83D30DBB2CA
:10108800222B0AD00023099303685A6909929B69A5
:101098000993099B0BB010BC7047036D0BB9402A2C
:1010A80017D0036D1BB90369B3F5404F19D0438DB1
:1010B8009BB2002B25D1029303685A6902929A6960
:1010C8000292029A1A6842F400721A6000230365B9
:1010D800E0E7009303685A6900929B690093009BBC
:1010E800D8E70023019303685A6901929A6901922B
:1010F800019A1A6842F480721A60036D013303651D
:10110800C8E7438D9BB2012B1CD0438D9BB2022BA9
:1011180072D00268136843F48063136003685A68E6
:1011280012F4006F00F0A980202900F2AF8008298E
:1011380080F09C80012940F0A0805A6842F48052D7
:101148005A609AE011F5803F11D0082934D020293F
:1011580032D0122C2ED0042940D002293ED010299A
:101168003CD00268136823F4806313603BE0026894
:10117800136823F48063136003685A6812F4006FDD
:101188000CD01A6822F480621A6000230393036863
:101198005A6903929B690393039B97E70022049281
:1011A8005A6904929A690492049A1A6842F400727D
:1011B8001A608BE70129D0D00268136823F4806392
:1011C80013600023069303685A6906929A69069287
:1011D800069A1A6842F400721A6077E70268136880
:1011E80043F4806313600023059303685A690592EA
:1011F8009B690593059B69E7102904D8254BCB40CB
:1012080013F0010F19D10268136823F48063136087
:101218000268136843F40063136003685A6812F4A1
:10122800006F16D020291DD808290CD2012910D109
:101238005A6842F480525A600BE00268136843F41B
:1012480080631360E9E70839134ACA4012F0010FB6
:10125800EED10023079303685A6907929B690793A5
:10126800079B33E711F5803FF3D1E1E708390A4AD4
:10127800CA4012F0010F7FF460AF0023089303689F
:101288005A6908929B690893089B1FE711F5803FEC
:10129800F3D152E71400010001010001438D9BB214
:1012A8005BB1426A036812781A61436A0133436288
:1012B800438D9BB2013B9BB243857047438D9BB2E4
:1012C8005BB103681A69436A1A70436A013343625F
:1012D800438D9BB2013B9BB24385704782B000238C
:1012E80001930E4B1B68DB080D4AA2FB03231B0A64
:1012F80003EB83030193019B013B0193019B33B1F2
:1013080003681B6813F4007FF5D1002004E0036C28
:1013180043F020030364012002B07047040000205A
:1013280089B5F814C36AB3F52A0F04D0C36AB3F1B8
:101338002A4F03D070470123C36270470823C36252
:10134800F8E70000002800F0CC8070B5044690F85B
:101358003D30002B77D0242384F83D302268136871
:1013680023F0010313602268136843F400431360F9
:101378002268136823F40043136001F0ADFA626831
:101388005A4B9A4264D85A4B98428CBF0023012387
:10139800002B40F0A8805749A1FB00318B0C256831
:1013A8006A6822F03F0242EA91426A6021680A6A4A
:1013B80022F03F0266684D4DAE424FD801331343C9
:1013C8000B622168CA6922F44F4222F0FF02656865
:1013D800464B9D424CD8431E6D00B3FBF5F30133D9
:1013E80040F6FC70034278D0C3F30B031A43CA617A
:1013F80021680B6823F0C003E269206A02431343A3
:101408000B6021688B6823F4034323F0FF032269F0
:10141800E068024313438B602168CB6823F0FF0325
:101428006269A06902431343CB602268136843F0E2
:101438000103136000202064202384F83D302063DA
:1014480084F83E0070BD80F83C30FFF72DF982E744
:10145800294B98428CBF0023012399E74FF49675D6
:1014680005FB03F3254DA5FB03539B090133A6E7B1
:10147800A668BEB9431E05EB450CB3FBFCF301336C
:10148800C3F30B03B3FA83F35B0943BBC6B9431E2B
:1014980005EB4505B3FBF5F30133C3F30B0343F445
:1014A8000043A3E7431E05EB850C0CEB8C0CB3FB48
:1014B800FCF30133C3F30B03B3FA83F35B09E4E7EB
:1014C800431E05EB850505EB8505B3FBF5F30133F5
:1014D800C3F30B0343F4404388E7042386E701235F
:1014E80084E7012070470120ACE700BFA086010017
:1014F8007F841E0083DE1B43FF083D00D34D62102E
:1015080030B482B00024019490F83D40E4B2202C1D
:1015180056D12E4C2468E4082D4DA5FB0454240A0A
:1015280004EB840404EB84040194019C013C0194C1
:10153800019C002C35D00468A56915F0020FF4D180
:1015480090F83C50012D3FD0012580F83C5025688B
:1015580015F0010F03D1256845F0010525600568E0
:101568002C6824F400642C60212480F83D40102469
:1015780080F83E400024046442624385438D03851D
:10158800144BC362416480F83C400268536843F4DA
:10159800E06353600268136843F480731360204665
:1015A8000FE000230363202280F83D2080F83E30BE
:1015B800026C42F02002026480F83C30012000E016
:1015C800022002B030BC70470220FAE70400002075
:1015D80089B5F8140000FFFF90F83D30DBB2202BEE
:1015E80036D1002936D0002A36D090F83C30012B6D
:1015F80034D010B4012380F83C3003681C6814F020
:10160800010F03D11C6844F001041C6004682368BE
:1016180023F400632360222380F83D30202380F8E0
:101628003E300023036441624285428D02850C4AA4
:10163800C26201680A6842F480620A6080F83C303D
:1016480001684A6842F4E0624A60184610BC704774
:101658000220704701207047012070470220704720
:101668000000FFFF70477047704708B590F83D309D
:10167800DAB2438D9BB283B1416A03680978196174
:10168800436A01334362438D9BB2013B9BB243855E
:10169800438D9BB20BB9292A00D008BD0268536854
:1016A80023F48063536021230363282380F83D30AB
:1016B800FFF7DAFFF1E708B590F83D30DAB2438D6D
:1016C8009BB283B103681969436A1970436A01338D
:1016D8004362438D9BB2013B9BB24385438D9BB2D2
:1016E8000BB92A2A00D008BD0268536823F4806326
:1016F800536022230363282380F83D30FEF758FE09
:10170800F1E7704700B583B090F83D3003F0280347
:10171800282B0CD00023019302685169019192692A
:101728000192019A80F83C3003B05DF804FB02682E
:10173800536823F48063536011F0040F0BD0002327
:1017480011F0800F09D18289002180F83C101946D8
:10175800FFF7D7FFE8E70123F2E7028BF4E77047CA
:1017680008B590F83D30DBB2C26A082A01D0202AB9
:1017780001D1282B06D0212B1ED003686FF480627C
:101788005A6108BD1A4BC3620268536823F4E063C8
:10179800536003686FF480625A610268136823F427
:1017A8008063136000230363202280F83D2080F8C3
:1017B8003E30FFF7D4FFE4E70D4BC36221230363F8
:1017C800202380F83D30002380F83E3002685368BB
:1017D80023F4E063536003686FF480625A6102681F
:1017E800136823F480631360FFF73EFFC9E700BF67
:1017F8000000FFFF704708B5C26A90F83D30DBB2C1
:10180800212B00D008BD438D9BB263B1426A0368A7
:1018180012781A61436A01334362438D9BB2013BDC
:101828009BB24385EEE7082A04D0202A02D012F59D
:10183800803F19D10268536823F4E063536002685B
:10184800136843F40073136000230363202380F8B4
:101858003D3090F83E30DBB2402B15D0002380F8A5
:101868003E30FFF7FFFECDE70268536823F4E063DC
:10187800536011230363002380F83E30202380F84F
:101888003D30FFF7EFFEBDE7002380F83E30FFF75D
:10189800B1FFB7E708B590F83D30026D9AB9C36C4F
:1018A800012B08D0836CC3F3072302681361036D0F
:1018B8000133036508BD836C0268DBB21361036DF5
:1018C80002330365F6E7DBB2026D012A23D0026D0D
:1018D800022AEFD1222B26D0428D92B20AB1212BB7
:1018E8002AD0428D92B2002AE4D1212BE2D102689B
:1018F800536823F4E06353600268136843F4007389
:10190800136000230363202280F83D2080F83E30D6
:10191800FFF770FFCEE7836C0268DBB21361036DDB
:1019280001330365C6E70268136843F480731360E4
:10193800036D01330365BDE7426A036812781A61D3
:10194800436A01334362438D9BB2013B9BB243859B
:10195800B0E710B590F83D30DBB290F83E20D2B237
:10196800C46A018D00293BD1212B02D0402A42D0E4
:1019780010BD082C04D0202C02D014F5803F19D1BA
:101988000268536823F4E06353600268136843F401
:101998000073136000230363202380F83D3090F820
:1019A8003E30DBB2402B15D0002380F83E30FFF7E5
:1019B80059FEDDE70268536823F4E063536011239E
:1019C8000363002380F83E30202380F83D30FFF782
:1019D80049FECDE7002380F83E30FFF70BFFC7E74D
:1019E800212BC3D1438D9BB243B90268536823F4BA
:1019F80080635360BCE7222BBAD1F3E790F83E30FE
:101A0800DBB2402B0CD0426A036812781A61436A31
:101A180001334362438D9BB2013B9BB24385A7E7E9
:101A2800FFF738FFA4E7704708B5C26A438D9BB239
:101A3800042B14D0438D9BB2032B22D0438D9BB231
:101A4800022B39D003681A69436A1A70436A013352
:101A58004362438D9BB2013B9BB2438510E0026811
:101A6800536823F48063536003681A69436A1A70E1
:101A7800436A01334362438D9BB2013B9BB243856A
:101A880008BD01684B6823F480634B60042A06D0C4
:101A9800022A04D00268136823F480631360036881
:101AA8001A69436A1A70436A01334362438D9BB2D1
:101AB800013B9BB24385E3E7013A0F2A40D8DFE8B0
:101AC80002F008393F393F3F3F3F3F3F3F3F3F3FED
:101AD8003F080268136823F48063136003681A6977
:101AE800436A1A70426A531C4362438D9BB2013B9E
:101AF8009BB2438503681B695370436A0133436291
:101B0800438D9BB2013B9BB243850268536823F423
:101B180040735360202380F83D3090F83E30DBB2AC
:101B2800402B13D0002380F83E3012230363FFF7C5
:101B38009AFDA5E70268136843F480631360CDE754
:101B48000268136843F400731360C7E7002380F842
:101B58003E300363FFF767FF92E7704790F83D3028
:101B6800DBB2222B00D0704710B50446438D9BB2E0
:101B7800032B15D903681A69436A1A70436A01333B
:101B88004362438D9BB2013B9BB24385438D9BB21D
:101B9800032B0FD10268536823F48063536009E074
:101BA800C26A022A01D0012B05D92268536823F49E
:101BB8008063536010BDFFF791FB00282ED1226887
:101BC800136823F4806313602268536823F4E06386
:101BD800536023681A69636A1A70636A013363621F
:101BE800638D9BB2013B9BB26385202384F83D3013
:101BF80094F83E30DBB2402B08D0002384F83E3006
:101C0800122323632046FFF72EFDD3E7002384F831
:101C18003E3023632046FFF706FFCBE72268536870
:101C280023F4E063536023681A69636A1A70636A6D
:101C380001336362638D9BB2013B9BB263852023B2
:101C480084F83D30002384F83E302046FFF785FFB6
:101C5800B0E7704700B583B000230193806B90F81C
:101C68003D20D2B2324B1B68DB083249A1FB03137B
:101C78001B0A03EB8303C3EBC3030193019B43B12B
:101C8800019B013B019303681B6813F4007FF5D1A6
:101C980003E0036C43F020030364436B0BB10021A2
:101CA800D963836B0BB10021D96301680B6823F4F6
:101CB80080630B6000234385436B0BB100211965DA
:101CC800836B0BB10021196501680B6823F00103D0
:101CD8000B6090F83D30DBB2602B0ED002F028028A
:101CE800282A14D0202380F83D30002380F83E3085
:101CF800FFF733FF03B05DF804FB202380F83D3085
:101D0800002380F83E300364FFF7A3FFF2E7026880
:101D1800136843F0010313600268136843F4806397
:101D2800136000230363282380F83D30E0E700BFF9
:101D38000400002089B5F81410B5044690F83D3029
:101D4800DBB290F83E20D2B2102A36D0402A34D0E6
:101D580003F02802282A38D02268526812F4006F4B
:101D680007D1602B05D0202384F83D30002384F868
:101D78003E300023236323685A6812F4006F48D06A
:101D88005A6822F400625A60626B92F83530DBB20E
:101D9800012B20D0444B1365606BFEF7E1FF002850
:101DA80049D02268136823F001031360202384F8C4
:101DB8003D30606B036D98473DE0222BC8D1216808
:101DC8000A6822F400620A60C2E70023236328231A
:101DD80084F83D30CFE7A36B334A1A65A06BFEF752
:101DE800BFFF40B323685A6912F0400F05D01A6943
:101DF800636A1A70636A013363622268136823F0A6
:101E080001031360202384F83D30A06B036D9847CD
:101E180011E094F83D20D2B2602A1FD05A6912F01E
:101E2800400F05D01A69636A1A70636A01336362E6
:101E38002046FFF792FE236C13F00F0F04D02268A0
:101E4800536823F4E063536094F83D30DBB2226CAE
:101E580012F0040F01D0282B18D010BD202284F8CE
:101E68003D20002222645A6912F0400F05D01A69F9
:101E7800636A1A70636A013363622268136823F025
:101E8800010313602046FFF7E4FED4E7074BE36243
:101E980000232363202284F83D2084F83E30204626
:101EA800FFF75DFCD9E700BF5D1C00080000FFFFDD
:101EB80030B583B0044690F83D50EDB202685368DF
:101EC80023F4E06353600023019303685A69019285
:101ED8001A6842F001021A60019B0268136823F431
:101EE8008063136003685A6812F4006F38D0222D9B
:101EF80021D02A2D1FD0426B1268526892B24285B7
:101F0800428D92B21AB1026C42F0040202645A681D
:101F180022F400625A60606BFEF735FF01281FD07B
:101F2800636B444A1A65606BFEF71AFFC0B1606BB9
:101F3800036D984714E0A26B1268526892B26285EA
:101F4800628D92B21AB1226C42F0040222645A687D
:101F580022F400625A60A06BFEF715FF012842D1F7
:101F6800638D9BB233B323685A6912F0040F0AD009
:101F78001A69636A1A70636A01336362638D9BB27C
:101F8800013B9BB2638523685A6912F0400F0AD05F
:101F98001A69636A1A70636A01336362638D9BB25C
:101FA800013B9BB26385638D9BB21BB1236C43F0ED
:101FB80004032364236C13BB2A2D25D094F83D30E9
:101FC800DBB2282B29D0236B222B01D0222D19D14B
:101FD80000232363202284F83D2084F83E302046E5
:101FE800FEF7E6F90EE0A36B124A1A65A06BFEF73E
:101FF800B7FE0028B4D0A06B036D9847B0E7204621
:10200800FFF79AFE03B030BD00232363282384F82A
:102018003D302046FEF7CCF9D0E7074BE3620023BA
:102028002363202284F83D2084F83E302046FFF7C1
:1020380096FBE7E75D1C00080000FFFFF8B50446C3
:1020480002685568C66A90F83E30DBB290F83D10D9
:10205800C8B2102B13D0402B11D0236C002B7AD090
:102068005369002113F0020F78D015F4007F75D062
:10207800236C03B191692046FFF744FBF8BDD2F801
:1020880018C0516911F0010705D1B6F52A0FF5D02E
:10209800B6F12A4FF2D017B115F4007F29D111F00B
:1020A800080F02D015F4007F2AD111F0020F02D0D8
:1020B80015F4007F28D11CF0040F31D0526812F4B7
:1020C800006FDBD111F0800F05D015F4806F02D0BE
:1020D80011F0040F1CD011F0040FCFD015F4007FBD
:1020E800CCD0212818D0402BC8D12046FFF7D2FBEE
:1020F800C4E72046FFF716F92046FEF74DFFBDE777
:102108002046FEF79DFFB9E72046FEF7AFFFB5E78B
:102118002046FFF71EFCB1E72046FFF76CFBADE752
:10212800536813F4006FA9D111F0400F05D015F4CE
:10213800806F02D011F0040F09D011F0040F9DD068
:1021480015F4007F9AD02046FFF76EFC96E72046EC
:10215800FFF704FD92E79169536983E713F0100FC5
:1021680002D015F4007F18D121281AD0292818D0B8
:1021780013F0400F05D015F4806F02D013F0040F50
:1021880028D013F0040F3FF479AF15F4007F3FF423
:1021980075AF2046FFF792F870E72046FFF788FEF4
:1021A8006CE713F0800F05D015F4806F02D013F0A0
:1021B800040F0BD013F0040F3FF460AF15F4007F49
:1021C8003FF45CAF2046FFF769F857E72046FFF772
:1021D8004CFA53E72046FFF76EFA4FE7F8B5044686
:1021E80003685D695F6890F83E20D2B215F4807686
:1021F80006D017F4807603D06FF4807159610126F8
:1022080015F4007F08D017F4807F05D046F0020649
:1022180023686FF40071596115F4806F19D017F4B1
:10222800807F16D0638D99B294F83D30DBB2206B75
:10223800202A1BD023686FF48061596146F0040698
:10224800102A01D0402A04D12268136843F400738D
:10225800136015F4006F17D017F4807F14D046F080
:10226800080623686FF400625A610EE00029E1D184
:10227800212B05D0292B03D0282BDBD12128D9D11C
:102288002046FFF76DFAE4E72EB1236C334323644D
:102298002046FFF751FDF8BD002800F0E08170B539
:1022A80082B00446036813F0010F3BD09F4B9B6834
:1022B80003F00C03042B2CD09C4B9B6803F00C03FD
:1022C800082B21D06368B3F5803F4FD0B3F5A02F1A
:1022D80052D0964B1A6822F480321A601A6822F497
:1022E80080221A606368002B50D0FEF771FC054607
:1022F8008E4B1B6813F4003F14D1FEF769FC401B9A
:102308006428F5D90320B1E1884B5B6813F4800F8A
:10231800D8D0864B1B6813F4003F03D06368002BAA
:1023280000F09F81236813F0020F54D07F4B9B6805
:1023380013F00C0F3ED07D4B9B6803F00C03082B69
:1023480033D0E368002B68D0794B01221A60FEF77E
:102358003FFC0546754B1B6813F0020F54D1FEF77E
:1023680037FC401B0228F5D903207FE16F4A136828
:1023780043F480331360B5E76C4B1A6842F480224B
:102388001A601A6842F480321A60ABE7FEF720FC44
:102398000546664B1B6813F4003FC3D0FEF718FCD4
:1023A800401B6428F5D9032060E1604B5B6813F497
:1023B800800FC6D15D4B1B6813F0020F03D0E36892
:1023C800012B40F05081594A136823F0F803216922
:1023D80043EAC1031360236813F0080F42D063690E
:1023E8006BB3534B0122C3F8802EFEF7F1FB054671
:1023F8004E4B5B6F13F0020F34D1FEF7E9FB401B25
:102408000228F5D9032031E1484A136823F0F8037C
:10241800216943EAC1031360DDE7454B00221A60D6
:10242800FEF7D6FB0546414B1B6813F0020FD2D0CE
:10243800FEF7CEFB401B0228F5D9032016E13C4BE2
:102448000022C3F8802EFEF7C3FB0546374B5B6FAF
:1024580013F0020F06D0FEF7BBFB401B0228F5D98C
:10246800032003E1236813F0040F77D02F4B1B6C74
:1024780013F0805F33D1002301932C4B1A6C42F088
:1024880080521A641B6C03F080530193019B012551
:10249800284B1B6813F4807F23D0A368012B34D00A
:1024A800052B38D0214B1A6F22F001021A671A6FD8
:1024B80022F004021A67A368002B3DD0FEF788FBC0
:1024C80006461A4B1B6F13F0020F46D1FEF780FB2E
:1024D800801B41F288339842F3D90320C6E00025D7
:1024E800D6E7144A136843F480731360FEF770FB51
:1024F8000646104B1B6813F4807FCED1FEF768FBAD
:10250800801B0228F5D90320B0E0084A136F43F076
:1025180001031367CFE7054B1A6F42F004021A67ED
:102528001A6F42F001021A67C5E700BF003802407F
:102538000000474200700040FEF74AFB0646524B37
:102548001B6F13F0020F08D0FEF742FB801B41F20D
:1025580088339842F3D9032088E0EDB9A369002BAA
:1025680000F08380484A926802F00C02082A51D091
:10257800022B17D0454B00221A66FEF729FB0446AA
:10258800414B1B6813F0007F42D0FEF721FB001B74
:102598000228F5D9032069E03B4A136C23F08053E5
:1025A8001364DBE7394B00221A66FEF711FB054678
:1025B800354B1B6813F0007F06D0FEF709FB401B64
:1025C8000228F5D9032051E0E369226A1343626ABD
:1025D80043EA8213A26A5208013A43EA0243E26AD2
:1025E80043EA0263284A5360284B01221A66FEF721
:1025F800EFFA0446244B1B6813F0007F06D1FEF760
:10260800E7FA001B0228F5D903202FE000202DE06F
:1026180000202BE0012B2BD01B4B5B6803F48001BF
:10262800E269914226D103F03F02216A8A4223D10E
:10263800616A47F6C0721A40B2EB811F1ED103F4DB
:102648004031A26A5208013AB1EB024F18D103F0A7
:102658007063E26AB3EB026F14D1002006E0012038
:102668007047012002E0012000E0002002B070BDA8
:102678000120FBE70120F9E70120F7E70120F5E752
:102688000120F3E70120F1E700380240000047424B
:1026980008B5334B9B6803F00C03042B5BD0082B65
:1026A8005BD12F4B5A6802F03F025B6813F4800F2E
:1026B8002CD02B4B5868C0F388104FEA401CBCEB59
:1026C800000C6EEB0E0E4FEA8E1343EA9C634FEA42
:1026D8008C11B1EB0C0163EB0E03DB0043EA517381
:1026E800C90011EB000C43F10003590200234FEA23
:1026F8004C2041EADC51FDF74BFD194B5B68C3F3F5
:10270800014301335B00B0FBF3F027E0144B58683A
:10271800C0F388104FEA401CBCEB000C6EEB0E0EA9
:102728004FEA8E1343EA9C634FEA8C11B1EB0C011C
:1027380063EB0E03DB0043EA5173C90011EB000C95
:1027480043F10003990200234FEA8C2041EA9C518F
:10275800FDF71EFDD1E7034800E0034808BD00BFB0
:102768000038024000127A000024F400002800F02B
:102778009B8070B50D4604464F4B1B6803F007035A
:102788008B4208D2CBB24C4A1370136803F007038C
:102798008B4240F08B80236813F0020F17D013F0A0
:1027A800040F04D0454A936843F4E05393602368C8
:1027B80013F0080F04D0414A936843F460439360D0
:1027C8003E4A936823F0F003A1680B4393602368A3
:1027D80013F0010F32D06368012B21D09A1E012A11
:1027E80025D9364A126812F0020F61D033498A6837
:1027F80022F0030213438B60FEF7EAF906462F4BDB
:102808009B6803F00C036268B3EB820F16D0FEF7E7
:10281800DFF9801B41F288339842F0D9032042E067
:10282800264A126812F4003FE0D101203BE0234A17
:10283800126812F0007FD9D1012034E01E4B1B68CA
:1028480003F00703AB4207D9EAB21B4B1A701B68A7
:1028580003F00703AB422DD1236813F0040F06D011
:10286800164A936823F4E053E1680B4393602368A6
:1028780013F0080F07D0114A936823F460432169C5
:1028880043EAC1039360FFF703FF0C4B9B68C3F354
:1028980003130B4AD35CD8400A4B18600A4B1868DC
:1028A800FEF74AF9002070BD012070470120FAE7C1
:1028B8000120F8E70120F6E7003C0240003802401A
:1028C800743D0008040000200C000020014B18682B
:1028D800704700BF0400002008B5FFF7F7FF044B5E
:1028E8009B68C3F38223034AD35CD84008BD00BF6A
:1028F800003802406C3D000808B5FFF7E7FF044BBD
:102908009B68C3F34233034AD35CD84008BD00BF79
:10291800003802406C3D00082DE9F04782B00546BA
:10292800884617461E46FEF753F90A9B1B1A03EB07
:102938000609FEF74DF98246284B1B68C3F3CB33D3
:1029480009FB03F301932B689C6838EA04040CBF65
:1029580001230023BB423DD0B6F1FF3FF3D0FEF781
:1029680037F9A0EB0A00484507D2019A02B14A4656
:10297800019B013B01939146E5E72A68536823F0E0
:10298800E00353606B68B3F5827F0BD0AB6AB3F595
:10299800005F14D0012385F85130002385F85030AA
:1029A800032018E0AB68B3F5004F02D0B3F5806F91
:1029B800ECD12A68136823F040031360E6E72A681D
:1029C800136823F4005313602A68136843F4005310
:1029D8001360DFE7002002B0BDE8F08704000020A4
:1029E80010B584B00446164B1868164BA3FB00308C
:1029F800400D4FF47A7303FB00F003906368B3F55E
:102A0800827F0BD0039BBBB1039B013B03932368DD
:102A18009B6813F0800FF5D100200EE000920B4662
:102A2800002280212046FFF777FF30B1636D43F025
:102A380020036365032000E0002004B010BD00BF40
:102A480004000020819F5E1610B582B004460B4634
:102A58004168B1F5827F14D06168B1F5827F2AD1CF
:102A6800A168B1F5806F19D000920022802120461C
:102A7800FFF752FF30B3636D43F020036365032013
:102A880020E08168B1F5004F02D0B1F5806FE3D145
:102A98002068016821F040010160DDE70092002212
:102AA80001212046FFF738FF60B1636D43F0200332
:102AB8006365032006E00092002201212046FFF70B
:102AC8002BFF08B902B010BD636D43F020036365A6
:102AD8000320F7E700285AD010B50446436A33B9F3
:102AE8004368B3F5827F05D00023C36102E0002369
:102AF800036143610023A36294F85130002B40D056
:102B0800022384F851302268136823F040031360CD
:102B1800636803F48273A26802F404421343E26810
:102B280002F400621343226902F00202134362694D
:102B380002F001021343A26902F400721343E2692E
:102B480002F038021343226A02F080021343A26A99
:102B580002F40052216813430B60638B03F00403F3
:102B6800626A02F01002216813434B602268D3693D
:102B780023F40063D36100206065012384F8513099
:102B880010BD84F850302046FDF720FEB8E701203C
:102B980070470000034690F85000012848D00120F3
:102BA80083F85000002938D0002A38D093F8510013
:102BB800C0B2012838D1032083F85100002058659D
:102BC80019639A86DA8698639887D8871864DA68CA
:102BD800AAB1184A5A649A68B2F5004F12D0196817
:102BE8004A6842F0A0024A601A68116811F0400F62
:102BF8001CD1116841F040011160002010E00E4A1C
:102C08005A64E8E719680A6822F040020A601968FD
:102C18000A6842F480420A60E1E7012000E00120EE
:102C2800002283F8502070470220F9E70020F7E7D8
:102C380002207047C92E0008A12E0008844690F88B
:102C48005000012864D010B401208CF850009CF882
:102C58005100C0B2DCF80440012808D0B4F5827FE6
:102C680044D1DCF80840002C46D1042846D100297C
:102C780046D0002A46D0002B46D09CF85100C0B25E
:102C8800042802D005208CF851000020CCF854000C
:102C9800CCF83010ACF83430ACF83630CCF83820FA
:102CA800ACF83C30ACF83E30DCF80C30BBB1194B1A
:102CB800CCF84030184BCCF84430DCF8002053688E
:102CC80043F0E0035360DCF800301A6812F0400F5C
:102CD8001CD11A6842F040021A60002007E00F4B2E
:102CE800CCF840300E4BCCF84430E6E70220002305
:102CF8008CF8503010BC70470220F8E70220F6E745
:102D08000120F4E70120F2E70120F0E70020EEE7D8
:102D180002207047F1300008B930000881300008FF
:102D28004930000808B5844683681BB94068B0F587
:102D3800827F3ED09CF8500001285BD001208CF89F
:102D480050009CF85100C0B201284CD100294BD04A
:102D5800002A49D004208CF851000020CCF85400F7
:102D6800CCF83810ACF83C20ACF83E20CCF8300059
:102D7800ACF83400ACF83600CCF84400DCF80C2091
:102D880002B31D4ACCF84020B3F5004F1ED0DCF842
:102D98000020536843F060035360DCF800301A6881
:102DA80012F0400F24D11A6842F040021A60002045
:102DB8001AE004238CF8513013460A466046FFF7A0
:102DC8003DFF14E00D4ACCF84020DDE7DCF8002098
:102DD800136823F040031360DCF80020136823F421
:102DE80080431360D3E7022000238CF8503008BDDD
:102DF8000020F9E70220FAE76F2F0008472F0008A4
:102E0800704770477047000010B582B00446204BE9
:102E18001B68204AA2FB03235B0A642202FB03F31C
:102E28000193FDF7D5FE0246019B43B1019B013B8F
:102E3800019323689B6813F0020FF5D003E0636DDC
:102E480043F02003636521684B6823F0A0034B60BF
:102E580064212046FFF7C4FD18B1636D43F02003D9
:102E68006365A36833B900932368DA6800929B68A6
:102E78000093009B012384F85130636D23B12046F1
:102E8800FFF7C0FF02B010BD2046FFF7B9FFF9E712
:102E980004000020F119760508B5026B0368127862
:102EA8001A73036B01330363C38E9BB2013B9BB25E
:102EB800C386C38E9BB203B108BDFFF7A5FFFBE72E
:102EC80008B5026B03681288DA60036B0233036388
:102ED800C38E9BB2013B9BB2C386C38E9BB203B128
:102EE80008BDFFF791FFFBE710B582B00446026802
:102EF800536823F060035360FDF76AFE02466421BD
:102F08002046FFF7A1FD18B1636D43F02003636508
:102F1800A36833B901932368DA6801929B68019327
:102F2800019B012384F85130636D23B92046FDF7D6
:102F38004BFA02B010BD2046FFF764FFF9E708B569
:102F48000268836B127B1A70836B01338363C38FB0
:102F58009BB2013B9BB2C387C38F9BB203B108BD31
:102F6800FFF7C2FFFBE708B50368DA68836B1A80CE
:102F7800836B02338363C38F9BB2013B9BB2C387CE
:102F8800C38F9BB203B108BDFFF7AEFFFBE700009C
:102F980010B582B00446284B1B68284AA2FB0323BD
:102FA8005B0A642202FB03F30193FDF711FE02465C
:102FB80021684B6823F020034B60019B43B1019BC0
:102FC800013B019323689B6813F0020FF5D003E0DF
:102FD800636D43F02003636564212046FFF700FD1D
:102FE80018B1636D43F020036365A36833B9009398
:102FF8002368DA6800929B680093009B636D9BB915
:1030080094F85130DBB2042B07D0012384F85130F7
:103018002046FFF7F6FE02B010BD012384F85130B8
:103028002046FDF7D1F9F6E7012384F85130204610
:10303800FFF7E8FEEFE700BF04000020F11976056E
:1030480008B5026B036812781A73036B01330363C4
:10305800C38E9BB2013B9BB2C386C38E9BB23BB966
:103068000268536823F080035360C38F9BB203B197
:1030780008BDFFF78DFFFBE708B50268836B127B7D
:103088001A70836B01338363C38F9BB2013B9BB27E
:10309800C387C38F9BB23BB90268536823F06003B0
:1030A8005360C38E9BB203B108BDFFF771FFFBE706
:1030B80008B5026B03681288DA60036B0233036396
:1030C800C38E9BB2013B9BB2C386C38E9BB23BB9F6
:1030D8000268536823F080035360C38F9BB203B127
:1030E80008BDFFF755FFFBE708B50368DA68836B8F
:1030F8001A80836B02338363C38F9BB2013B9BB2FD
:10310800C387C38F9BB23BB90268536823F040035F
:103118005360C38E9BB203B108BDFFF739FFFBE7CD
:1031280010B584B0044602685168936803F0410002
:10313800012867D013F0020F02D011F0800F68D178
:1031480013F4B07F68D011F0200F65D013F0400F52
:103158000FD094F85100C0B203285FD0606D40F0E2
:103168000400606500200090D0680090906800908E
:10317800009813F0200F0CD0606D40F001006065DE
:103188000020029090680290106820F040001060C3
:10319800029A13F4807F09D0636D43F008036365D6
:1031A8000023039323689B680393039B636D002BA1
:1031B80032D02268536823F0E0035360012384F877
:1031C800513011F0030F31D02268536823F0030304
:1031D8005360E36C4BB1174A1A65E06CFDF7C0FD0C
:1031E80018B1636D43F040036365A36CA3B1114A42
:1031F8001A65A06CFDF7B4FD70B1636D43F0400330
:10320800636509E011F0400F94D0236C204698477D
:1032180002E0636C2046984704B010BD0023019378
:10322800D368019393680193019BF5E72046FFF764
:10323800E9FDF1E74132000808B5806B0023C38738
:10324800C386FFF7DFFD08BD026802F10C0353E8EF
:10325800003F23F490730C3242E800310029F3D187
:10326800026802F1140353E8003F23F0010314320B
:1032780042E800310029F3D1036B012B05D020234C
:1032880080F83E30002303637047026802F10C03A4
:1032980053E8003F23F010030C3242E800310029C4
:1032A800F3D1ECE790F83D30DBB2212B01D00220BE
:1032B80070478368B3F5805F17D0036A5A1C0262AF
:1032C8001A7803685A60C38C9BB2013B9BB2C384D3
:1032D8004BB90268D36823F08003D3600268D368CF
:1032E80043F04003D360002070470369002BE4D10A
:1032F800036A1B880268C3F308035360036A023336
:103308000362E0E710B504460268136923F44053EA
:10331800C1680B431361836802691A4343691A43FE
:10332800C3691A430168CB6823F4164323F00C03DE
:103338001343CB600268536923F4407381690B43DC
:1033480053610368314A934206D002F58062934282
:1033580002D0FFF7C1FA01E0FFF7CEFAE369B3F54F
:10336800004F29D00021031849411B1841F10001E1
:10337800C90041EA5371DB00181863684FEA8302F9
:103388004FEA937341F10001FCF702FF204AA2FBC8
:1033980000314909642303FB11031B013233A2FBEB
:1033A80003235B0903F0F00202EB011203F00F03A1
:1033B800216813448B6010BD0023021843EB0301FE
:1033C800121841F10001C90041EA5271D2001018E7
:1033D80041F10001626892185B41FCF7D9FE0C4A82
:1033E800A2FB00314909642303FB1103DB003233DC
:1033F800A2FB03235B095A0002F4F87202EB0112E4
:1034080003F00703216813448B60D4E700100140E0
:103418001F85EB5158B310B5044690F83D300BB3F7
:10342800242384F83D302268D36823F40053D36002
:103438002046FFF767FF2268136923F4904313615E
:103448002268536923F02A0353612268D36843F43E
:103458000053D36000202064202384F83D3084F892
:103468003E3010BD80F83C30FDF74EFAD8E7012019
:10347800704790F83D30DBB2202B19D1D1B1DAB1C9
:1034880090F83C30012B19D0012380F83C300162C0
:103498008284C28400230364212280F83D2080F8BE
:1034A8003C300168CA6842F08002CA60184670471A
:1034B80002207047012070470120704702207047A2
:1034C800704708B50168CA6822F04002CA60202225
:1034D80080F83D20FFF7F4FF002008BD704708B5CD
:1034E800806B0023C385C384FFF7F8FF08BD7047CE
:1034F80090F83E30DBB2222B67D18368B3F5805F4A
:103508004DD0826AB3F5805F04D0002B54D1036993
:10351800002B51D103685B681370836A013383629F
:10352800C38D9BB2013B9BB2C385002B4FD100B525
:1035380083B00268D36823F02003D3600268D3689D
:1035480023F48073D3600268536923F00103536145
:10355800202380F83E30036B012B33D10023036313
:10356800026802F10C0353E8003F23F010030C3209
:1035780042E800310029F3D103681A6812F0100FED
:1035880006D0002201921A6801925B680193019BA0
:10359800818DFFF7ACFF002003B05DF804FB0269E2
:1035A800002AAED1826A03685B68C3F308031380FC
:1035B800836A02338362B3E703685B6803F07F03BF
:1035C8001370AAE7FCF7E8FEE5E702207047002041
:1035D8007047000010B582B0044602681368D068CE
:1035E800516913F00F0F09D113F0200F0CD010F010
:1035F800200F09D02046FFF77BFF16E011F00101EC
:1036080015D110F4907F12D1216B012979D013F0D4
:10361800800F03D010F0800F40F0108113F0400F9E
:1036280003D010F0400F40F00D8102B010BD13F030
:10363800010F06D010F4807F03D0226C42F0010203
:10364800226413F0040F04D019B1226C42F0020274
:10365800226413F0020F04D019B1226C42F0040264
:10366800226413F0080F07D010F0200F00D119B111
:10367800226C42F008022264226C002AD5D013F092
:10368800200F02D010F0200F29D123685B6903F0C6
:103698004003226C12F0080F00D163B32046FFF7F5
:1036A800D3FD23685B6913F0400F20D0226802F134
:1036B800140353E8003F23F04003143242E800317A
:1036C8000029F3D1A36B73B1604A1A65A06BFDF7AB
:1036D80047FB0028A9D0A06B036D9847A5E72046B3
:1036E800FFF706FFD1E72046FFF7F8FE9DE72046E3
:1036F800FFF7F4FE99E72046FFF7F0FE0023236466
:1037080093E713F0100F82D010F0100F3FF47FAF43
:10371800002301931368019353680193019B536934
:1037280013F0400F50D0A26B13685B689BB2002B5C
:103738003FF47BAFA18D99427FF677AFE385D369DC
:10374800B3F5807F37D0226802F10C0353E8003FBD
:1037580023F480730C3242E800310029F3D1226847
:1037680002F1140353E8003F23F00103143242E846
:1037780000310029F3D1226802F1140353E8003F15
:1037880023F04003143242E800310029F3D120230A
:1037980084F83E3000232363226802F10C0353E8C7
:1037A800003F23F010030C3242E800310029F3D126
:1037B800A06BFDF78BFAA18DE38D9BB2C91A89B274
:1037C8002046FFF794FE30E7A18DE38D9BB2C91A1E
:1037D80089B2E38D9BB2002B3FF427AF00293FF459
:1037E80024AF226802F10C0353E8003F23F49073DE
:1037F8000C3242E800300028F3D1226802F11403A9
:1038080053E8003F23F00103143242E80030002857
:10381800F3D1202384F83E3000232363226802F189
:103828000C0353E8003F23F010030C3242E8003049
:103838000028F3D12046FFF75AFEF6E62046FFF7A8
:1038480031FDF2E62046FFF73CFEEEE6E7340008DD
:1038580081628285C28500230364222280F83E208B
:1038680080F83C30036923B10268D36843F480735D
:10387800D3600268536943F0010353610268D36857
:1038880043F02003D3600020704708B590F83E301D
:10389800DBB2202B0DD171B17AB190F83C30012BFD
:1038A8000DD0012380F83C3000230363FFF7D0FFDD
:1038B80000E0022008BD0120FCE70120FAE7022011
:1038C800F8E700002DE9F047089D0C46002B4ED183
:1038D80094468C458646B2FA82F262D94AB1C2F160
:1038E8002003914020FA03F30CFA02FC194300FA72
:1038F80002FE4FEA1C471FFA8CF6B1FBF7F44FEAB9
:103908001E4307FB141143EA014304FB06F19942E5
:103918000AD91CEB030304F1FF3080F013819942AC
:1039280040F21081023C6344591A1FFA8EF3B1FB2E
:10393800F7F007FB101143EA014300FB06F69E422D
:103948000AD91CEB030300F1FF3180F0FD809E4291
:1039580040F2FA80634402389B1B40EA044000218D
:103968001DB1D3400022C5E90032BDE8F0878B4283
:1039780005D90DB1C5E9000100210846F5E7B3FAFC
:1039880083F1002946D1A34202D39042C0F0F180CE
:10399800861A64EB03030120002DE6D0C5E9006315
:1039A800E3E7002A40F09180A1EB0C044FEA1C48A1
:1039B8001FFA8CF70121B4FBF8F64FEA1E4308FB07
:1039C800164443EA044307FB06F0984208D91CEB67
:1039D800030306F1FF3402D2984200F2CE80264655
:1039E8001C1A1FFA8EF3B4FBF8F008FB104443EAE4
:1039F800044300FB07F79F4208D91CEB030300F1BF
:103A0800FF3402D29F4200F2B1802046DB1B40EA1D
:103A18000640A5E7C1F120068B4022FA06F71F43AE
:103A280020FA06FC04FA01F343EA0C03F44000FA16
:103A380001F8380C4FEA1349B4FBF0FE1FFA87FC73
:103A480000FB1E4449EA04440EFB0CF9A14502FAA6
:103A580001F20AD93C190EF1FF3A80F08580A145A0
:103A680040F28280AEF1020E3C44A4EB09041FFA36
:103A780083F9B4FBF0F300FB134449EA044403FB65
:103A88000CFCA44507D93C1903F1FF3068D2A445C2
:103A980066D9023B3C4443EA0E40A0FB0293A4EBE8
:103AA8000C049C42CE469C4652D34FD055B1B8EB3D
:103AB8000E0364EB0C0404FA06F6CB40CC401E431C
:103AC800C5E900640021BDE8F087C2F1200320FAAF
:103AD80003F10CFA02FC24FA03F394400C434FEA76
:103AE8001C4800FA02FE1FFA8CF7B3FBF8F008FB3B
:103AF8001031230C43EA014300FB07F1994208D92E
:103B08001CEB030300F1FF362CD299422AD9023864
:103B180063445B1AA4B2B3FBF8F108FB113344EA1F
:103B2800034401FB07F3A34208D91CEB040401F189
:103B3800FF3613D2A34211D902396444E41A41EA88
:103B4800004138E70446EFE6084605E7C845ADD228
:103B5800B9EB020E63EB070C0138A7E73146EDE736
:103B6800034698E73046D4E7D6467EE763440238F2
:103B78004CE70646234608460EE7023E63442FE715
:103B8800830730B547D0541E002A3ED0CAB2034638
:103B980001E0013C39D303F8012B9D07F9D1032C2F
:103BA8002CD9CDB205EB05250F2C05EB054535D9EC
:103BB800A4F1100222F00F0C03F1100EE6444FEAB4
:103BC800121C1A46156055609560D5601032724512
:103BD800F8D10CF1010214F00C0F03EB021204F0FF
:103BE8000F0C13D0ACF1040323F003030433134484
:103BF80042F8045B9A42FBD10CF003042CB1C9B221
:103C08001C4403F8011B9C42FBD130BD644613469B
:103C1800002CF4D1F9E703461446C0E71A46A44637
:103C2800E0E700BF70B50F4B0F4DAB42A3EB0506A5
:103C380007D0B610002455F8043B01349847A64233
:103C4800F9D800F083F8094D094B5E1BAB424FEAE7
:103C5800A60606D0002455F8043B01349847A6422E
:103C6800F9D870BD8C3D00088C3D00088C3D0008DB
:103C7800943D0008704700BF704700BF024B13B166
:103C8800024800F005B8704700000000A53C000895
:103C9800002301461A46184600F014B838B5074DF7
:103CA800074C2C1BA41005D0013C55F8043D98473F
:103CB800002CF9D1BDE8384000F04EB8983D000816
:103CC800943D00082DE9F047DFF874A00646DAF8BD
:103CD800000098460F469146FFF7CCFF194B1C6829
:103CE80024B365681F2D24DC5EB96B1C0235DAF835
:103CF8000000636044F82570FFF7BEFF0020BDE8B0
:103D0800F08704EB85010123C1F88890D4F8882155
:103D1800AB401A43022EC4F88821C1F80881E4D1C7
:103D2800D4F88C211A43C4F88C21DEE7064C1C60B9
:103D3800D7E7DAF80000FFF79FFF4FF0FF30DEE724
:103D4800100000206002002064020020F8B500BFC7
:103D5800F8BC08BC9E467047F8B500BFF8BC08BC64
:043D68009E467047BC
:103D6C00000000000102030400000000000000003D
:083D7C00010203040607080917
:083D840048FBFF7F0100000075
:083D8C00853C00083502000827
:043D94000D02000814
:103D9800610000000024F400010000001000000091
:043DA8005C02002099
:0400000508000AEDF8
:00000001FF
