:020000040800F2
:1000000000000220F90D0008AD0D0008AF0D00083A
:10001000B10D0008B30D0008B50D00080000000088
:10002000000000000000000000000000B70D000804
:10003000B90D000800000000BB0D0008BD0D000850
:10004000490E0008490E0008490E0008490E000834
:10005000490E0008490E0008490E0008490E000824
:10006000490E0008490E0008490E0008490E000814
:10007000490E0008490E0008490E0008490E000804
:10008000490E0008490E0008C50D000800000000D8
:10009000000000000000000000000000490E000801
:1000A000490E0008490E0008490E0008490E0008D4
:1000B000D50D0008490E0008E50D0008490E00089E
:1000C000490E0008490E0008490E0008490E0008B4
:1000D000490E0008490E0008490E00080000000003
:1000E000490E0008490E0008490E000800000000F3
:1000F000000000000000000000000000490E0008A1
:1001000000000000490E0008490E0008490E0008D2
:1001100000000000000000000000000000000000DF
:10012000490E0008490E0008490E0008490E000853
:10013000490E000800000000000000000000000060
:10014000000000000000000000000000490E000850
:10015000490E0008490E0008490E0008490E000823
:10016000490E0008490E00080000000000000000D1
:10017000000000000000000000000000000000007F
:1001800000000000490E0008000000000000000010
:08019000490E0008490E0008A9
:1001980080F0004002E000BF81F0004142001FBF34
:1001A8005FEA410392EA030F7FEA226C7FEA236C3D
:1001B8006AD04FEA1262D2EB1363C1BFD218414032
:1001C80048404140B8BF5B42192B88BF704710F0C8
:1001D800004F40F4000020F07F4018BF404211F06B
:1001E800004F41F4000121F07F4118BF494292EAD3
:1001F800030F3FD0A2F1010241FA03FC10EB0C00FF
:10020800C3F1200301FA03F100F0004302D549428B
:1002180060EB4000B0F5000F13D3B0F1807F06D338
:1002280040084FEA310102F10102FE2A51D2B1F130
:10023800004F40EBC25008BF20F0010040EA030025
:100248007047490040EB0000013A28BFB0F5000FA5
:10025800EDD2B0FA80FCACF1080CB2EB0C0200FA5B
:100268000CF0AABF00EBC25052421843BCBFD040AA
:100278001843704792F0000F81F4000106BF80F424
:1002880000000132013BB5E74FEA41037FEA226CE7
:1002980018BF7FEA236C21D092EA030F04D092F0B2
:1002A800000F08BF0846704790EA010F1CBF0020E6
:1002B800704712F07F4F04D1400028BF40F0004043
:1002C800704712F100723CBF00F50000704700F063
:1002D800004343F0FE4040F4000070477FEA22628A
:1002E80016BF08467FEA23630146420206BF5FEA5B
:1002F800412390EA010F40F4800070474FF000035B
:1003080004E000BF10F0004348BF40425FEA000C21
:1003180008BF704743F0964301464FF000001CE0C9
:1003280050EA010208BF70474FF000030AE000BF1F
:1003380050EA010208BF704711F0004302D540425D
:1003480061EB41015FEA010C02BF844601460020CF
:1003580043F0B64308BFA3F18053A3F50003BCFAEA
:100368008CF2083AA3EBC25310DB01FA02FC634497
:1003780000FA02FCC2F12002BCF1004F20FA02F29E
:1003880043EB020008BF20F00100704702F1200291
:1003980001FA02FCC2F1200250EA4C0021FA02F2F2
:1003A80043EB020008BF20EADC7070474FF0FF0CF7
:1003B8001CEAD0521EBF1CEAD15392EA0C0F93EAF2
:1003C8000C0F6FD01A4480EA010C400218BF5FEA94
:1003D80041211ED04FF0006343EA501043EA511107
:1003E800A0FB01310CF00040B1F5000F3EBF490001
:1003F80041EAD3715B0040EA010062F17F02FD2A05
:100408001DD8B3F1004F40EBC25008BF20F00100E7
:10041800704790F0000F0CF0004C08BF49024CEAFE
:10042800502040EA51207F3AC2BFD2F1FF0340EA90
:10043800C250704740F400004FF00003013A5DDC01
:1004480012F1190FDCBF00F000407047C2F1000242
:10045800410021FA02F1C2F1200200FA02FC5FEA2F
:10046800310040F1000053EA4C0308BF20EADC7079
:10047800704792F0000F00F0004C02BF400010F4EB
:10048800000F013AF9D040EA0C0093F0000F01F098
:10049800004C02BF490011F4000F013BF9D041EABA
:1004A8000C018FE70CEAD15392EA0C0F18BF93EABC
:1004B8000C0F0AD030F0004C18BF31F0004CD8D1E6
:1004C80080EA010000F00040704790F0000F17BF6D
:1004D80090F0004F084691F0000F91F0004F14D0B3
:1004E80092EA0C0F01D142020FD193EA0C0F03D10B
:1004F8004B0218BF084608D180EA010000F000400E
:1005080040F0FE4040F40000704740F0FE4040F4E8
:10051800400070474FF0FF0C1CEAD0521EBF1CEA87
:10052800D15392EA0C0F93EA0C0F69D0A2EB0302A5
:1005380080EA010C49024FEA402037D04FF080533F
:1005480043EA111143EA10130CF000408B4238BF04
:100558005B0042F17D024FF4000C8B4224BF5B1A12
:1005680040EA0C00B3EB510F24BFA3EB510340EA60
:100578005C00B3EB910F24BFA3EB910340EA9C000E
:10058800B3EBD10F24BFA3EBD10340EADC001B017E
:1005980018BF5FEA1C1CE0D1FD2A3FF650AF8B4222
:1005A80040EBC25008BF20F0010070470CF0004C2F
:1005B8004CEA50207F32C2BFD2F1FF0340EAC2505A
:1005C800704740F400004FF00003013A37E792F01B
:1005D800000F00F0004C02BF400010F4000F013A79
:1005E800F9D040EA0C0093F0000F01F0004C02BF74
:1005F800490011F4000F013BF9D041EA0C0195E7DD
:100608000CEAD15392EA0C0F08D142027FF47DAF75
:1006180093EA0C0F7FF470AF084676E793EA0C0F65
:1006280004D14B023FF44CAF08466EE730F0004C63
:1006380018BF31F0004CCAD130F000427FF45CAFF3
:1006480031F000437FF43CAF5FE700BF42000ED2B9
:10065800B2F1FE4F0BD34FF09E03B3EB126209D4F5
:100668004FEA002343F0004323FA02F070474FF0AB
:100678000000704712F1610F01D1420202D14FF020
:10068800FF3070474FF00000704700BF53B94AB9B8
:10069800002908BF00281CBF4FF0FF314FF0FF3082
:1006A80000F00CB8ADF1080C6DE904CE02F078F852
:1006B800DDF804E0DDE9022304B07047704700BFAD
:1006C8000348044B834202D0034B03B118477047D9
:1006D8001800002018000020000000000548064B04
:1006E8001B1AD90F01EBA301491002D0034B03B128
:1006F800184770471800002018000020000000006C
:1007080010B5064C237843B9FFF7DAFF044B13B151
:100718000448AFF300800123237010BD18000020A7
:1007280000000000302C000808B5054B1BB1054936
:100738000548AFF30080BDE80840FFF7CFBF00BF12
:10074800000000001C000020302C000800B58BB011
:1007580000220592069207920892099201921A4B7A
:10076800196B41F004011963196B01F0040101913F
:1007780001990292196B41F080011963196B01F01C
:100788008001029102990392196B41F001011963EA
:10079800196B01F001010391039904921A6B42F05D
:1007A80002021A631B6B03F002030493049B4FF4C9
:1007B800005305934FF40413069305A9034800F06A
:1007C800DBFE0BB05DF804FB003802400008024075
:1007D80008B50268114B9A4200D008BD104800F0D5
:1007E800D5FC80B20F4B18801A8892B20E4B1B882A
:1007F8009BB29A4204D90B4B1B889BB20A4A1380BE
:10080800084B1A8892B2094B1B889BB29A42E4D2D1
:10081800044B1B889BB2054A1380DEE70020014089
:10082800100100203800002036000020340000208D
:1008380038B502681B4B9A4200D038BD1A4800F000
:1008480019FC1A4D288880B2194B1B889BB2C01A14
:10085800FFF758FD0446288880B2164B1B889BB2C8
:10086800C01AFFF74FFD01462046FFF753FE014629
:100878004FF07E50FFF790FC0F49FFF797FDFFF709
:10088800E5FE0E4B18604FF08044E26A186802FBE0
:1008980000F0FFF733FD0A49FFF788FDFFF7D6FEA2
:1008A8006063CAE7000800401001002036000020FD
:1008B80038000020340000200000C842000000205A
:1008C8000AD7233C72B6FEE700B58FB000230A931F
:1008D8000B930C930D93089309930193029303933D
:1008E800049305930693079320484FF080420260D3
:1008F80043601022826042F20F72C260036180235B
:10090800836101F019FC30BB4FF480530A930AA9A4
:10091800164801F011FD00BB144801F039FCF0B98C
:1009280000230893099308A9104801F041FEC0B9B3
:100938006023019341F288330293002203920592C7
:1009480001A90A4801F07EFC68B9084800F0AAF934
:100958000FB05DF804FBFFF7B5FFFFF7B3FFFFF734
:10096800B1FFFFF7AFFFFFF7ADFF00BFC8000020E2
:1009780008B50A480A4B03604FF4E133436000238B
:100988008360C36003610C2242618361C36101F02B
:10099800D7FE00B908BDFFF795FF00BF3C00002057
:1009A8000044004000B58BB00023089309930193DD
:1009B8000293039304930593069307931848194ADF
:1009C80002600F224260102282604FF22342C2600E
:1009D80003618023836101F0DBFBD8B9002308930E
:1009E800099308A90E4801F0E3FDA8B96023019313
:1009F8004FF400430293002303930593082201A9AF
:100A0800074801F01FFC48B9054800F04BF90BB046
:100A18005DF804FBFFF756FFFFF754FFFFF752FF9F
:100A2800800000200008004000B585B00023009336
:100A38000193029303931448144A02604FF48032DE
:100A4800426083600361037680F82030C362104AF5
:100A58008262C3600122C26180F83030426100F0D6
:100A6800DDFA68B90A230093012301930023029356
:100A78006946054800F030FC20B905B05DF804FB74
:100A8800FFF720FFFFF71EFF1001002000200140A4
:100A98000100000F00B595B03022002108A801F030
:100AA800DDFF0023039304930593069307930193B3
:100AB8001F4A116C41F080511164126C02F080528F
:100AC8000192019A02931B4B1A6842F440421A6041
:100AD8001B6803F440430293029B012308934FF4DD
:100AE800A023099302220E924FF480030F9304234C
:100AF8001093642111911292139308A800F024FE18
:100B080088B90F23039302230493002305934FF41A
:100B1800805206920793032103A801F07FF820B9B9
:100B280015B05DF804FBFFF7CDFEFFF7CBFE00BF65
:100B3800003802400070004008B500F0A9F9FFF73E
:100B4800A9FFFFF703FEFFF7BFFEFFF711FFFFF74F
:100B580029FFFFF769FF0821034801F07BFC00210A
:100B6800024801F077FCFEE780000020C800002062
:100B780000B583B0002100910C4B5A6C42F48042BE
:100B88005A645A6C02F480420092009A01911A6CDD
:100B980042F080521A641B6C03F080530193019B4E
:100BA800072000F0A5FC03B05DF804FB0038024004
:100BB80010B588B000230393049305930693079315
:100BC800026803F1804303F590339A4201D008B0DC
:100BD80010BD0024019403F58C335A6C42F48072E2
:100BE8005A645A6C02F480720192019A02941A6B48
:100BF80042F004021A631B6B03F004030293029B86
:100C0800012303930323049303A9064800F0B4FCCB
:100C180022462146122000F07DFC122000F08AFCBA
:100C2800D5E700BF000802400368B3F1804F00D049
:100C3800704700B583B00021019103F50E331A6C9B
:100C480042F001021A641B6C03F001030193019B3B
:100C58000A461C2000F05EFC1C2000F06BFC03B070
:100C68005DF804FB02680E4B9A4200D0704700B54D
:100C780083B00021019103F50C331A6C42F0040291
:100C88001A641B6C03F004030193019B0A461E209F
:100C980000F040FC1E2000F04DFC03B05DF804FBA2
:100CA8000008004000B589B000230393049305931E
:100CB800069307930368B3F1804F05D0194A93420E
:100CC80019D009B05DF804FB00230193164B1A6B89
:100CD80042F001021A631B6B03F001030193019BAD
:100CE80020230393022304930123079303A90F48A6
:100CF80000F042FCE5E7002302930B4B1A6B42F02D
:100D080002021A631B6B03F002030293029B4FF467
:100D18008073039302230493079303A9044800F004
:100D28002BFCCEE7000800400038024000000240DB
:100D38000004024000B589B000230393049305938F
:100D4800069307930268154B9A4202D009B05DF8E2
:100D580004FB0021019103F5FA331A6C42F40032C6
:100D68001A641A6C02F400320192019A02911A6B09
:100D780042F001021A631B6B03F001030293029B0A
:100D88000C23039302230493032306930723079357
:100D980003A9034800F0F0FBD8E700BF0044004077
:100DA80000000240FEE7FEE7FEE7FEE7FEE77047C9
:100DB8007047704708B500F085F808BD08B50248C7
:100DC80000F0E9F908BD00BF1001002008B502488D
:100DD80001F0A7F808BD00BFC800002008B5024808
:100DE80001F09FF808BD00BF800000207047000098
:100DF800DFF834D00D480E490E4A002302E0D458DB
:100E0800C4500433C4188C42F9D30B4A0B4C00234A
:100E180001E013600432A242FBD3FFF7E7FF01F0C1
:100E28006FFEFFF789FE70470000022000000020D7
:100E380018000020742C000818000020F40200207C
:100E4800FEE7000010B504460E4B1A784FF47A738B
:100E5800B3FBF2F30C4A1068B0FBF3F000F078FB38
:100E680068B90F2C01D901200AE0002221464FF071
:100E7800FF3000F04FFB054B1C60002000E0012014
:100E880010BD00BF0C00002008000020100000204A
:100E980008B50B4B1A6842F400721A601A6842F4DB
:100EA80080621A601A6842F480721A60032000F0A7
:100EB8001FFB0020FFF7C6FFFFF75AFE002008BD02
:100EC800003C0240034A1168034B1B780B44136033
:100ED800704700BF580100200C000020014B186823
:100EE800704700BF580100204A4B5A6822F440322C
:100EF8005A605A6841680A435A600268536823F482
:100F08008073536002685368016943EA01235360A0
:100F18000268536823F0407353600268536881681D
:100F28000B4353600268936823F40063936002687C
:100F38009368C1680B439360826A374B9A4257D0D3
:100F48000268936823F07063936002689368816A0B
:100F58000B4393600268936823F0405393600268E0
:100F68009368C16A0B4393600268936823F0020395
:100F7800936002689368017E43EA4103936090F8A6
:100F88002030002B3FD00268536843F4006353605D
:100F98000268536823F46043536001684B68426AEF
:100FA800013A43EA42334B600268D36A23F4700380
:100FB800D3620168CB6AC269013A43EA0253CB6241
:100FC8000268936823F4007393600268936890F84A
:100FD800301043EA412393600268936823F48063E6
:100FE800936002689368416943EA8123936070477C
:100FF8000268936823F0706393600268936823F033
:1010080040539360B0E70268536823F40063536069
:10101800CAE700BF002301400100000F38B310B534
:101028000446036C43B1236C13F0100F0BD001205E
:10103800002384F83C3010BDFFF7BAFD0023636439
:1010480084F83C30EFE7236C23F4885323F0020341
:1010580043F0020323642046FFF746FF0020606444
:10106800236C23F0030343F001032364E0E701202A
:101078007047000082B00023019390F83C30012BA8
:1010880075D0012380F83C3003689A6812F0010F8C
:1010980013D19A6842F001029A60384B1B68384AAB
:1010A800A2FB03239B0C03EB4303019302E0019B88
:1010B800013B0193019B002BF9D10268936813F05F
:1010C800010F49D0036C23F4E06323F0010343F4D8
:1010D80080730364536813F4806F05D0036C23F4A2
:1010E800405343F480530364036C13F4805F20D0AF
:1010F800436C23F006034364002380F83C306FF010
:10110800220313600268536843F0806343F02003AE
:1011180053601C4B5B6813F01F0F0DD103689A686E
:1011280012F0405F25D19A6842F080429A60002010
:101138001BE000234364DFE70368134A934201D0AE
:10114800002012E09A6812F0405F14D19A6842F0C9
:1011580080429A60002008E0036C43F010030364A7
:10116800436C43F001034364002002B0704702203F
:10117800FBE70020F9E70020F7E700BF08000020A0
:1011880083DE1B4300230140002001400368D86C24
:1011980070477047704770B5044603681E685D68FD
:1011A80016F0020F2FD005F0200262B3026C12F085
:1011B800100F03D1026C42F4007202649A6812F0B4
:1011C800405F19D1227EBAB9DA6A12F4700F03D0DF
:1011D8009A6812F4806F0FD15A6822F020025A6080
:1011E800236C23F480732364236C13F4805F03D18E
:1011F800236C43F0010323642046FFF7E9FA2368D0
:101208006FF012021A6005F0800316F0040F37D051
:10121800002B35D0236C13F0100F03D1236C43F44B
:101228000053236423689A6812F4401F21D19A6BF3
:1012380012F4401F03D09A6812F4806F19D15A68CB
:1012480012F4806F15D19A6812F0405F11D1227E96
:101258007AB95A6822F080025A60236C23F48053CA
:101268002364236C13F4807F03D1236C43F00103C0
:101278002364204600F006F923686FF00C021A6018
:1012880005F0400316F0010F05D023B123681B6851
:1012980013F0010F06D105F0806516F0200F00D07D
:1012A80065B970BD236C43F4803323642046FFF78F
:1012B80070FF23686FF001021A60ECE7636C43F07B
:1012C8000203636423686FF020051D602046FFF762
:1012D80061FF23681D60E4E730B482B00022019208
:1012E80090F83C20012A00F0C0800346012280F8D3
:1012F8003C200A68092A40D90468E06892B202EBE7
:1013080042021E3A4FF0070C0CFA02F220EA0202DF
:10131800E2601C68E0680A8802EB42021E3A8D68A7
:1013280005FA02F20243E2604A68062A3CD81C68C1
:10133800606B02EB8202053A4FF01F0C0CFA02F2C6
:1013480020EA020262631C68606B4A6802EB820250
:10135800053AB1F800C00CFA02F202436263186859
:10136800434A904250D01868414A904259D00020D0
:1013780083F83C0002B030BC70470468206992B220
:1013880002EB42024FF0070C0CFA02F220EA0202CA
:1013980022611C6820690A8802EB42028D6805FAFE
:1013A80002F202432261BFE70C2A16D81D68286B97
:1013B80002EB8202233A1F2404FA02F220EA020214
:1013C8002A631D68286B4A6802EB8202233A0C885C
:1013D80004FA02F202432A63C1E71D68E86A02EBD5
:1013E8008202413A1F2404FA02F220EA0202EA6267
:1013F8001D68E86A4A6802EB8202413A0C8804FADE
:1014080002F20243EA62AAE70A68122AABD1194A31
:10141800506820F400005060506840F4800050602C
:10142800A1E70A681448824201D0112A9FD1114AC3
:10143800506820F480005060506840F4000050600C
:1014480009680D4A914292D10C4A12680C49A1FBD5
:101458000212920C02EB820252000192019A002AB7
:1014680085D0019A013A0192F8E7022082E700BF8D
:101478000020014000230140120000100800002055
:1014880083DE1B4370470000002808DB0901C9B24E
:1014980000F1604000F5614080F80013704700F0EB
:1014A8000F000901C9B2014B1954704714ED00E04F
:1014B80000B500F00700C0F1070CBCF1040F28BF0D
:1014C8004FF0040C031D062B0FD9C31E4FF0FF3E2F
:1014D8000EFA0CF021EA000199400EFA03FE22EA06
:1014E8000E0241EA02005DF804FB0023EEE700006B
:1014F800074AD36823F4E0631B041B0C000200F4C2
:10150800E060034343F0BF6343F40033D3607047A4
:1015180000ED00E010B50446054BD868C0F3022082
:10152800FFF7C6FF01462046FFF7AEFF10BD00BF1C
:1015380000ED00E0002807DB00F01F02400901234E
:101548009340024A42F82030704700BF00E100E0B3
:101558000138B0F1807F0BD24FF0E0235861054A83
:10156800F02182F823100020986107221A61704741
:101578000120704700ED00E000230F2B00F2DA8015
:1015880030B583B068E085684FEA430E032404FA57
:101598000EF425EA0405CC6804FA0EF42C438460A2
:1015A800446824EA02044A68C2F300129A402243BB
:1015B80042605FE0DC08083450F8242003F0070597
:1015C800AD004FF00F0E0EFA05FE22EA0E0E0A6964
:1015D800AA4042EA0E0240F824205FE0042200E01C
:1015E800002202FA0EF22A430234534D45F8242011
:1015F800524A94686FEA0C0224EA0C05D1F804E018
:101608001EF4801F01D04CEA04054C4CA560E46828
:1016180002EA0405D1F804E01EF4001F01D04CEAE8
:101628000405464CE560646802EA0405D1F804E064
:101638001EF4003F01D04CEA0405404C6560246864
:1016480022404D6815F4803F01D04CEA04023B4C1F
:10165800226001330F2B6BD801229A400C6804EAF0
:10166800020C32EA0404F4D14C6804F00304013C8F
:10167800012C88D94A6802F00302032A09D0C468F9
:101688005D000322AA4024EA02048A68AA40224391
:10169800C2604A6802F00302022A8BD004684FEA4B
:1016A800430E032202FA0EF224EA02044A6802F008
:1016B800030202FA0EF2224302604A6812F4403F23
:1016C800C7D0002201921E4A546C44F480445464EA
:1016D800526C02F480420192019A9C08A51C164A99
:1016E80052F8255003F0030E4FEA8E0E0F2202FA2D
:1016F8000EF225EA0205134A90423FF471AF02F553
:10170800806290420ED002F5806290420CD002F5C1
:10171800806290420AD002F5806290423FF45EAF48
:1017280007225EE701225CE702225AE7032258E714
:1017380003B030BD704700BF00380140003C014095
:101748000038024000000240002800F0E08170B537
:1017580082B00446036813F0010F3BD09F4B9B688F
:1017680003F00C03042B2CD09C4B9B6803F00C0358
:10177800082B21D06368B3F5803F4FD0B3F5A02F75
:1017880052D0964B1A6822F480321A601A6822F4F2
:1017980080221A606368002B50D0FFF79FFB054634
:1017A8008E4B1B6813F4003F14D1FFF797FB401BC7
:1017B8006428F5D90320B1E1884B5B6813F4800FE6
:1017C800D8D0864B1B6813F4003F03D06368002B06
:1017D80000F09F81236813F0020F54D07F4B9B6861
:1017E80013F00C0F3ED07D4B9B6803F00C03082BC5
:1017F80033D0E368002B68D0794B01221A60FFF7D9
:101808006DFB0546754B1B6813F0020F54D1FFF7AB
:1018180065FB401B0228F5D903207FE16F4A136856
:1018280043F480331360B5E76C4B1A6842F48022A6
:101838001A601A6842F480321A60ABE7FFF74EFB71
:101848000546664B1B6813F4003FC3D0FFF746FB01
:10185800401B6428F5D9032060E1604B5B6813F4F2
:10186800800FC6D15D4B1B6813F0020F03D0E368ED
:10187800012B40F05081594A136823F0F80321697D
:1018880043EAC1031360236813F0080F42D0636969
:101898006BB3534B0122C3F8802EFFF71FFB05469D
:1018A8004E4B5B6F13F0020F34D1FFF717FB401B51
:1018B8000228F5D9032031E1484A136823F0F803D8
:1018C800216943EAC1031360DDE7454B00221A6032
:1018D800FFF704FB0546414B1B6813F0020FD2D0FB
:1018E800FFF7FCFA401B0228F5D9032016E13C4B10
:1018F8000022C3F8802EFFF7F1FA0546374B5B6FDD
:1019080013F0020F06D0FFF7E9FA401B0228F5D9B9
:10191800032003E1236813F0040F77D02F4B1B6CCF
:1019280013F0805F33D1002301932C4B1A6C42F0E3
:1019380080521A641B6C03F080530193019B0125AC
:10194800284B1B6813F4807F23D0A368012B34D065
:10195800052B38D0214B1A6F22F001021A671A6F33
:1019680022F004021A67A368002B3DD0FFF7B6FAED
:1019780006461A4B1B6F13F0020F46D1FFF7AEFA5B
:10198800801B41F288339842F3D90320C6E0002532
:10199800D6E7144A136843F480731360FFF79EFA7E
:1019A8000646104B1B6813F4807FCED1FFF796FADA
:1019B800801B0228F5D90320B0E0084A136F43F0D2
:1019C80001031367CFE7054B1A6F42F004021A6749
:1019D8001A6F42F001021A67C5E700BF00380240DB
:1019E8000000474200700040FFF778FA0646524B65
:1019F8001B6F13F0020F08D0FFF770FA801B41F23B
:101A080088339842F3D9032088E0EDB9A369002B05
:101A180000F08380484A926802F00C02082A51D0EC
:101A2800022B17D0454B00221A66FFF757FA0446D7
:101A3800414B1B6813F0007F42D0FFF74FFA001BA1
:101A48000228F5D9032069E03B4A136C23F0805340
:101A58001364DBE7394B00221A66FFF73FFA0546A5
:101A6800354B1B6813F0007F06D0FFF737FA401B91
:101A78000228F5D9032051E0E369226A1343626A18
:101A880043EA8213A26A5208013A43EA0243E26A2D
:101A980043EA0263284A5360284B01221A66FFF77B
:101AA8001DFA0446244B1B6813F0007F06D1FFF78C
:101AB80015FA001B0228F5D903202FE000202DE09D
:101AC80000202BE0012B2BD01B4B5B6803F480011B
:101AD800E269914226D103F03F02216A8A4223D16A
:101AE800616A47F6C0721A40B2EB811F1ED103F437
:101AF8004031A26A5208013AB1EB024F18D103F003
:101B08007063E26AB3EB026F14D1002006E0012093
:101B18007047012002E0012000E0002002B070BD03
:101B28000120FBE70120F9E70120F7E70120F5E7AD
:101B38000120F3E70120F1E70038024000004742A6
:101B480008B5334B9B6803F00C03042B5BD0082BC0
:101B58005BD12F4B5A6802F03F025B6813F4800F89
:101B68002CD02B4B5868C0F388104FEA401CBCEBB4
:101B7800000C6EEB0E0E4FEA8E1343EA9C634FEA9D
:101B88008C11B1EB0C0163EB0E03DB0043EA5173DC
:101B9800C90011EB000C43F10003590200234FEA7E
:101BA8004C2041EADC51FEF771FD194B5B68C3F329
:101BB800014301335B00B0FBF3F027E0144B586896
:101BC800C0F388104FEA401CBCEB000C6EEB0E0E05
:101BD8004FEA8E1343EA9C634FEA8C11B1EB0C0178
:101BE80063EB0E03DB0043EA5173C90011EB000CF1
:101BF80043F10003990200234FEA8C2041EA9C51EB
:101C0800FEF744FDD1E7034800E0034808BD00BFE4
:101C18000038024000127A000024F400002800F086
:101C28009B8070B50D4604464F4B1B6803F00703B5
:101C38008B4208D2CBB24C4A1370136803F00703E7
:101C48008B4240F08B80236813F0020F17D013F0FB
:101C5800040F04D0454A936843F4E0539360236823
:101C680013F0080F04D0414A936843F4604393602B
:101C78003E4A936823F0F003A1680B4393602368FE
:101C880013F0010F32D06368012B21D09A1E012A6C
:101C980025D9364A126812F0020F61D033498A6892
:101CA80022F0030213438B60FFF718F906462F4B07
:101CB8009B6803F00C036268B3EB820F16D0FFF742
:101CC8000DF9801B41F288339842F0D9032042E095
:101CD800264A126812F4003FE0D101203BE0234A73
:101CE800126812F0007FD9D1012034E01E4B1B6826
:101CF80003F00703AB4207D9EAB21B4B1A701B6803
:101D080003F00703AB422DD1236813F0040F06D06C
:101D1800164A936823F4E053E1680B439360236801
:101D280013F0080F07D0114A936823F46043216920
:101D380043EAC1039360FFF703FF0C4B9B68C3F3AF
:101D480003130B4AD35CD8400A4B18600A4B186837
:101D5800FFF778F8002070BD012070470120FAE7EE
:101D68000120F8E70120F6E7003C02400038024075
:101D7800502C00080800002010000020014B1868B3
:101D8800704700BF0800002008B5FFF7F7FF044BB5
:101D98009B68C3F38223034AD35CD84008BD00BFC5
:101DA80000380240482C000808B5FFF7E7FF044B4D
:101DB8009B68C3F34233034AD35CD84008BD00BFD5
:101DC80000380240482C000830B4036A23F00103AD
:101DD8000362026A4568836923F073030C681C4335
:101DE80022F002028B6813430B4A904206D04560EA
:101DF80084614A684263036230BC704723F0080379
:101E0800CA681A4322F0040325F440754A692A4334
:101E18008D691543EBE700BF0000014030B4036A49
:101E280023F480730362036A4468C26922F0730270
:101E38000D68154323F400738A6843EA02230D4AA8
:101E4800904206D04460C5614A68C263036230BCF0
:101E5800704723F40063CA6843EA022323F48063CB
:101E680024F440544A6944EA02148A6944EA021490
:101E7800E8E700BF0000014030B4036A23F4805350
:101E88000362036A4468C26922F4E6420D6842EAC2
:101E9800052223F400538D6843EA0533074DA84211
:101EA80006D04460C2614A680264036230BC70476D
:101EB80024F480444D6944EA8514F2E700000140A7
:101EC80010B4036A046A24F001040462846924F0EB
:101ED800F00C4CEA021223F00A030B4382610362FE
:101EE80010BC704710B4036A23F0100303628469BE
:101EF800036A24F4704C4CEA023223F0A00343EA4C
:101F080001138261036210BC7047836823F0700379
:101F18000B4343F00703836070477047704770476F
:101F2800704710B5044603681A6912F0020F11D001
:101F3800DA6812F0020F0DD06FF002021A61012365
:101F4800037703689B6913F0030F70D0FFF7E7FF6F
:101F58000023237723681A6912F0040F12D0DA6875
:101F680012F0040F0ED06FF004021A6102232377D7
:101F780023689B6913F4407F5FD02046FFF7CFFFAB
:101F88000023237723681A6912F0080F12D0DA6841
:101F980012F0080F0ED06FF008021A61042323779D
:101FA8002368DB6913F0030F4ED02046FFF7B7FF15
:101FB8000023237723681A6912F0100F12D0DA6809
:101FC80012F0100F0ED06FF010021A610823237759
:101FD8002368DB6913F4407F3DD02046FFF79FFF5D
:101FE8000023237723681A6912F0010F03D0DA68F7
:101FF80012F0010F36D123681A6912F0800F03D04E
:10200800DA6812F0800F34D123681A6912F0400F91
:1020180003D0DA6812F0400F32D123681A6912F03F
:10202800200F03D0DA6812F0200F30D110BDFFF76F
:1020380075FF2046FEF7FCFB8AE72046FFF76EFF98
:102048002046FEF7F5FB9BE72046FFF767FF204693
:10205800FEF7EEFBACE72046FFF760FF2046FEF7F1
:10206800E7FBBDE76FF001021A612046FFF755FF55
:10207800C1E76FF080021A61204600F0D8FAC3E782
:102088006FF040021A612046FFF74AFFC5E76FF07C
:1020980020021A61204600F0C9FAC7E70368254AFA
:1020A80090420ED0B0F1804F0BD0A2F57C42904206
:1020B80007D002F58062904203D002F58062904218
:1020C80003D123F070034A6813431A4A90421AD086
:1020D800B0F1804F17D0A2F57C42904213D002F5A0
:1020E800806290420FD002F5806290420BD002F5D8
:1020F8009A32904207D002F58062904203D002F5EE
:102108008062904203D123F44073CA68134323F0DA
:1021180080034A69134303608B68C3620B68836258
:10212800044B984202D00123436170470B69036353
:10213800F9E700BF0000014040B310B5044690F82D
:102148003D30F3B1022384F83D30214651F8040BA9
:10215800FFF7A4FF012384F8463084F83E3084F862
:102168003F3084F8403084F8413084F8423084F8B5
:10217800433084F8443084F8453084F83D300020FA
:1021880010BD80F83C30FEF74FFDDBE701207047BB
:1021980040B310B5044690F83D30F3B1022384F8FB
:1021A8003D30214651F8040BFFF778FF012384F8EE
:1021B800463084F83E3084F83F3084F8403084F864
:1021C800413084F8423084F8433084F8443084F84D
:1021D800453084F83D30002010BD80F83C30FEF7D3
:1021E80041FDDBE70120704730B4036A23F0100398
:1021F8000362036A4468826922F4E6420D6842EA8F
:10220800052223F020038D6843EA05130C4DA842EC
:1022180006D0446082614A688263036230BC7047BA
:1022280023F08003CD6843EA051323F0400324F428
:1022380040644D6944EA85048D6944EA8504E8E709
:102248000000014038B590F83C30012B66D00446B8
:102258000D46012380F83C300C2A5AD8DFE802F0FA
:10226800075959591B595959305959594400006847
:10227800FFF7AAFD2268936943F008039361226877
:10228800936923F0040393612268936929690B43D6
:10229800936100203EE00068FFF7A6FF226893697B
:1022A80043F4006393612268936923F48063936124
:1022B80022689369296943EA01239361002029E090
:1022C8000068FFF7ABFD2268D36943F00803D361C8
:1022D8002268D36923F00403D3612268D36929698A
:1022E8000B43D361002015E00068FFF7C5FD2268A5
:1022F800D36943F40063D3612268D36923F480630C
:10230800D3612268D369296943EA0123D361002094
:1023180000E00120002384F83C3038BD0220FCE7AF
:1023280010B4846824F47F4C42EA03220A4342EA48
:102338000C02826010BC704790F83C30012B78D0BA
:1023480010B50446012380F83C30022380F83D3064
:102358000268936823F47F4323F0770393600B6844
:10236800602B4CD029D8402B54D00CD9502B22D1DB
:10237800CA6849680068FFF7A3FD50212068FFF785
:10238800C4FD002005E0202B0DD009D9302B0AD040
:102398000120012384F83D30002384F83C3010BD2F
:1023A8000BB1102B05D119462068FFF7AEFD0020B0
:1023B800EFE70120EDE70120EBE7B3F5805F34D0CC
:1023C800B3F5005F0CD1CB684A6889680068FFF7ED
:1023D800A7FF2268936843F4804393600020D8E7FE
:1023E800702B24D1CB684A6889680068FFF798FF8A
:1023F8002268936843F0770393600020C9E7CA68AE
:1024080049680068FFF76EFD60212068FFF77DFDD1
:102418000020BEE7CA6849680068FFF751FD4021FF
:102428002068FFF772FD0020B3E70020B1E7012024
:10243800AFE70220704701F01F014FF0010C0CFAC2
:1024480001FC036A23EA0C030362036A8A4013430C
:102458000362704710B504460846002938D194F83D
:102468003E30DBB2013B18BF0123002B40F09880BF
:10247800002846D1022384F83E302268D36843F00E
:102488000203D360012201462068FFF7D4FF2368C6
:10249800464A934274D02368444A934275D0B3F1B4
:1024A800804F72D0A2F57C4293426ED002F58062D2
:1024B80093426AD002F58062934266D002F59A325E
:1024C800934262D01A6842F001021A60002066E066
:1024D800042908D008290DD094F84130DBB2013B1B
:1024E80018BF0123C1E794F83F30DBB2013B18BFA6
:1024F8000123BAE794F84030DBB2013B18BF01234F
:10250800B3E7042824D008282BD0022384F84130CC
:102518000C2847D801A353F820F000BF83240008F3
:10252800AD250008AD250008AD2500085F25000889
:10253800AD250008AD250008AD2500087125000867
:10254800AD250008AD250008AD2500087D2500084B
:10255800022384F83F302268D36843F00403D36031
:1025680090E7022384F840302268D36843F00803D8
:10257800D36087E72268D36843F01003D36081E70C
:102588005A6C42F400425A6485E79A6802F00702DE
:10259800062A09D01A6842F001021A60002010BD0C
:1025A8000120FCE70120FAE70020F8E700000140DD
:1025B80090F83C20012A34D010B40346012280F858
:1025C8003C20022280F83D2002685068946820F080
:1025D800700C086840EA0C0050601A681248824281
:1025E80012D0B2F1804F0FD0A0F57C4082420BD0C0
:1025F80000F58060824207D000F58060824203D0F7
:1026080000F59A30824204D124F0800449682143BD
:102618009160012283F83D20002083F83C0010BC23
:1026280070470220704700BF0000014070477047A4
:1026380010B504460268136923F44053C1680B437C
:102648001361836802691A4343691A43C3691A43C9
:102658000168CB6823F4164323F00C031343CB60C3
:102668000268536923F4407381690B43536103681B
:10267800314A934206D002F58062934202D0FFF7B6
:1026880083FB01E0FFF790FBE369B3F5004F29D026
:102698000021031849411B1841F10001C90041EA12
:1026A8005371DB00181863684FEA83024FEA93738B
:1026B80041F10001FDF7EAFF204AA2FB0031490978
:1026C800642303FB11031B013233A2FB03235B09C1
:1026D80003F0F00202EB011203F00F032168134428
:1026E8008B6010BD0023021843EB0301121841F15F
:1026F8000001C90041EA5271D200101841F10001ED
:10270800626892185B41FDF7C1FF0C4AA2FB0031D9
:102718004909642303FB1103DB003233A2FB0323C3
:102728005B095A0002F4F87202EB011203F0070386
:10273800216813448B60D4E7001001401F85EB51DA
:1027480058B310B5044690F83D300BB3242384F8F1
:102758003D302268D36823F40053D3602046FFF746
:1027680067FF2268136923F4904313612268536951
:1027780023F02A0353612268D36843F40053D360DB
:1027880000202064202384F83D3084F83E3010BDBA
:1027980080F83C30FEF7CEFAD8E7012070470000F9
:1027A8002DE9F047089D0C46002B4ED194468C45E8
:1027B8008646B2FA82F262D94AB1C2F12003914048
:1027C80020FA03F30CFA02FC194300FA02FE4FEA5E
:1027D8001C471FFA8CF6B1FBF7F44FEA1E4307FBC0
:1027E800141143EA014304FB06F199420AD91CEB90
:1027F800030304F1FF3080F01381994240F2108105
:10280800023C6344591A1FFA8EF3B1FBF7F007FB39
:10281800101143EA014300FB06F69E420AD91CEB5D
:10282800030300F1FF3180F0FD809E4240F2FA8000
:10283800634402389B1B40EA044000211DB1D34089
:102848000022C5E90032BDE8F0878B4205D90DB1F9
:10285800C5E9000100210846F5E7B3FA83F100292C
:1028680046D1A34202D39042C0F0F180861A64EBAD
:1028780003030120002DE6D0C5E90063E3E7002A41
:1028880040F09180A1EB0C044FEA1C481FFA8CF72A
:102898000121B4FBF8F64FEA1E4308FB164443EA4D
:1028A800044307FB06F0984208D91CEB030306F122
:1028B800FF3402D2984200F2CE8026461C1A1FFA34
:1028C8008EF3B4FBF8F008FB104443EA044300FB22
:1028D80007F79F4208D91CEB030300F1FF3402D22B
:1028E8009F4200F2B1802046DB1B40EA0640A5E784
:1028F800C1F120068B4022FA06F71F4320FA06FC96
:1029080004FA01F343EA0C03F44000FA01F8380C26
:102918004FEA1349B4FBF0FE1FFA87FC00FB1E4484
:1029280049EA04440EFB0CF9A14502FA01F20AD95E
:102938003C190EF1FF3A80F08580A14540F2828073
:10294800AEF1020E3C44A4EB09041FFA83F9B4FB70
:10295800F0F300FB134449EA044403FB0CFCA445D0
:1029680007D93C1903F1FF3068D2A44566D9023B68
:102978003C4443EA0E40A0FB0293A4EB0C049C42A7
:10298800CE469C4652D34FD055B1B8EB0E0364EBFC
:102998000C0404FA06F6CB40CC401E43C5E900649B
:1029A8000021BDE8F087C2F1200320FA03F10CFAF8
:1029B80002FC24FA03F394400C434FEA1C4800FA43
:1029C80002FE1FFA8CF7B3FBF8F008FB1031230C5A
:1029D80043EA014300FB07F1994208D91CEB0303C2
:1029E80000F1FF362CD299422AD9023863445B1A87
:1029F800A4B2B3FBF8F108FB113344EA034401FB2A
:102A080007F3A34208D91CEB040401F1FF3613D2E3
:102A1800A34211D902396444E41A41EA004138E773
:102A28000446EFE6084605E7C845ADD2B9EB020E05
:102A380063EB070C0138A7E73146EDE7034698E753
:102A48003046D4E7D6467EE7634402384CE706466C
:102A5800234608460EE7023E63442FE7830730B556
:102A680047D0541E002A3ED0CAB2034601E0013CBA
:102A780039D303F8012B9D07F9D1032C2CD9CDB2FA
:102A880005EB05250F2C05EB054535D9A4F11002FA
:102A980022F00F0C03F1100EE6444FEA121C1A46FE
:102AA800156055609560D56010327245F8D10CF10B
:102AB800010214F00C0F03EB021204F00F0C13D0F8
:102AC800ACF1040323F003030433134442F8045B1A
:102AD8009A42FBD10CF003042CB1C9B21C4403F890
:102AE800011B9C42FBD130BD64461346002CF4D137
:102AF800F9E703461446C0E71A46A446E0E700BFD4
:102B080070B50F4B0F4DAB42A3EB050607D0B610BF
:102B1800002455F8043B01349847A642F9D800F040
:102B280083F8094D094B5E1BAB424FEAA60606D057
:102B3800002455F8043B01349847A642F9D870BDE3
:102B4800682C0008682C0008682C0008702C000805
:102B5800704700BF704700BF024B13B1024800F036
:102B680005B8704700000000812B000800230146CB
:102B78001A46184600F014B838B5074D074C2C1BF8
:102B8800A41005D0013C55F8043D9847002CF9D114
:102B9800BDE8384000F04EB8742C0008702C0008CE
:102BA8002DE9F047DFF874A00646DAF800009846E9
:102BB8000F469146FFF7CCFF194B1C6824B3656894
:102BC8001F2D24DC5EB96B1C0235DAF80000636047
:102BD80044F82570FFF7BEFF0020BDE8F08704EB3E
:102BE80085010123C1F88890D4F88821AB401A43A5
:102BF800022EC4F88821C1F80881E4D1D4F88C21C8
:102C08001A43C4F88C21DEE7064C1C60D7E7DAF8D3
:102C18000000FFF79FFF4FF0FF30DEE714000020B1
:102C28006001002064010020F8B500BFF8BC08BCB2
:102C38009E467047F8B500BFF8BC08BC9E46704772
:102C48000000000001020304000000000000000072
:082C580001020304060708094C
:082C600048FBFF7F01000000AA
:082C6800612B00083107000890
:042C70000907000848
:102C740032000000000000000024F4000100000005
:082C8400100000005C010020BB
:0400000508000DF9E9
:00000001FF
