:020000040800F2
:1000000000000220450500081D0500081F05000826
:100010002105000823050008250500080000000050
:10002000000000000000000000000000270500089C
:1000300029050008000000002B0500082D05000818
:100040009505000895050008950500089505000828
:100050009505000895050008950500089505000818
:100060009505000895050008950500089505000808
:1000700095050008950500089505000895050008F8
:10008000950500089505000895050008000000008A
:1000900000000000000000000000000095050008BE
:1000A00095050008950500089505000895050008C8
:1000B00095050008950500089505000895050008B8
:1000C00095050008950500089505000895050008A8
:1000D000950500089505000895050008000000003A
:1000E000350500089505000895050008000000008A
:1000F000000000000000000000000000950500085E
:100100000000000095050008950500089505000809
:1001100000000000000000000000000000000000DF
:100120009505000895050008950500089505000847
:10013000950500080000000000000000000000001D
:10014000000000000000000000000000950500080D
:100150009505000895050008950500089505000817
:10016000950500089505000800000000000000004B
:10017000000000000000000000000000000000007F
:1001800000000000950500080000000000000000CD
:08019000950500089505000823
:1001980053B94AB9002908BF00281CBF4FF0FF31E6
:1001A8004FF0FF3000F00CB8ADF1080C6DE904CE4B
:1001B80000F0C0FFDDF804E0DDE9022304B0704779
:1001C800704700BF0348044B834202D0034B03B17E
:1001D80018477047100000201000002000000000A1
:1001E8000548064B1B1AD90F01EBA301491002D091
:1001F800034B03B11847704710000020100000207F
:100208000000000010B5064C237843B9FFF7DAFF69
:10021800044B13B10448AFF300800123237010BDD1
:100228001000002000000000C415000808B5054BA8
:100238001BB105490548AFF30080BDE80840FFF74A
:10024800CFBF00BF0000000014000020C415000844
:1002580030B58BB00024059406940794089409944B
:100268000194264B1A6B42F004021A631A6B02F0CF
:1002780004020192019A02941A6B42F080021A63F6
:100288001A6B02F080020292029A03941A6B42F0EF
:1002980001021A631A6B02F001020392039A049492
:1002A8001A6B42F002021A631B6B03F002030493F9
:1002B800049B134D22462021284600F02FFB4FF4C3
:1002C800005305934FF404130693079405A90D48AA
:1002D80000F03CFA20230593012306930794089421
:1002E80005A9284600F032FA22460221282000F00B
:1002F800FBF9282000F008FA0BB030BD00380240A6
:10030800000002400008024010B5044608490A7877
:100318000132084B83FB020303EB4303D31ADBB21E
:100328000B70642000F086F9034B5C6110BD00BFC0
:100338002C00002056555555003C014072B6FEE78A
:1003480008B50A480A4B03604FF4E13343600023C1
:100358008360C36003610C2242618361C36100F062
:10036800B9FE00B908BDFFF7E9FF00BF3000002063
:100378000044004000B595B03022002108A801F0E3
:1003880037F8002303930493059306930793019387
:100398001E4A116C41F080511164126C02F08052B7
:1003A8000192019A02931A4A116841F4404111607E
:1003B800126802F440420292029A02220892012133
:1003C8000B9110210C910E920F9308231093322356
:1003D800119312920423139308A800F0B3FA88B972
:1003E8000F23039302230493002305934FF48052B1
:1003F80006920793012103A800F00EFD20B915B05D
:100408005DF804FBFFF79AFFFFF798FF00380240FA
:100418000070004008B500F0E1F8FFF7ABFFFFF708
:1004280017FFFFF78DFF0C4E01222021304600F008
:1004380075FA0A4D2B780A4C34F8130000F0FAF8D4
:1004480000222021304600F069FA2B7834F8130096
:1004580000F0F0F8E7E700BF000002402C000020A1
:10046800DC15000800B583B0002100910C4B5A6CD4
:1004780042F480425A645A6C02F480420092009A14
:1004880001911A6C42F080521A641B6C03F080537D
:100498000193019B052000F015F903B05DF804FBFA
:1004A8000038024000B589B00023039304930593F4
:1004B800069307930268154B9A4202D009B05DF87B
:1004C80004FB0021019103F5FA331A6C42F400325F
:1004D8001A641A6C02F400320192019A02911A6BA2
:1004E80042F001021A631B6B03F001030293029BA3
:1004F8000C230393022304930323069307230793F0
:1005080003A9034800F022F9D8E700BF00440040DF
:1005180000000240FEE7FEE7FEE7FEE7FEE7704761
:100528007047704708B500F073F808BD08B54FF478
:10053800005000F0F9F908BD70470000DFF834D02A
:100548000D480E490E4A002302E0D458C450043323
:10055800C4188C42F9D30B4A0B4C002301E01360FA
:100568000432A242FBD3FFF7E7FF00F093FFFFF747
:1005780051FF7047000002200000002010000020FA
:10058800101600081000002010020020FEE70000EE
:1005980010B504460E4B1A784FF47A73B3FBF2F396
:1005A8000C4A1068B0FBF3F000F0BCF868B90F2CE7
:1005B80001D901200AE0002221464FF0FF3000F067
:1005C80093F8054B1C60002000E0012010BD00BF1F
:1005D80004000020000000200800002008B50B4B94
:1005E8001A6842F400721A601A6842F480621A604B
:1005F8001A6842F480721A60032000F063F8002041
:10060800FFF7C6FFFFF72EFF002008BD003C0240A1
:10061800034A1168034B1B780B441360704700BFF3
:100628007400002004000020014B1868704700BFC8
:100638007400002038B50446FFF7F6FF0546B4F10C
:10064800FF3F02D0044B1B781C44FFF7EDFF401B13
:10065800A042FAD338BD00BF04000020002808DB00
:100668000901C9B200F1604000F5614080F800134B
:10067800704700F00F000901C9B2014B19547047C7
:1006880014ED00E000B500F00700C0F1070CBCF164
:10069800040F28BF4FF0040C031D062B0FD9C31EEF
:1006A8004FF0FF3E0EFA0CF021EA000199400EFAD5
:1006B80003FE22EA0E0241EA02005DF804FB002371
:1006C800EEE70000074AD36823F4E0631B041B0C21
:1006D800000200F4E060034343F0BF6343F40033D7
:1006E800D360704700ED00E010B50446054BD868AC
:1006F800C0F30220FFF7C6FF01462046FFF7AEFF12
:1007080010BD00BF00ED00E0002807DB00F01F026D
:10071800400901239340024A42F82030704700BF45
:1007280000E100E00138B0F1807F0BD24FF0E02308
:100738005861054AF02182F82310002098610722A9
:100748001A6170470120704700ED00E000230F2B6D
:1007580000F2DA8030B583B068E085684FEA430E6E
:10076800032404FA0EF425EA0405CC6804FA0EF40E
:100778002C438460446824EA02044A68C2F30012E5
:100788009A40224342605FE0DC08083450F8242095
:1007980003F00705AD004FF00F0E0EFA05FE22EA32
:1007A8000E0E0A69AA4042EA0E0240F824205FE0D1
:1007B800042200E0002202FA0EF22A430234534DCA
:1007C80045F82420524A94686FEA0C0224EA0C0582
:1007D800D1F804E01EF4801F01D04CEA04054C4C0B
:1007E800A560E46802EA0405D1F804E01EF4001FDD
:1007F80001D04CEA0405464CE560646802EA040549
:10080800D1F804E01EF4003F01D04CEA0405404C46
:100818006560246822404D6815F4803F01D04CEA99
:1008280004023B4C226001330F2B6BD801229A4003
:100838000C6804EA020C32EA0404F4D14C6804F0AF
:100848000304013C012C88D94A6802F00302032AF8
:1008580009D0C4685D000322AA4024EA02048A6819
:10086800AA402243C2604A6802F00302022A8BD0DF
:1008780004684FEA430E032202FA0EF224EA020445
:100888004A6802F0030202FA0EF2224302604A6842
:1008980012F4403FC7D0002201921E4A546C44F41F
:1008A80080445464526C02F480420192019A9C087C
:1008B800A51C164A52F8255003F0030E4FEA8E0E77
:1008C8000F2202FA0EF225EA0205134A90423FF47B
:1008D80071AF02F5806290420ED002F580629042BC
:1008E8000CD002F5806290420AD002F580629042F4
:1008F8003FF45EAF07225EE701225CE702225AE777
:10090800032258E703B030BD704700BF00380140EC
:10091800003C014000380240000002400AB18161F9
:10092800704709048161704708B5054B5B6903424C
:1009380000D108BD024B5861FFF7E6FCF9E700BF9C
:10094800003C0140002800F0E08170B582B0044608
:10095800036813F0010F3BD09F4B9B6803F00C0317
:10096800042B2CD09C4B9B6803F00C03082B21D044
:100978006368B3F5803F4FD0B3F5A02F52D0964BA4
:100988001A6822F480321A601A6822F480221A60E7
:100998006368002B50D0FFF747FE05468E4B1B6857
:1009A80013F4003F14D1FFF73FFE401B6428F5D92C
:1009B8000320B1E1884B5B6813F4800FD8D0864BD5
:1009C8001B6813F4003F03D06368002B00F09F817D
:1009D800236813F0020F54D07F4B9B6813F00C0F61
:1009E8003ED07D4B9B6803F00C03082B33D0E368A3
:1009F800002B68D0794B01221A60FFF715FE0546D7
:100A0800754B1B6813F0020F54D1FFF70DFE401B06
:100A18000228F5D903207FE16F4A136843F4803335
:100A28001360B5E76C4B1A6842F480221A601A68A2
:100A380042F480321A60ABE7FFF7F6FD0546664BD5
:100A48001B6813F4003FC3D0FFF7EEFD401B64287A
:100A5800F5D9032060E1604B5B6813F4800FC6D1C1
:100A68005D4B1B6813F0020F03D0E368012B40F0C5
:100A78005081594A136823F0F803216943EAC103F6
:100A88001360236813F0080F42D063696BB3534BAC
:100A98000122C3F8802EFFF7C7FD05464E4B5B6F5A
:100AA80013F0020F34D1FFF7BFFD401B0228F5D920
:100AB800032031E1484A136823F0F803216943EA27
:100AC800C1031360DDE7454B00221A60FFF7ACFD58
:100AD8000546414B1B6813F0020FD2D0FFF7A4FD67
:100AE800401B0228F5D9032016E13C4B0022C3F82D
:100AF800802EFFF799FD0546374B5B6F13F0020F09
:100B080006D0FFF791FD401B0228F5D9032003E129
:100B1800236813F0040F77D02F4B1B6C13F0805F02
:100B280033D1002301932C4B1A6C42F080521A6483
:100B38001B6C03F080530193019B0125284B1B6814
:100B480013F4807F23D0A368012B34D0052B38D031
:100B5800214B1A6F22F001021A671A6F22F0040261
:100B68001A67A368002B3DD0FFF75EFD06461A4BB7
:100B78001B6F13F0020F46D1FFF756FD801B41F2A1
:100B880088339842F3D90320C6E00025D6E7144AF3
:100B9800136843F480731360FFF746FD0646104B55
:100BA8001B6813F4807FCED1FFF73EFD801B02281F
:100BB800F5D90320B0E0084A136F43F00103136727
:100BC800CFE7054B1A6F42F004021A671A6F42F01A
:100BD80001021A67C5E700BF00380240000047421B
:100BE80000700040FFF720FD0646524B1B6F13F0C4
:100BF800020F08D0FFF718FD801B41F28833984296
:100C0800F3D9032088E0EDB9A369002B00F08380B5
:100C1800484A926802F00C02082A51D0022B17D0D9
:100C2800454B00221A66FFF7FFFC0446414B1B6840
:100C380013F0007F42D0FFF7F7FC001B0228F5D91C
:100C4800032069E03B4A136C23F080531364DBE70D
:100C5800394B00221A66FFF7E7FC0546354B1B683F
:100C680013F0007F06D0FFF7DFFC401B0228F5D900
:100C7800032051E0E369226A1343626A43EA82135C
:100C8800A26A5208013A43EA0243E26A43EA02636B
:100C9800284A5360284B01221A66FFF7C5FC044610
:100CA800244B1B6813F0007F06D1FFF7BDFC001B27
:100CB8000228F5D903202FE000202DE000202BE0AA
:100CC800012B2BD01B4B5B6803F48001E269914236
:100CD80026D103F03F02216A8A4223D1616A47F68E
:100CE800C0721A40B2EB811F1ED103F44031A26AD0
:100CF8005208013AB1EB024F18D103F07063E26A6F
:100D0800B3EB026F14D1002006E0012070470120E8
:100D180002E0012000E0002002B070BD0120FBE7E6
:100D28000120F9E70120F7E70120F5E70120F3E7C3
:100D38000120F1E7003802400000474208B5334B74
:100D48009B6803F00C03042B5BD0082B5BD12F4B63
:100D58005A6802F03F025B6813F4800F2CD02B4BCB
:100D68005868C0F388104FEA401CBCEB000C6EEBCF
:100D78000E0E4FEA8E1343EA9C634FEA8C11B1EBD7
:100D88000C0163EB0E03DB0043EA5173C90011EB5E
:100D9800000C43F10003590200234FEA4C2041EABA
:100DA800DC51FFF7F5F9194B5B68C3F301430133D5
:100DB8005B00B0FBF3F027E0144B5868C0F38810D1
:100DC8004FEA401CBCEB000C6EEB0E0E4FEA8E1384
:100DD80043EA9C634FEA8C11B1EB0C0163EB0E0301
:100DE800DB0043EA5173C90011EB000C43F1000327
:100DF800990200234FEA8C2041EA9C51FFF7C8F979
:100E0800D1E7034800E0034808BD00BF00380240AE
:100E180000127A000024F400002800F09B8070B5CE
:100E28000D4604464F4B1B6803F007038B4208D25C
:100E3800CBB24C4A1370136803F007038B4240F09F
:100E48008B80236813F0020F17D013F0040F04D01F
:100E5800454A936843F4E0539360236813F0080FFE
:100E680004D0414A936843F4604393603E4A9368D0
:100E780023F0F003A1680B439360236813F0010F7C
:100E880032D06368012B21D09A1E012A25D9364A0F
:100E9800126812F0020F61D033498A6822F0030207
:100EA80013438B60FFF7C0FB06462F4B9B6803F08C
:100EB8000C036268B3EB820F16D0FFF7B5FB801BFB
:100EC80041F288339842F0D9032042E0264A12685A
:100ED80012F4003FE0D101203BE0234A126812F0EF
:100EE800007FD9D1012034E01E4B1B6803F00703B3
:100EF800AB4207D9EAB21B4B1A701B6803F0070311
:100F0800AB422DD1236813F0040F06D0164A93681C
:100F180023F4E053E1680B439360236813F0080F50
:100F280007D0114A936823F46043216943EAC10357
:100F38009360FFF703FF0C4B9B68C3F303130B4A43
:100F4800D35CD8400A4B18600A4B1868FFF720FB9F
:100F5800002070BD012070470120FAE70120F8E762
:100F68000120F6E7003C024000380240EC1500087A
:100F78000000002008000020014B1868704700BFDF
:100F88000000002008B5FFF7F7FF044B9B68C3F388
:100F98008223034AD35CD84008BD00BF0038024012
:100FA800E415000808B5FFF7E7FF044B9B68C3F397
:100FB8004233034AD35CD84008BD00BF0038024022
:100FC800E415000810B504460268136923F4405379
:100FD800C1680B431361836802691A4343691A4362
:100FE800C3691A430168CB6823F4164323F00C0342
:100FF8001343CB600268536923F4407381690B4340
:1010080053610368314A934206D002F580629342E5
:1010180002D0FFF7B7FF01E0FFF7C4FFE369B3F5BC
:10102800004F29D00021031849411B1841F1000144
:10103800C90041EA5371DB00181863684FEA83025C
:101048004FEA937341F10001FFF7A2F8204AA2FB8F
:1010580000314909642303FB11031B013233A2FB4E
:1010680003235B0903F0F00202EB011203F00F0304
:10107800216813448B6010BD0023021843EB030161
:10108800121841F10001C90041EA5271D20010184A
:1010980041F10001626892185B41FFF779F80C4A48
:1010A800A2FB00314909642303FB1103DB0032333F
:1010B800A2FB03235B095A0002F4F87202EB011247
:1010C80003F00703216813448B60D4E70010014044
:1010D8001F85EB5158B310B5044690F83D300BB35B
:1010E800242384F83D302268D36823F40053D36066
:1010F8002046FFF767FF2268136923F490431361C2
:101108002268536923F02A0353612268D36843F4A1
:101118000053D36000202064202384F83D3084F8F5
:101128003E3010BD80F83C30FFF7BCF9D8E701200D
:10113800704700002DE9F047089D0C46002B4ED162
:1011480094468C458646B2FA82F262D94AB1C2F117
:101158002003914020FA03F30CFA02FC194300FA29
:1011680002FE4FEA1C471FFA8CF6B1FBF7F44FEA70
:101178001E4307FB141143EA014304FB06F199429D
:101188000AD91CEB030304F1FF3080F01381994264
:1011980040F21081023C6344591A1FFA8EF3B1FBE6
:1011A800F7F007FB101143EA014300FB06F69E42E5
:1011B8000AD91CEB030300F1FF3180F0FD809E4249
:1011C80040F2FA80634402389B1B40EA0440002145
:1011D8001DB1D3400022C5E90032BDE8F0878B423B
:1011E80005D90DB1C5E9000100210846F5E7B3FAB4
:1011F80083F1002946D1A34202D39042C0F0F18086
:10120800861A64EB03030120002DE6D0C5E90063CC
:10121800E3E7002A40F09180A1EB0C044FEA1C4858
:101228001FFA8CF70121B4FBF8F64FEA1E4308FBBE
:10123800164443EA044307FB06F0984208D91CEB1E
:10124800030306F1FF3402D2984200F2CE8026460C
:101258001C1A1FFA8EF3B4FBF8F008FB104443EA9B
:10126800044300FB07F79F4208D91CEB030300F176
:10127800FF3402D29F4200F2B1802046DB1B40EAD5
:101288000640A5E7C1F120068B4022FA06F71F4366
:1012980020FA06FC04FA01F343EA0C03F44000FACE
:1012A80001F8380C4FEA1349B4FBF0FE1FFA87FC2B
:1012B80000FB1E4449EA04440EFB0CF9A14502FA5E
:1012C80001F20AD93C190EF1FF3A80F08580A14558
:1012D80040F28280AEF1020E3C44A4EB09041FFAEE
:1012E80083F9B4FBF0F300FB134449EA044403FB1D
:1012F8000CFCA44507D93C1903F1FF3068D2A4457A
:1013080066D9023B3C4443EA0E40A0FB0293A4EB9F
:101318000C049C42CE469C4652D34FD055B1B8EBF4
:101328000E0364EB0C0404FA06F6CB40CC401E43D3
:10133800C5E900640021BDE8F087C2F1200320FA66
:1013480003F10CFA02FC24FA03F394400C434FEA2D
:101358001C4800FA02FE1FFA8CF7B3FBF8F008FBF2
:101368001031230C43EA014300FB07F1994208D9E5
:101378001CEB030300F1FF362CD299422AD902381C
:1013880063445B1AA4B2B3FBF8F108FB113344EAD7
:10139800034401FB07F3A34208D91CEB040401F141
:1013A800FF3613D2A34211D902396444E41A41EA40
:1013B800004138E70446EFE6084605E7C845ADD2E0
:1013C800B9EB020E63EB070C0138A7E73146EDE7EE
:1013D800034698E73046D4E7D6467EE763440238AA
:1013E8004CE70646234608460EE7023E63442FE7CD
:1013F800830730B547D0541E002A3ED0CAB20346F0
:1014080001E0013C39D303F8012B9D07F9D1032CE6
:101418002CD9CDB205EB05250F2C05EB054535D9A3
:10142800A4F1100222F00F0C03F1100EE6444FEA6B
:10143800121C1A46156055609560D56010327245C9
:10144800F8D10CF1010214F00C0F03EB021204F0B6
:101458000F0C13D0ACF1040323F00303043313443B
:1014680042F8045B9A42FBD10CF003042CB1C9B2D8
:101478001C4403F8011B9C42FBD130BD6446134653
:10148800002CF4D1F9E703461446C0E71A46A446EF
:10149800E0E700BF70B50F4B0F4DAB42A3EB05065D
:1014A80007D0B610002455F8043B01349847A642EB
:1014B800F9D800F083F8094D094B5E1BAB424FEA9F
:1014C800A60606D0002455F8043B01349847A642E6
:1014D800F9D870BD041600080416000804160008A0
:1014E8000C160008704700BF704700BF024B13B1CD
:1014F800024800F005B87047000000001515000804
:10150800002301461A46184600F014B838B5074DAE
:10151800074C2C1BA41005D0013C55F8043D9847F6
:10152800002CF9D1BDE8384000F04EB8101600087C
:101538000C1600082DE9F047DFF874A00646DAF823
:10154800000098460F469146FFF7CCFF194B1C68E0
:1015580024B365681F2D24DC5EB96B1C0235DAF8EC
:101568000000636044F82570FFF7BEFF0020BDE867
:10157800F08704EB85010123C1F88890D4F888210D
:10158800AB401A43022EC4F88821C1F80881E4D17F
:10159800D4F88C211A43C4F88C21DEE7064C1C6071
:1015A800D7E7DAF80000FFF79FFF4FF0FF30DEE7DC
:1015B8000C0000207C00002080000020F8B500BF4F
:1015C800F8BC08BC9E467047F8B500BFF8BC08BC1C
:0415D8009E46704774
:1015DC00C800E803881300000000000001020304A7
:1015EC0000000000000000000102030406070809C7
:0815FC0040FBFF7F010000002D
:08160400F5140008350200088E
:04160C000D020008C3
:101610000024F40001000000100000007800002009
:0400000508000545A5
:00000001FF
