:020000040800F2
:100000000000022029050008FD040008FF04000884
:1000100001050008030500080505000800000000B0
:1000200000000000000000000000000007050008BC
:1000300009050008000000000B0500080D05000878
:100040007905000879050008790500087905000898
:100050007905000879050008790500087905000888
:100060007905000879050008790500087905000878
:100070007905000879050008790500087905000868
:1000800079050008790500087905000800000000DE
:1000900000000000000000000000000079050008DA
:1000A0007905000879050008790500087905000838
:1000B0007905000879050008790500087905000828
:1000C0007905000879050008790500087905000818
:1000D00079050008790500081505000800000000F2
:1000E000790500087905000879050008000000007E
:1000F000000000000000000000000000790500087A
:10010000000000007905000879050008790500085D
:1001100000000000000000000000000000000000DF
:1001200079050008790500087905000879050008B7
:100130007905000800000000000000000000000039
:100140000000000000000000000000007905000829
:100150007905000879050008790500087905000887
:100160007905000879050008000000000000000083
:10017000000000000000000000000000000000007F
:1001800000000000790500080000000000000000E9
:0801900079050008790500085B
:1001980053B94AB9002908BF00281CBF4FF0FF31E6
:1001A8004FF0FF3000F00CB8ADF1080C6DE904CE4B
:1001B80001F004FBDDF804E0DDE9022304B0704738
:1001C800704700BF0348044B834202D0034B03B17E
:1001D8001847704714000020140000200000000099
:1001E8000548064B1B1AD90F01EBA301491002D091
:1001F800034B03B118477047140000201400002077
:100208000000000010B5064C237843B9FFF7DAFF69
:10021800044B13B10448AFF300800123237010BDD1
:1002280014000020000000004C1C000808B5054B15
:100238001BB105490548AFF30080BDE80840FFF74A
:10024800CFBF00BF00000000180000204C1C0008B1
:1002580030B58BB00024059406940794089409944B
:100268000194224B1A6B42F004021A631A6B02F0D3
:1002780004020192019A02941A6B42F080021A63F6
:100288001A6B02F080020292029A03941A6B42F0EF
:1002980001021A631A6B02F001020392039A049492
:1002A8001A6B42F002021A631B6B03F002030493F9
:1002B800049B0F4D22462021284600F06BFB4FF48B
:1002C800005305934FF404130693079405A90948AE
:1002D80000F078FA202305930123069307940894E5
:1002E80005A9284600F06EFA0BB030BD0038024070
:1002F800000002400008024038B502680A4B9A42E2
:1003080000D038BD2021094800F04AFB084D094CAF
:10031800642301222946204600F0E3FF01222946F2
:10032800204601F02EFAECE70044004000000240AD
:10033800000000203000002072B6FEE708B50A4829
:100348000A4B03604FF4E133436000238360C360CA
:1003580003610C2242618361C36100F093FF00B91D
:1003680008BDFFF7E9FF00BF30000020004400404F
:1003780000B595B03022002108A801F07DFB0023CC
:100388000393049305930693079301931E4A116CF4
:1003980041F080511164126C02F080520192019A6E
:1003A80002931A4A116841F440411160126802F43C
:1003B80040420292029A0221089101220B921022D5
:1003C8000C920E910F9310924FF4A873119304237B
:1003D8001293139308A800F0EDFA80B90F23039342
:1003E80002210491002305934FF48052069207934B
:1003F80003A800F049FD20B915B05DF804FBFFF72C
:100408009BFFFFF799FF00BF0038024000700040D3
:1004180008B500F0D5F8FFF7ABFFFFF719FFFFF7B6
:100428008DFF01220249034801F0ABF9FEE700BF46
:10043800000000203000002000B583B000210091AA
:100448000C4B5A6C42F480425A645A6C02F4804253
:100458000092009A01911A6C42F080521A641B6C47
:1004680003F080530193019B072000F009F903B0C2
:100478005DF804FB0038024010B588B000230393F0
:1004880004930593069307930268184B9A4201D088
:1004980008B010BD0024019403F5FA331A6C42F435
:1004A80000321A641A6C02F400320192019A029422
:1004B8001A6B42F001021A631B6B03F001030293EB
:1004C800029B0C230393022304930323069307231D
:1004D800079303A9064800F075F92246214626200D
:1004E80000F0E0F8262000F0EDF8D1E700440040E5
:1004F80000000240FEE7FEE7FEE7FEE7FEE7704782
:100508007047704708B500F075F808BD08B502488F
:1005180000F0DCFF08BD00BF30000020704700007D
:10052800DFF834D00D480E490E4A002302E0D458B3
:10053800C4500433C4188C42F9D30B4A0B4C002323
:1005480001E013600432A242FBD3FFF7E7FF01F09A
:10055800E5FAFFF75DFF7047000002200000002069
:1005680014000020901C0008140000201002002035
:10057800FEE7000010B504460E4B1A784FF47A7364
:10058800B3FBF2F30C4A1068B0FBF3F000F0A8F8E4
:1005980068B90F2C01D901200AE0002221464FF04A
:1005A800FF3000F07FF8054B1C60002000E00120C0
:1005B80010BD00BF08000020040000200C0000202F
:1005C80008B50B4B1A6842F400721A601A6842F4B4
:1005D80080621A601A6842F480721A60032000F080
:1005E8004FF80020FFF7C6FFFFF726FF002008BDE1
:1005F800003C0240034A1168034B1B780B4413600C
:10060800704700BF7400002008000020014B1868E4
:10061800704700BF74000020002808DB0901C9B238
:1006280000F1604000F5614080F80013704700F069
:100638000F000901C9B2014B1954704714ED00E0CD
:1006480000B500F00700C0F1070CBCF1040F28BF8B
:100658004FF0040C031D062B0FD9C31E4FF0FF3EAD
:100668000EFA0CF021EA000199400EFA03FE22EA84
:100678000E0241EA02005DF804FB0023EEE70000E9
:10068800074AD36823F4E0631B041B0C000200F440
:10069800E060034343F0BF6343F40033D360704723
:1006A80000ED00E010B50446054BD868C0F3022001
:1006B800FFF7C6FF01462046FFF7AEFF10BD00BF9B
:1006C80000ED00E0002807DB00F01F0240090123CD
:1006D8009340024A42F82030704700BF00E100E032
:1006E8000138B0F1807F0BD24FF0E0235861054A02
:1006F800F02182F823100020986107221A617047C0
:100708000120704700ED00E070B50446866DFFF7E4
:100718007DFF94F83530DBB2022B06D08023636569
:10072800002384F83430012070BD05462268136820
:1007380023F0160313602268536923F08003536182
:10074800236CE3B12268136823F00803136022685E
:10075800136823F00103136023681B6813F0010F6B
:1007680011D0FFF753FF431B052BF5D920236365F1
:10077800032084F83500002384F83430D4E7A36CD0
:10078800002BDFD1E3E7E26D3F239340B360012301
:1007980084F83530002084F83400C5E790F8353007
:1007A800DBB2022B03D08023436501207047052369
:1007B80080F835300268136823F0010313600020C5
:1007C8007047000000230F2B00F2DA8030B583B0A9
:1007D80068E085684FEA430E032404FA0EF425EA1C
:1007E8000405CC6804FA0EF42C438460446824EAB7
:1007F80002044A68C2F300129A40224342605FE052
:10080800DC08083450F8242003F00705AD004FF049
:100818000F0E0EFA05FE22EA0E0E0A69AA4042EAF7
:100828000E0240F824205FE0042200E0002202FAD1
:100838000EF22A430234534D45F82420524A946854
:100848006FEA0C0224EA0C05D1F804E01EF4801FBC
:1008580001D04CEA04054C4CA560E46802EA0405A2
:10086800D1F804E01EF4001F01D04CEA0405464C00
:10087800E560646802EA0405D1F804E01EF4003F6C
:1008880001D04CEA0405404C6560246822404D685C
:1008980015F4803F01D04CEA04023B4C226001333E
:1008A8000F2B6BD801229A400C6804EA020C32EA3A
:1008B8000404F4D14C6804F00304013C012C88D9E9
:1008C8004A6802F00302032A09D0C4685D000322C3
:1008D800AA4024EA02048A68AA402243C2604A68FD
:1008E80002F00302022A8BD004684FEA430E032267
:1008F80002FA0EF224EA02044A6802F0030202FA3B
:100908000EF2224302604A6812F4403FC7D0002228
:1009180001921E4A546C44F480445464526C02F4AC
:1009280080420192019A9C08A51C164A52F825504B
:1009380003F0030E4FEA8E0E0F2202FA0EF225EA9A
:100948000205134A90423FF471AF02F5806290426B
:100958000ED002F5806290420CD002F5806290427F
:100968000AD002F5806290423FF45EAF07225EE74C
:1009780001225CE702225AE7032258E703B030BDA0
:10098800704700BF00380140003C01400038024079
:10099800000002400AB18161704709048161704713
:1009A800436901EA030221EA030141EA0241816144
:1009B80070470000002800F0E08170B582B004465E
:1009C800036813F0010F3BD09F4B9B6803F00C03A7
:1009D800042B2CD09C4B9B6803F00C03082B21D0D4
:1009E8006368B3F5803F4FD0B3F5A02F52D0964B34
:1009F8001A6822F480321A601A6822F480221A6077
:100A08006368002B50D0FFF701FE05468E4B1B682C
:100A180013F4003F14D1FFF7F9FD401B6428F5D902
:100A28000320B1E1884B5B6813F4800FD8D0864B64
:100A38001B6813F4003F03D06368002B00F09F810C
:100A4800236813F0020F54D07F4B9B6813F00C0FF0
:100A58003ED07D4B9B6803F00C03082B33D0E36832
:100A6800002B68D0794B01221A60FFF7CFFD0546AD
:100A7800754B1B6813F0020F54D1FFF7C7FD401BDD
:100A88000228F5D903207FE16F4A136843F48033C5
:100A98001360B5E76C4B1A6842F480221A601A6832
:100AA80042F480321A60ABE7FFF7B0FD0546664BAB
:100AB8001B6813F4003FC3D0FFF7A8FD401B642850
:100AC800F5D9032060E1604B5B6813F4800FC6D151
:100AD8005D4B1B6813F0020F03D0E368012B40F055
:100AE8005081594A136823F0F803216943EAC10386
:100AF8001360236813F0080F42D063696BB3534B3C
:100B08000122C3F8802EFFF781FD05464E4B5B6F2F
:100B180013F0020F34D1FFF779FD401B0228F5D9F5
:100B2800032031E1484A136823F0F803216943EAB6
:100B3800C1031360DDE7454B00221A60FFF766FD2D
:100B48000546414B1B6813F0020FD2D0FFF75EFD3C
:100B5800401B0228F5D9032016E13C4B0022C3F8BC
:100B6800802EFFF753FD0546374B5B6F13F0020FDE
:100B780006D0FFF74BFD401B0228F5D9032003E1FF
:100B8800236813F0040F77D02F4B1B6C13F0805F92
:100B980033D1002301932C4B1A6C42F080521A6413
:100BA8001B6C03F080530193019B0125284B1B68A4
:100BB80013F4807F23D0A368012B34D0052B38D0C1
:100BC800214B1A6F22F001021A671A6F22F00402F1
:100BD8001A67A368002B3DD0FFF718FD06461A4B8D
:100BE8001B6F13F0020F46D1FFF710FD801B41F277
:100BF80088339842F3D90320C6E00025D6E7144A83
:100C0800136843F480731360FFF700FD0646104B2A
:100C18001B6813F4807FCED1FFF7F8FC801B0228F5
:100C2800F5D90320B0E0084A136F43F001031367B6
:100C3800CFE7054B1A6F42F004021A671A6F42F0A9
:100C480001021A67C5E700BF0038024000004742AA
:100C580000700040FFF7DAFC0646524B1B6F13F09A
:100C6800020F08D0FFF7D2FC801B41F2883398426C
:100C7800F3D9032088E0EDB9A369002B00F0838045
:100C8800484A926802F00C02082A51D0022B17D069
:100C9800454B00221A66FFF7B9FC0446414B1B6816
:100CA80013F0007F42D0FFF7B1FC001B0228F5D9F2
:100CB800032069E03B4A136C23F080531364DBE79D
:100CC800394B00221A66FFF7A1FC0546354B1B6815
:100CD80013F0007F06D0FFF799FC401B0228F5D9D6
:100CE800032051E0E369226A1343626A43EA8213EC
:100CF800A26A5208013A43EA0243E26A43EA0263FB
:100D0800284A5360284B01221A66FFF77FFC0446E5
:100D1800244B1B6813F0007F06D1FFF777FC001BFC
:100D28000228F5D903202FE000202DE000202BE039
:100D3800012B2BD01B4B5B6803F48001E2699142C5
:100D480026D103F03F02216A8A4223D1616A47F61D
:100D5800C0721A40B2EB811F1ED103F44031A26A5F
:100D68005208013AB1EB024F18D103F07063E26AFE
:100D7800B3EB026F14D1002006E001207047012078
:100D880002E0012000E0002002B070BD0120FBE776
:100D98000120F9E70120F7E70120F5E70120F3E753
:100DA8000120F1E7003802400000474208B5334B04
:100DB8009B6803F00C03042B5BD0082B5BD12F4BF3
:100DC8005A6802F03F025B6813F4800F2CD02B4B5B
:100DD8005868C0F388104FEA401CBCEB000C6EEB5F
:100DE8000E0E4FEA8E1343EA9C634FEA8C11B1EB67
:100DF8000C0163EB0E03DB0043EA5173C90011EBEE
:100E0800000C43F10003590200234FEA4C2041EA49
:100E1800DC51FFF7BDF9194B5B68C3F3014301339C
:100E28005B00B0FBF3F027E0144B5868C0F3881060
:100E38004FEA401CBCEB000C6EEB0E0E4FEA8E1313
:100E480043EA9C634FEA8C11B1EB0C0163EB0E0390
:100E5800DB0043EA5173C90011EB000C43F10003B6
:100E6800990200234FEA8C2041EA9C51FFF790F940
:100E7800D1E7034800E0034808BD00BF003802403E
:100E880000127A000024F400002800F09B8070B55E
:100E98000D4604464F4B1B6803F007038B4208D2EC
:100EA800CBB24C4A1370136803F007038B4240F02F
:100EB8008B80236813F0020F17D013F0040F04D0AF
:100EC800454A936843F4E0539360236813F0080F8E
:100ED80004D0414A936843F4604393603E4A936860
:100EE80023F0F003A1680B439360236813F0010F0C
:100EF80032D06368012B21D09A1E012A25D9364A9F
:100F0800126812F0020F61D033498A6822F0030296
:100F180013438B60FFF77AFB06462F4B9B6803F061
:100F28000C036268B3EB820F16D0FFF76FFB801BD0
:100F380041F288339842F0D9032042E0264A1268E9
:100F480012F4003FE0D101203BE0234A126812F07E
:100F5800007FD9D1012034E01E4B1B6803F0070342
:100F6800AB4207D9EAB21B4B1A701B6803F00703A0
:100F7800AB422DD1236813F0040F06D0164A9368AC
:100F880023F4E053E1680B439360236813F0080FE0
:100F980007D0114A936823F46043216943EAC103E7
:100FA8009360FFF703FF0C4B9B68C3F303130B4AD3
:100FB800D35CD8400A4B18600A4B1868FFF7DAFA76
:100FC800002070BD012070470120FAE70120F8E7F2
:100FD8000120F6E7003C0240003802406C1C000883
:100FE800040000200C000020014B1868704700BF67
:100FF8000400002008B5FFF7F7FF044B9B68C3F314
:101008008223034AD35CD84008BD00BF00380240A1
:10101800641C000808B5FFF7E7FF044B9B68C3F39F
:101028004233034AD35CD84008BD00BF00380240B1
:10103800641C0008026802F10C0353E8003F23F423
:1010480090730C3242E800310029F3D1026802F1B2
:10105800140353E8003F23F00103143242E800313F
:101068000029F3D1036B012B05D0202380F83E30F3
:10107800002303637047026802F10C0353E8003F42
:1010880023F010030C3242E800310029F3D1ECE7D9
:1010980090F83D30DBB2212B01D0022070478368E5
:1010A800B3F5805F17D0036A5A1C02621A78036886
:1010B8005A60C38C9BB2013B9BB2C3844BB9026894
:1010C800D36823F08003D3600268D36843F04003F9
:1010D800D360002070470369002BE4D1036A1B88A2
:1010E8000268C3F308035360036A02330362E0E74C
:1010F80010B504460268136923F44053C1680B43D2
:101108001361836802691A4343691A43C3691A431E
:101118000168CB6823F4164323F00C031343CB6018
:101128000268536923F4407381690B435361036870
:10113800314A934206D002F58062934202D0FFF70B
:1011480059FF01E0FFF766FFE369B3F5004F29D0C7
:101158000021031849411B1841F10001C90041EA67
:101168005371DB00181863684FEA83024FEA9373E0
:1011780041F10001FFF70CF8204AA2FB00314909B0
:10118800642303FB11031B013233A2FB03235B0916
:1011980003F0F00202EB011203F00F03216813447D
:1011A8008B6010BD0023021843EB0301121841F1B4
:1011B8000001C90041EA5271D200101841F1000142
:1011C800626892185B41FEF7E3FF0C4AA2FB00310C
:1011D8004909642303FB1103DB003233A2FB032319
:1011E8005B095A0002F4F87202EB011203F00703DC
:1011F800216813448B60D4E7001001401F85EB5130
:101208002DE9F84305460F4616469946DDF8208035
:101218002B681C6837EA04040CBF01240024B4427C
:101228002DD1B8F1FF3FF3D0B8F1000F05D0FFF78B
:10123800EDF9A0EB09004045EAD92A6802F10C0350
:1012480053E8003F23F4D0730C3242E80031002900
:10125800F3D12A6802F1140353E8003F23F0010395
:10126800143242E800310029F3D1202385F83D30BB
:1012780085F83E30002385F83C30032000E000204C
:10128800BDE8F88358B310B5044690F83D300BB369
:10129800242384F83D302268D36823F40053D360B4
:1012A8002046FFF725FF2268136923F49043136152
:1012B8002268536923F02A0353612268D36843F4F0
:1012C8000053D36000202064202384F83D3084F844
:1012D8003E3010BD80F83C30FFF7CEF8D8E701204B
:1012E80070472DE9F04182B01E4690F83D30DBB2E0
:1012F800202B54D104460D469046002953D0002A8D
:1013080053D090F83C30012B51D0012380F83C3069
:1013180000230364212380F83D30FFF777F907465F
:10132800A4F82480A4F82680A368B3F5805F05D0CC
:101338004FF00008002384F83C3012E0236913B111
:101348004FF00008F6E7A8460025F3E738F8023B17
:101358002268C3F308035360E28C92B2013A92B256
:10136800E284E38C9BB273B100963B460022802155
:101378002046FFF745FFE0B9002DE7D015F8012B0F
:1013880023685A60E8E700963B4600224021204641
:10139800FFF736FF78B9202384F83D3000E00220BB
:1013A80002B0BDE8F0810120FAE70120F8E7022049
:1013B800F6E70320F4E70320F2E7704708B5016871
:1013C800CA6822F04002CA60202280F83D20FFF758
:1013D800F4FF002008BD704708B5806B0023C38563
:1013E800C384FFF7F8FF08BD704790F83E30DBB2C2
:1013F800222B67D18368B3F5805F4DD0826AB3F53D
:10140800805F04D0002B54D10369002B51D10368AD
:101418005B681370836A01338362C38D9BB2013B9F
:101428009BB2C385002B4FD100B583B00268D36847
:1014380023F02003D3600268D36823F48073D36059
:101448000268536923F001035361202380F83E307A
:10145800036B012B33D100230363026802F10C03F1
:1014680053E8003F23F010030C3242E80031002912
:10147800F3D103681A6812F0100F06D00022019207
:101488001A6801925B680193019B818DFFF7ACFF9D
:10149800002003B05DF804FB0269002AAED1826A1D
:1014A80003685B68C3F308031380836A02338362AB
:1014B800B3E703685B6803F07F031370AAE7FEF7DE
:1014C8001BFFE5E7022070470020704710B582B087
:1014D800044602681368D068516913F00F0F09D1E8
:1014E80013F0200F0CD010F0200F09D02046FFF782
:1014F8007CFF16E011F0010115D110F4907F12D194
:10150800216B012979D013F0800F03D010F0800FE0
:1015180040F0108113F0400F03D010F0400F40F05E
:101528000D8102B010BD13F0010F06D010F4807FBA
:1015380003D0226C42F00102226413F0040F04D09D
:1015480019B1226C42F00202226413F0020F04D097
:1015580019B1226C42F00402226413F0080F07D07C
:1015680010F0200F00D119B1226C42F00802226459
:10157800226C002AD5D013F0200F02D010F0200FD3
:1015880029D123685B6903F04003226C12F0080F2D
:1015980000D163B32046FFF74DFD23685B6913F064
:1015A800400F20D0226802F1140353E8003F23F0D3
:1015B8004003143242E800310029F3D1A36B73B120
:1015C800604A1A65A06BFFF7E9F80028A9D0A06B5C
:1015D800036D9847A5E72046FFF707FFD1E72046A8
:1015E800FFF7F9FE9DE72046FFF7F5FE99E720464D
:1015F800FFF7F1FE0023236493E713F0100F82D066
:1016080010F0100F3FF47FAF00230193136801938C
:1016180053680193019B536913F0400F50D0A26B9C
:1016280013685B689BB2002B3FF47BAFA18D994296
:101638007FF677AFE385D369B3F5807F37D022682B
:1016480002F10C0353E8003F23F480730C3242E8A4
:1016580000310029F3D1226802F1140353E8003F56
:1016680023F00103143242E800310029F3D1226843
:1016780002F1140353E8003F23F04003143242E818
:1016880000310029F3D1202384F83E30002323635E
:10169800226802F10C0353E8003F23F010030C32D8
:1016A80042E800310029F3D1A06BFFF72DF8A18D96
:1016B800E38D9BB2C91A89B22046FFF795FE30E741
:1016C800A18DE38D9BB2C91A89B2E38D9BB2002B21
:1016D8003FF427AF00293FF424AF226802F10C033E
:1016E80053E8003F23F490730C3242E8003000289E
:1016F800F3D1226802F1140353E8003F23F00103F9
:10170800143242E800300028F3D1202384F83E3018
:1017180000232363226802F10C0353E8003F23F0FF
:1017280010030C3242E800300028F3D12046FFF7BE
:101738005BFEF6E62046FFF7ABFCF2E62046FFF735
:101748003DFEEEE6E113000881628285C285002332
:101758000364222280F83E2080F83C30036923B1DC
:101768000268D36843F48073D3600268536943F016
:10177800010353610268D36843F02003D36000205B
:10178800704708B590F83E30DBB2202B0DD171B10F
:101798007AB190F83C30012B0DD0012380F83C3011
:1017A80000230363FFF7D0FF00E0022008BD0120FB
:1017B800FCE70120FAE70220F8E700002DE9F047EE
:1017C800089D0C46002B4ED194468C458646B2FAAD
:1017D80082F262D94AB1C2F12003914020FA03F3A0
:1017E8000CFA02FC194300FA02FE4FEA1C471FFAE2
:1017F8008CF6B1FBF7F44FEA1E4307FB141143EADA
:10180800014304FB06F199420AD91CEB030304F1D6
:10181800FF3080F01381994240F21081023C63440A
:10182800591A1FFA8EF3B1FBF7F007FB101143EAC0
:10183800014300FB06F69E420AD91CEB030300F1A4
:10184800FF3180F0FD809E4240F2FA806344023806
:101858009B1B40EA044000211DB1D3400022C5E98A
:101868000032BDE8F0878B4205D90DB1C5E900010A
:1018780000210846F5E7B3FA83F1002946D1A342CF
:1018880002D39042C0F0F180861A64EB0303012072
:10189800002DE6D0C5E90063E3E7002A40F0918017
:1018A800A1EB0C044FEA1C481FFA8CF70121B4FB8A
:1018B800F8F64FEA1E4308FB164443EA044307FBC5
:1018C80006F0984208D91CEB030306F1FF3402D254
:1018D800984200F2CE8026461C1A1FFA8EF3B4FBFB
:1018E800F8F008FB104443EA044300FB07F79F4263
:1018F80008D91CEB030300F1FF3402D29F4200F227
:10190800B1802046DB1B40EA0640A5E7C1F120066E
:101918008B4022FA06F71F4320FA06FC04FA01F36B
:1019280043EA0C03F44000FA01F8380C4FEA134973
:10193800B4FBF0FE1FFA87FC00FB1E4449EA04448E
:101948000EFB0CF9A14502FA01F20AD93C190EF175
:10195800FF3A80F08580A14540F28280AEF1020E08
:101968003C44A4EB09041FFA83F9B4FBF0F300FB31
:10197800134449EA044403FB0CFCA44507D93C1969
:1019880003F1FF3068D2A44566D9023B3C4443EAE0
:101998000E40A0FB0293A4EB0C049C42CE469C464E
:1019A80052D34FD055B1B8EB0E0364EB0C0404FAD4
:1019B80006F6CB40CC401E43C5E900640021BDE8D3
:1019C800F087C2F1200320FA03F10CFA02FC24FA92
:1019D80003F394400C434FEA1C4800FA02FE1FFA36
:1019E8008CF7B3FBF8F008FB1031230C43EA0143F2
:1019F80000FB07F1994208D91CEB030300F1FF36FD
:101A08002CD299422AD9023863445B1AA4B2B3FB98
:101A1800F8F108FB113344EA034401FB07F3A3423E
:101A280008D91CEB040401F1FF3613D2A34211D9E3
:101A380002396444E41A41EA004138E70446EFE613
:101A4800084605E7C845ADD2B9EB020E63EB070CB3
:101A58000138A7E73146EDE7034698E73046D4E773
:101A6800D6467EE7634402384CE7064623460846D6
:101A78000EE7023E63442FE7830730B547D0541E74
:101A8800002A3ED0CAB2034601E0013C39D303F82C
:101A9800012B9D07F9D1032C2CD9CDB205EB0525D7
:101AA8000F2C05EB054535D9A4F1100222F00F0CD7
:101AB80003F1100EE6444FEA121C1A4615605560F1
:101AC8009560D56010327245F8D10CF1010214F01E
:101AD8000C0F03EB021204F00F0C13D0ACF104034B
:101AE80023F003030433134442F8045B9A42FBD106
:101AF8000CF003042CB1C9B21C4403F8011B9C422E
:101B0800FBD130BD64461346002CF4D1F9E70346F7
:101B18001446C0E71A46A446E0E700BF70B50F4B6D
:101B28000F4DAB42A3EB050607D0B610002455F8BD
:101B3800043B01349847A642F9D800F083F8094DD0
:101B4800094B5E1BAB424FEAA60606D0002455F8A7
:101B5800043B01349847A642F9D870BD841C00089C
:101B6800841C0008841C00088C1C0008704700BFF7
:101B7800704700BF024B13B1024800F005B8704728
:101B8800000000009D1B0008002301461A46184665
:101B980000F014B838B5074D074C2C1BA41005D01D
:101BA800013C55F8043D9847002CF9D1BDE8384070
:101BB80000F04EB8901C00088C1C00082DE9F04776
:101BC800DFF874A00646DAF8000098460F469146FA
:101BD800FFF7CCFF194B1C6824B365681F2D24DC64
:101BE8005EB96B1C0235DAF80000636044F82570B2
:101BF800FFF7BEFF0020BDE8F08704EB8501012355
:101C0800C1F88890D4F88821AB401A43022EC4F852
:101C18008821C1F80881E4D1D4F88C211A43C4F88A
:101C28008C21DEE7064C1C60D7E7DAF80000FFF7E6
:101C38009FFF4FF0FF30DEE7100000207C000020FF
:101C480080000020F8B500BFF8BC08BC9E4670476D
:0C1C5800F8B500BFF8BC08BC9E46704701
:101C64000000000001020304000000000000000066
:081C7400010203040607080940
:081C7C0048FBFF7F010000009E
:081C84007D1B00083502000879
:041C8C000D0200083D
:101C9000780000000024F4000100000010000000A3
:041CA00078000020A8
:0400000508000529C1
:00000001FF
