:020000040800F2
:1000000000000220C5130008CD120008CF1200081E
:10001000D1120008D3120008D51200080000000019
:10002000000000000000000000000000D7120008DF
:10003000D912000800000000DB120008DD120008E1
:1000400015140008151400081514000815140008EC
:1000500015140008151400081514000815140008DC
:1000600015140008151400081514000815140008CC
:1000700015140008151400081514000815140008BC
:100080001514000815140008E5120008000000000F
:10009000000000000000000000000000151400082F
:1000A000151400081514000815140008151400088C
:1000B000F51200081514000815140008151400089E
:1000C000151400081514000815140008151400086C
:1000D000151400081514000815140008000000008D
:1000E000151400081514000815140008000000007D
:1000F00000000000000000000000000015140008CF
:10010000000000001514000815140008151400085C
:1001100000000000000000000000000000000000DF
:10012000151400081514000815140008151400080B
:10013000151400080000000000000000000000008E
:10014000000000000000000000000000151400087E
:1001500015140008151400081514000815140008DB
:10016000151400081514000800000000000000002D
:10017000000000000000000000000000000000007F
:10018000000000001514000800000000000000003E
:08019000151400081514000805
:1001C00053B94AB9002908BF00281CBF4FF0FF31BE
:1001D0004FF0FF3000F00CB8ADF1080C6DE904CE23
:1001E00002F09CFCDDF804E0DDE9022304B0704776
:1001F000704700BF00000000000000000000000089
:1002000001F0FF01102A2BDB10F0070F08D010F8C7
:10021000013B013A8B422DD010F0070F42B3F6D1CB
:10022000F0B441EA012141EA014122F007047FF0E4
:1002300000070023F0E80256083C85EA010586EA3B
:10024000010685FA47F5A3FA87F586FA47F6A5FA77
:1002500087F68EB9EED1F0BC01F0FF0102F0070283
:1002600032B110F8013B013A83EA010313B1F8D12E
:100270000020704701387047002D06BF354603380F
:10028000073815F0010F07D1013015F4807F02BF48
:10029000013015F4C03F0130F0BC0138704700BF99
:1002A000000000000000000000000000000000004E
:1002B000000000000000000000000000000000003E
:1002C00090F800F06DE9024520F007016FF0000C96
:1002D00010F0070491F820F040F049804FF000043E
:1002E0006FF00700D1E9002391F840F000F1080019
:1002F00082FA4CF2A4FA8CF283FA4CF3A2FA8CF351
:100300004BBBD1E9022382FA4CF200F10800A4FAB7
:100310008CF283FA4CF3A2FA8CF3E3B9D1E904230B
:1003200082FA4CF200F10800A4FA8CF283FA4CF342
:10033000A2FA8CF37BB9D1E9062301F1200182FAFC
:100340004CF200F10800A4FA8CF283FA4CF3A2FA02
:100350008CF3002BC6D0002A04BF04301A4612BA10
:10036000B2FA82F2FDE8024500EBD2007047D1E913
:10037000002304F00305C4F100004FEAC50514F0A2
:10038000040F91F840F00CFA05F562EA05021CBF73
:1003900063EA050362464FF00004A9E7844641EA98
:1003A000000313F003036DD1403A41D351F8043BED
:1003B00040F8043B51F8043B40F8043B51F8043B3F
:1003C00040F8043B51F8043B40F8043B51F8043B2F
:1003D00040F8043B51F8043B40F8043B51F8043B1F
:1003E00040F8043B51F8043B40F8043B51F8043B0F
:1003F00040F8043B51F8043B40F8043B51F8043BFF
:1004000040F8043B51F8043B40F8043B51F8043BEE
:1004100040F8043B51F8043B40F8043B51F8043BDE
:1004200040F8043B51F8043B40F8043B403ABDD24D
:10043000303211D351F8043B40F8043B51F8043BEF
:1004400040F8043B51F8043B40F8043B51F8043BAE
:1004500040F8043B103AEDD20C3205D351F8043B7E
:1004600040F8043B043AF9D2043208D0D2071CBF4A
:1004700011F8013B00F8013B01D30B880380604673
:10048000704700BF082A13D38B078DD010F00303E9
:100490008AD0C3F10403D21ADB071CBF11F8013B59
:1004A00000F8013B80D331F8023B20F8023B7BE7A8
:1004B000043AD9D3013A11F8013B00F8013BF9D2D3
:1004C0000B7803704B7843708B788370604670476D
:1004D00081F0004102E000BF83F0004330B54FEAF5
:1004E00041044FEA430594EA050F08BF90EA020F62
:1004F0001FBF54EA000C55EA020C7FEA645C7FEAF5
:10050000655C00F0E2804FEA5454D4EB5555B8BF17
:100510006D420CDD2C4480EA020281EA030382EA88
:10052000000083EA010180EA020281EA0303362D1A
:1005300088BF30BD11F0004F4FEA01314FF4801CED
:100540004CEA113102D0404261EB410113F0004FFF
:100550004FEA03334CEA133302D0524263EB4303B6
:1005600094EA050F00F0A780A4F10104D5F1200E54
:100570000DDB02FA0EFC22FA05F2801841F10001AF
:1005800003FA0EF2801843FA05F359410EE0A5F183
:1005900020050EF1200E012A03FA0EFC28BF4CF0B4
:1005A000020C43FA05F3C01851EBE37101F000456A
:1005B00007D54FF0000EDCF1000C7EEB00006EEB77
:1005C0000101B1F5801F1BD3B1F5001F0CD3490801
:1005D0005FEA30004FEA3C0C04F101044FEA445258
:1005E00012F5800F80F09A80BCF1004F08BF5FEADF
:1005F000500C50F1000041EB045141EA050130BDBF
:100600005FEA4C0C404141EB0101013C28BFB1F5D0
:10061000801FE9D291F0000F04BF01460020B1FA1B
:1006200081F308BF2033A3F10B03B3F120020CDAEE
:100630000C3208DD02F1140CC2F10C0201FA0CF0CC
:1006400021FA02F10CE002F11402D8BFC2F1200C31
:1006500001FA02F120FA0CFCDCBF41EA0C019040E7
:10066000E41AA2BF01EB0451294330BD6FEA040430
:100670001F3C1CDA0C340EDC04F11404C4F120021B
:1006800020FA04F001FA02F340EA030021FA04F32D
:1006900045EA030130BDC4F10C04C4F1200220FA84
:1006A00002F001FA04F340EA0300294630BD21FAC2
:1006B00004F0294630BD94F0000F83F4801306BF88
:1006C00081F480110134013D4EE77FEA645C18BF7C
:1006D0007FEA655C29D094EA050F08BF90EA020F13
:1006E00005D054EA000C04BF1946104630BD91EA0B
:1006F000030F1EBF0021002030BD5FEA545C05D10E
:100700004000494128BF41F0004130BD14F580044C
:100710003CBF01F5801130BD01F0004545F0FE41C0
:1007200041F470014FF0000030BD7FEA645C1ABFF5
:10073000194610467FEA655C1CBF0B46024650EA2C
:10074000013406BF52EA033591EA030F41F4002158
:1007500030BD00BF90F0000F04BF0021704730B5DE
:100760004FF4806404F132044FF000054FF00001B3
:1007700050E700BF90F0000F04BF0021704730B574
:100780004FF4806404F1320410F0004548BF404249
:100790004FF000013EE700BF42004FEAE2014FEA9E
:1007A00031014FEA02701FBF12F07F4393F07F4F79
:1007B00081F06051704732F07F4208BF704793F07C
:1007C0007F4F04BF41F40021704730B54FF460748F
:1007D00001F0004521F000411CE700BF50EA010292
:1007E00008BF704730B54FF000050AE050EA01023B
:1007F00008BF704730B511F0004502D5404261EBAB
:1008000041014FF4806404F132045FEA915C3FF4EB
:10081000D8AE4FF003025FEADC0C18BF03325FEA88
:10082000DC0C18BF033202EBDC02C2F1200300FA39
:1008300003FC20FA02F001FA03FE40EA0E0021FA5E
:1008400002F11444BDE600BF70B54FF0FF0C4CF44C
:10085000E06C1CEA11541DBF1CEA135594EA0C0FFE
:1008600095EA0C0F00F0DEF82C4481EA030621EA39
:100870004C5123EA4C5350EA013518BF52EA033574
:1008800041F4801143F4801338D0A0FB02CE4FF026
:100890000005E1FB02E506F00042E0FB03E54FF056
:1008A0000006E1FB03569CF0000F18BF4EF0010E4E
:1008B000A4F1FF04B6F5007F64F5407404D25FEA4A
:1008C0004E0E6D4146EB060642EAC62141EA5551FD
:1008D0004FEAC52040EA5E504FEACE2EB4F1FD0C3F
:1008E00088BFBCF5E06F1ED8BEF1004F08BF5FEABD
:1008F000500E50F1000041EB045170BD06F000466F
:1009000046EA010140EA020081EA0301B4EB5C041B
:10091000C2BFD4EB0C0541EA045170BD41F4801113
:100920004FF0000E013C00F3AB8014F1360FDEBF38
:10093000002001F0004170BDC4F10004203C35DA14
:100940000C341BDC04F11404C4F1200500FA05F397
:1009500020FA04F001FA05F240EA020001F0004238
:1009600021F0004110EBD37021FA04F642EB0601AE
:100970005EEA430E08BF20EAD37070BDC4F10C04D8
:10098000C4F1200500FA04F320FA05F001FA04F29C
:1009900040EA020001F0004110EBD37041F1000188
:1009A0005EEA430E08BF20EAD37070BDC4F1200593
:1009B00000FA05F24EEA020E20FA04F301FA05F2FB
:1009C00043EA020321FA04F001F0004121FA04F2A3
:1009D00020EA020000EBD3705EEA430E08BF20EA73
:1009E000D37070BD94F0000F0FD101F000464000AD
:1009F00041EB010111F4801F08BF013CF7D041EA2F
:100A0000060195F0000F18BF704703F00046520032
:100A100043EB030313F4801F08BF013DF7D043EA03
:100A20000603704794EA0C0F0CEA135518BF95EAB9
:100A30000C0F0CD050EA410618BF52EA4306D1D140
:100A400081EA030101F000414FF0000070BD50EA5F
:100A5000410606BF1046194652EA430619D094EAE9
:100A60000C0F02D150EA013613D195EA0C0F05D1D3
:100A700052EA03361CBF104619460AD181EA030127
:100A800001F0004141F0FE4141F470014FF00000DF
:100A900070BD41F0FE4141F4780170BD70B54FF07A
:100AA000FF0C4CF4E06C1CEA11541DBF1CEA1355FA
:100AB00094EA0C0F95EA0C0F00F0A7F8A4EB0504DC
:100AC00081EA030E52EA03354FEA013100F08880D3
:100AD0004FEA03334FF0805545EA131343EA12639C
:100AE0004FEA022245EA111545EA10654FEA002651
:100AF0000EF000419D4208BF964244F1FD0404F50A
:100B0000407402D25B084FEA3202B61A65EB030565
:100B10005B084FEA32024FF480104FF4002CB6EB22
:100B2000020E75EB030E22BFB61A754640EA0C00A2
:100B30005B084FEA3202B6EB020E75EB030E22BFE2
:100B4000B61A754640EA5C005B084FEA3202B6EB23
:100B5000020E75EB030E22BFB61A754640EA9C00E2
:100B60005B084FEA3202B6EB020E75EB030E22BFB2
:100B7000B61A754640EADC0055EA060E18D04FEA70
:100B8000051545EA16754FEA06164FEAC30343EA10
:100B900052734FEAC2025FEA1C1CC0D111F4801FDD
:100BA0000BD141EA00014FF000004FF0004CB6E7D6
:100BB00011F4801F04BF01430020B4F1FD0C88BF75
:100BC000BCF5E06F3FF6AFAEB5EB030C04BFB6EB80
:100BD000020C5FEA500C50F1000041EB045170BD73
:100BE0000EF0004E4EEA113114EB5C04C2BFD4EBA0
:100BF0000C0541EA045170BD41F480114FF0000E24
:100C0000013C90E645EA060E8DE60CEA135594EA9F
:100C10000C0F08BF95EA0C0F3FF43BAF94EA0C0FA2
:100C20000AD150EA01347FF434AF95EA0C0F7FF417
:100C300025AF104619462CE795EA0C0F06D152EA6B
:100C400003353FF4FDAE1046194622E750EA41064F
:100C500018BF52EA43067FF4C5AE50EA41047FF460
:100C60000DAF52EA43057FF4EBAE12E74FF0FF3CC5
:100C700006E000BF4FF0010C02E000BF4FF0010C96
:100C80004DF804CD4FEA410C7FEA6C5C4FEA430C0F
:100C900018BF7FEA6C5C1BD001B050EA410C0CBF5E
:100CA00052EA430C91EA030F02BF90EA020F0020C0
:100CB000704710F1000F91EA030F58BF994208BF27
:100CC00090422CBFD8176FEAE37040F001007047E4
:100CD0004FEA410C7FEA6C5C02D150EA013C07D13B
:100CE0004FEA430C7FEA6C5CD6D152EA033CD3D086
:100CF0005DF8040B704700BF8446104662468C4680
:100D00001946634600E000BF01B5FFF7B7FF0028B2
:100D100048BF10F1000F01BD4DF808EDFFF7F4FFDB
:100D20000CBF012000205DF808FB00BF4DF808ED66
:100D3000FFF7EAFF34BF012000205DF808FB00BF89
:100D40004DF808EDFFF7E0FF94BF012000205DF8AB
:100D500008FB00BF4DF808EDFFF7CEFF94BF012060
:100D600000205DF808FB00BF4DF808EDFFF7C4FF59
:100D700034BF012000205DF808FB00BF4FEA410CA2
:100D80007FEA6C5C02D150EA013C0AD14FEA430C85
:100D90007FEA6C5C02D152EA033C02D14FF00000C2
:100DA00070474FF0010070474FEA410212F5001200
:100DB00015D211D56FF47873B3EB625212D94FEAA2
:100DC000C12343F0004343EA505311F0004F23FA8C
:100DD00002F018BF404270474FF00000704750EAE1
:100DE000013005D111F0004008BF6FF0004070479E
:100DF0004FF00000704700BF0348044B834202D00D
:100E0000034B03B118477047C0060020C0060020FE
:100E1000000000000548064B1B1AD90F01EBA30187
:100E2000491002D0034B03B118477047C006002099
:100E3000C00600200000000010B5064C237843B91E
:100E4000FFF7DAFF044B13B10448AFF3008001232E
:100E5000237010BDC0060020000000009092000822
:100E600008B5054B1BB105490548AFF30080BDE847
:100E70000840FFF7CFBF00BF00000000C4060020FD
:100E80009092000830B58BB0002405940694079426
:100E9000089409940194224B1A6B42F004021A63DD
:100EA0001A6B02F004020192019A02941A6B42F04A
:100EB00080021A631A6B02F080020292029A039473
:100EC0001A6B42F001021A631A6B02F001020392DC
:100ED000039A04941A6B42F002021A631B6B03F02C
:100EE00002030493049B0F4D22462021284600F064
:100EF00029FF4FF4005305934FF40413069307940E
:100F000005A9094800F036FE202305930123069326
:100F10000794089405A9284600F02CFE0BB030BDBC
:100F200000380240000002400008024008B50348B3
:100F300000F02AFC024B188008BD00BF6C0700209F
:100F4000DC06002072B6FEE700B587B000230293EE
:100F50000393049305930093019314484FF0804248
:100F6000026043601022826042F20F72C26003612D
:100F70008023836101F074FB90B94FF48053029396
:100F800002A90A4801F0A4FB60B900230093019371
:100F90006946064801F01CFC30B907B05DF804FB57
:100FA000FFF7D0FFFFF7CEFFFFF7CCFF24070020AD
:100FB00008B50A480A4B03604FF4E133436000234D
:100FC0008360C36003610C2242618361C36101F0ED
:100FD00009FD00B908BDFFF7B5FF00BFE00600201E
:100FE0000044004000B585B00023009301930293B4
:100FF00003931448144A02604FF4803242608360C5
:101000000361037680F82030C362104A8262C360B5
:101010000122C26180F83030426100F0FDFA68B907
:101020000A23009301230193002302936946054894
:1010300000F050FC20B905B05DF804FBFFF782FF1B
:10104000FFF780FF6C070020002001400100000F27
:1010500000B595B03022002108A802F0D5FA00238F
:101060000393049305930693079301931F4A116C0E
:1010700041F080511164126C02F080520192019A89
:1010800002931B4B1A6842F440421A601B6803F437
:1010900040430293029B012308934FF4A02309933A
:1010A00002220E924FF480030F93042310936421C5
:1010B00011911292139308A800F054FE88B90F23DF
:1010C000039302230493002305934FF48052069266
:1010D0000793032103A801F0AFF820B915B05DF81C
:1010E00004FBFFF72FFFFFF72DFF00BF0038024082
:1010F00000700040F8B500F0B5F9FFF7A9FFFFF761
:10110000C1FEFFF721FFFFF753FFFFF76BFF114809
:1011100000F0AEFA2021104800F01AFEC82000F0BE
:10112000CDF90E4F0E4E3B8832460021084602F0A4
:1011300015F9054601F050FE04463A88314602F0A2
:1011400051F94FF0FF33AAB22146064801F079FC6D
:10115000DDE700BF6C07002000000240DC06002035
:10116000A8920008E006002000B583B0002100919D
:101170000C4B5A6C42F480425A645A6C02F480421E
:101180000092009A01911A6C42F080521A641B6C12
:1011900003F080530193019B072000F0A7FC03B0EC
:1011A0005DF804FB0038024010B588B000230393BB
:1011B0000493059306930793026803F1804303F5B4
:1011C00090339A4201D008B010BD0024019403F579
:1011D0008C335A6C42F480725A645A6C02F48072F6
:1011E0000192019A02941A6B42F004021A631B6B7B
:1011F00003F004030293029B01230393032304934C
:1012000003A9064800F0B6FC22462146122000F051
:101210007FFC122000F08CFCD5E700BF00080240E4
:101220000368B3F1804F00D0704700B583B0002150
:10123000019103F50E331A6C42F001021A641B6C23
:1012400003F001030193019B0A461C2000F060FC9F
:101250001C2000F06DFC03B05DF804FB00B589B004
:101260000023039304930593069307930268154B99
:101270009A4202D009B05DF804FB0021019103F508
:10128000FA331A6C42F400321A641A6C02F4003217
:101290000192019A02911A6B42F001021A631B6BD0
:1012A00003F001030293029B0C2303930223049394
:1012B000032306930723079303A9034800F05AFC6E
:1012C000D8E700BF0044004000000240FEE7FEE710
:1012D000FEE7FEE7FEE770477047704708B500F08D
:1012E000DBF808BD08B5024800F053FA08BD00BF9E
:1012F0006C07002008B5024801F0A6F808BD00BF41
:10130000240700200120704708B502F0E1F91623F8
:1013100003604FF0FF3008BD08B54FF0FF31FFF715
:10132000F3FFFEE770B50C461646002506E0AFF366
:101330000080214601F8010B01350C46B542F6DB71
:10134000304670BD70B50C461646002504E014F812
:10135000010BAFF300800135B542F8DB304670BDBC
:101360004FF0FF3070474FF400534B600020704740
:10137000012070470020704710B503460C4A0D4904
:101380000D48006840B10C4800680344521A93426B
:1013900006D8094A136010BD0748084C0460F2E7FC
:1013A00002F096F90C2303604FF0FF30F3E700BF23
:1013B0000000022000040000B4070020D00A002032
:1013C00070470000DFF834D00D480E490E4A002364
:1013D00002E0D458C4500433C4188C42F9D30B4AE9
:1013E0000B4C002301E013600432A242FBD3FFF751
:1013F000E7FF02F081F9FFF77DFE70470000022051
:1014000000000020C0060020DC960008C006002076
:10141000D00A0020FEE7000010B504460E4B1A78F3
:101420004FF47A73B3FBF2F30C4A1068B0FBF3F09D
:1014300000F08CFB68B90F2C01D901200AE00022D2
:1014400021464FF0FF3000F063FB054B1C6000208D
:1014500000E0012010BD00BF0400002000000020BB
:101460000800002008B50B4B1A6842F400721A609D
:101470001A6842F480621A601A6842F480721A6034
:10148000032000F033FB0020FFF7C6FFFFF76CFEE0
:10149000002008BD003C0240034A1168034B1B7842
:1014A0000B441360704700BFB80700200400002001
:1014B000014B1868704700BFB807002038B50446D4
:1014C000FFF7F6FF0546B4F1FF3F02D0044B1B784F
:1014D0001C44FFF7EDFF401BA042FAD338BD00BF0C
:1014E000040000204A4B5A6822F440325A605A687D
:1014F00041680A435A600268536823F4807353605A
:1015000002685368016943EA012353600268536823
:1015100023F0407353600268536881680B43536043
:101520000268936823F40063936002689368C1685B
:101530000B439360826A374B9A4257D00268936894
:1015400023F07063936002689368816A0B43936031
:101550000268936823F04053936002689368C16AFD
:101560000B4393600268936823F002039360026860
:101570009368017E43EA4103936090F82030002B8A
:101580003FD00268536843F40063536002685368B5
:1015900023F46043536001684B68426A013A43EAAE
:1015A00042334B600268D36A23F47003D36201684C
:1015B000CB6AC269013A43EA0253CB62026893687C
:1015C00023F4007393600268936890F8301043EA44
:1015D000412393600268936823F4806393600268F8
:1015E0009368416943EA8123936070470268936876
:1015F00023F0706393600268936823F04053936014
:10160000B0E70268536823F400635360CAE700BF81
:10161000002301400100000F38B310B50446036CED
:1016200043B1236C13F0100F0BD00120002384F87A
:101630003C3010BDFFF7B8FD0023636484F83C30F4
:10164000EFE7236C23F4885323F0020343F00203F3
:1016500023642046FFF746FF00206064236C23F0DC
:10166000030343F001032364E0E701207047000017
:1016700082B00023019390F83C30012B75D00123F8
:1016800080F83C3003689A6812F0010F13D19A6811
:1016900042F001029A60384B1B68384AA2FB0323D0
:1016A0009B0C03EB4303019302E0019B013B01937D
:1016B000019B002BF9D10268936813F0010F49D008
:1016C000036C23F4E06323F0010343F480730364A9
:1016D000536813F4806F05D0036C23F4405343F434
:1016E00080530364036C13F4805F20D0436C23F0B9
:1016F00006034364002380F83C306FF0220313603C
:101700000268536843F0806343F0200353601C4B2E
:101710005B6813F01F0F0DD103689A6812F0405FE9
:1017200025D19A6842F080429A6000201BE0002395
:101730004364DFE70368134A934201D0002012E0BC
:101740009A6812F0405F14D19A6842F080429A6021
:10175000002008E0036C43F010030364436C43F083
:1017600001034364002002B070470220FBE7002021
:10177000F9E70020F7E700BF0000002083DE1B43ED
:1017800000230140002001400368D86C7047704777
:10179000704770B5044603681E685D6816F0020F56
:1017A0002FD005F0200262B3026C12F0100F03D1AB
:1017B000026C42F4007202649A6812F0405F19D120
:1017C000227EBAB9DA6A12F4700F03D09A6812F462
:1017D000806F0FD15A6822F020025A60236C23F4E4
:1017E00080732364236C13F4805F03D1236C43F074
:1017F000010323642046FFF799FB23686FF0120270
:101800001A6005F0800316F0040F37D0002B35D096
:10181000236C13F0100F03D1236C43F400532364A3
:1018200023689A6812F4401F21D19A6B12F4401F6A
:1018300003D09A6812F4806F19D15A6812F4806F3D
:1018400015D19A6812F0405F11D1227E7AB95A6898
:1018500022F080025A60236C23F480532364236CAB
:1018600013F4807F03D1236C43F0010323642046EB
:1018700000F006F923686FF00C021A6005F04003CF
:1018800016F0010F05D023B123681B6813F0010F78
:1018900006D105F0806516F0200F00D065B970BD47
:1018A000236C43F4803323642046FFF770FF2368E2
:1018B0006FF001021A60ECE7636C43F002036364AB
:1018C00023686FF020051D602046FFF761FF236845
:1018D0001D60E4E730B482B00022019290F83C2011
:1018E000012A00F0C0800346012280F83C200A68EB
:1018F000092A40D90468E06892B202EB42021E3A1B
:101900004FF0070C0CFA02F220EA0202E2601C68B7
:10191000E0680A8802EB42021E3A8D6805FA02F27C
:101920000243E2604A68062A3CD81C68606B02EBFE
:101930008202053A4FF01F0C0CFA02F220EA020272
:1019400062631C68606B4A6802EB8202053AB1F878
:1019500000C00CFA02F2024362631868434A9042E4
:1019600050D01868414A904259D0002083F83C007A
:1019700002B030BC70470468206992B202EB4202A8
:101980004FF0070C0CFA02F220EA020222611C68F6
:1019900020690A8802EB42028D6805FA02F20243CE
:1019A0002261BFE70C2A16D81D68286B02EB820261
:1019B000233A1F2404FA02F220EA02022A631D6875
:1019C000286B4A6802EB8202233A0C8804FA02F27E
:1019D00002432A63C1E71D68E86A02EB8202413ACA
:1019E0001F2404FA02F220EA0202EA621D68E86A91
:1019F0004A6802EB8202413A0C8804FA02F202437E
:101A0000EA62AAE70A68122AABD1194A506820F4A0
:101A100000005060506840F480005060A1E70A6800
:101A20001448824201D0112A9FD1114A506820F4F3
:101A300080005060506840F40000506009680D4A12
:101A4000914292D10C4A12680C49A1FB0212920CED
:101A500002EB820252000192019A002A85D0019A7B
:101A6000013A0192F8E7022082E700BF002001401E
:101A700000230140120000100000002083DE1B4301
:101A800070470000002808DB0901C9B200F160407E
:101A900000F5614080F80013704700F00F00090165
:101AA000C9B2014B1954704714ED00E000B500F0C5
:101AB0000700C0F1070CBCF1040F28BF4FF0040C65
:101AC000031D062B0FD9C31E4FF0FF3E0EFA0CF07C
:101AD00021EA000199400EFA03FE22EA0E0241EAD1
:101AE00002005DF804FB0023EEE70000074AD3681C
:101AF00023F4E0631B041B0C000200F4E0600343CA
:101B000043F0BF6343F40033D360704700ED00E05F
:101B100010B50446054BD868C0F30220FFF7C6FF96
:101B200001462046FFF7AEFF10BD00BF00ED00E00C
:101B3000002807DB00F01F02400901239340024AFE
:101B400042F82030704700BF00E100E00138B0F1FA
:101B5000807F0BD24FF0E0235861054AF02182F8D4
:101B600023100020986107221A61704701207047F6
:101B700000ED00E000230F2B00F2DA8030B583B0D7
:101B800068E085684FEA430E032404FA0EF425EA60
:101B90000405CC6804FA0EF42C438460446824EAFB
:101BA00002044A68C2F300129A40224342605FE096
:101BB000DC08083450F8242003F00705AD004FF08E
:101BC0000F0E0EFA05FE22EA0E0E0A69AA4042EA3C
:101BD0000E0240F824205FE0042200E0002202FA16
:101BE0000EF22A430234534D45F82420524A946899
:101BF0006FEA0C0224EA0C05D1F804E01EF4801F01
:101C000001D04CEA04054C4CA560E46802EA0405E6
:101C1000D1F804E01EF4001F01D04CEA0405464C44
:101C2000E560646802EA0405D1F804E01EF4003FB0
:101C300001D04CEA0405404C6560246822404D68A0
:101C400015F4803F01D04CEA04023B4C2260013382
:101C50000F2B6BD801229A400C6804EA020C32EA7E
:101C60000404F4D14C6804F00304013C012C88D92D
:101C70004A6802F00302032A09D0C4685D00032207
:101C8000AA4024EA02048A68AA402243C2604A6841
:101C900002F00302022A8BD004684FEA430E0322AB
:101CA00002FA0EF224EA02044A6802F0030202FA7F
:101CB0000EF2224302604A6812F4403FC7D000226D
:101CC00001921E4A546C44F480445464526C02F4F1
:101CD00080420192019A9C08A51C164A52F8255090
:101CE00003F0030E4FEA8E0E0F2202FA0EF225EADF
:101CF0000205134A90423FF471AF02F580629042B0
:101D00000ED002F5806290420CD002F580629042C3
:101D10000AD002F5806290423FF45EAF07225EE790
:101D200001225CE702225AE7032258E703B030BDE4
:101D3000704700BF00380140003C014000380240BD
:101D4000000002400AB18161704709048161704757
:101D5000436901EA030221EA030141EA0241816188
:101D600070470000002800F0E08170B582B00446A2
:101D7000036813F0010F3BD09F4B9B6803F00C03EB
:101D8000042B2CD09C4B9B6803F00C03082B21D018
:101D90006368B3F5803F4FD0B3F5A02F52D0964B78
:101DA0001A6822F480321A601A6822F480221A60BB
:101DB0006368002B50D0FFF77BFB05468E4B1B68FA
:101DC00013F4003F14D1FFF773FB401B6428F5D9CF
:101DD0000320B1E1884B5B6813F4800FD8D0864BA9
:101DE0001B6813F4003F03D06368002B00F09F8151
:101DF000236813F0020F54D07F4B9B6813F00C0F35
:101E00003ED07D4B9B6803F00C03082B33D0E36876
:101E1000002B68D0794B01221A60FFF749FB054679
:101E2000754B1B6813F0020F54D1FFF741FB401BA9
:101E30000228F5D903207FE16F4A136843F4803309
:101E40001360B5E76C4B1A6842F480221A601A6876
:101E500042F480321A60ABE7FFF72AFB0546664B77
:101E60001B6813F4003FC3D0FFF722FB401B64281C
:101E7000F5D9032060E1604B5B6813F4800FC6D195
:101E80005D4B1B6813F0020F03D0E368012B40F099
:101E90005081594A136823F0F803216943EAC103CA
:101EA0001360236813F0080F42D063696BB3534B80
:101EB0000122C3F8802EFFF7FBFA05464E4B5B6FFD
:101EC00013F0020F34D1FFF7F3FA401B0228F5D9C3
:101ED000032031E1484A136823F0F803216943EAFB
:101EE000C1031360DDE7454B00221A60FFF7E0FAFB
:101EF0000546414B1B6813F0020FD2D0FFF7D8FA0A
:101F0000401B0228F5D9032016E13C4B0022C3F800
:101F1000802EFFF7CDFA0546374B5B6F13F0020FAB
:101F200006D0FFF7C5FA401B0228F5D9032003E1CC
:101F3000236813F0040F77D02F4B1B6C13F0805FD6
:101F400033D1002301932C4B1A6C42F080521A6457
:101F50001B6C03F080530193019B0125284B1B68E8
:101F600013F4807F23D0A368012B34D0052B38D005
:101F7000214B1A6F22F001021A671A6F22F0040235
:101F80001A67A368002B3DD0FFF792FA06461A4B5A
:101F90001B6F13F0020F46D1FFF78AFA801B41F244
:101FA00088339842F3D90320C6E00025D6E7144AC7
:101FB000136843F480731360FFF77AFA0646104BF8
:101FC0001B6813F4807FCED1FFF772FA801B0228C2
:101FD000F5D90320B0E0084A136F43F001031367FB
:101FE000CFE7054B1A6F42F004021A671A6F42F0EE
:101FF00001021A67C5E700BF0038024000004742EF
:1020000000700040FFF754FA0646524B1B6F13F066
:10201000020F08D0FFF74CFA801B41F28833984238
:10202000F3D9032088E0EDB9A369002B00F0838089
:10203000484A926802F00C02082A51D0022B17D0AD
:10204000454B00221A66FFF733FA0446414B1B68E2
:1020500013F0007F42D0FFF72BFA001B0228F5D9BE
:10206000032069E03B4A136C23F080531364DBE7E1
:10207000394B00221A66FFF71BFA0546354B1B68E1
:1020800013F0007F06D0FFF713FA401B0228F5D9A2
:10209000032051E0E369226A1343626A43EA821330
:1020A000A26A5208013A43EA0243E26A43EA02633F
:1020B000284A5360284B01221A66FFF7F9F90446B3
:1020C000244B1B6813F0007F06D1FFF7F1F9001BCA
:1020D0000228F5D903202FE000202DE000202BE07E
:1020E000012B2BD01B4B5B6803F48001E26991420A
:1020F00026D103F03F02216A8A4223D1616A47F662
:10210000C0721A40B2EB811F1ED103F44031A26AA3
:102110005208013AB1EB024F18D103F07063E26A42
:10212000B3EB026F14D1002006E0012070470120BC
:1021300002E0012000E0002002B070BD0120FBE7BA
:102140000120F9E70120F7E70120F5E70120F3E797
:102150000120F1E7003802400000474208B5334B48
:102160009B6803F00C03042B5BD0082B5BD12F4B37
:102170005A6802F03F025B6813F4800F2CD02B4B9F
:102180005868C0F388104FEA401CBCEB000C6EEBA3
:102190000E0E4FEA8E1343EA9C634FEA8C11B1EBAB
:1021A0000C0163EB0E03DB0043EA5173C90011EB32
:1021B000000C43F10003590200234FEA4C2041EA8E
:1021C000DC51FDF7FDFF194B5B68C3F3014301339D
:1021D0005B00B0FBF3F027E0144B5868C0F38810A5
:1021E0004FEA401CBCEB000C6EEB0E0E4FEA8E1358
:1021F00043EA9C634FEA8C11B1EB0C0163EB0E03D5
:10220000DB0043EA5173C90011EB000C43F10003FA
:10221000990200234FEA8C2041EA9C51FDF7D0FF40
:10222000D1E7034800E0034808BD00BF0038024082
:1022300000127A000024F400002800F09B8070B5A2
:102240000D4604464F4B1B6803F007038B4208D230
:10225000CBB24C4A1370136803F007038B4240F073
:102260008B80236813F0020F17D013F0040F04D0F3
:10227000454A936843F4E0539360236813F0080FD2
:1022800004D0414A936843F4604393603E4A9368A4
:1022900023F0F003A1680B439360236813F0010F50
:1022A00032D06368012B21D09A1E012A25D9364AE3
:1022B000126812F0020F61D033498A6822F00302DB
:1022C00013438B60FFF7F4F806462F4B9B6803F02F
:1022D0000C036268B3EB820F16D0FFF7E9F8801B9E
:1022E00041F288339842F0D9032042E0264A12682E
:1022F00012F4003FE0D101203BE0234A126812F0C3
:10230000007FD9D1012034E01E4B1B6803F0070386
:10231000AB4207D9EAB21B4B1A701B6803F00703E4
:10232000AB422DD1236813F0040F06D0164A9368F0
:1023300023F4E053E1680B439360236813F0080F24
:1023400007D0114A936823F46043216943EAC1032B
:102350009360FFF703FF0C4B9B68C3F303130B4A17
:10236000D35CD8400A4B18600A4B1868FFF754F842
:10237000002070BD012070470120FAE70120F8E736
:102380000120F6E7003C024000380240C0920008FD
:102390000000002008000020014B1868704700BFB3
:1023A0000000002008B5FFF7F7FF044B9B68C3F35C
:1023B0008223034AD35CD84008BD00BF00380240E6
:1023C000B892000808B5FFF7E7FF044B9B68C3F31A
:1023D0004233034AD35CD84008BD00BF00380240F6
:1023E000B892000810B4036A046A24F0010404627D
:1023F000846924F0F00C4CEA021223F00A030B4328
:102400008261036210BC704710B4036A23F01003AA
:1024100003628469036A24F4704C4CEA023223F0AC
:10242000A00343EA01138261036210BC7047836812
:1024300023F070030B4343F007038360704770473A
:10244000704770477047704710B5044603681A69B3
:1024500012F0020F11D0DA6812F0020F0DD06FF0F7
:1024600002021A610123037703689B6913F0030FCB
:1024700070D0FFF7E6FF0023237723681A6912F074
:10248000040F12D0DA6812F0040F0ED06FF00402BD
:102490001A610223237723689B6913F4407F5FD07E
:1024A0002046FFF7CEFF0023237723681A6912F036
:1024B000080F12D0DA6812F0080F0ED06FF0080281
:1024C0001A61042323772368DB6913F0030F4ED0CE
:1024D0002046FFF7B6FF0023237723681A6912F01E
:1024E000100F12D0DA6812F0100F0ED06FF0100239
:1024F0001A61082323772368DB6913F4407F3DD0FA
:102500002046FFF79EFF0023237723681A6912F005
:10251000010F03D0DA6812F0010F36D123681A696F
:1025200012F0800F03D0DA6812F0800F34D12368E4
:102530001A6912F0400F03D0DA6812F0400F32D15E
:1025400023681A6912F0200F03D0DA6812F0200F06
:1025500030D110BDFFF774FF2046FFF773FF8AE705
:102560002046FFF76DFF2046FFF76CFF9BE72046F4
:10257000FFF766FF2046FFF765FFACE72046FFF751
:102580005FFF2046FFF75EFFBDE76FF001021A61B3
:102590002046FFF754FFC1E76FF080021A61204622
:1025A00000F055F9C3E76FF040021A612046FFF7CB
:1025B0004AFFC5E76FF020021A61204600F046F995
:1025C000C7E700000368254A90420ED0B0F1804F63
:1025D0000BD0A2F57C42904207D002F58062904277
:1025E00003D002F58062904203D123F070034A6861
:1025F00013431A4A90421AD0B0F1804F17D0A2F577
:102600007C42904213D002F5806290420FD002F5D6
:10261000806290420BD002F59A32904207D002F5C8
:102620008062904203D002F58062904203D123F48D
:102630004073CA68134323F080034A69134303605D
:102640008B68C3620B688362044B984202D00123FB
:10265000436170470B690363F9E700BF0000014065
:1026600040B310B5044690F83D30F3B1022384F82E
:102670003D30214651F8040BFFF7A4FF012384F8F5
:10268000463084F83E3084F83F3084F8403084F897
:10269000413084F8423084F8433084F8443084F880
:1026A000453084F83D30002010BD80F83C30FEF706
:1026B000B7FDDBE70120704710B4846824F47F4C39
:1026C00042EA03220A4342EA0C02826010BC7047CD
:1026D00090F83C30012B78D010B50446012380F8E7
:1026E0003C30022380F83D300268936823F47F4336
:1026F00023F0770393600B68602B4CD029D8402BD4
:1027000054D00CD9502B22D1CA6849680068FFF711
:1027100069FE50212068FFF78AFE002005E0202B8B
:102720000DD009D9302B0AD00120012384F83D3087
:10273000002384F83C3010BD0BB1102B05D1194695
:102740002068FFF774FE0020EFE70120EDE701208D
:10275000EBE7B3F5805F34D0B3F5005F0CD1CB6805
:102760004A6889680068FFF7A7FF2268936843F406
:10277000804393600020D8E7702B24D1CB684A684F
:1027800089680068FFF798FF2268936843F0770331
:1027900093600020C9E7CA6849680068FFF734FE03
:1027A00060212068FFF743FE0020BEE7CA68496841
:1027B0000068FFF717FE40212068FFF738FE002071
:1027C000B3E70020B1E70120AFE702207047000027
:1027D00090F83C20012A34D010B40346012280F83E
:1027E0003C20022280F83D2002685068946820F066
:1027F000700C086840EA0C0050601A681248824267
:1028000012D0B2F1804F0FD0A0F57C4082420BD0A5
:1028100000F58060824207D000F58060824203D0DC
:1028200000F59A30824204D124F0800449682143A3
:102830009160012283F83D20002083F83C0010BC09
:1028400070470220704700BF00000140704770478A
:1028500010B504460268136923F44053C1680B4362
:102860001361836802691A4343691A43C3691A43AF
:102870000168CB6823F4164323F00C031343CB60A9
:102880000268536923F4407381690B435361036801
:10289000314A934206D002F58062934202D0FFF79C
:1028A00081FD01E0FFF78EFDE369B3F5004F29D00C
:1028B0000021031849411B1841F10001C90041EAF8
:1028C0005371DB00181863684FEA83024FEA937371
:1028D00041F10001FDF774FC204AA2FB00314909D7
:1028E000642303FB11031B013233A2FB03235B09A7
:1028F00003F0F00202EB011203F00F03216813440E
:102900008B6010BD0023021843EB0301121841F144
:102910000001C90041EA5271D200101841F10001D2
:10292000626892185B41FDF74BFC0C4AA2FB003138
:102930004909642303FB1103DB003233A2FB0323A9
:102940005B095A0002F4F87202EB011203F007036C
:10295000216813448B60D4E7001001401F85EB51C0
:102960002DE9F84305460F4616469946DDF82080C6
:102970002B681C6837EA04040CBF01240024B4420D
:102980002DD1B8F1FF3FF3D0B8F1000F05D0FEF71D
:102990008FFDA0EB09004045EAD92A6802F10C033B
:1029A00053E8003F23F4D0730C3242E80031002991
:1029B000F3D12A6802F1140353E8003F23F0010326
:1029C000143242E800310029F3D1202385F83D304C
:1029D00085F83E30002385F83C30032000E00020DD
:1029E000BDE8F88358B310B5044690F83D300BB3FA
:1029F000242384F83D302268D36823F40053D36045
:102A00002046FFF725FF2268136923F490431361E2
:102A10002268536923F02A0353612268D36843F480
:102A20000053D36000202064202384F83D3084F8D4
:102A30003E3010BD80F83C30FEF710FCD8E7012096
:102A400070472DE9F04182B01E4690F83D30DBB270
:102A5000202B54D104460D469046002953D0002A1D
:102A600053D090F83C30012B51D0012380F83C30FA
:102A700000230364212380F83D30FEF719FD07464B
:102A8000A4F82480A4F82680A368B3F5805F05D05D
:102A90004FF00008002384F83C3012E0236913B1A2
:102AA0004FF00008F6E7A8460025F3E738F8023BA8
:102AB0002268C3F308035360E28C92B2013A92B2E7
:102AC000E284E38C9BB273B100963B4600228021E6
:102AD0002046FFF745FFE0B9002DE7D015F8012BA0
:102AE00023685A60E8E700963B46002240212046D2
:102AF000FFF736FF78B9202384F83D3000E002204C
:102B000002B0BDE8F0810120FAE70120F8E70220D9
:102B1000F6E70320F4E70320F2E700002DE9F04791
:102B2000089D0C46002B4ED194468C458646B2FA41
:102B300082F262D94AB1C2F12003914020FA03F334
:102B40000CFA02FC194300FA02FE4FEA1C471FFA76
:102B50008CF6B1FBF7F44FEA1E4307FB141143EA6E
:102B6000014304FB06F199420AD91CEB030304F16B
:102B7000FF3080F01381994240F21081023C63449F
:102B8000591A1FFA8EF3B1FBF7F007FB101143EA55
:102B9000014300FB06F69E420AD91CEB030300F139
:102BA000FF3180F0FD809E4240F2FA80634402389B
:102BB0009B1B40EA044000211DB1D3400022C5E91F
:102BC0000032BDE8F0878B4205D90DB1C5E900019F
:102BD00000210846F5E7B3FA83F1002946D1A34264
:102BE00002D39042C0F0F180861A64EB0303012007
:102BF000002DE6D0C5E90063E3E7002A40F09180AC
:102C0000A1EB0C044FEA1C481FFA8CF70121B4FB1E
:102C1000F8F64FEA1E4308FB164443EA044307FB59
:102C200006F0984208D91CEB030306F1FF3402D2E8
:102C3000984200F2CE8026461C1A1FFA8EF3B4FB8F
:102C4000F8F008FB104443EA044300FB07F79F42F7
:102C500008D91CEB030300F1FF3402D29F4200F2BB
:102C6000B1802046DB1B40EA0640A5E7C1F1200603
:102C70008B4022FA06F71F4320FA06FC04FA01F300
:102C800043EA0C03F44000FA01F8380C4FEA134908
:102C9000B4FBF0FE1FFA87FC00FB1E4449EA044423
:102CA0000EFB0CF9A14502FA01F20AD93C190EF10A
:102CB000FF3A80F08580A14540F28280AEF1020E9D
:102CC0003C44A4EB09041FFA83F9B4FBF0F300FBC6
:102CD000134449EA044403FB0CFCA44507D93C19FE
:102CE00003F1FF3068D2A44566D9023B3C4443EA75
:102CF0000E40A0FB0293A4EB0C049C42CE469C46E3
:102D000052D34FD055B1B8EB0E0364EB0C0404FA68
:102D100006F6CB40CC401E43C5E900640021BDE867
:102D2000F087C2F1200320FA03F10CFA02FC24FA26
:102D300003F394400C434FEA1C4800FA02FE1FFACA
:102D40008CF7B3FBF8F008FB1031230C43EA014386
:102D500000FB07F1994208D91CEB030300F1FF3691
:102D60002CD299422AD9023863445B1AA4B2B3FB2D
:102D7000F8F108FB113344EA034401FB07F3A342D3
:102D800008D91CEB040401F1FF3613D2A34211D978
:102D900002396444E41A41EA004138E70446EFE6A8
:102DA000084605E7C845ADD2B9EB020E63EB070C48
:102DB0000138A7E73146EDE7034698E73046D4E708
:102DC000D6467EE7634402384CE70646234608466B
:102DD0000EE7023E63442FE7024B0146186800F0FD
:102DE00003B800BF2C0400202DE9F04F01F10B05C2
:102DF000162D85B0064623D8102900F2BC8000F0BD
:102E0000A1FA102518230221B84F3B44A3F1080270
:102E10005C68944200F029816368E26823F0030350
:102E20002344A168CA6091605A6842F001023046AA
:102E30005A60083400F08CFA204605B0BDE8F08FE7
:102E400035F0070500F19780A94200F2948000F068
:102E500079FAB5F5FC7FC0F071816B0A00F08F80C4
:102E6000042B00F22D81AB0903F1390103F1380C79
:102E7000CB009E4F3B44A3F108005C68A04206D102
:102E80000CE0002A80F2EE80E468A04206D063687D
:102E900023F003035A1B0F2AF3DD6146DFF850C20B
:102EA0003C69644500F0CC80626822F00302531B49
:102EB0000F2B00F34781002BC7E904CC80F234814B
:102EC000B2F5007F80F0D780D308786801334FEAED
:102ED000521E012202FA0EF2024357F833E0C4F800
:102EE00008E007EBC3000838E0607A6047F8334039
:102EF000CEF80C408B1001209840904245D81042EB
:102F000006D121F003014000104201F10401FAD082
:102F100007EBC1094C468E46D4F80C80444508D1D5
:102F2000DAE0002B80F2F080D8F80C80444500F005
:102F3000D380D8F8042022F00302531B0F2BF0DDBE
:102F40003046D8E9026408EB050145F00105C8F8F0
:102F50000450F460A66043F00104C7E904114C601A
:102F6000C1F808C0C1F80CC048F8023000F0F0F910
:102F700008F1080460E70C23336000245CE74FF499
:102F8000007340214FF03F0C73E7BC68636823F087
:102F90000309A94503D3A9EB05030F2B52DC554BBD
:102FA000DFF854B11B68082003F1100800F096FB0D
:102FB000DBF8003001900133A84404EB090205D08E
:102FC00008F1FF388044434203EA0808414630468E
:102FD000029200F06BFBB0F1FF3F029A824600F0D4
:102FE000CC80824200F2C780444B0199186840446B
:102FF0001860844601F1FF3140F0EB801AEA010FBE
:1030000040F0E780D7F808A0C84448F00102CAF8A9
:1030100004203B4B1968814238BF1860394B19684E
:10302000814238BF1860544622F00308A845A8EB37
:10303000050301D30F2B05DC304600F089F99CE72E
:103040007A6857E7621943F0010345F001056560AE
:103050003046BA60536000F07BF90834204605B072
:10306000BDE8F08FE2682344DBE6DC68A3427FF42E
:10307000D3AE023112E7B2F5206F4FEA522374D378
:10308000142B00F2098103F15C00C0005B3307EBF5
:10309000000E3858AEF1080E864503D1E2E0806894
:1030A000864504D0436823F003039342F7D8D0F851
:1030B0000CE07A68C4E9020ECEF80840C46019E753
:1030C000142B5DD9542B00F2EF802B0B03F16F0111
:1030D00003F16E0CCB00CCE60EF1010E1EF0030FD7
:1030E00004F108047FF418AF55E000BF1800002079
:1030F00020000020EC0700200C000020BC0700206E
:10310000E8070020E4070020424444465368D8F80A
:103110000C1043F00103536054F8083F3046D96067
:103120008B6000F015F987E622443046536843F07F
:1031300001035360083400F00BF97DE6E90805F15E
:10314000080361E6611945F00105656043F001057A
:10315000C7E904113046C1F808C0C1F80CC04D6081
:10316000A35000F0F5F8083466E6930903F139003E
:10317000C00038338BE7BC4223D0BC68626853E799
:1031800003F15C0103F15B0CCB0072E659F80839DE
:103190004B4540F0D28011F0030F01F1FF31F5D122
:1031A0007B6823EA00037B60400098423FF6EDAE67
:1031B00018B9EAE640000EF1040E1842FAD0714642
:1031C000A6E65F4B0199186808EB000C0139C3F8BB
:1031D00000C0DBF8000001301BBFAAEB0202624412
:1031E000CBF800A01A601AF00702CDE9022342D002
:1031F000C2F10802019B9244D044134408EA010042
:103200001A1A02EA010B5946304600F04FFA421CE6
:10321000039B76D0A0EB0A0000EB0B081868C7F8F8
:1032200008A048F001025844BC42CAF804201860C3
:103230003FF4EFAEB9F10F0F40D96168A9F10C026C
:1032400022F0070201F0010111436160A1184FF063
:10325000050C0F2AC1F804C0C1F808C046D8DAF836
:103260000420D6E69A104FF001087B6808FA02F2B3
:103270001A437A601EE7019B0AEB08020A409A1A79
:1032800002EA010B5946304600F010FA431C039B3A
:10329000C0D1DDF808B0C1E7542B13D8130B03F1EC
:1032A0006F00C0006E33F2E6B3F5AA7F13D8EB0BC4
:1032B00003F1780103F1770CCB00DAE50123CAF8BA
:1032C0000430B9E6B3F5AA7F23D8D30B03F1780015
:1032D000C0007733DBE640F25452934223D8AB0C64
:1032E00003F17D0103F17C0CCB00C2E5304604F113
:1032F0000801019300F09CFA019BD7F808A0186818
:10330000ADE7029A083A9044A8EB0A084FF0000B88
:1033100084E740F2545083420BD8930C03F17D00B4
:10332000C0007C33B3E64FF47E737F214FF07E0CF8
:103330009FE54FF47E707E23A9E67B6834E700BFEB
:10334000BC070020014800F003BA00BF2C09002090
:10335000014800F0FFB900BF2C0900200CB410B5E3
:103360001F4B00291C689CB035DB4FF40273ADF88D
:103370001430029006901FAB18D001394FF6FF723F
:1033800004910791ADF8162002A91E9A01932046D8
:1033900000F050FB421C01DA8B232360029B0022C9
:1033A0001A701CB0BDE8104002B070474FF6FF72B3
:1033B00004910791ADF8162002A91E9A01932046A8
:1033C00000F038FB431C01DA8B2323601CB0BDE8FE
:1033D000104002B070478B2323604FF0FF30F5E7B9
:1033E0002C0400200EB410B59DB06FF000411FAB4F
:1033F00004910791094953F8042B02900690084C58
:103400000868019302A9059400F014FB029B0022B6
:103410001A701DB0BDE8104003B070472C040020A6
:103420000802FFFF024A0349034800F0C9B800BF81
:103430002004002075560008300400200C4B416821
:10344000994210B5044601D002F014F9A168094B65
:10345000994202D0204602F00DF9E168064B9942EC
:1034600004D02046BDE8104002F004B910BD00BFF2
:10347000F007002058080020C00800202DE9F8437C
:10348000314C324B3248DFF8CC90DFF8CC80334FF0
:103490001860002529460423082204F15C00304E00
:1034A000E360C4E90055C4E90455A5606566A561FB
:1034B00000F0AAF804F15800C4E90749C4E90987F3
:1034C000E66200F041F92946264B6367082204F1C1
:1034D000C400C4E91A55C4E91E552567C4F8CC5088
:1034E000C4F8805000F090F804F1680304F1C000C3
:1034F000C4F88430C4E92298C4E9247600F024F9A1
:10350000194BC4F8DC30294604F596700822C4E94A
:103510003455C4E93855C4F8D850C4F83451C4F807
:10352000E85000F071F804F1D003C4E93D87C4F815
:10353000F09004F59470C4F8FC60C4F8EC30BDE879
:10354000F84300F001B900BFF0070020280900206F
:1035500025340008B5580008D95800081959000842
:103560003D590008090001001200020010B5044690
:103570000A4800F0EDF8636B23B9094B094A1B6850
:10358000626323B1BDE81040044800F0E3B8FFF7E0
:1035900075FFBDE81040014800F0DCB83409002098
:1035A000280900203D340008014800F0D1B800BFD0
:1035B00034090020014800F0CDB800BF34090020D4
:1035C0002DE9F84380460F4616464FF00009D6E92C
:1035D0000154013D11D4A389012B05F1FF3508D910
:1035E000B4F90E300133214603D04046B84749EACA
:1035F00000096B1C04F16804EDD13668002EE6D199
:103600004846BDE8F88300BF830730B547D0541E55
:10361000002A3ED0CAB2034601E0013C39D303F888
:10362000012B9D07F9D1032C2CD9CDB205EB052533
:103630000F2C05EB054535D9A4F1100222F00F0C33
:1036400003F1100EE6444FEA121C1A46156055604D
:103650009560D56010327245F8D10CF1010214F07A
:103660000C0F03EB021204F00F0C13D0ACF10403A7
:1036700023F003030433134442F8045B9A42FBD162
:103680000CF003042CB1C9B21C4403F8011B9C428A
:10369000FBD130BD64461346002CF4D1F9E7034654
:1036A0001446C0E71A46A446E0E700BF38B5074D08
:1036B0000022044608462A60FDF75EFE431C00D047
:1036C00038BD2B68002BFBD0236038BD3C0900209F
:1036D000014B1868704700BF2C040020082802D155
:1036E0004FF48050704708B5FFF7F2FF16230360D0
:1036F0004FF0FF3008BD00BF70B50F4B0F4DAB4210
:10370000A3EB050607D0B610002455F8043B01349E
:103710009847A642F9D805F0BBFD094D094B5E1B41
:10372000AB424FEAA60606D0002455F8043B01340C
:103730009847A642F9D870BDD0960008D0960008E8
:10374000D0960008D8960008704700BF704700BFA9
:10375000704700BF704700BF024B13B1024800F032
:1037600005B8704700000000695A000800230146B0
:103770001A46184602F0C0B92DE9F843064608205B
:103780008946FFF7ABFFDFF89C8005463046FFF720
:10379000D9FDD8F808305F6827F00307A7F11104B6
:1037A000A4EB09042C44B4FBF5F4013C05FB04F440
:1037B000A54208DC00213046FFF778FFD8F8083032
:1037C0003B44984205D03046FFF7C2FD0020BDE8DB
:1037D000F88361423046FFF769FF01300FD0124A8B
:1037E000D8F808303F1B47F001075F601368304688
:1037F0001B1B1360FFF7ACFD0120BDE8F88300211F
:103800003046FFF753FFD8F80820831A0F2BDADD74
:1038100043F001035360054B03491B68C01A08605D
:10382000D1E700BF18000020BC0700200C000020DA
:1038300000297DD0F8B50C460646FFF783FD54F805
:10384000042C794FA4F1080522F0010105EB010CCD
:10385000B868DCF80430604523F0030300F088808A
:10386000D207CCF8043032D454F8082CAD1A1144E5
:10387000AA6807F1080082426BD00CEB0304D4F86D
:1038800004E0EC68D4601EF0010FA26000F08980B3
:1038900041F001036B60CCF80010B1F5007F24D239
:1038A0007868CB080122490901338A40024357F85E
:1038B00033107A6007EBC302083AC5E9021247F8F1
:1038C0003350CD603046BDE8F840FFF741BD0CEB0A
:1038D00003025268D2072CD541F00103B1F5007FF5
:1038E00044F8043CCCF80010DAD3B1F5206F4FEA6D
:1038F000512358D28B0903F1390003F13802C30078
:10390000F818FB580838984203D166E09B68984243
:1039100004D05A6822F003028A42F7D8D868C5E971
:1039200002308560DD603046BDE8F840FFF710BD2D
:103930007047194407F10800DCF80830834243D08F
:10394000DCF80C20DA60936041F001036B60695091
:10395000A3E70CEB03025268D0075FD40B44DCE909
:103960000212CA60916043F001026A60EB50A9E75D
:103970000B44D10707D454F8082CAD1A1344D5E9E9
:103980000212CA60916043F001026A60274ABD607A
:1039900012689A4296D8264B30461968FFF7ECFE1B
:1039A00090E71944C8E7142B08D9542B1DD80B0BEA
:1039B00003F16F0003F16E02C300A1E703F15C00A5
:1039C00003F15B02C3009BE741F001033D617D61B0
:1039D000A860E8606B60695074E779689210012410
:1039E00004FA02F20A437A6099E7B3F5AA7F06D88F
:1039F000CB0B03F1780003F17702C30080E740F2BC
:103A00005452934206D88B0C03F17D0003F17C02E3
:103A1000C30075E74FF47E737E2271E741F0010326
:103A20006B60CCF800104DE718000020100000205B
:103A3000EC0700202DE9F04FDDB00C4609919146CE
:103A40000D93834601F0B8FF036819931846FCF7FD
:103A500037FC0822179000212CA8FFF7D5FDA38979
:103A6000180603D52369002B00F09D870023CDE9BC
:103A70003133CDE91A33CDE91C33129318930A93ED
:103A800000240023CDE9143433AA309206925E4616
:103A9000CDF81C90079F754BD3F8E44001F086FFEA
:103AA00003462CA800903A4628A93046A047002893
:103AB00000F0A980C0F29F80289A252A034601D0F1
:103AC0001F44E8E7079BB7EB0309054640F0A080D9
:103AD00000238DF897309A460B937B787C1C4FF02F
:103AE000FF3B0134A3F120025A2A00F2C180DFE833
:103AF00012F0C002BF00BF00BC02BF00BF00BF0089
:103B00006A00BF00BF0014022302BF001F02D702D9
:103B1000BF00CA025B005B005B005B005B005B00F8
:103B20005B005B005B00BF00BF00BF00BF00BF00C9
:103B3000BF00BF004301BF008E01F00243014301FB
:103B40004301BF00BF00BF00BF00B802BF00BF00FD
:103B50002802BF00BF00BF00B701BF00A502BF0021
:103B6000BF001307BF00BF00BF00BF00BF00BF0002
:103B7000BF00BF004301BF008E01EE0143014301BE
:103B800043016702EE017E00BF008902BF0071029F
:103B9000370793027E00BF00B7017C000E07BF000D
:103BA000BF003B07BF007C00A3F13002002114F8E6
:103BB000013B01EB810102EB4101A3F13002092A33
:103BC000F5D90B918EE7304601F0F6FE43681C9361
:103BD0001846FCF775FB1D900546304601F0ECFEDB
:103BE00083681A93002D40F02986237879E723789B
:103BF0004AF0200A75E7082200212CA8FFF704FDEF
:103C000001231F4447E7079BB7EB0309054614D080
:103C1000DDE90623C2E90039329B4B443293319BE4
:103C20000133072B319317DC1346083306930A9BA5
:103C30004B440A93002D7FF44BAF329B002B41F095
:103C40002582099B9B8903F04003002B41F02E84C1
:103C50000A985DB0BDE8F08F099930AA304602F0AD
:103C6000D9FF0028EDD133AB0693E0E754050020DF
:103C7000CDE90E34002BE0D000228DF80C31CDE9D7
:103C8000102201230893984643AB8DF897200C929D
:103C90009346139207931AF0020302D00899023157
:103CA00008911AF0840405D10B9908980D1A002D7B
:103CB00000F3BC83329F82B1069801224260319AA0
:103CC000013201370DF19701072A329731920160D5
:103CD00000F3078402460832069283B1319B0699AD
:103CE000013326AA02370A60072B4FF002023297EF
:103CF00031934A6000F3E9830B4608330693802C26
:103D000000F07982ABEB0805002D00F3B9821AF4BC
:103D1000807F40F0F581DDE906231360319BC2F816
:103D2000048001334744072B3297319300F310830B
:103D30001346083306931AF0040F05D00B9B089A1C
:103D40009C1A002C00F3DC83DDE90A3208998A42D0
:103D5000ACBF9B185B180A93002F40F0C58200236C
:103D600031930C9B1BB10C993046FFF761FD33ABCF
:103D700006930F9B07938DE6CDE90E340D9B073319
:103D800023F00702F2E80234CDE91434DDE91445EA
:103D900025F0004321932094DDE920780D92BC4B5F
:103DA0004FF0FF3238464146FCF7E8FF002840F06C
:103DB0005385B74B4FF0FF3238464146FCF7C0FF02
:103DC000002840F049850022002320462946FCF7C0
:103DD000ADFF002841F045809DF89720AD4CAE4BDB
:103DE0002AF0800A0E994729C8BF1C460023CDE956
:103DF0001033032107940C93089188469B46139334
:103E0000002A3FF448AF089B0133089343E7432B54
:103E1000CDE90E3403D01AF0100F00F0AA850D9FE3
:103E2000082200212EA843ACFFF7EEFB57F8042B25
:103E30002EAB2146304601F02BFEB0F1FF3F80460D
:103E400001F02F8320EAE0730D9708930022CDE95B
:103E5000102207948DF897200C92934613921AE73C
:103E60000D9FCDE90E3400238DF8973057F8043BB1
:103E70000793002B00F0A6850E9B532B00F0528772
:103E80001AF01003109340F04D87BBF1FF3F01F093
:103E9000F680109907985A46FCF7B2F90C90002862
:103EA00001F03F830C9B079A0D97A3EB020828EAC9
:103EB000E873DDF840B0089373239DF89720CDF8A0
:103EC0004CB0CDF844B0CDF830B00E9398E71AF06E
:103ED000200FCDE90E3400F004810D9B073323F051
:103EE00007031A46596852F8083B0D920A46002902
:103EF000C0F25184BBF1FF3F00F0D78253EA0201C8
:103F00002AF0800540F0D282BBF1000F40F0D3824E
:103F1000AA465CABD846079344E00D9B53F8042BAC
:103F20000B92002A80F25E840B9A0D9352420B9200
:103F300023784AF0040AD4E52B238DF897302378B0
:103F4000CFE5CDE90E344AF0100A1AF0200200F055
:103F500014840D9B073323F0070319465A6851F860
:103F6000083B0D912AF4806500210020BBF1FF3F42
:103F70008DF8970000F0228153EA020025F0800AB4
:103F800040F01B81BBF1000F40F0B9860029C0D181
:103F900015F001081BBF30238DF86F315CAB0DF2BB
:103FA0006F130793C3454FF000035946B8BF41460E
:103FB000CDE910339DF897200C93089113931FE7D8
:103FC0002378682B03BF63784AF4007A01344AF0FF
:103FD000400A86E51AF0200F0F9440F025841AF06D
:103FE000100F40F028871AF0400F41F02A801AF491
:103FF000007F00F020870D9B0A9953F8042B0D9346
:104000001170B6E623786C2B03BF63784AF0200A60
:1040100001344AF0100A64E50D9A0F9452F8043BFB
:104020000D9247F63002ADF8982078201B4A18927E
:104030004AF00205002202210E9096E7CDE90E34E7
:104040004AF0100515F0200200F088830D9B07331D
:1040500023F0070319465A6851F8083B0D910121D6
:1040600083E723784AF0080A3BE523784AF0010AFF
:1040700037E59DF89730002B7FF4B7AD20238DF8FE
:10408000973023782DE523784AF0800A29E500BF90
:10409000FFFFEF7FD0920008D4920008E092000862
:1040A000214611F8013B2A2B01F0C782A3F130020F
:1040B000092A0C464FF0000B3FF614AD14F8013BF3
:1040C0000BEB8B0B02EB4B0BA3F13002092AF5D95A
:1040D00008E54AF0100A1AF0200FCDE90E347FF4FB
:1040E000FCAE1AF0100F0D9A40F08D831AF0400FBD
:1040F00000F0858332F9043B0D92DA171146F6E69B
:104100000E9B652B40F33481DDE91401002200236E
:10411000FCF702FE002800F03782319B0699924A94
:104120000A60013301370122072B329731934A602D
:1041300000F3EB850B4608330693279B129A9342B4
:1041400080F24B83179B069A19991F44C2E900130A
:10415000319B32970133072B319300F317841346B9
:1041600008330693129B5C1E002C7FF7E4AD102CE5
:10417000319B41F33082DFF8F491069ADDF8248018
:10418000CDF85890102504E00832103C102C40F374
:10419000288601331037072BC2E90095CDE9313766
:1041A000F2DD30AA4146304602F034FD002840F0EE
:1041B000A380DDE9313733AAE7E75546012900F04E
:1041C0007581022900F01E815CAC03F00701DB0859
:1041D00043EA4273D208303153EA0207204604F81A
:1041E000011DF2D1EA07079400F157825CABAA46A1
:1041F000A3EB0408D6E60B9B089A9D1A002D7FF7C7
:1042000081AD102D319B41F356815848DDF818904F
:104210001690394610241A46074604E0103D102D2A
:1042200009F1080915DD01321031072AC9E90074C6
:10423000CDE93121F2DD099930AA30460DF1CC09E2
:1042400002F0E8FC002857D1103D102DDDE93121A6
:10425000E9DCCDF818900F461346069A16991160BE
:1042600001332F44072BCDE93137556000F3C78563
:104270001346ABEB08050833002D06937FF747ADD7
:104280003A4A319B1692102D1FDD069A099C4FF079
:10429000100B04E0103D102D02F1080214DD013373
:1042A00032491037072BC2E9001BCDE93137F1DD68
:1042B00030AA2146304602F0ADFCE8B9103D102D81
:1042C000DDE9313733AAEADC0692069A16991160C5
:1042D00001332F44072BCDE93137556000F331828C
:1042E00013460833069312E5099930AA304602F0C6
:1042F00091FC00283FF433ADB3460C9B002B3FF4F8
:10430000A0AC0C995846FFF793FA099B9B8903F0E0
:1043100040039AE4179B0698199CDA19C0E90043F8
:10432000319B32920133072B319300F3CC8600F19D
:1043300008080029C1F24C800799C8F800101299AA
:10434000C8F8041001338F18072BCDE9313755DD3C
:10435000099930AA304602F05DFC0028CCD133AB7D
:10436000329F0693E7E400BF1093000814930008FF
:10437000129B012B40F39F81DDE90623319D1360E1
:10438000013501370123072D32973195536000F332
:10439000178202F10808179B199A01351F44072D4F
:1043A000C8E90023CDE9315700F3FD8108F1080881
:1043B000DDE9140100220023FCF7AEFC002840F0E8
:1043C0008E81129B079C0135013B01341F44072D50
:1043D000C8F800403195C8F80430329700F3D08314
:1043E00008F108081B9BC8F8043001351F44072D4D
:1043F0002AABCDE93157C8F80030A9DC08F1080331
:10440000069398E4189C5CA903F00F001B09205C3C
:1044100001F8010D43EA0273120953EA0200F3D1D5
:104420005CAB0791AA46A3EB0108BBE5102DDDE9C3
:104430003121DFF8D09227DDCDE91E481027069CF8
:10444000DDF82480169304E0103D102D04F10804DB
:1044500015DD01321031072AC4E90097CDE9312179
:10446000F2DD30AA4146304633AC02F0D3FB0028DF
:104470007FF442AF103D102DDDE93121E9DC0694D7
:10448000169BDDF87C801E9C069801326F18072A67
:10449000CDE93127C0F80090456000F3EF83024674
:1044A000083206929DF8972005E455460A2B72F1D2
:1044B000000180F07F8330338DF86F310DF26F1380
:1044C000AA464FF0010807936CE5099930AA3046D7
:1044D00002F0A0FB00287FF40FAF33AB329F0693AE
:1044E0000DE40999169330AA304602F093FB002898
:1044F0007FF402AF33AB0693329F169BFFF7EDBB01
:10450000102C319BDFF8FC9129DD4A46DDF818803C
:10451000DDF824A0B1461025164604E0103C102C0E
:1045200008F1080816DD01331037072BC8E90065CC
:10453000CDE93137F2DD30AA514648460DF1CC08BD
:1045400002F068FB002840F04284103C102CDDE9AA
:104550003137E8DC3246CDF818804E4691460133BB
:10456000069A2744072BC2E90094CDE931377FF73B
:10457000EBAB099930AA304602F04CFB00287FF4DF
:10458000BBAE329FFFF7E0BB2799002940F387833A
:10459000109C129A079B9442A8BF1446002C1A4400
:1045A0000E920DDD069AC2E90034319B0133274497
:1045B000072B3297319300F3428613460833069354
:1045C000109D002CA8BF2D1B002D00F30E82DDF8DE
:1045D0001CB0109B1AF4806F9B4440F02C82279CE7
:1045E000129B9C4203DB1AF0010F00F07A84069BB9
:1045F0001799199A1A6059601A46319B01330F4472
:10460000072B3297319300F37086134608330693D5
:10461000129B1C1B0E9BA3EB0B05A542A8BF2546B6
:10462000002D0EDD319B069A01332F44072BC2F873
:1046300000B055603297319300F38E8613460833ED
:104640000693002DA8BF641B002C7FF774AB102CC1
:10465000319B40F3C087DFF8B090069ADDF82480E4
:10466000CDF85890102504E00832103C102C40F38F
:10467000B88301331037072BC2E90095CDE93137F4
:10468000F2DD30AA4146304602F0C4FA00287FF439
:1046900033AEDDE9313733AAE7E7302900F09A83FA
:1046A000079A3023023802F8013C5CABAA46A3EB20
:1046B0000008079076E41AF0010F7FF45DAEDDE9A3
:1046C0000623319D1360013501370123072D3297F1
:1046D0003195536000F3548202F1080882E6129B80
:1046E0005C1E002C7FF77EAE074B1693102C40F318
:1046F0003B82CDF818A0DDF824B04FF010099A469F
:104700000AE000BF249300081493000808F1080889
:10471000103C102C40F3268201351037072DC8E9D4
:1047200000A9CDE93157F1DD30AA5946304602F0F3
:1047300071FA00287FF4E0ADDDE931570DF1CC08C6
:10474000E6E7099930AA304602F064FA00287FF4BF
:10475000D3AD33AB329F0693FFF7D9BA15F01003F0
:104760000D995BD115F0400054D01A4651F8043B26
:104770000D919BB20121FFF7F8BB1AF010030D99C0
:1047800038D11AF0400031D01A4651F8043B0D914F
:104790009BB2FFF7E7BB5B4262EB420255462D201E
:1047A0000121FFF7E3BB099930AA304602F032FA43
:1047B00000287FF4A1ADDDE931570DF1CC08F7E514
:1047C000099930AA304602F025FA00287FF494AD0A
:1047D000DDE931570DF1CC08DDE51AF0010F3FF4AA
:1047E000AAAAAFE40D932378FFF77BB91AF40072FD
:1047F00040F02F8451F8043B0D91FFF7B3BB1AF43E
:10480000007F40F0358452F8043B0D92DA171146D0
:10481000FFF76DBB15F4007240F0228451F8043BA1
:104820000D910121FFF7A1BB0D9B0A9853F8041BC2
:104830000D93C217C1E90002FFF79BBA1A9B002B28
:104840003FF4D3A91A9B1B78002B3FF4CEA9237801
:104850004AF4806AFFF745B9DDE9140102460B46C8
:10486000FCF78CFA002840F041860E9B612B00F08B
:10487000FB84412B00F06E85BBF1FF3F00F03284DA
:104880000E9B23F02003472B04D1BBF1000F08BF80
:104890004FF0010BDDE914124AF48070002A1690E3
:1048A000CDF844A04FF00003C0F21585CDE92212E7
:1048B0001E930C930E9B413B252B00F22583DFE8D2
:1048C00013F01C04230323032303150419042303F7
:1048D00023032303230323032303230323032303A8
:1048E0002303230323032303230323032303230398
:1048F0002303230323032303230323032303230388
:104900002303230323032303230315041904CDE9FD
:104910000E345546FFF796BBCDE90E34AE4B1893D7
:104920001AF0200200F009810D9B073323F00703E2
:1049300019465A6851F8083B0D911AF0010F0AD038
:1049400053EA020107D00E998DF8991030214AF0F0
:10495000020A8DF898102AF480650221FFF705BB42
:10496000CDE90E34FFF7F1BACDE90E349B4B189325
:10497000D6E70D9B4FF0010853F8042BCDF82080AB
:104980008DF80C210D9343ACFFF760BA099930AA5A
:10499000304602F03FF900287FF4AEAC33AB329FD3
:1049A0000693FFF7DFBB40215846FEF71DFA099B2F
:1049B00018601861002800F04A86099A4023536164
:1049C000FFF754B8BBF1060FD8461A4628BF4FF080
:1049D00006089B460C93824BCDF82080CDE910222F
:1049E0000D9707931392FFF70BBA102D319B40F3ED
:1049F0000686DFF8F091069ADDF82480CDF858900D
:104A0000102404E00832103D102D40F33E820133A3
:104A10001037072BC2E90094CDE93137F2DD30AA17
:104A20004146304602F0F6F800287FF465ACDDE937
:104A3000313733AAE7E730465E4683461198CDF812
:104A40001CA03946DFF89C91DDF868A01D9B069AF2
:104A5000139F4FF0100878B3002F00F04A81013FF8
:104A60001C98C2E90003319801301944072832919B
:104A7000319000F3928008320E9C9AF80000A51B3A
:104A80008542A8BF0546002D0CDD31980130294430
:104A90000728C2E900653291319000F3BD819AF890
:104AA00000000832002DACBF441B0446002C13DC70
:104AB000064411980028CFD1002FD0D15B46B346D1
:104AC0001E460E9BCDF868A09B45DDF81CA0069203
:104AD0000F4628BF9B4682E5102C319840F37E8517
:104AE0004D46069304E0103C102C02F1080215DD3F
:104AF000013010310728C2E90098CDE93101F2DD1B
:104B0000099930AA584602F085F800287FF4F5ABE1
:104B1000103C102CDDE9310133AAE9DC069B15605D
:104B2000013021440728CDE93101546000F3778337
:104B30009AF8000008320644BBE71AF010030D99FA
:104B40000CD11AF0400005D01A4651F8043B0D91E3
:104B50009BB2F2E61AF4007240F0CD8151F8043BAA
:104B60000D91EAE6DDF818A0169BC8F80030013573
:104B70002744072DCDE93157C8F804407FF730AC02
:104B8000099930AA304602F045F800287FF4B4AB0A
:104B9000DDE931570DF1CC0824E40999069330AAD8
:104BA000584602F037F800287FF4A7AB3299069BED
:104BB00033AA61E75CAC05F480690021CDE9075BAD
:104BC0000C96A346084F1A9E4FF0CC3A4FF00508BA
:104BD0008C464C4610E000BFF4920008E0920008BA
:104BE0000893000814930008CDCCCCCC0A2B72F1AA
:104BF000000233D34B462A46991841F10001A7FB26
:104C0000010525F0030000EB9500091A581A62F11E
:104C1000000E0AFB00F5A0FB079007FB0E5509F0FC
:104C2000010E0544AEFB080E40184FEA590930301A
:104C30000BF8010C49EAC5790CF1010C0BF1FF3BB3
:104C40006D08002CD2D031788C45CFD1BCF1FF0F4C
:104C5000CCD00A2B72F1000280F0F580079D1A96E5
:104C60005B465CAACDF81CB00C9EDDF820B0CDF8F8
:104C700048C0AA46A2EB0308FFF794B90999169316
:104C800030AA304601F0C6FF00287FF435AB33ABC5
:104C900006939DF89720329F169BFFF70CB8319B27
:104CA0000698984A0260013301370122072B329798
:104CB0003193426000F308810346083306930029CC
:104CC0007FF428AB129A0AF0010313433FF433A890
:104CD000179B06991998DA19C1E90003319B3292A2
:104CE0000133072B319300F3EE8101F10808FFF740
:104CF00023BB119801380AF1FF3A1190B0E601295F
:104D000055467FF45EAAFFF7D6BB099930AA304614
:104D100001F080FF00287FF4EFAA33AB329F0693A7
:104D2000FFF70BBA2EAC079B2993082200212046DF
:104D3000FEF76AFCBBF1FF3F00F098800025A84613
:104D40000CE043A9304600F0A3FE411C404400F0B3
:104D5000A883584508DC00F0E2838046299A52591E
:104D600023460435002AECD1B8F1000F00F09E80F4
:104D7000B8F1630F40F3958108F101013046FEF769
:104D800033F80790002800F08C83079B0C930822CF
:104D900000212046FEF738FC07990094434629AAD3
:104DA000304600F09BFE804540F05584079A0D97F1
:104DB000002302F808309B4628EAE873CDE910BBCF
:104DC0009DF897200893CDF84CB0FFF719B8CB4663
:104DD000FFF793BA079A5CABAA46A3EB0208FFF76A
:104DE000E1B80692069A1699116001332744072B01
:104DF0005460CDE931377EF79BAFFFF7A9BA099927
:104E000030AA304601F006FF00287FF475AA33ABC4
:104E1000329F0693FEF776BF0999069330AA58464B
:104E200001F0F8FE00287FF468AA9AF80000329991
:104E3000069B33AA36E60D9B0A9953F8042B1160A2
:104E40000D93FEF796BF1D9B1C99ABEB030B1A4607
:104E5000584600F077FD737803B101364FF0000C2F
:104E6000C8E62D228DF89720FEF7B8BF00230094E6
:104E700029AA1946304600F031FEB0F1FF3F8046C6
:104E800000F00F83079B29936EE70692069A169906
:104E9000116001332F44072BCDE93137556000F302
:104EA0000581134608330693FFF791BBCDE91088BF
:104EB0009DF897200D97CDF82080C346CDF84C8003
:104EC000CDF83080FEF79CBF099930AA304601F03A
:104ED000A1FE00287FF410AA33AB2799329F0693D6
:104EE000EDE60E9BA3EB0B05129B1C1BA542A8BF76
:104EF0002546FFF7A6BB51F8043B0D910246DBB2F5
:104F00001BE500BF109300085F460223CDE9003780
:104F10002EAB049329AB039327AB02933046DDE914
:104F2000222300F0FDFE0E9B0790672B00F03E82CF
:104F30000E9B472B00F0C3820E9B23F02004079B9F
:104F4000462C03EB070505D11B78302B00F0F682C9
:104F5000279F3D44DDE9220100220023FBF7DCFE10
:104F6000002800F050812B46079A9B1A1293472C79
:104F700000F03381462C00F0FF81279B0E9A10939E
:104F8000612A03F1FF33279300F05583412A40F053
:104F90002F8150220121002BB8BF109B8DF8A82033
:104FA000BABFC3F101032D222B22092B8DF8A920B2
:104FB00040F369820DF1BF05A74F2A461046A7FBB3
:104FC0000312D20802EB8201A3EB4101303100F859
:104FD000011C19466329134600F1FF32EEDC303321
:104FE00002F8013C831EAB4280F00C830DF1A90254
:104FF00013F8011B02F8011FAB42F9D15CAB181A80
:10500000A0F1AD031B93129B1B9A012B03EB02082B
:1050100040F35D82179B9844119B23F4806343F413
:10502000807A0023CDE9103328EAE87213930892BE
:105030001E9B002B40F0E0809DF897209B46FEF7DA
:10504000DFBE0D9B0A9953F8042B0D931180FEF7D8
:1050500090BE51F8043B0D910246DBB2FEF782BFD1
:1050600051F8043B0D910246DBB20121FEF77DBFF2
:1050700012F9043B0D92DA171146FEF738BF079874
:105080000D97FBF71DF98046FEF711BF099C30AA6A
:105090002146304601F0BEFDA38903F04003FEF730
:1050A000D4BD00230C9343AB079370E6099930AA53
:1050B000304601F0AFFD00287FF41EA933AB329FCC
:1050C0000693FFF784BA099930AA304601F0A2FD91
:1050D00000287FF411A9DDE9313227990DF1CC08C0
:1050E000FFF727B94FF0060BFFF7D4BB0BF1010711
:1050F00002230BE75F46032308E727AADDE9220125
:1051000000F03EFD00224FF07F53FBF79DFB002295
:10511000002380468946FBF7FFFD002840F0DC8134
:105120004E4B0893079FCDF848B00BF1FF3A3C4631
:10513000139605E000220023FBF7EEFDF8B9DA46EE
:10514000474B1094002240464946FBF77DFB0F4633
:105150000646FBF729FE0546FBF70CFB0B4602460D
:1051600039463046FBF7B8F9089BBAF1FF3F5B5D63
:1051700004F8013B0AF1FF3B80468946DAD1394BFE
:10518000DDF848B0139E0022404649462746FBF70B
:10519000EBFD002840F05A81324B40464946002240
:1051A000FBF7BAFD10B1E90700F15081BAF1000F29
:1051B000C0F267810AF101033B44302207F8012B5A
:1051C000BB42FBD1079A9B1A12930E9B23F020043B
:1051D000CDE62E9B079A9B1A1293279B10930333BD
:1051E00080F291800E9B023B0E93109B013B279314
:1051F0009DF838200021CEE62D228DF897204FF023
:10520000000BFEF700BE2E9BAB42BFF4ADAE3021CB
:105210005A1C2E9219702E9B9D42F9D8A4E609992A
:10522000069330AA584601F0F5FC00287FF465A8E3
:105230009AF800003299069B33AA064439E409998A
:1052400030AA304601F0E6FC00287FF455A833ABC5
:10525000329F0693FFF7B4B9CDCCCCCCF4920008C2
:10526000000030400000E03F78238DF89930302373
:105270008DF89830BBF1630F4AF00203119300F3ED
:10528000DA8000230C9343AB07934AF4817316939F
:10529000159B002B20DB00231E93DDE91434CDE9A0
:1052A00022340E9B612B7FF405AB27AADDE9220196
:1052B00000F066FC00224FF07F53FBF7C5FA002296
:1052C000002380468946FBF727FD002840F0048133
:1052D000A64B089326E70C93DDE91434229304F1DE
:1052E000004323932D231E93DBE7099930AA304610
:1052F00001F090FC00287EF4FFAF33AB279C329F77
:105300000693FFF785B9109B9B4505DA0E9A013B82
:10531000023A0E9227936BE7109B129A93424CDB52
:10532000119BDC0740F14981109B179A03EB02089F
:10533000119B580503D5109B002B00F30C8128EA24
:10534000E8730893DDF858A067230E9300231393A6
:1053500011936DE6582388E7099930AA304601F089
:1053600059FC00287EF4C8AF129B279C329F1C1B5F
:1053700033AB0693FFF765B9279A119B1092002A69
:1053800003F0010340F3418153EA0B0340F0C08076
:105390006623DDF840800E93119B5B0500F1DD80F4
:1053A00028EAE873DDF858A00893CFE7119BDA07E5
:1053B0007FF50FAFC5194724CCE5129B179A03EB75
:1053C0000208109B002B40F3FB8067230E93E3E75A
:1053D0004D4210311DDA664C1694102704E008F196
:1053E0000808103D102D16DD01331032072BC8E9D7
:1053F0000047CDE93132F2DD099930AA304601F09B
:1054000009FC00287EF478AFDDE931320DF1CC08DB
:10541000E7E75749169101331699C8F800102A4456
:10542000072BCDE93132C8F8045000F3DA8008F1D7
:105430000808FEF781BF0BF101013046FDF7D4FCEF
:10544000079000282DD0079B0C931EE7109B2E93EE
:10545000089B17F8012CD97B8A423B4609D13020A2
:1054600003F8010C2E9B5A1E2E9213F8012C914228
:10547000F6D0392A0BBF089A0132927AD2B203F8D9
:10548000012C3B469EE600293FD130228DF8AA2010
:105490000DF1AB02303302F8013B2AABD31A1B9358
:1054A000B1E5099A938943F0400393814FF0FF33AC
:1054B0000A93FEF7CDBB2E4A1692FEF7CEBE119B85
:1054C000DB077FF586AE079B0E9CDD1942E5119B3D
:1054D000DD077FF5A1AD9DE5264B244A0E99612994
:1054E00018BF1A460123089227931BE6159B224CEE
:1054F000002BB4BF2D229DF89720204BB8BF8DF80C
:1055000097202AF0800AFEF76DBC0DF1AA02C1E7D0
:10551000179BD518662305EB0B080E933CE7D8467E
:1055200022E47323D846CDF820B09DF897200D973C
:105530008346139011900E93FEF762BCDDE92201C1
:1055400000220023FBF7E8FB00287FF401ADC7F140
:1055500001072797FDE467230E931A990B78FF2B19
:1055600000F081800024109A20460DE0E0920008AF
:1055700014930008F4920008D8920008DC92000806
:1055800001300131FF2B08D0934206DAD21A4B7852
:10559000002BF5D10B780134F4E71A911190139494
:1055A0001092119A139BDDF858A013441D9A02FB28
:1055B000038828EAE87308933AE5DDF84080B7E607
:1055C000C3F10103984428EAE87308936723DDF8E0
:1055D00058A00E93BAE6264A169203E4244DFFF72C
:1055E0009EBA099930AA304601F014FB00287EF4D7
:1055F00083AEDDE931320DF1CC08FEF79DBE1C4AC9
:10560000169243E402231B93FDE453EA0B03DDF8F7
:1056100058A006D14FF001086623CDF820800E93E4
:1056200094E6179B5D1C05EB0B0828EAE8730893CA
:1056300066230E938AE67022ACE40D9A63780C46DA
:1056400052F8041B0D9241EAE17BFEF74ABA0C23A3
:10565000CBF800302AE7099A938943F04003B34618
:105660009381FEF74ABE00231393119399E700BF7D
:105670001493000870B5002940D006460C4610B1BE
:10568000436B002B3DD0636EDD0733D4A3899805AF
:105690003AD52146304600F04FF8E36A054633B16B
:1056A000E169304698470028B8BF4FF0FF35A3891D
:1056B0001A063BD4216B41B104F14003994202D058
:1056C0003046FEF7B5F800232363616C21B1304604
:1056D000FEF7AEF800236364FDF766FF636E0022F9
:1056E000DB07A2811ED5A06DFEF730F8FDF762FF43
:1056F000284670BDB4F90C30002BCAD100252846CD
:1057000070BDFDF733FFBEE7A06DFEF721F8B4F9D9
:105710000C30002BBDD1636ED907EFD4A06DFEF71E
:1057200019F8EBE7A06DFEF715F8DCE721693046C4
:10573000FEF77EF8BEE700BFB1F90C20F8B50746CA
:1057400010070C4646D4496842F400630029A3813F
:105750005CDDA56A002D3BD0002112F480523E682A
:1057600039605FD1E16901233846A847411C0246F0
:1057700068D0B4F90C30A56A5B0705D56368D21A06
:10578000236B0BB1E36BD21AE16900233846A847BB
:10579000451C49D13A681D2A3CD8304B134113F0BF
:1057A000010337D16360B4F90C302169216023F41F
:1057B0000061A181D9044ED4216B3E6041B104F156
:1057C0004003994202D03846FEF732F800232363A3
:1057D0000020F8BD0E69002EFAD00D680E6090070B
:1057E0000CBF4B690023AD1B8B600CE0D4F824C0C8
:1057F000E1692B4632463846E047B0F1000CA5EB94
:105800000C05664406DD002DF0DCE1E7E16B0029C4
:105810009FDCDDE7B4F90C3043F04003A3814FF087
:10582000FF30F8BD226DA7E7B4F90C302269226081
:1058300023F40062A281DB044FF000026260BBD55A
:105840002065B9E73B68002B93D01D2B01D0162BA8
:10585000E0D13E60BCE7002AAED1F1E7FEFFBFDF3A
:1058600038B50C46054608B1436B03B3B4F90C00D8
:1058700088B1636EDB0701D481050FD52846214628
:10588000FFF75AFF636EDA07054602D4A3899B052A
:1058900008D5284638BD0546284638BDA06DFDF719
:1058A00057FFEBE7A06DFDF755FF284638BDFDF724
:1058B0005DFEDBE710B50C46B1F90E1000F0A8F85C
:1058C000002803DB236D0344236510BDA38923F463
:1058D0008053A38110BD00BF2DE9F0410C46B1F902
:1058E0000C101F46CB05054616460BD421F48051FB
:1058F000A1813B46B4F90E1032462846BDE8F0417E
:1059000000F09CB8B4F90E100223002200F06AF8EF
:10591000B4F90C10EAE700BF10B50C46B1F90E104F
:1059200000F060F8B4F90C30421C0EBF23F4805331
:1059300043F480532065A38110BD00BFB1F90E1060
:1059400000F03EB840EA01039B0710B501D1032ADD
:1059500017D8844601F1FF3E07E01EF8011F03F847
:10596000011B541E29B19C4622466346002AF4D1ED
:1059700010BD9444002CFBD003F8011B6345FBD100
:1059800010BD8E468446DEF80040A4F1013323EAC0
:10599000040313F0803F71460EF1040EDAD1043A8D
:1059A000032A4CF8044BEED87146D3E7014B93F829
:1059B0002801704754050020004870474406002025
:1059C00038B5074D0022044608462A60FBF7C8FC9C
:1059D000431C00D038BD2B68002BFBD0236038BDA2
:1059E0003C09002038B50C46084D84461146204637
:1059F0001A4600232B606446FBF7BCFC431C00D016
:105A000038BD2B68002BFBD0236038BD3C0900203B
:105A100038B50C46084D8446114620461A460023E8
:105A20002B606446FBF77EFC431C00D038BD2B681E
:105A3000002BFBD0236038BD3C09002038B50C4654
:105A4000084D8446114620461A4600232B606446C2
:105A5000FBF778FC431C00D038BD2B68002BFBD033
:105A6000236038BD3C09002038B5074D074C2C1B7E
:105A7000A41005D0013C55F8043D9847002CF9D1FD
:105A8000BDE8384003F00ABCDC960008D896000850
:105A900070B5054684B05BB11C4669B10E4B284613
:105AA000D3F8E0602346B047431C0FD004B070BD6C
:105AB00000F582740029F1D1074A2346D2F8E0604C
:105AC00028460A4601A9B047431CEFD100228A2389
:105AD00022602B6004B070BD5405002000B583B077
:105AE000DDF810C0CDE9003C4FF0FF3301F072FF4C
:105AF00003B05DF804FB00BF2DE9F047DFF874A0A8
